:02000004085F93
:1080000000805F08FCFF5F080000060020000501FB
:0880100004017D1500000000D1
:108018001348144908B5884205D0134A824202D051
:10802800124B121A98471248124A0021124B121A80
:10803800984712481249884205D0124A824202D013
:108048000A4B121A984710481049884205D0104A1E
:10805800824202D0054B121A9847014808BD00BF5A
:10806800709D0710F0F55F08EC9D07102D0D11109D
:10807800EC9D0710E8AF0710A10E1110A88A3F0267
:10808800A8805F08B08A3F02B08A3F02B0805F08CC
:0C809800F0FF3F0219805F0800000000AC
:0880A8009C805F0880F73F0295
:1080B00081F0004102E000BF83F0004330B54FEA99
:1080C00041044FEA430594EA050F08BF90EA020F06
:1080D0001FBF54EA000C55EA020C7FEA645C7FEA99
:1080E000655C00F0E2804FEA5454D4EB5555B8BFBC
:1080F0006D420CDD2C4480EA020281EA030382EA2D
:10810000000083EA010180EA020281EA0303362DBE
:1081100088BF30BD11F0004F4FEA01314FF4801C91
:108120004CEA113102D0404261EB410113F0004FA3
:108130004FEA03334CEA133302D0524263EB43035A
:1081400094EA050F00F0A780A4F10104D5F1200EF8
:108150000DDB02FA0EFC22FA05F2801841F1000153
:1081600003FA0EF2801843FA05F359410EE0A5F127
:1081700020050EF1200E012A03FA0EFC28BF4CF058
:10818000020C43FA05F3C01851EBE37101F000450E
:1081900007D54FF0000EDCF1000C7EEB00006EEB1B
:1081A0000101B1F5801F1BD3B1F5001F0CD34908A5
:1081B0005FEA30004FEA3C0C04F101044FEA4452FC
:1081C00012F5800F80F09A80BCF1004F08BF5FEA83
:1081D000500C50F1000041EB045141EA050130BD63
:1081E0005FEA4C0C404141EB0101013C28BFB1F575
:1081F000801FE9D291F0000F04BF01460020B1FAC0
:1082000081F308BF2033A3F10B03B3F120020CDA92
:108210000C3208DD02F1140CC2F10C0201FA0CF070
:1082200021FA02F10CE002F11402D8BFC2F1200CD5
:1082300001FA02F120FA0CFCDCBF41EA0C0190408B
:10824000E41AA2BF01EB0451294330BD6FEA0404D4
:108250001F3C1CDA0C340EDC04F11404C4F12002BF
:1082600020FA04F001FA02F340EA030021FA04F3D1
:1082700045EA030130BDC4F10C04C4F1200220FA28
:1082800002F001FA04F340EA0300294630BD21FA66
:1082900004F0294630BD94F0000F83F4801306BF2C
:1082A00081F480110134013D4EE77FEA645C18BF20
:1082B0007FEA655C29D094EA050F08BF90EA020FB7
:1082C00005D054EA000C04BF1946104630BD91EAAF
:1082D000030F1EBF0021002030BD5FEA545C05D1B2
:1082E0004000494128BF41F0004130BD14F58004F1
:1082F0003CBF01F5801130BD01F0004545F0FE4165
:1083000041F470014FF0000030BD7FEA645C1ABF99
:10831000194610467FEA655C1CBF0B46024650EAD0
:10832000013406BF52EA033591EA030F41F40021FC
:1083300030BD00BF90F0000F04BF0021704730B582
:108340004FF4806404F132044FF000054FF0000157
:1083500050E700BF90F0000F04BF0021704730B518
:108360004FF4806404F1320410F0004548BF4042ED
:108370004FF000013EE700BF42004FEAE2014FEA42
:1083800031014FEA02701FBF12F07F4393F07F4F1D
:1083900081F06051704732F07F4208BF704793F020
:1083A0007F4F04BF41F40021704730B54FF4607433
:1083B00001F0004521F000411CE700BF50EA010236
:1083C00008BF704730B54FF000050AE050EA0102DF
:1083D00008BF704730B511F0004502D5404261EB4F
:1083E00041014FF4806404F132045FEA915C3FF490
:1083F000D8AE4FF003025FEADC0C18BF03325FEA2D
:10840000DC0C18BF033202EBDC02C2F1200300FADD
:1084100003FC20FA02F001FA03FE40EA0E0021FA02
:1084200002F11444BDE600BF70B54FF0FF0C4CF4F0
:10843000E06C1CEA11541DBF1CEA135594EA0C0FA2
:1084400095EA0C0F00F0DEF82C4481EA030621EADD
:108450004C5123EA4C5350EA013518BF52EA033518
:1084600041F4801143F4801338D0A0FB02CE4FF0CA
:108470000005E1FB02E506F00042E0FB03E54FF0FA
:108480000006E1FB03569CF0000F18BF4EF0010EF2
:10849000A4F1FF04B6F5007F64F5407404D25FEAEE
:1084A0004E0E6D4146EB060642EAC62141EA5551A1
:1084B0004FEAC52040EA5E504FEACE2EB4F1FD0CE3
:1084C00088BFBCF5E06F1ED8BEF1004F08BF5FEA61
:1084D000500E50F1000041EB045170BD06F0004613
:1084E00046EA010140EA020081EA0301B4EB5C04C0
:1084F000C2BFD4EB0C0541EA045170BD41F48011B8
:108500004FF0000E013C00F3AB8014F1360FDEBFDC
:10851000002001F0004170BDC4F10004203C35DAB8
:108520000C341BDC04F11404C4F1200500FA05F33B
:1085300020FA04F001FA05F240EA020001F00042DC
:1085400021F0004110EBD37021FA04F642EB060152
:108550005EEA430E08BF20EAD37070BDC4F10C047C
:10856000C4F1200500FA04F320FA05F001FA04F240
:1085700040EA020001F0004110EBD37041F100012C
:108580005EEA430E08BF20EAD37070BDC4F1200537
:1085900000FA05F24EEA020E20FA04F301FA05F29F
:1085A00043EA020321FA04F001F0004121FA04F247
:1085B00020EA020000EBD3705EEA430E08BF20EA17
:1085C000D37070BD94F0000F0FD101F00046400051
:1085D00041EB010111F4801F08BF013CF7D041EAD3
:1085E000060195F0000F18BF704703F000465200D7
:1085F00043EB030313F4801F08BF013DF7D043EAA8
:108600000603704794EA0C0F0CEA135518BF95EA5D
:108610000C0F0CD050EA410618BF52EA4306D1D1E4
:1086200081EA030101F000414FF0000070BD50EA03
:10863000410606BF1046194652EA430619D094EA8D
:108640000C0F02D150EA013613D195EA0C0F05D177
:1086500052EA03361CBF104619460AD181EA0301CB
:1086600001F0004141F0FE4141F470014FF0000083
:1086700070BD41F0FE4141F4780170BD70B54FF01E
:10868000FF0C4CF4E06C1CEA11541DBF1CEA13559E
:1086900094EA0C0F95EA0C0F00F0A7F8A4EB050480
:1086A00081EA030E52EA03354FEA013100F0888077
:1086B0004FEA03334FF0805545EA131343EA126340
:1086C0004FEA022245EA111545EA10654FEA0026F5
:1086D0000EF000419D4208BF964244F1FD0404F5AE
:1086E000407402D25B084FEA3202B61A65EB03050A
:1086F0005B084FEA32024FF480104FF4002CB6EBC7
:10870000020E75EB030E22BFB61A754640EA0C0046
:108710005B084FEA3202B6EB020E75EB030E22BF86
:10872000B61A754640EA5C005B084FEA3202B6EBC7
:10873000020E75EB030E22BFB61A754640EA9C0086
:108740005B084FEA3202B6EB020E75EB030E22BF56
:10875000B61A754640EADC0055EA060E18D04FEA14
:10876000051545EA16754FEA06164FEAC30343EAB4
:1087700052734FEAC2025FEA1C1CC0D111F4801F81
:108780000BD141EA00014FF000004FF0004CB6E77A
:1087900011F4801F04BF01430020B4F1FD0C88BF19
:1087A000BCF5E06F3FF6AFAEB5EB030C04BFB6EB24
:1087B000020C5FEA500C50F1000041EB045170BD17
:1087C0000EF0004E4EEA113114EB5C04C2BFD4EB44
:1087D0000C0541EA045170BD41F480114FF0000EC8
:1087E000013C90E645EA060E8DE60CEA135594EA44
:1087F0000C0F08BF95EA0C0F3FF43BAF94EA0C0F47
:108800000AD150EA01347FF434AF95EA0C0F7FF4BB
:1088100025AF104619462CE795EA0C0F06D152EA0F
:1088200003353FF4FDAE1046194622E750EA4106F3
:1088300018BF52EA43067FF4C5AE50EA41047FF404
:108840000DAF52EA43057FF4EBAE12E74FF0FF3C69
:1088500006E000BF4FF0010C02E000BF4FF0010C3A
:108860004DF804CD4FEA410C7FEA6C5C4FEA430CB3
:1088700018BF7FEA6C5C1BD001B050EA410C0CBF02
:1088800052EA430C91EA030F02BF90EA020F002064
:10889000704710F1000F91EA030F58BF994208BFCB
:1088A00090422CBFD8176FEAE37040F00100704788
:1088B0004FEA410C7FEA6C5C02D150EA013C07D1DF
:1088C0004FEA430C7FEA6C5CD6D152EA033CD3D02A
:1088D0005DF8040B704700BF8446104662468C4624
:1088E0001946634600E000BF01B5FFF7B7FF002857
:1088F00048BF10F1000F01BD4DF808EDFFF7F4FF80
:108900000CBF012000205DF808FB00BF4DF808ED0A
:10891000FFF7EAFF34BF012000205DF808FB00BF2D
:108920004DF808EDFFF7E0FF94BF012000205DF84F
:1089300008FB00BF4DF808EDFFF7CEFF94BF012004
:1089400000205DF808FB00BF4DF808EDFFF7C4FFFD
:1089500034BF012000205DF808FB00BF4FEA410C46
:108960007FEA6C5C02D150EA013C0AD14FEA430C29
:108970007FEA6C5C02D152EA033C02D14FF0000066
:1089800070474FF0010070474FEA4102B2F1E043F7
:1089900024BFB3F5001CDCF1FE5C0DD901F0004CE6
:1089A0004FEAC0024CEA5070B2F1004F40EB830036
:1089B00008BF20F00100704711F0804F21D113F162
:1089C0003872BCBF01F00040704741F480114FEA9B
:1089D0005252C2F11802C2F1200C10FA0CF320FA24
:1089E00002F018BF40F001004FEAC1234FEAD32341
:1089F00003FA0CFC40EA0C0023FA02F34FEA4303AB
:108A0000CCE77FEA625307D150EA01331EBF4FF033
:108A1000FE4040F44000704701F0004040F0FE404E
:108A200040F40000704700BF10F8012B11F8013B23
:108A3000012A28BF9A42F7D0D01A7047034613F88C
:108A4000012B002AFBD1181A0138704770B504F0C9
:108A5000E5F90025054E064CA41BA408AC4200D144
:108A600070BD56F8043B98470135F7E7CCFF3F024D
:108A7000F0FF3F0200F058B808B500F06DF8BDE80F
:108A8000084004F083B901F0A3B801F0A1B801F0E7
:108A9000ADB800000C2008B5024A034900F056FFAB
:108AA000FEE700BFED9E3F0290F73F020078B0FA6C
:108AB00080F04009704701230370704710B50446E9
:108AC000034B03601C33436200F04EF9204610BD97
:108AD000D8F73F02A0F12400F0E700BF10B504462C
:108AE000FFF7ECFF204641F24C01FFF7D0FF204694
:108AF00010BDA0F12400F1E70EB44FF0200C0023CC
:108B000000B58CB00DAA52F8041BCDE904C3CDE921
:108B100000120392016804AA282000F033FF0CB071
:108B20005DF804EB03B0704708B501F0C1FC01F03B
:108B300009FD074800F048F9064800F0BBFB05486E
:108B400000F044FBBDE808408021024800F050BB23
:108B5000F09D0710EC9D071010B51C488EB000F07A
:108B60007DF91B480AAB09AA08A900F05DFB0DAB13
:108B700002930CAB01930BAB089915480093DDE908
:108B8000092300F025FA00F0BFFC124C2368C01A3C
:108B9000632819D900F0B8FC20600D98FFF7ECFBB2
:108BA000CDE906010C98FFF7E7FBCDE904010B982E
:108BB000FFF7E2FB0A9BCDE9020100930649074853
:108BC000DDE90823FFF798FF0EB010BDF09D0710F8
:108BD000EC9D07103CAE0710A5F73F0270AE0710E2
:108BE00070B51426D0E90053044606FB0356AE4286
:108BF00004D0284603F0A8FE1435F8E7206800F0FA
:108C0000F5FF204670BD8842F8B504460D4616466D
:108C100016D9904215D2A2F11406751AA1F11407C3
:108C20002C44B7421CD02CB13146204603F009FF3A
:108C3000337C2374304603F087FE143E143CF0E787
:108C40000ED0B5420CD02CB12946204603F0F9FED7
:108C50002B7C2374284603F077FE14351434F0E798
:108C6000F8BD00232DE9F041C0E9003383604F686F
:108C700004469F420E4624DD4FF0140808FB07F01F
:108C800000F0A6FF0546E0B1D4E9001208FB02128D
:108C9000FFF7B9FF206800F0A9FF2560A760D6E9BB
:108CA000007308FB0378B84509D03946284603F01D
:108CB000E2FE3B7C143505F8043C1437F3E7736897
:108CC00063602046BDE8F08170B5002188B00120C6
:108CD00000F09EFE0023134C05AD02A92846A4F126
:108CE0004C06CDE902330493FFF7BBFF21464FF456
:108CF000805228233046009500F0D0F82846FFF730
:108D00006FFF094B02A844F84C3C1C3344F8283C44
:108D1000FFF766FF1221054808B0BDE8704000F07B
:108D20003DB900BF3C9E0710D8F73F02EC9D0710ED
:108D3000704730B5046BD0E90D239D1AA54228BFBA
:108D4000013203F1010528BF42638563C26AB3FBA8
:108D5000F4F004FB1033D154012030BDA0F1240005
:108D6000FFF7E7BF7047000010B504460B4B4430D7
:108D700003F10802243340F8442C40F8203C01F071
:108D800098FC04F13C0001F094FC2046044B40F8B0
:108D9000043B02F051FF204610BD00BF94F83F0293
:108DA00084F83F02A0F12400FFF7DEBF10B50446AF
:108DB000FFF7DAFF20464C21FFF769FE204610BD81
:108DC000A0F12400FFF7F2BF10B58CB0044601F00B
:108DD0006FFB04F13C02014607A802F0E7F807A880
:108DE00001F067FC01F064FB04F14402014607A8AE
:108DF00002F0DCF807A801F05CFC04A801F05DFDBE
:108E0000154907A801F0FEF907A801F05DF904462D
:108E100007A8B4B901F074F902230321ADF80E00DC
:108E200000940DF10E0204A801F03CFD01F040FB9E
:108E3000002204A901F0E9FB049800F0D7FE0CB071
:108E400010BD01F05FF900230093102302460721B3
:108E50000DEB0300E8E700BF04F83F0238B5044615
:108E600001F026FB01F07EFBB0B1D4E90D12551ADA
:108E700012D0236B142DB1FBF3F228BF142503FB92
:108E80001211E06A2A460144002304F13C0001F07B
:108E9000F5F9626B2A44626338BD00002DE9F041A8
:108EA00004462546984692B00F4605A818991646DE
:108EB000FFF7D7FE05A908A8FFF7D3FE2E4B08A998
:108EC00045F8043B0DA8FFF7CCFE41460DAA284605
:108ED00003F0E2F80DA8FFF783FE08A8FFF780FE75
:108EE00023460025254A05A843F8242B2362FFF7D3
:108EF00077FE234BC4E90B7603F10802214E24339D
:108F000022606362C4E90D55C4E90F551E49A5628C
:108F100008A801F077F931460DA801F073F90DABFF
:108F20004FF01002009304F13C0008ABCDE901556D
:108F3000164901F011FFC4E91155154908A801F0BF
:108F400061F931460DA801F05DF9124B4FF00402B2
:108F500001930DAB1049009304F1440008AB029457
:108F600001F0FAFE02F092FD214602F083FF204656
:108F700012B0BDE8F08100BF84F83F028CFB3F02D5
:108F800094F83F0204F83F0229F83F024EF83F02EE
:108F900051F83F0265973F0276F83F0241807047E3
:108FA00010B52DED028B10EE104AFFF7D3F941EC0E
:108FB000180B2046FFF7E0F9B0EE481AF0EE681AF9
:108FC000BDEC028BBDE8104041EC100B04F0DCB9A5
:108FD00007EE901A30B52DED048BB8EEE79A07EE48
:108FE000902AF8EEE78A08EE103A83B00220B0EE3D
:108FF000680AFFF7D5FFB8EEC88A55EC104B02207F
:10900000B0EE480AFFF7CCFF204653EC102B294660
:10901000FFF754F841EC100B04F088FA19EE100A2F
:109020008DED000BFFF7A8F99DED001B41EC100B37
:1090300004F0A8F951EC100BFFF7A6FCFFF79CF920
:1090400037A3D3E90023FFF7EFF9FFF79DFC0A9B55
:10905000B0EE490A18600220FFF7A2FF022055EC8B
:10906000104BB0EE480AFFF79BFF204653EC102B45
:109070002946FFF723F841EC100B04F057FA18EEDD
:10908000900A8DED000BFFF777F99DED001B41EC89
:10909000100B04F077F951EC100BFFF775FCFFF79C
:1090A0006BF91FA3D3E90023FFF7BEF9FFF76CFCB0
:1090B0000B9BB0EE490A18600220FFF771FF0220F7
:1090C00055EC104BB0EE680AFFF76AFF204653ECF0
:1090D000102B2946FEF7F2FF41EC100B04F026FAA4
:1090E00018EE100A8DED000BFFF746F99DED000B11
:1090F00041EC110B04F046F951EC100BFFF744FC66
:10910000FFF73AF906A3D3E90023FFF78DF9FFF73C
:109110003BFC0C9B186003B0BDEC048B30BD00BF62
:10912000F8C1631ADCA54C4013B50A4CD4E88F1F74
:1091300011F001010BD120460191FFF7B7FC019915
:1091400028B1054803F0C8FB2046FFF7B4FC0248ED
:1091500002B010BD40AE071044AE071007B5019035
:10916000FFF7E2FF019903B05DF804EB03F0E6BB03
:1091700070B50E46154604460021408803F0CFFE28
:109180000A20FFF7EBFF3046FFF7E8FF2846FFF71E
:10919000E5FF60880121BDE8704003F0C0BE38B52E
:1091A0000D4604460021408803F0B9FE0B20FFF76E
:1091B000D5FF2846FFF7D2FF0020FFF7CFFF054677
:1091C0000121608803F0ABFE284638BD10B52D2183
:1091D0000446FFF7E4FF00F0FC0040F002022D21FE
:1091E0002046FFF7C5FFBDE810400A2000F060BD33
:1091F00038B50D462C210446FFF7D1FF402D0FD086
:10920000802D0FD0012300F03F02237020462A4317
:109210002C21FFF7ADFFBDE838400A2000F048BD23
:109220000223F0E70423EEE72DE9F74F04468B46CF
:10923000408800219146984603F071FE0B20FFF70D
:109240008DFF0E20FFF78AFF0020FFF787FF0746FC
:109250000020FFF783FF01900020FFF77FFF064605
:109260000020FFF77BFF00900020FFF777FF054607
:109270000020FFF773FF82460121608803F04FFE54
:10928000019A009B07EB0227227806EB032612FBCC
:1092900007F7CBF80070237805EB0A2513FB06F6D9
:1092A000C9F80060227812FB05F5C8F8005003B039
:1092B000BDE8F08F10B501210446408803F01EFE82
:1092C000FFF732FF03F012FBFFF72EFF002103F040
:1092D00021FB4FF4FA7000F0EBFC012320462370D1
:1092E00052221F21FFF744FFBDE810400A2000F082
:1092F000DFBC000009B504480068044B03441B6848
:109300009B68029309BD0000709D0710600000007B
:1093100009B504480068044B03441B681B6D0293A5
:1093200009BD0000709D07106000000009B50448E9
:109330000068044B03441B689B6D029309BD000049
:10934000709D07106000000009B504480068044BD8
:1093500003441B681B6E029309BD0000709D07103B
:109360006000000009B504480068044B03441B6812
:10937000D3F89830029309BD709D0710600000007B
:1093800009B504480068044B03441B68D3F8A830AF
:10939000029309BD709D07106000000009B50448E4
:1093A0000068044B03441B68D3F8B430029309BD32
:1093B000709D07106000000009B504480068044B68
:1093C00003441B68D3F8D830029309BD709D071081
:1093D0006000000009B504480068044B03441B68A2
:1093E000D3F8DC30029309BD709D071060000000C7
:1093F00009B504480068044B03441B68D3F8EC30FB
:10940000029309BD709D07106000000009B5044873
:109410000068044B03441B68D3F8F030029309BD85
:10942000709D07106000000009B504480068044BF7
:1094300003441B68D3F80031029309BD709D0710E7
:109440006000000009B504480068044B03441B6831
:10945000D3F80431029309BD709D0710600000002D
:1094600009B504480068044B03441B685B6C029315
:1094700009BD0000709D07103000000009B50448C8
:109480000068044B03441B689B6C029309BD0000F9
:10949000709D07103000000009B504480068044BB7
:1094A00003441B68DB6C029309BD0000709D07102C
:1094B0003000000009B504480068044B03441B68F1
:1094C0005B6D029309BD0000709D07103000000025
:1094D00009B504480068044B03441B685B680293A9
:1094E00009BD0000709D07100000000009B5044888
:1094F0000068044B03441B68DB68029309BD00004D
:10950000709D07100000000009B504480068044B76
:1095100003441B685B69029309BD0000709D07103E
:109520000000000009B504480068044B03441B68B0
:109530009B68029309BD0000709D07101400000095
:1095400009B504480068044B03441B68DB680293B8
:1095500009BD0000709D07101400000009B5044803
:109560000068044B03441B681B69029309BD00009B
:10957000709D07101400000009B504480068044BF2
:1095800003441B681B6A029309BD0000709D07100D
:109590001000000009B504480068044B03441B6830
:1095A0005B6A029309BD0000709D07101000000067
:1095B00009B504480068044B03441B689B6A029386
:1095C00009BD0000709D07101000000009B5044897
:1095D0000068044B03441B68DB6A029309BD00006A
:1095E000709D07101000000009B504480068044B86
:1095F00003441B681B6B029309BD0000709D07109C
:109600001000000009B504480068044B03441B68BF
:109610005B6B029309BD0000709D071010000000F5
:1096200009B504480068044B03441B681B6C029393
:1096300009BD0000709D07101000000009B5044826
:109640000068044B03441B685B69029309BD00007A
:10965000709D07104C00000009B504480068044BD9
:1096600003441B689B68029309BD0000709D0710AE
:109670005000000009B504480068044B03441B680F
:10968000DB68029309BD0000709D071050000000C8
:1096900009B504480068044B03441B681B68029327
:1096A00009BD0000709D07101800000009B50448AE
:1096B0000068044B03441B68DB68029309BD00008B
:1096C000709D07101800000009B504480068044B9D
:1096D00003441B685B69029309BD0000709D07107D
:1096E0001800000009B504480068044B03441B68D7
:1096F000DB69029309BD0000709D0710180000008F
:1097000009B504480068044B03441B681B6A0293B4
:1097100009BD0000709D07101800000009B504483D
:109720000068044B03441B681B6C029309BD0000D6
:10973000709D07101800000009B504480068044B2C
:1097400003441B685B6C029309BD0000709D071009
:109750001800000009B504480068044B03441B6866
:109760009B68029309BD0000709D07102400000053
:1097700009B504480068044B03441B68DB68029386
:1097800009BD0000709D07102400000009B50448C1
:109790000068044B03441B681B69029309BD000069
:1097A000709D07102400000009B504480068044BB0
:1097B00003441B685B69029309BD0000709D07109C
:1097C0002400000009B504480068044B03441B68EA
:1097D0009B69029309BD0000709D071024000000E2
:1097E00009B504480068044B03441B68DB69029315
:1097F00009BD0000709D07102400000009B5044851
:109800000068044B03441B681B6A029309BD0000F7
:10981000709D07102400000009B504480068044B3F
:1098200003441B689B6A029309BD0000709D0710EA
:109830002400000009B504480068044B03441B6879
:10984000DB6A029309BD0000709D07102400000030
:1098500009B504480068044B03441B681B6C029361
:1098600009BD0000709D07102400000009B50448E0
:109870000068044B03441B681B68029309BD000089
:10988000709D07103400000009B504480068044BBF
:1098900003441B685B68029309BD0000709D0710BC
:1098A0003400000009B504480068044B03441B68F9
:1098B0009B68029309BD0000709D071034000000F2
:1098C00009B504480068044B03441B681B690293F4
:1098D00009BD0000709D07103400000009B5044860
:1098E0000068044B03441B685B69029309BD0000D8
:1098F000709D07103400000009B504480068044B4F
:1099000003441B689B69029309BD0000709D07100A
:109910003400000009B504480068044B03441B6888
:10992000DB69029309BD0000709D07103400000040
:1099300009B504480068044B03441B681B6A029382
:1099400009BD0000709D07103400000009B50448EF
:109950000068044B03441B685B6B029309BD000065
:10996000709D07104800000009B504480068044BCA
:1099700003441B681B6D029309BD0000709D071016
:109980004800000009B504480068044B03441B6804
:109990005B6D029309BD0000709D07104800000038
:1099A00009B504480068044B03441B68DB6E02934E
:1099B00009BD0000709D07104800000009B504486B
:1099C0000068044B03441B681B6F029309BD000031
:1099D000709D07104800000009B504480068044B5A
:1099E00003441B685B68029309BD0000709D07106B
:1099F0000800000009B504480068044B03441B68D4
:109A00005B69029309BD0000709D0710080000000B
:109A100009B504480068044B03441B68DB6A0293E1
:109A200009BD0000709D07100800000009B504483A
:109A30000068044B03441B68D3F88830029309BDC7
:109A4000709D07100800000009B504480068044B29
:109A500003441B68D3F89430029309BD709D07102E
:109A60000800000009B504480068044B03441B6863
:109A7000DB6B029309BD0000709D07102C000000F5
:109A800009B504480068044B03441B685B680293F3
:109A900009BD0000709D07102800000009B50448AA
:109AA0000068044B03441B689B68029309BD0000D7
:109AB000709D07102800000009B504480068044B99
:109AC00003441B68DB68029309BD0000709D07100A
:109AD0002800000009B504480068044B03441B68D3
:109AE0001B69029309BD0000709D0710280000004B
:109AF00009B504480068044B03441B685B69029382
:109B000009BD0000709D07102800000009B5044839
:109B10000068044B03441B689B69029309BD000065
:109B2000709D07102800000009B504480068044B28
:109B300003441B68DB69029309BD0000709D071098
:109B40002800000009B504480068044B03441B6862
:109B50001B6A029309BD0000709D071028000000D9
:109B600009B504480068044B03441B681B6B02934F
:109B700009BD0000709D07102800000009B50448C9
:109B80000068044B03441B685B6B029309BD000033
:109B9000709D07102800000009B504480068044BB8
:109BA00003441B681B6C029309BD0000709D0710E5
:109BB0002800000009B504480068044B03441B68F2
:109BC0005B6C029309BD0000709D07102800000027
:109BD00009B504480068044B03441B681B680293E2
:109BE00009BD0000709D07100400000009B504487D
:109BF0000068044B03441B685B68029309BD0000C6
:109C0000709D07100400000009B504480068044B6B
:109C100003441B689B68029309BD0000709D0710F8
:109C20000400000009B504480068044B03441B68A5
:109C30005B6A029309BD0000709D071004000000DC
:109C400009B504480068044B03441B68DB6A0293AF
:109C500009BD0000709D07100400000009B504480C
:109C60000068044B03441B68DB6B029309BD0000D2
:109C7000709D07100400000009B504480068044BFB
:109C800003441B681B6C029309BD0000709D071004
:109C90000400000009B504480068044B03441B6835
:109CA0005B6C029309BD0000709D0710040000006A
:109CB0000021FFF79FBE38B5046805467CB1636894
:109CC000013B63605BB9236820469B689847A368A3
:109CD000013BA3601BB923682046DB6898472846F0
:109CE00038BD70477047704770470000064B10B58D
:109CF000994200F10C0405D0084603F031FA00281F
:109D000008BF0024204610BDC8F83F02064B10B51E
:109D1000994200F10C0405D0084603F021FA00280E
:109D200008BF0024204610BDC8F83F02064B10B5FE
:109D3000994200F10C0405D0084603F011FA0028FE
:109D400008BF0024204610BDC8F83F0210B50446E5
:109D50006821FEF79CFE204610BD10B50446282160
:109D6000FEF795FE204610BD10B504463021FEF7E3
:109D70008EFE204610BD6821FEF789BE2821FEF721
:109D800086BE3021FEF783BEF0B50025EC1C8C4268
:109D90000DD86E1C875D445D974205D12644B142C3
:109DA00005D31D60601CF0BD01342544EEE70020A2
:109DB000F9E700000A20024A0249FFF7C7BD00BFC9
:109DC000ED9E3F02D0F83F0230B40D4611461A46D0
:109DD00003680968D3E900432868A44630BC60479B
:109DE000012A38B5044602D10B68236003E0022A39
:109DF00003D0032A0DD0002038BD08200D68FEF7DF
:109E000042FE03460028F0D095E8030083E80300F3
:109E1000EBE700680028EED00821FEF738FEEAE7FD
:109E200010B58368044613B10322014698472046C3
:109E300010BD10B504465830FFF7F2FF04F148009A
:109E4000BDE8104002F080BD10B543680446013BF8
:109E5000436063B903689B689847A368013BA360AC
:109E60002BB923682046BDE81040DB68184710BDB9
:109E700038B5036805468B420C4608D011B14B68D3
:109E800001334B60286808B1FFF7DEFF2C6038BD56
:109E9000A0F13003DAB2092A01D818467047A0F1C0
:109EA0006103052B01D857387047A0F14103052BFA
:109EB00094BF37384FF0FF3070470000002310B5D3
:109EC0000370044B04461868FFF7E6FA01232046A6
:109ED000237010BD54AE071010B5037804461BB1B3
:109EE000024B1868FFF7E6FA204610BD54AE071083
:109EF00082B06A4603460868496803C26A4603CAD4
:109F000018601846596002B0704708B582798B799D
:109F10009A4206D1062204F071FDB0FA80F04009A1
:109F200008BD0020FCE7000070B50446384B86B041
:109F300018689B880090ADF80430364BA6791868F5
:109F40009B880290ADF80C307EB906226946204607
:109F500004F054FD38B10622204602A904F04EFD5B
:109F6000003818BF012006B070BDA3882068ADF886
:109F7000143006F0FD03012B049024D19DF81550F8
:109F8000062205F03F05694604A88DF8155004F037
:109F900035FD00283AD065F03F05062202A904A845
:109FA0008DF8155004F02AFD80B36079012E00F081
:109FB000C00004D1C02814BF00200120D3E7B0FAAC
:109FC00080F04009CFE7022E1ED103229DF81550E4
:109FD0000DEB020105F03F050DF113008DF8155052
:109FE00004F00CFD90B165F03F0503220DF10B016B
:109FF0000DF113008DF8155004F000FD30B16079BB
:10A0000000F0C0004028D6E70120ACE70020AAE716
:10A0100068F73F020EF93F024FF0FF330360838081
:10A02000002070470021024608B501604160FFF73B
:10A03000F3FF1046917108BD0123024610B503617C
:10A04000044B03F1100153F8044B8B4242F8044BCC
:10A05000F9D110BD6EF73F0210B50B460446B1B101
:10A06000012A01F110020AD1014653F8040B934270
:10A0700041F8040BF9D101232361204610BD411E94
:10A0800012F8010D9A4201F8010FF9D1F3E71022FD
:10A0900004F0EBFCF1E738B5044615461A46FFF725
:10A0A000DBFF2046A58138BD08B5026922B9808949
:10A0B000003818BF012008BD1022024904F09EFCA0
:10A0C000F6E700BF64FA3F020069704738B50C46F6
:10A0D00014220021054604F0C8FC23691BB9A3899A
:10A0E0002B80284638BD012321462B742B4604F1D2
:10A0F000100251F8040B914243F8040BF9D1F0E738
:10A1000080897047704708B502690B699A4206D189
:10A11000102204F073FCB0FA80F0400908BD002062
:10A12000FCE7000001232DE9F341024606460361E6
:10A13000334B0C4603F1100153F8040B8B4242F8E9
:10A14000040BF9D144B32421204604F0F8FC042880
:10A150004FF0000523D1ADF8045001AFA51C063423
:10A1600015F8020CFFF794FEB0F1000812DB15F8A9
:10A17000010CFFF78DFE00280CDB023540EA0810C9
:10A18000A54207F8010BEBD19DF8053033739DF81C
:10A19000043073730023336102B0BDE8F0814FF0E7
:10A1A00010082421204604F0CAFCA84207D84246E1
:10A1B0000021304602B0BDE8F04104F056BCB8F1D1
:10A1C000000FE9D0605DFFF763FE030615D40001C0
:10A1D000C7B208F1FF382421204606F8087004F0C1
:10A1E000AEFC0135A84208D9605DFFF751FE40B2D0
:10A1F0000028A4BF384306F808000135D1E700BFA6
:10A200006EF73F0213B504460191FFF715FF204694
:10A210000199FFF787FF204602B010BD38B54FF611
:10A22000FF730025044643800E2229460570057100
:10A23000063004F01AFC04F11400FFF7FDFE04F1EF
:10A240002800FFF7F9FE044904F13C0002F0C7FBC7
:10A250002046656538BD00BF52FB3F0210B5D0E90E
:10A26000063203EBC2029342184605D00468083355
:10A2700024888C42F7D110BD0020FCE7F0B50646DB
:10A280001F460D4685B0002950D0002A4ED00468E4
:10A29000F42A237828BFF42243B32379980709D5F9
:10A2A0000023A0890392FFF779F80028039A03DAC4
:10A2B00005B0F0BD6FF0770034682379D90609D571
:10A2C000012F07D000232946A08905B0BDE8F04042
:10A2D000FFF7AAB89B06EBD5022FE9D00023294649
:10A2E000A08905B0BDE8F040FFF7ACB84FF6FF71AC
:10A2F000608888421CD021794E0701D5012F04D1F6
:10A300000B0709D46FF07700D2E7A18900931346B9
:10A310002A46FFF75FF8CBE7022FF3D00023A1898D
:10A32000009313462A46FFF747F8C1E70248BFE704
:10A330006FF0D100BCE700BFF2FEFFFF2DE9F04156
:10A3400000260746066028200C46FEF79CFB051EEB
:10A3500005F10C080FD00123C5E90133084B404635
:10A360002B60FFF769FE0FCC2E6285F8246046460D
:10A370000FC6236833603846C7E90085BDE8F08121
:10A3800024FA3F0270B50025064605603020FEF72E
:10A390007AFB044698B10123C0E901330A4B0E3021
:10A3A00040F80E3C4FF6FF7320F8023CFFF73AFEF0
:10A3B000C4E90655C4E90855C4E90A55A575746091
:10A3C0000C343046346070BD40FA3F0237B50D465C
:10A3D000044601A8FFF772FD2A6801A8D2F80230EE
:10A3E0002360D2F806306360FFF776FD204603B0A5
:10A3F00030BD30B505460C4687B001A8FFF75EFDBD
:10A400002A68236812881B889A420DD1294602A81F
:10A41000FFF7DCFF214604A8FFF7D8FF04A902A834
:10A42000FFF773FD044600B9002401A8FFF754FDAF
:10A43000204607B030BD000070B506467420FEF718
:10A4400022FB0446A0B10025C0E90055C0E9025531
:10A45000C0E90455C0E9065505622430FFF792FFB4
:10A4600004F12C00FFF78EFFE563E564E565E56622
:10A47000346024B90A200A4A0A49FFF767FA002023
:10A48000FEF738FF20B10A20054A0749FFF75EFAB8
:10A49000002231680548FEF7B9FF304670BD00BFA5
:10A4A000ED9E3F02D0F83F0215F93F02EDB33F02A7
:10A4B00010B50A4CD4E88F3FDB070CD42046FEF7DA
:10A4C000F5FA40B10648FFF7B7FF2046FEF7F3FA6A
:10A4D000044804F085FA024810BD00BF4CAE0710D6
:10A4E00058AE07109DB63F0230B503680446093BDD
:10A4F000012B0D468DB011D8FFF7DAFFA188006857
:10A50000FFF7ACFE034658B92022CDE904200B4AE0
:10A51000322000920A4904AAFFF726FA0DB030BD96
:10A520006A6D002AFAD0D4E9032105F14C00CDE987
:10A530000312AC6D04AA03A9A047EFE757F93F0245
:10A54000E7F83F0208B50020FEF7D4FE00EAE0700D
:10A5500008BD19B90A460846FEF7DABE0022D1E95D
:10A560000001F9E70368D8690028D4BF0020012062
:10A57000704770B50446D0E9005305EB0316AE42B0
:10A5800004D0284602F0E0F91035F8E72068FFF71C
:10A590002DFB204670BD38B5141E0546436802DB0E
:10A5A00062189A4200DD5C1A2A68501801191A4490
:10A5B000521A04F040FA6A68121B6A6038BD37B557
:10A5C0000A4604460D46D0E9000101ABFFF7DCFB6B
:10A5D000024638B120460199FFF7DDFF29462046A3
:10A5E000FFF7EDFF03B030BD10B50C4629B90A46A0
:10A5F0000846BDE81040FEF799BE01212046FFF74E
:10A60000DEFFD4E900010022F3E738B50446154621
:10A61000FFF79FFF00280ADB29462046FFF7E4FFEB
:10A62000002804DBBDE838400020FEF78DBE38BDB1
:10A6300038B500230446836008200D46FEF723FA50
:10A6400018B12B6803606B684360034B2060E360C4
:10A65000024B2046A36038BDC9A73F02E1A73F02D5
:10A660000B68036013B15A6801325A60704710B525
:10A67000044651F8043B40F8043BFFF7F1FF236820
:10A680000BB9FFF797FB204610BD10B5044651F8F3
:10A69000043B40F8043BFFF7E3FF204610BD10B534
:10A6A000044651F8043B40F8043BFFF7D9FF20462D
:10A6B00010BD10B504460430FFF7FDFA204610BD6A
:10A6C00070B50446D0E9005305EBC306AE4204D092
:10A6D000281DFFF7F0FA0835F8E72068FFF786FA3B
:10A6E000204670BD70B50446D0E9005305EBC306A3
:10A6F000AE4204D0281DFFF7DEFA0835F8E72068DF
:10A70000FFF774FA204670BD10B504462430FFF7F9
:10A71000E9FF04F11800FFF7D3FF10BD002313B5C4
:10A72000D1E90042C1E90033036804600093436843
:10A73000426001A80193FFF7BEFA02B010BD826823
:10A7400010B50AB902F008FDC368BDE8104018470B
:10A7500038B50D1E0446006803DDFFF755FA18B939
:10A7600038BDFFF743FA00202060A5600120F7E71D
:10A7700008B583688B4202DAFFF7EAFF08BD0120C3
:10A78000FCE72DE9F0410F4641681D4619448368F6
:10A7900004469942904612DC266862683E4431467F
:10A7A000D21B701904F047F92A464146304604F09E
:10A7B00035F9012063682B446360BDE8F081FFF741
:10A7C000C7FF0028E8D1F8E7F8B50D46D0E9011336
:10A7D0009942044616460BDA276862687919521BBB
:10A7E000481C04F028F97E55636801336360F8BDA6
:10A7F0000131FFF7ADFF0028EED1F8E70A464168C6
:10A80000FFF7E2BF2DE9F74304461D460F4601ABB3
:10A8100090460A46D0E900019DF82890FFF7B4FA67
:10A82000AE1C02466368B9F1000F26D128B3334449
:10A830001B1AFF2B09D820460199FFF7ACFE61686F
:10A8400020463144FFF794FF18B9606803B0BDE8B3
:10A85000F0836A1C20460199D2B2FFF7B5FF019937
:10A860003A4601312046FFF7AFFF2B464246019999
:10A8700002312046FFF785FFE7E7F118FF29E4D80A
:10A880002046FFF775FF0028DFD0691C2046C9B2BB
:10A89000FFF7B4FF39462046FFF7B0FF2B4642468C
:10A8A0006168E6E730B49DF808501AB1029530BCF3
:10A8B000FFF7A8BF406830BC70471FB500230622D1
:10A8C000C0E9003383600093012304468DF80F2014
:10A8D00019460DF10F02FFF7E5FF204604B010BD49
:10A8E0008842F8B504460D46164614D9904213D254
:10A8F000A2F10806751AA1F108072C44B74218D036
:10A900001CB131462046FFF7CAFE301DFFF7D3F9D0
:10A91000083E083CF2E70CD0B5420AD01CB12946EB
:10A920002046FFF7BCFE281DFFF7C5F9083508349F
:10A93000F2E7F8BDF7B5044646686846FFF7AFFE94
:10A94000D4E901739F4212DB0137002F29DDF800A3
:10A95000FFF73EF90546F0B1D4E9001201EBC2025F
:10A96000FFF7BEFF2068FFF741F92560A760236865
:10A97000626803EBC606314603EBC20206F108002B
:10A98000FFF7AEFF1EB169463046FFF788FE01258E
:10A9900063680133636001A8FFF78DF9284603B0AF
:10A9A000F0BD0025DEE7F8B50546D0E900430F46C7
:10A9B00004EBC306A64205D039462046FFF719FD31
:10A9C00008B114B9F8BD0834F4E7201DFFF773F996
:10A9D000D5E90032204603EBC20204F10801FFF77B
:10A9E0007FFF6B68013B6B60ECE700002DE9F041F5
:10A9F000054690B005A80C46FFF760FA2E68F31ED6
:10AA00000D2B6AD8DFE813F00E0078006900FE0015
:10AA100069006900690069006900C800C800C800D1
:10AA2000C800C800606A04F118060230FFF77CFA1B
:10AA300038B32146AA8951F8243F08A81A80FFF7A5
:10AA40002EFE08A93046FFF775FF09A8FFF733F976
:10AA500008A8FFF797FC089B04F128000999636296
:10AA6000FFF706FA09A8FFF726F920210023CDE910
:10AA700008136E4A009201206D4908AAFEF774FF80
:10AA80002BE006A8FFF77EFCAA89069B1A8069685E
:10AA9000069808310230FFF72BFA06A908A8FFF73D
:10AAA000FEFD304608A9FFF745FF054609A8FFF758
:10AAB00002F9C5B92023CDE908355E4B01205C4978
:10AAC000009308AA2B46FEF74FFF069B29461888DD
:10AAD000FEF748FC07A8FFF7EEF805A8FFF7FCF91A
:10AAE00010B0BDE8F081E36B23B106A904F1340096
:10AAF000FFF725FE07A8B6E7A9892046FFF7AEFBBA
:10AB000001460028E9D0039004F12C00FFF771FC06
:10AB100004F11807039940B13846FFF744FF20229B
:10AB20000023CDE90823444AA4E74FF6FF700D68DF
:10AB3000D5E90632288003EBC2029A4203D053F8CB
:10AB4000086B7080F9E7D5E9036306EBC308B045ED
:10AB500006D0301D03910836FFF7ADF80399F6E7EC
:10AB600000232B61D5E9066306EBC308B04506D088
:10AB7000301D03910836FFF79EF80399F6E700238E
:10AB8000EB61AB72E36C002BC6D004F1440003917F
:10AB9000FFF7D5FD0399BFE72046A989FFF75EFBC4
:10ABA00000289AD0E36D002B97D000230D2EADF82E
:10ABB0001E3001D0102E17D1002369681A460625D1
:10ABC0008DF81D3006910BAB8DF81C2008908DF888
:10ABD0002460DDE906010A9583E80300236E08A9D5
:10ABE00004F15400984778E70F2E01BF2B7A69686B
:10ABF00003F0010208251DBF1A4619461D46C3F37E
:10AC00004003DDE7A9892046FFF728FB014600281D
:10AC10003FF463AFE36E002B3FF45FAF6B6808AAAD
:10AC2000089304F16400236F984756E795F93F02B3
:10AC3000E7F83F026FF93F029FF93F0270B5044603
:10AC40006430FFF7EDF804F15400FFF7E9F804F180
:10AC50004400FFF7E5F804F13400FFF7E1F804F1F0
:10AC60003000FFF728F804F12800FFF724F8D4E9B2
:10AC7000065305EBC306AE4204D0281DFFF71BF8B0
:10AC80000835F8E7A069FEF7B1FF04F10C00FFF703
:10AC900029FD2046FFF714FD204670BD10B5064B78
:10ACA0001C6844B12046FFF7C9FF2046BDE81040AC
:10ACB0007421FDF7ECBE10BD58AE071013B56C46FD
:10ACC0000B460246D0E9000184E8030093E8030044
:10ACD00082E8030094E8030083E8030002B010BD9B
:10ACE00038B505460C46FFF7E9FFAB68A268AA60D5
:10ACF000A360EB68E268EA60E36038BD70B50446C3
:10AD00000E461D468CB00192FFF788FA2671019914
:10AD100004F13C0001F0BAFE04F14C06CDB1109BE9
:10AD200002A904A802950393FFF782FC002308A957
:10AD300004A80A93FFF7D4FF314608A8FFF7D0FF15
:10AD400008A8FFF76DF804A8FFF76AF820460CB0D2
:10AD500070BD0695EAE700002DE9F04F924600220B
:10AD600087B08B461299804668201D46DDE9104366
:10AD7000029103930492FDF786FE061E06F10C096C
:10AD800018D001223746C6E901220299154A039BD1
:10AD900047F8202B48465A4600915146FFF7AEFF30
:10ADA0000FCD0FC72B6806F134053B600FCC0FC5E4
:10ADB00023682B60404604A9CDE90496FFF7AEFC5A
:10ADC00005A8FEF778FFD8F800303BB90A20064AFC
:10ADD000064907B0BDE8F04FFEF7B8BD07B0BDE8C3
:10ADE000F08F00BF08FA3F02ED9E3F02D0F83F020D
:10ADF0008842F8B504460D46164614D9904213D23F
:10AE0000A2F10806751AA1F108072C44B74218D020
:10AE10001CB131462046FFF738FC301DFEF74BFFD2
:10AE2000083E083CF2E70CD0B5420AD01CB12946D6
:10AE30002046FFF72AFC281DFEF73DFF08350834A1
:10AE4000F2E7F8BD70B50E1E054611DDF000FEF705
:10AE5000BFFE044658B1D5E9001201EBC202FFF76C
:10AE6000C7FF2868FEF7C2FE01202C60AE6070BDEF
:10AE70000024F6E773B5044645686846FFF705FC0D
:10AE8000D4E90113994210DA2368626803EBC5051F
:10AE9000294603EBC20205F10800FFF7A9FF8DB9AF
:10AEA000636801260133636006E020460131FFF745
:10AEB000C9FF06460028E7D101A8FEF7FCFE304690
:10AEC00002B070BD69462846FFF7DFFBE8E788421D
:10AED000F8B504460D46164614D9904213D2A2F195
:10AEE0000806751AA1F108072C44B74218D01CB106
:10AEF00031462046FFF7BBFB301DFEF7DCFE083E67
:10AF0000083CF2E70CD0B5420AD01CB129462046D5
:10AF1000FFF7ADFB281DFEF7CEFE08350834F2E73B
:10AF2000F8BD70B50E1E054611DDF000FEF750FEAF
:10AF3000044658B1D5E9001201EBC202FFF7C7FF82
:10AF40002868FEF753FE01202C60AE6070BD00241F
:10AF5000F6E773B5044645686846FFF788FBD4E911
:10AF60000113994210DA2368626803EBC50529468C
:10AF700003EBC20205F10800FFF7A9FF8DB9636872
:10AF800001260133636006E020460131FFF7C9FF67
:10AF900006460028E7D101A8FEF78DFE304602B034
:10AFA00070BD69462846FFF762FBE8E72DE9F04FE0
:10AFB0001746A1B080460AA80E46FEF77FFF3C6800
:10AFC000237953B939464046FFF751FB0AA8FEF7EB
:10AFD00083FF404621B0BDE8F08F336804F1280AB2
:10AFE000D3E9035305EBC303039304F1140B039B51
:10AFF0009D4221D0D5F80090584609F11401FFF781
:10B0000082F8B8B1504609F12801FFF77CF888B101
:10B010002368D9F80020534033F47F430AD120221B
:10B02000CDE915235E4A009215AA32205D49FEF74C
:10B030009BFCC7E70835DAE75046FFF735F860B9FB
:10B040000122594915A8FFF707F8D44615AD0FCDD1
:10B05000ACE80F002B68CCF800303368D3E900531C
:10B0600005EBC30B5D45A94651466ED055F8080B5C
:10B07000FFF749F80028F5D004F1140A5046FFF70D
:10B0800013F888B9494B48491A8815A8013292B279
:10B090001A800123FEF7FFFFD44615AD0FCDACE8B3
:10B0A0000F002B68CCF80030414B2822002116A855
:10B0B000159303F0DAFC514604A8FFF707F804AB38
:10B0C00018AA0DF1200C154618685968083303C5F5
:10B0D00063452A46F7D11868002228602379A11D0C
:10B0E0008DF85830D9F8003015A89B8AADF8743027
:10B0F000E36B17932F4BCDE91E34FEF779F9002847
:10B100007FF460AF01232370346839460C340DA8F6
:10B11000FFF7ADFA20460DA9FFF71BFF04460EA866
:10B12000FEF7C9FD002C7FF44DAF2023CDE90D348F
:10B13000214B0DAA0093234677E739464046FFF797
:10B1400096FA0CA8FEF7B7FD40E70BA8FFF7F6F854
:10B15000514615A8FEF7BAFF0B9A002301201432BE
:10B1600015A9FEF70DF90028E7D135680BA90DA840
:10B17000FFF78BFA28460DA9FFF77CFE05460EA8BF
:10B18000FEF799FD002DD8D032680CA853681268DC
:10B1900003F10053013B02EBC309FEF78CFD6BE7A3
:10B1A000ACF93F02E7F83F0254FA3F0250AE0710F5
:10B1B00003002C00E9AE3F02D7F93F02002302480A
:10B1C0000360FEF74DB900BF54AE0710002240687F
:10B1D0001146FEF7B7BC002240681146FEF7CEBC10
:10B1E00000224068FEF7BCBC0022406881F00101EB
:10B1F000FEF79ABC002340681A461946FEF786BC43
:10B20000002340681A461946FEF772BC00224068C7
:10B210001146FEF75FBC002240681146FEF73EBCB7
:10B22000002202214068FEF747BC002340681A460E
:10B23000FEF726BC0322024B5A60024A1A6070478E
:10B240005CAE07107CFA3F027047F8B5064615461B
:10B250000C468F18BC4206D0336830469B6814F801
:10B26000011B9847F6E72846F8BD0022007CFEF750
:10B2700083B90021007CFEF78DB90021007CFEF728
:10B2800097B90021007CFEF7A1B90021007CFEF7F0
:10B29000ABB910B504461421FDF7F9FB204610BDEB
:10B2A00038B5044615464FF47A730022C4E90123E9
:10B2B000094B0846217423602946FEF7B1F9BF30D7
:10B2C00008D16B69DB0705D56868FEF78FFCE86875
:10B2D000FEF78CFC204638BDB8FA3F02704710B527
:10B2E00004461821FDF7D3FB204610BDF0B5037DC1
:10B2F0000E46062B4FF000048DB000F1040712D06B
:10B3000000F1080515F8011D0A22304601F0B9FACE
:10B31000AF42044419D0002CF4D02E21304601F065
:10B32000ADFA0444EEE72F236A4639460A208DF829
:10B330000040FEF783F96846FDF780FB336802465C
:10B3400069463046DB689847044620460DB0F0BD9C
:10B3500010B50446044B1122002140F8043B03F0D1
:10B3600084FB204610BD00BFE0FA3F020346074AB7
:10B3700010B543F8042B01F1100251F8044B91422F
:10B3800043F8044BF9D10A781A7010BDE0FA3F0275
:10B3900010B59DF8084044EA032343EA024204231F
:10B3A00042EA01614160037510BD000007B5064B1C
:10B3B0000360CB7800938B784A780978FFF7E8FF31
:10B3C00003B05DF804FB00BFE0FA3F02012200F188
:10B3D000100313F8101C1846012908D153F8041C57
:10B3E00002EB4102013A03F11003F2D17047022946
:10B3F00004BF53F8041C5218F4E70EB4F0B588B03B
:10B40000102100AF07F1340555F8042B04462B46F4
:10B4100078187A60FD60FEF705FC0F287A681AD963
:10B4200000F1080323F007036E46ADEB030D411C4A
:10B430002B466846FD60FEF7F5FB021E04DD23681F
:10B44000694620469B689847B5462037BD46BDE80B
:10B45000F04003B070470028F7D0236802469B688D
:10B46000204607F110019847EFE738B50B6804460E
:10B4700003604D6843689D4208D015B16B68013385
:10B480006B60606808B1FEF7DFFC656038BD07B52A
:10B4900003688DF8071001229B680DF1070198479A
:10B4A00003B05DF804FB0B461146002210B50446BC
:10B4B000C0E9002283600BB9204610BDFFF7D5FF1D
:10B4C000FAE78368EBB11A78032A1AD8DFE802F0AA
:10B4D0000417021B0520704702685B685268D05C45
:10B4E0002D2812D0A0F13003092B0ED974280ED0CC
:10B4F00066280CD0A0F16E035842584170470620D0
:10B5000070470020704704207047032070470220D6
:10B51000704710B50446FFF7D4FF02280ED0C31EB3
:10B52000DBB2012B14D82268A36850685B680A223A
:10B53000BDE810400021184403F0A4BB2268A368B2
:10B5400052685B68D05CA0F174035842584110BD4A
:10B550000020FCE738B500230446C0E900330E485C
:10B56000C4E90203A9B10B78032B06D08BB9136889
:10B5700058684B68C35C6E2B07D013684D685868D9
:10B580008B6828445B1BA060E36011462046FFF7F0
:10B590006CFF204638BD00BF52FB3F0238B5002586
:10B5A0000B4604461146C0E90055C0E90255C0E902
:10B5B00004554BB11A78012A06D103F11002DB6859
:10B5C00082604361FFF751FF204638BD10B54369E3
:10B5D000044663B18068013BE0601030A0602061E8
:10B5E000636113B1FFF7F2FEA060012000E018468E
:10B5F00010BD10B57D210446FFF749FF0123204609
:10B60000237110BD08B50379012B02D0022B04D0A1
:10B6100008BD2C21FFF73BFFFAE73A21FAE710B506
:10B620000446FFF7EFFF20467B21FFF730FF0023A2
:10B630002046237110BD000013B504460191FFF7A9
:10B64000E1FF23682046DB68019A034998470123FC
:10B650002046237102B010BDECFA3F0213B5044638
:10B660000191FFF7CFFF23682046DB68019A034969
:10B67000984701232046237102B010BDEFFA3F0224
:10B680002DE9F0470D469046222104462F46FFF74C
:10B69000FEFEDFF8A490A8444745BA463DD017F80F
:10B6A000016B222E06D05C2E04D0304603F09EF9AA
:10B6B0000028F1D12368294620469B68AAEB0502A1
:10B6C00098475C212046FFF7E2FE0D2E0AD8072E90
:10B6D0001CD9A6F10803052B18D8DFE803F00D0FDD
:10B6E00011171315222E01D05C2E0FD131462046A2
:10B6F000FFF7CDFE3D46CFE76221F8E77421F6E77C
:10B700006E21F4E76621F2E77221F0E72368324602
:10B7100049462046DB689847ECE7BD4205D02368E0
:10B72000294620469B687A1B984722212046FFF72E
:10B73000AEFEBDE8F08700BFF2FA3F0213B5044643
:10B74000CDE90021FFF75EFFDDE900212046FFF78C
:10B7500097FF02232046237102B010BD13B50446A3
:10B76000CDE90021FFF74EFFDDE900212046FFF77C
:10B7700087FF01232046237102B010BD8068036853
:10B78000DB6818477047084611B10B685B681847BB
:10B790007047704770477047704738B504460D468C
:10B7A00000682E2103F0A5F92368C31A2B6023B18A
:10B7B000037803B1013023682060184638BD10B506
:10B7C00004460C21FDF763F9204610BD10B5044670
:10B7D0000421FDF75CF9204610BD10B50446042194
:10B7E000FDF755F9204610BDFDF756BE08B5FDF72B
:10B7F0001BF9B0FA80F0400908BD704710B50C463F
:10B8000001F034FA844205D101F030FABDE810406D
:10B8100001F020BA01F00CFC844205D101F008FCD3
:10B82000BDE8104001F0B9B92CB123682046BDE84D
:10B8300010405B68184710BD0B6803604B6843609D
:10B8400013B15A6801325A60704713B5044608466E
:10B850000191FDF7F3F802462046019902B0BDE8D8
:10B860001040FFF77BBF13B5044608460191FDF772
:10B87000E5F80246204623680199DB6802B0BDE87E
:10B880001040184707B503688DF807100122DB68E0
:10B890000DF10701984703B05DF804FB0A6810B585
:10B8A00002604A6842600022C0E9022202618C689C
:10B8B0008A608460CC68CA60C4600C690A610461F3
:10B8C00010BD00002DE9F74F4FF0140AD0E90084B5
:10B8D000174645460AFB04F40093174BA4105C433B
:10B8E000002C21DD66100AFB06F005EB0009B9F813
:10B8F00004B03A465F4528BF5A462858019103F0E4
:10B900000AF900284FF0010301990BD15F4503D1DB
:10B91000009A13703446E3E7FCD9A61B09F114051D
:10B92000013EF7E7F9DBF5E7A5EB08050248AD10A6
:10B93000684303B0BDE8F08FCDCCCCCC7FB50369B4
:10B94000057E019103B3F9B1002600F10C040396C2
:10B9500003A901A8FFF721FF0146A8B10DF10B03D0
:10B960002046039A8DF80B60FFF7ACFF9DF80B3073
:10B9700053B12368142404FB0034B4F906300834AE
:10B98000002BA8BFDDB2E3E7284604B070BD0EB4BB
:10B99000F0B58CB000AF07F1440555F8042B044610
:10B9A0002B46202107F110007A60FD60FEF73AF97E
:10B9B0001F287A681AD900F1080323F007036E469E
:10B9C000ADEB030D411C2B466846FD60FEF72AF9DE
:10B9D000021E04DD236869462046DB689847B546A9
:10B9E0003037BD46BDE8F04003B070470028F7D0BF
:10B9F00023680246DB68204607F110019847EFE70D
:10BA000010B5084CD4E88F3FDB0709D42046FDF77A
:10BA10004DF828B12046FDF74EF8034802F0E0FF4C
:10BA2000024810BD68AE071093C13F02749D071015
:10BA300010B5084CD4E88F3FDB0709D42046FDF74A
:10BA400035F828B12046FDF736F8034802F0C8FF64
:10BA5000024810BD6CAE0710FBC13F02789D071075
:10BA600038B500250446C0E90055C0E90455856095
:10BA7000856140F8245FFDF7F3FCFFF7C1FFE0614B
:10BA8000FFF7D6FF25732062204638BD10B50A4C5B
:10BA9000D4E88F3FDB070CD42046FDF707F840B110
:10BAA0000648FFF7DDFF2046FDF705F8044802F0E1
:10BAB00097FF024810BD00BF64AE071074AE0710B8
:10BAC000B1C93F020023024A02490348FDF776BF8D
:10BAD000C5C73F0251C73F02D1C63F0200231A46E5
:10BAE00019461846FDF76ABF37B504468D686846A3
:10BAF000FFF7A2FE6A4629462046FFF74FFD01A840
:10BB0000FEF7D9F8204603B030BD37B50446CD68FE
:10BB10006846FFF791FE6A4629462046FFF71AFD60
:10BB200001A8FEF7C8F8204603B030BD37B504467B
:10BB30000D696846FFF780FE6A4629462046FFF7F2
:10BB4000B2FC01A8FEF7B7F8204603B030BD0000F4
:10BB500070B58AB00D46014604A8FFF7C5FF144E24
:10BB600004A8FFF733FDE8B1684604A9FFF7CDFF4D
:10BB700031460298FFF73AFE044610B12C1E18BF5A
:10BB8000012401A8FEF797F8002CE9D0684604A923
:10BB9000FFF7CCFF6846FFF7BCFC286001A8FEF762
:10BBA0008AF8DDE705A8FEF786F80AB070BD00BF89
:10BBB000F8FA3F0237B50C46134920461546FCF704
:10BBC00033FF50B901F052F84FF4165101F03EF82E
:10BBD00003B0BDE8304001F049B820460B49FCF7FE
:10BBE00023FF78B94FF4165301A928460193FFF7B4
:10BBF000AFFF01F01DFA019900F0CCFF01F018FA37
:10BC000003B030BD0020FBE7FDFA3F0204FB3F021A
:10BC100070B51426D0E90053044606FB0356AE4225
:10BC200005D005F10800FFF7F3FF1435F7E72068AA
:10BC3000FDF7DCFF204670BD10B504460C30FFF761
:10BC4000E7FF2046FEF795FC204610BD10B50446E0
:10BC5000034B40F8043BFFF7EFFF204610BD00BF49
:10BC600084F83F0210B50446FFF7F0FF2046242178
:10BC7000FCF70DFF204610BD10B50446024B0360D3
:10BC8000FFF7E4FF204610BDA4FB3F0210B50446B9
:10BC9000FFF7F2FF20462421FCF7F9FE204610BDF5
:10BCA0000022C0E90022826010B50C680A600460BE
:10BCB0004C684A6044608C688A60846010BD10B52E
:10BCC000044603681868FDF7F5FB204610BD000028
:10BCD0002DE9F04F87B003931C4B80465B68894683
:10BCE000C3F3080316466BB9FFF7D0FE044600F114
:10BCF0002403406A0593FFF777FD237B2BB105A84A
:10BD0000FFF7DDFF07B0BDE8F08F01235FFA89F987
:10BD10002373D4E9005305EB830AAA4512D055F8E2
:10BD2000047B3146381DFFF709FE8145F5D3039AA0
:10BD30003B680092D3F808B04A463346414638463D
:10BD4000D847EAE700232373D9E700BF00ED00E0FE
:10BD50002DE9F74F9B461A4B80465B688946C3F333
:10BD6000080316466BB9FFF791FE044600F1240361
:10BD7000406A0193FFF738FD237B2BB101A8FFF741
:10BD80009EFF03B0BDE8F08F0123F6B22373D4E920
:10BD9000005305EB830A55450ED055F8047B5946F0
:10BDA000381DFFF7CBFD8642F5D33B684A46414636
:10BDB0003846DB689847EEE700232373DEE700BFD1
:10BDC00000ED00E02DE9F341164B05465B680F4698
:10BDD000C3F308031BBBFFF759FE044600F124031D
:10BDE000406A0193FFF700FDD4E90063462406EBA7
:10BDF0008308B04509D101A8FFF761FFA542B4BF90
:10BE00000020012002B0BDE8F08156F8040B39464D
:10BE10000430FFF793FD8442A8BF0446E9E7002001
:10BE2000F0E700BF00ED00E0F8B5D0E901539D4216
:10BE300004460E460DDB6F1C002F006804DDB900C0
:10BE4000FDF7E2FE18B9F8BDFDF7D0FE0020206036
:10BE5000A7602768626807EB85019200A2EB850264
:10BE6000081D02F0E8FD47F82560636801200133F2
:10BE70006360E8E737B5044600F12403406A0193A4
:10BE80000D46FFF7B1FCD4E9003203EB8202934286
:10BE900019460AD009680433A942F8D101A8FFF76E
:10BEA0000EFF0025284603B030BD29462046FFF787
:10BEB000BBFF05460028F1D06368012B01D1FFF7D5
:10BEC00001FE01A8FFF7FBFEECE70B4670B5044648
:10BED000D0E9000200EB820282420FD001461D68C9
:10BEE00051F8046BAE4207D1521A02F0A4FD0120B2
:10BEF0006368013B636070BD0846EDE70020FAE728
:10BF0000182370B50446D0E9045603FB0656AE422A
:10BF100015D0204605F11001FFF7D7FF63680BB974
:10BF2000FFF7DCFDE06929690368DB689847696908
:10BF300019B1206A0368DB6898471835E7E71826C7
:10BF4000D4E9045306FB0356AE4204D0284600F061
:10BF5000FBFC1835F8E70023636170BD73B5044638
:10BF6000FFF7BCFD04F12403606A0193FFF73CFC7A
:10BF70002046FFF7C5FF01A8FFF7A1FE606A08B1E0
:10BF8000FDF77CFAD4E90453182606FB0356AE42AB
:10BF900004D0284600F0D8FC1835F8E72069FDF7F2
:10BFA00025FE2068FDF722FE204602B070BD00008D
:10BFB0000148FFF7D3BF00BF74AE07108842F8B541
:10BFC00004460D46164615D9904214D2A2F1140625
:10BFD000751AA1F114072C44B7421AD01CB131468E
:10BFE0002046FFF75BFC06F10800FFF711FE143E48
:10BFF000143CF1E70DD0B5420BD01CB129462046C8
:10C00000FFF74CFC05F10800FFF702FE143514346D
:10C01000F1E7F8BD8842F8B504460D46164614D936
:10C02000904213D2A2F11006751AA1F110072C4408
:10C03000B74218D01CB13146204600F002FD304610
:10C0400000F082FC103E103CF2E70CD0B5420AD062
:10C050001CB12946204600F0F4FC284600F074FC90
:10C0600010351034F2E7F8BD70B50E1E054611DD2F
:10C070003001FDF7ADFD044658B1D5E9001201EBE2
:10C080000212FFF7C7FF2868FDF7B0FD01202C6002
:10C09000AE6070BD0024F6E72DE9F04F9046002316
:10C0A000462295B00391D8F8041004469942C0E99D
:10C0B0000033C0E90233C0E90433CDE90833027626
:10C0C0000A9323DCD8E90057142303FB0757AF4238
:10C0D0003BD029460BA800F0B4FC0BA90FA8099E81
:10C0E00000F0AFFCDDE9091399421BDA089B099ABD
:10C0F00003EB0616314603EB021206F11000FFF7C0
:10C1000089FFEEB9099B0133099311E008A8FFF7F5
:10C11000ABFF0028D6D108A8FEF72BFA204615B0B1
:10C12000BDE8F08F013108A8FFF79EFF0028DDD1A0
:10C130000FA800F009FC0BA800F006FC1435C6E7B8
:10C1400030460FA900F07DFCDCE700264FF0140913
:10C15000CDE90B660D96DDE908239E427CDA3301BA
:10C16000D35806930BB90136F5E70023079309FB73
:10C1700006F30BAD029307A906A8FFF70EFB824654
:10C180000028F0D04FF0000301468DF81730284604
:10C19000079A0DF11703FFF795FB9DF817700190B3
:10C1A000002F4AD1BDF81C30CDE91177ADF84030F1
:10C1B0004FF6FF73CDF83CA0ADF842301397D5E9A8
:10C1C0000132934217DB03F1010ABAF1000F30DDAF
:10C1D00009FB0AF0FDF7FCFC834660B3D5E90012C9
:10C1E00009FB0212FFF7EAFE2868FDF7FFFCC5F81D
:10C1F00000B0C5F808A02B68019A09FB023A6A68EA
:10C20000514609FB02320AF11400FFF7D7FEBAF1DA
:10C21000000F03D050460FA9FFF740FB6B680133B6
:10C220006B6011A8FFF7F4FC3FB10BA8FFF7F0FC1F
:10C2300071E7BB46D8E70127F3E7019B2D6809FBAF
:10C240000355069B1B782BB9D8F80030029A13448B
:10C250001B7CEB8008358EE7216822606268636092
:10C26000A36809920A9A0A93E368A2600B9A0B9357
:10C270002369E2600C9A0C93636922610D9A0D9315
:10C28000039B089162612376CFE70000F0B5044676
:10C290002646174687B00D4668461946FCF7E1FC6E
:10C2A0000B4B694646F8043B03A8FCF7DAFC394619
:10C2B00003AA3046FFF7F0FE03A8FCF791FC68469E
:10C2C000FCF78EFC2046034B2562236007B0F0BDCF
:10C2D00084F83F028CFB3F02F0B50F4685B038462C
:10C2E0001C4916461D460A9CFCF79EFBC0B9A4B12A
:10C2F000294601A8FFF7D4FC2420174900F028FFA5
:10C30000054630B101AB32462146FFF7BFFF134B64
:10C310002B6001A8FCF764FC2C46204605B0F0BD5C
:10C3200038460F49FCF780FB90B9002CF5D0294620
:10C3300001A8FFF7B5FC2420074900F009FF0546D6
:10C340000028E6D03246214601ABFFF79FFFE0E729
:10C350000024E2E70CFB3F02D8FC3F02A4FB3F02B3
:10C3600010FB3F02014B024A1A60704770AE071083
:10C3700021FB3F022DE9F047089DD0F820900446AC
:10C380000E461746984600F071FC81454DD02B793A
:10C39000190704D520466A695449FFF7F8FAB8F13D
:10C3A000000F0DD05B212046FFF76CFA4146204676
:10C3B000FFF759FA236802222046DB684C49984768
:10C3C0002B79DA0724D5D5F808802F21404602F0D2
:10C3D000C2FB08B100F1010841462046FFF743FACD
:10C3E0002B799B0708D53A212046FFF74BFA2046C8
:10C3F000EA684049FFF7CBFA2A79236812F0040F64
:10C4000020464FF00202DB6814BF3B493B49984786
:10C410002B7958071DD529690B461A4613F8010BCD
:10C4200060B1202808D11946F7E7354800F083F9B4
:10C430000028ACD0BDE8F0872828EED12368521A36
:10C440002046DB689847236804222046DB682D4994
:10C45000984700213846FDF7A3FA01462046FFF72A
:10C4600002FA236802222046DB68244998471EB15D
:10C4700031462046FFF7F7F92B7913F0300F2CD017
:10C4800023682149DB680222204698472B79D90688
:10C490000AD52368072220461C49DB6898472046B6
:10C4A000AA691B49FFF773FA2B799A0611D5DB06A7
:10C4B00005D5236802222046DB680F499847236888
:10C4C000204614490A22DB6898472046E969FFF7AD
:10C4D000CAF95D212046FFF7D5F923682046BDE85B
:10C4E000F0470222DB680C49184700BF25FB3F02DA
:10C4F0002CFB3F02ECFA3F022FFB3F0234FB3F02D2
:10C500009CAE071032FB3F0237FB3F023AFB3F0273
:10C5100042FB3F0245FB3F0250FB3F022DE9F04149
:10C520000446076A0D46164600F0A0FB874207D076
:10C53000206A324603682946BDE8F041DB681847A7
:10C54000034800F0F8F80028F2D0BDE8F08100BF01
:10C550009CAE07102DE9F04385B0D0F82090054639
:10C560000F4690461E460C9C00F080FB814505D18D
:10C57000494800F0E0F8002840F08A804FF00009B8
:10C580002B6A464A01A8019203938DF80890FFF7A1
:10C5900046F849464046FDF703FA804640490122E5
:10C5A00001A8FFF7CBF84146FFF74FF93FB13D49EE
:10C5B000012201A8FFF7C2F83946FFF746F93EB15C
:10C5C0003949012201A8FFF7B9F83146FFF73DF9D3
:10C5D0002379DF070ED5A6682F21304602F0BBFA7B
:10C5E00000B1461C3149012201A8FFF7A7F83146E6
:10C5F000FFF72BF923799E0707D52D49022201A8C1
:10C60000FFF79CF8E168FFF717F82379580714D56E
:10C61000266933461F4613F8012B2AB1202A01D17F
:10C620001E46F7E7282AF5D10222224901A8FFF782
:10C6300085F83146BA1BFFF791F82379190707D51A
:10C640001D49012201A8FFF779F86169FFF706F893
:10C650002379DA0608D5042218490DEB0200FFF70A
:10C660006DF8A169FEF7E8FF23799B0607D5144909
:10C67000062201A8FFF762F8E169FFF7E6F801A8D2
:10C68000FEF7B7FF286A022203680E49DB68984765
:10C6900005B0BDE8F08300BF9CAE071074FB3F02FD
:10C6A00002FB3F0253FB3F02C6FE3F02CCF73F02B4
:10C6B00055FB3F0258FB3F025BFB3F025DFB3F0225
:10C6C00062FB3F0250FB3F02002340681A46FDF721
:10C6D000D7B9002202214068FDF7EEB90022406878
:10C6E0001146FDF7DBB9002240681146FDF7F2B9AB
:10C6F000002340681A461946FDF7FAB9002340683E
:10C700001A461946FDF702BA00214068FDF744BAFF
:10C7100000214068FDF74EBA0022406881F0010117
:10C72000FDF702BA00224068FDF71ABA00224068FD
:10C730001146FDF723BA002240681146FDF702BA00
:10C740002DE9F04395B014460D460746FEF700FE6E
:10C7500000211C220DA8009102F087F940232046F9
:10C760000C9300216B460CAAFCF784FF04460028BA
:10C770004BD1024601216868FDF7ACF902218046E1
:10C7800022466868FDF7A6F921468146009E002EE4
:10C790003BD0002939D17368022B03D00A2B11D06A
:10C7A000F669F4E7B8F1000FFAD0716906A8043110
:10C7B0003C1D07ADFEF7FAFD0FCD0FC42B684146B7
:10C7C0002370EDE7B9F1000FEAD0102201A87469D7
:10C7D00002F04BF9062301AD8DF8143004F1080383
:10C7E00018342A4618685968083303C2A34215460C
:10C7F000F7D101A906A83C1D07ADFEF7B7FD0FCD87
:10C800000FC42B6849462370CAE70098FCF724FF41
:10C81000384615B0BDE8F083024B034A1A60002287
:10C820005A6070479CAE0710ECFB3F02F8B5064615
:10C830000D4600248F18BD420CD0336830469B68EB
:10C8400015F8011B9847031E01DB1C44F3E7002C7D
:10C8500008BF1C462046F8BD13B50446084659B12A
:10C860000191FCF7EBF80246204623680199DB684A
:10C8700002B0BDE81040184702B010BD03689B68C5
:10C8800018470023012A98BF0A2230B58BB08DF8D3
:10C89000243009AC0D46B1FBF2F101FB125303F059
:10C8A000FF03092B94BF30333733DBB2AA4204F8BD
:10C8B000013DEFD92146FFF7CFFF0BB030BD00009F
:10C8C0000022014B9A607047A4AE07100021FCF7CC
:10C8D00033BF0021FCF722BF10B504460846217083
:10C8E000FCF700FF00232046636010BD13B504462B
:10C8F0000078FFF7EEFF58B920784FF6FF710190EE
:10C90000FCF7C6FE019802B0BDE81040FFF7DEBF9D
:10C9100002B010BD13B5044600780191FFF7D9FFAE
:10C92000019948B920780190FCF7C0FE019802B047
:10C93000BDE81040FFF7CABF02B010BD08B50078CF
:10C94000FCF7C2FEC0B208BD10B504460068FDF792
:10C950004DF9204610BD10B50446006808B1FDF73A
:10C9600045F90023C4E90133236010BD38B50446FE
:10C970000D4600680131FDF747F910B1C4E9000523
:10C98000012038BD10B50368044623B143688B42CB
:10C9900001D3012010BD2046FFF7E8FF0028F9D0A1
:10C9A000A368002BF5D122681370F2E737B50D4666
:10C9B000114601920446FFF7E5FF019A28B9204687
:10C9C000FFF7C9FF204603B030BD2946A2602068AA
:10C9D00002F024F800212268A368D154F2E7002372
:10C9E00013B50446C0E900338360037341B10846C0
:10C9F0000191FCF723F8019902462046FFF7D6FF84
:10CA0000204602B010BD38B5054600680C4670B12E
:10CA10006A688B689A4208D3096831B102F073F8EA
:10CA2000A368AB600023A36038BDFDF7DFF823687F
:10CA30002B6063686B60A368AB600023C4E90033BC
:10CA4000F1E7002310B50446C0E9003383600373A7
:10CA5000FFF7D9FF204610BD884210B5044605D027
:10CA60000B682BB18A681946FFF7A0FF204610BD5E
:10CA7000FFF771FFFAE7002310B50446C0E9003361
:10CA800083600373FFF7E8FF204610BD13B504462B
:10CA900059B108460191FBF7D1FF019902462046A2
:10CAA000FFF784FF204602B010BDFFF754FFF9E7FF
:10CAB00002220020044B1A60044B054AC3E900001F
:10CAC0009A60FCF789BF00BFC0AE0710B4AE071074
:10CAD0000000FFFF024B1A68024B1A60704700BF4C
:10CAE0007C9D0710C4AE071070474174704708B5AD
:10CAF000007CFCF791FE20EAE07008BD08B5007CE0
:10CB0000FCF744FE20EAE07008BD08B5007CFCF7A5
:10CB100059FE40EAE07008BD08B5007CFCF744FE11
:10CB200040EAE07008BD007CFCF75ABE37B5457C92
:10CB300004462DB1207C03B0BDE83040FCF718BEA0
:10CB4000007C0191FCF768FE00280199F2DC284680
:10CB500003B030BD10B504461421FBF798FF204602
:10CB600010BD000010B54FF47A7304460846114614
:10CB70000022C4E90123044B207423600123637461
:10CB8000FCF766FE204610BD44FC3F020023007CFB
:10CB9000FCF750BE0022FFF7F9BF007CFCF7DABDBE
:10CBA000007CFCF72BBE417470477047704708B596
:10CBB0000021007CFCF7A0FE40EAE07008BD08B54B
:10CBC0000121007CFCF798FE40EAE07008BD08B542
:10CBD000007CFCF783FE20EAE07008BD08B5007C0D
:10CBE000FCF76EFE20EAE07008BD13B50446007C39
:10CBF0000191FCF773FE0028019901DC607C20B1F3
:10CC0000207CFCF787FE20EAE07002B010BD007CBB
:10CC1000FCF78EBE10B504461421FBF738FF204602
:10CC200010BD000010B54FF47A7304460846002189
:10CC3000C4E90113044B207423600123114663747B
:10CC4000FCF714FE204610BD74FC3F020022007C5D
:10CC5000FCF71ABE007CFCF725BE10B50446142272
:10CC6000002101F002FF204610BD000010B588B081
:10CC700003A8FFF7F2FF0C4CD4E88F1F11F001015D
:10CC80000FD120460191FBF711FF019948B103AA8A
:10CC90000648FFF7C7FF2046FBF70DFF044801F0E9
:10CCA0009FFE024808B010BDC8AE0710CCAE0710FA
:10CCB000ABD53F02002240681146FCF70BBF0022B3
:10CCC00040681146FCF73EBF002240681146FCF761
:10CCD00055BF00224068FCF743BF0022406881F046
:10CCE0000101FCF721BF002340681A461946FCF7F2
:10CCF0000DBF002340681A461946FCF7F9BE002212
:10CD000040681146FCF7CABE002202214068FCF7C9
:10CD1000D3BE002340681A46FCF7B2BE0422024B81
:10CD20005A60024A1A607047E0AE0710A4FC3F0246
:10CD3000014B1860704700BF849D071008B50F4B6A
:10CD400043B1FFF793FF03681B699847002801DD93
:10CD500000E000BF0A4B43B100F06AF903681B69A9
:10CD60009847002801DD00E000BF064B0BB100F042
:10CD7000A5F9054B0BB100F0D7F908BD0000000084
:10CD800000000000000000000000000008B5FFF7F0
:10CD9000D5FFFCF7B9FB014B186008BDF0AE0710DA
:10CDA0000548064A08B5121A054901F037FE054B39
:10CDB000054A1A6008BD00BF00B4071004B407108C
:10CDC0006CF65F0800B407101E1C279A002307B5F5
:10CDD0001A466FF077010093FCF736FE03B05DF85A
:10CDE00004FB000007B543880A2B08D0502B0BD159
:10CDF000094B1B684BB103B05DF804EB1847FFF714
:10CE0000E5FF03B05DF804FB00231A466FF07701DD
:10CE10000093FCF719FEF4E7ECAE0710002110B503
:10CE20001148FCF737FF114B1A68114B9A420CBF9F
:10CE3000012200220F4B1A7001D0FFF7B1FFFCF75F
:10CE400047FB044601F01AFE0B4B13B1204600E0ED
:10CE500000BF00210848FCF705FEBDE81040002196
:10CE60000648FCF7E3BD00BF31D73F0200B407100E
:10CE70001E1C279AE8AE071000000000E5D73F020D
:10CE80001B2837B5044602D9002003B030BDA0F1FD
:10CE90000F03022B0BD9012821D800F075F80021CF
:10CEA000007CFCF7AFFB80F00100C0B2EDE7114D54
:10CEB000D5E88F1F11F001010BD128460191FBF736
:10CEC000F5FD019928B10C48FFF706FD2846FBF750
:10CED000F2FD094B1878FCF713FC0028D4D1083C6C
:10CEE000012C05D800F0A4F8007CFCF787FCDAE7F9
:10CEF0000120CAE740AE071044AE07101B2838B522
:10CF000004460D460AD8FF2908D0FFF7B9FF28B11B
:10CF100029462046BDE83840FCF704BB38BD38B58B
:10CF200004460D46FCF70CFBFF2810D0062804D859
:10CF30004D2323FA00F0C30709D42046FFF7A0FFD2
:10CF400028B129462046BDE83840FCF707BB38BD6C
:10CF50007047000038B50A4B0446036001230949B5
:10CF60004361202000F0F6F820256060054928463E
:10CF7000A56000F0EFF8C4E90305204638BD00BF06
:10CF800018000100D8FC3F0230B50E4D87B0D5E83F
:10CF90008F1F11F0010411D12846FBF787FD68B1FE
:10CFA0006846FFF7D7FF6A4621460748FEF778F93B
:10CFB0002846FBF780FD054801F012FD024807B046
:10CFC00030BD00BFF4AE0710F8AE071051D93F02D4
:10CFD0007047000038B5142504462A46002101F0A8
:10CFE00044FD25804025074928462581258200F0FB
:10CFF000B1F804496060284600F0ACF8E0602046D3
:10D0000038BD00BFD8FC3F027047704710B50446DA
:10D01000FFF7E0FF204610BD10B50446FFF7DAFF2A
:10D02000204610BD10B50446FFF7D4FF204610BDC2
:10D0300030B50E4D87B0D5E88F1F11F0010411D126
:10D040002846FBF733FD68B101A8FFF7DFFF214653
:10D0500001AA0748FFF786FD2846FBF72CFD054887
:10D0600001F0BEFC024807B030BD00BF0CAF071096
:10D0700018AF0710D1D93F0210B50D4C86B0D4E8D7
:10D080008F3FDB0711D42046FBF710FD68B101A8E4
:10D09000FFF7C2FF012101AA0648FFF763FD204602
:10D0A000FBF709FD044801F09BFC024806B010BDE7
:10D0B00010AF07102CAF07100BDA3F0210B5FFF7C7
:10D0C000DBFF074B044653B1FFF76AFD38B1236815
:10D0D00020461B699847002801DD00E000BF10BD15
:10D0E0000000000010B50D4C86B0D4E88F3FDB0780
:10D0F00011D42046FBF7DAFC68B101A8FFF792FFD4
:10D10000022101AA0648FFF72DFD2046FBF7D3FCBC
:10D11000044801F065FC024806B010BD14AF0710CA
:10D1200040AF071009DA3F0210B5FFF7DBFF074BEE
:10D13000044653B1FFF734FD38B1236820461B691C
:10D140009847002801DD00E000BF10BD000000008E
:10D15000FBF799BCFBF799BC08B5FCF771FD000023
:10D16000014900F0F9B800BFF4FC3F027FB500248C
:10D17000102315461268CDE902340368CDE9004456
:10D180009E696B46B0479DF8043003F00603062BFA
:10D1900005BF009B012020462B6004B070BD0098A5
:10D1A000904214BF0120062070470000034B10B5C9
:10D1B0000446036000F0CDF8204610BD34FD3F0268
:10D1C00010B50446FFF7F2FF08212046FBF75FFC8D
:10D1D000204610BD2DE9F041DDF818801F460646B7
:10D1E0001546DDE90834984507D1079900F0B4F8F1
:10D1F00018B165710020BDE8F0813946304600F075
:10D20000ABF80028F6D00123C4F800802571A37183
:10D21000F0E738B515461C4600F09EF820B108230B
:10D220002560E3600623237138BD73B505460C46BF
:10D230001E46019200F090F850B9032E08D82368DA
:10D240002946019A20465B6902B0BDE87040184744
:10D2500002B070BD034B10B504460360FFF7A6FF94
:10D26000204610BD94FD3F0210B50446FFF7F2FFC3
:10D270000C212046FBF70BFC204610BDF7B5089F9C
:10D2800005460E46144697420AD0A8683146026801
:10D290000897156A2246AC4603B0BDE8F0406047E7
:10D2A0001946019300F058F8019B0028EDD00620A4
:10D2B00003B0F0BD2DE9F14F0D46194681461746E2
:10D2C0009846DDE90A4BDDE90CA600F045F890B17F
:10D2D000002D3460377109DB61198A450CBF0621C6
:10D2E0000121B171002001B0BDE8F08F0235F9D104
:10D2F0000123B371F6E7544506D15946484600F07C
:10D300002BF808B17771EDE7D9F808003A462946BD
:10D310000368CDE90CA6CDE90A4BDC694346A44677
:10D3200001B0BDE8F04F60472DE9F04107460C46DB
:10D3300015461E46FFF76DFF48B9B8682A462146D4
:10D3400003689F693346BC46BDE8F0416047BDE8CD
:10D35000F081704700207047814208B50ED04068C8
:10D3600003782A2B0CD049680B782A2B08BF01318F
:10D37000FBF75AFBB0FA80F0400908BD0120FCE73A
:10D380000020FAE700F00CB9F8B52DED028B57EC50
:10D39000106B55EC114B00F0D7F9634BB0EE408A9F
:10D3A000F0EE608A93F9003001332AD022462B46F2
:10D3B00020462946FBF7D2FA18BB32463B46304698
:10D3C0003946FBF7CBFA002844D10022002330462F
:10D3D0003946FBF791FAD8B10022002320462946AE
:10D3E000FBF78AFA00283DD145EC104B01F0B2F969
:10D3F00038B12046294600220023FBF787FA00288F
:10D400005CD1B0EE480AF0EE680ABDEC028BF8BDC4
:10D41000B0EE480AF0EE680A01F09CF958B3002219
:10D42000002351EC180BFBF767FA0028E9D047EC12
:10D43000106B01F08FF90028E3D045EC104B01F0A0
:10D4400089F90028DDD0FCF709FC22239FED2E8B03
:10D450000360D6E72046294600220023FBF74CFA5A
:10D460000028CED09FED2A8BB0EE480AF0EE680A75
:10D47000BDEC028BF8BD47EC106B01F06BF9002896
:10D48000CDD045EC104B01F065F90028C7D018EE5F
:10D49000100A53EC182B1946FBF760FA20BBFCF777
:10D4A000DDFB22220346394630461A600022002363
:10D4B000FBF72CFA48B99FED188BA2E7FCF7CEFBDF
:10D4C00021239FED178B03609BE745EC104B01F088
:10D4D00057F922462B4651EC100BFBF70DFA0028AA
:10D4E000E9D19FED0F8B8CE7FCF7B8FB00220023FE
:10D4F0002121016010461946FBF7C0F841EC180BDA
:10D500007FE700BFAFF300800000000000000000D4
:10D51000000000000000F03F000000000000F07F6D
:10D52000000000000000F0FF809D071038B52DEDD1
:10D53000028B55EC104B00F099FE184BB0EE408A70
:10D54000F0EE608A93F9003001330DD022462B466D
:10D5500020462946FBF702FA30B900220023204674
:10D560002946FBF7D3F930B9B0EE480AF0EE680A65
:10D57000BDEC028B38BDFCF771FB0022002321219A
:10D58000016010461946FBF779F841EC180BB0EE34
:10D59000480AF0EE680ABDEC028B38BD809D07108A
:10D5A00051EC110B43422DE9F047034321F0004EAB
:10D5B000614E4EEAD373B34255EC104B3CD86342F4
:10D5C00025F0004AA94623434AEAD373B34233D82D
:10D5D0005A4B0B4403433ED08F175AEA040307F01B
:10D5E000020747EAD5772FD05EEA000337D0B64569
:10D5F00044D0B24533D0AAEB0E0EBEF1747F4FEA91
:10D600002E5338DA00296ADA3C3368DA9FED3C0B96
:10D61000012F50D0022F3DD0A7B151EC100B3AA3EF
:10D62000D3E90023FAF748FD39A3D3E90023FAF739
:10D6300043FD41EC100B05E022462B46FAF73EFD78
:10D6400041EC100BBDE8F087022F0ED0032FF9D16B
:10D650009FED310BF6E7BDE8F04700F0C9BEB9F128
:10D66000000F05DB9FED2E0BECE79FED290BE9E7A3
:10D670009FED2D0BE6E79FED2A0BC9E7F24507F179
:10D68000FF3721D0022F27D82D4B03EBC70797ED8B
:10D69000000BD7E71CA3D3E9002351EC100BFAF7DA
:10D6A0000BFD02460B461AA1D1E90001FAF704FD71
:10D6B00041EC100BC6E710EE901A53EC102B01F161
:10D6C000004343EC102BBDE7022F15D81D4B03EB95
:10D6D000C70797ED000BB5E79FED090BB2E70246D0
:10D6E0000B4620462946FAF7C9FF41EC100B01F022
:10D6F00027F800F07DFE8BE79FED0D0BA2E700BF42
:10D700000000000000000000075C143326A6A13CC6
:10D71000182D4454FB210940182D4454FB2109C005
:10D72000182D4454FB21F93F182D4454FB21F9BF17
:10D73000182D4454FB21E93F0000F07F000010C089
:10D74000E8FD3F02D0FD3F022DE9F04F55EC114BB3
:10D7500025F0004A5AEA04022DED0C8B87B01FD049
:10D760005D4910EE102A57EC106B27F00048B946BF
:10D77000884511DCAB4611EE103A08D13EB157484E
:10D7800007B0BDEC0C8BBDE8F04F00F0F1BF524983
:10D790008A4501DC0BD153B1514B43441343EED1C5
:10D7A0009FED490B07B0BDEC0C8BBDE8F08FB9F1D4
:10D7B000000F45DB0021009183B9474B9A455BD0B0
:10D7C000484B9A456AD0BBF1804F00F0B084464B7D
:10D7D0009B4503D1B9F1000F80F20D85029247EC11
:10D7E000106B00F0ADFF029A4AB929F040433D4A60
:10D7F000934200F0A883B8F1000F00F0A4834FEA31
:10D80000D973009A013B049313434ED0374B9A458A
:10D8100072DD03F104739A45354B40F32B84984530
:10D8200040F3A983BBF1000F40F3A98328A3D3E9F8
:10D83000002310461946FAF7F7FD41EC100BB1E74B
:10D840002C498A4527DCA1F154718A45B2DD4FEAA3
:10D850002A51A1F2FF31142940F37D84C1F1340132
:10D8600023FA01F000FA01F19942A3D100F001007E
:10D87000C0F1020100919FE7194B434413438FD03D
:10D880001B4B984540F3AB83BBF1000FC0F277838D
:10D8900045EC104B86E7022100918DE7BBF1000FAC
:10D8A000C0F24F8447EC106B7CE732463B46104693
:10D8B0001946FAF701FC02460B46FAF7DFFE41EC87
:10D8C000100B6FE7AFF30080000000000000F03F96
:10D8D0009C7500883CE4377E0000F07F00FE3F022C
:10D8E000000010C00000F03F0000E03F0000E041F9
:10D8F000FFFFEF3FFFFF3F43E34B002209EA030333
:10D9000053B9E24B51EC100BFAF78EFD6FF0340275
:10D9100041EC100B10EE908A4FEA2853C8F313081D
:10D92000DB4EA3F2FF3348EA06069A18D94B984516
:10D93000059207DDD84B984540F333840132A6F5B4
:10D940008016059200279FEDB87B9FEDB96BB0EE76
:10D9500047DAF0EE67DAB0EE47CAF0EE67CA51EC8C
:10D96000160B53EC102B3346761043EC192B41EC7D
:10D970001A0B02460B4646F0005651EC190BFAF70B
:10D980009BFB8046894653EC1A2B51EC190BFAF796
:10D9900095FB02460B460020BD49FAF76FFE41ECAD
:10D9A0001B0B53EC1B2B40464946FAF73DFD0A463C
:10D9B00006F5002341EC180B01460020CDE90212C8
:10D9C0000021064602460291D919DDE902AB0F4655
:10D9D0000B4650465946FAF727FD02460B4640468D
:10D9E0004946FAF769FB804689463046394653EC8A
:10D9F0001A2BFAF761FB02460B4651EC190BFAF7AA
:10DA00005BFB52465B46FAF70FFD02460B4640466B
:10DA10004946FAF751FB53EC1B2BFAF705FD53EC83
:10DA2000182B41EC1A0B51EC180BFAF7FDFC0646CB
:10DA30000F4681A3D3E90023FAF7F6FC80A3D3E9CC
:10DA40000023FAF73BFB32463B46FAF7EDFC7EA398
:10DA5000D3E90023FAF732FB32463B46FAF7E4FCFF
:10DA60007BA3D3E90023FAF729FB32463B46FAF7BA
:10DA7000DBFC79A3D3E90023FAF720FB32463B46CF
:10DA8000FAF7D2FC76A3D3E90023FAF717FB804616
:10DA9000894632463B4630463946FAF7C5FC0246CF
:10DAA0000B46404649464FF00008FAF7BDFC524687
:10DAB00006460F465B4651EC180BFAF7FFFA53EC9B
:10DAC0001A2BFAF7B1FC32463B46FAF7F7FA524600
:10DAD0005B4641EC190B50465946FAF7A5FC00226B
