:02000002B0004C
:1040000000400B0094880B00000006000C00050225
:0840100004016810000000002B
:04401800EC7F0B002E
:10401C0009480A49884208B505D0094A824202D0AB
:10402C00121A03F027FE0748074A0021121A03F060
:10403C0049FE014808BD00BFB0D50320F8870B002E
:10404C0024D6032024D60320EDE7032070B5074EB9
:10405C00074C03F065FCA41BA4080025AC4200D15E
:10406C0070BD56F8043B98470135F7E7A0870B0065
:10407C00C4870B0000F026BA08B500F02FFABDE893
:10408C00084003F005BC00F0BDBC00F0BBBC00F068
:10409C00C1BC000008B5034A03490C2000F0FEFB2C
:1040AC00FEE700BF49470B0000800B000078B0FA18
:1040BC0080F0400970470123037070477047006A15
:1040CC000368DB68184730B5D0E90D23046B9D1AE3
:1040DC00A54228BF013203F1010528BF4263856365
:1040EC00C26AB3FBF4F004FB10330120D15430BD91
:1040FC00A0F12400FFF7E7BF704700000B4B03F162
:10410C000802243310B5044602604362443001F0C7
:10411C0018F904F13C0001F014F92046044B40F866
:10412C00043B02F021FB204610BD00BFA4800B0015
:10413C0094800B00A0F12400FFF7E0BF10B50446FB
:10414C00FFF7DCFF20464C21FFF7A1FF204610BDF6
:10415C00A0F12400FFF7F2BF10B58CB0044600F0BC
:10416C00E7FF04F13C02014607A801F02DFD07A86A
:10417C0001F0E7F800F0DCFF04F14402014607A867
:10418C0001F022FD07A801F0DCF804A801F00FFAF9
:10419C00154907A800F07EFE07A800F0DDFD0446D7
:1041AC0007A8B4B900F0F4FD0094ADF80E0002239A
:1041BC000DF10E02032104A801F0EEF900F0B8FF96
:1041CC00002204A901F061F8049800F023FC0CB063
:1041DC0010BD00F0DFFD00230093102302460721E1
:1041EC000DEB0300E8E700BF15800B0038B5044663
:1041FC0000F09EFF00F0F6FFB0B1D4E90D12551A95
:10420C0012D0236BE06AB1FBF3F2142D28BF1425F6
:10421C0003FB121101442A46002304F13C0000F078
:10422C0077FE626B2A44626338BD70B5D0E90053E7
:10423C001426044606FB0356AE4204D0284603F06F
:10424C0013F91435F8E7206800F0E4FB204670BD44
:10425C008842F8B504460D46164616D9904215D23A
:10426C00A2F11406751AA1F114072C44B7421CD004
:10427C002CB13146204603F074F9337C237430465C
:10428C0003F0F2F8143E143CF0E70ED0B5420CD01B
:10429C002CB12946204603F064F92B7C2374284664
:1042AC0003F0E2F814351434F0E7F8BD2DE9F041D1
:1042BC000023C0E9003383604F689F4204460E46DA
:1042CC0023DD4FF0140808FB07F000F09BFB0546BC
:1042DC00D8B1D4E9001208FB0212FFF7B9FF20682D
:1042EC0000F098FB2560A760D6E9007308FB037803
:1042FC00B84508D03946284603F04DF93B7C2B7461
:10430C0014371435F4E7736863602046BDE8F08118
:10431C002DE9F04192B004460F4605A818991646AF
:10432C0098462546FFF7C2FF05A908A8FFF7BEFF70
:10433C002E4B45F8043B08A90DA8FFF7B7FF4146E3
:10434C000DAA284602F058FC0DA8FFF76EFF08A82E
:10435C00FFF76BFF2346264A43F8242B05A823625C
:10436C00FFF763FF234B2449002503F10802C4E93E
:10437C000B762433214E22606362C4E90D55C4E9E7
:10438C000F55A56208A800F085FD31460DA800F078
:10439C0081FD0DAB4FF01002009304F13C0008AB13
:1043AC00CDE90155164901F0E5FAC4E91155154955
:1043BC0008A800F06FFD31460DA800F06BFD124B04
:1043CC0001930DAB4FF004021049009304F144002B
:1043DC0008AB029401F0CEFA02F0F0F8214602F09C
:1043EC00E1FA204612B0BDE8F08100BF94800B00CA
:1043FC00EC830B00A4800B003A800B0015800B00A3
:10440C005F800B0062800B0005410B0087800B0066
:10441C0010B5044B03601C3304464362FFF76EFE79
:10442C00204610BD04810B00A0F12400F0E700BF72
:10443C0010B50446FFF7ECFF204641F24C01FFF7A4
:10444C0026FE204610BDA0F12400F1E70A4B10B562
:10445C000446036002F0B2F8214602F0EAFA03F0D7
:10446C0091F903F083F92046044B40F8043B02F029
:10447C007BF9204610BD00BFEC800B0094800B0034
:10448C0010B50446FFF7E2FF20462421FFF7FFFD9D
:10449C00204610BD0EB400B58CB00DAA4FF0200C08
:1044AC0052F8041B0392CDE900120023016804AA00
:1044BC001E20CDE904C300F001FA0CB05DF804EB4A
:1044CC0003B0704708B500F033FE00F07BFEBDE88A
:1044DC0008400148FFF740BE24D6032010B50B4816
:1044EC000B4CFFF783FE00F031F92368C01AB0F5CE
:1044FC007A7F0AD300F02AF9064B20601A68064826
:10450C00511C19600549FFF7C5FF10BD24D60320C7
:10451C0074E6032070E60320C0E60320D8800B006D
:10452C00F0B52F4E8FB00BAC0021012000F0E6F956
:10453C00002508A9A6F14C072046CDE908550A9597
:10454C00FFF7B4FE4FF480523146012300943846F5
:10455C00FFF7DEFE2046FFF768FE224B46F84C3C88
:10456C001C3346F8283C08A8FFF75FFECDE902553E
:10457C00049503F007F91C4D064602A905A8FFF7A0
:10458C0095FE2F4605A908A8FFF790FE174B47F894
:10459C00043B08A92046FFF789FE22460121384634
:1045AC0002F02AFB2046FFF740FE08A8FFF73DFE6D
:1045BC000F4B2B602E6205A8FFF737FE0D4B2B60BF
:1045CC0003F0E0F84FF4165103F0CCF801F0F6FFCD
:1045DC00294602F0E7F902A8FFF727FE0FB0F0BD5D
:1045EC0070D6032004810B0078E6032094800B0026
:1045FC00EC830B00EC800B0008B5024B1B689B682E
:10460C00019308BD7802030008B5024B1B681B6DB3
:10461C00019308BD7802030008B5024B1B689B6D23
:10462C00019308BD7802030008B5024B1B681B6E92
:10463C00019308BD7802030008B5034B1B68D3F83F
:10464C009830019308BD00007802030008B5034BB5
:10465C001B68D3F8A830019308BD00007802030052
:10466C0008B5034B1B68D3F8B430019308BD0000A8
:10467C007802030008B5034B1B68D3F8D8300193BC
:10468C0008BD00007802030008B5034B1B68D3F883
:10469C00DC30019308BD00007802030008B5034B21
:1046AC001B68D3F8EC30019308BD000078020300BE
:1046BC0008B5034B1B68D3F8F030019308BD00001C
:1046CC007802030008B5034B1B68D3F80031019343
:1046DC0008BD00007802030008B5034B1B68D3F833
:1046EC000431019308BD00007802030008B5024BA9
:1046FC001B685B6C019308BD4802030008B5024BB4
:10470C001B689B6C019308BD4802030008B5024B63
:10471C001B68DB6C019308BD4802030008B5024B13
:10472C001B685B6D019308BD4802030008B5024B82
:10473C001B685B68019308BD1802030008B5024BA7
:10474C001B68DB68019308BD1802030008B5024B17
:10475C001B685B69019308BD1802030008B5024B86
:10476C001B685B69019308BD6402030008B5024B2A
:10477C001B689B68019308BD6802030008B5024BD7
:10478C001B68DB68019308BD6802030008B5024B87
:10479C001B689B68019308BD3C02030008B5024BE3
:1047AC001B68DB68019308BD3C02030008B5024B93
:1047BC001B681B69019308BD3C02030008B5024B42
:1047CC001B685B69019308BD3C02030008B5024BF2
:1047DC001B689B69019308BD3C02030008B5024BA2
:1047EC001B68DB69019308BD3C02030008B5024B52
:1047FC001B689B6A019308BD3C02030008B5024B81
:10480C001B68DB6A019308BD3C02030008B5024B30
:10481C001B681B6C019308BD3C02030008B5024BDE
:10482C001B681B68019308BD4C02030008B5024BC2
:10483C001B685B68019308BD4C02030008B5024B72
:10484C001B689B68019308BD4C02030008B5024B22
:10485C001B681B69019308BD4C02030008B5024B91
:10486C001B685B69019308BD4C02030008B5024B41
:10487C001B689B69019308BD4C02030008B5024BF1
:10488C001B68DB69019308BD4C02030008B5024BA1
:10489C001B681B6A019308BD4C02030008B5024B50
:1048AC001B685B6B019308BD6002030008B5024BEB
:1048BC001B681B6D019308BD6002030008B5024B19
:1048CC001B685B6D019308BD6002030008B5024BC9
:1048DC001B68DB6E019308BD6002030008B5024B38
:1048EC001B681B6F019308BD6002030008B5024BE7
:1048FC001B685B68019308BD2002030008B5024BDE
:10490C001B68DB6A019308BD2002030008B5034B4A
:10491C001B68D3F88830019308BD00002002030007
:10492C0008B5034B1B68D3F89430019308BD000005
:10493C002002030008B5024B1B68DB6B019308BD1A
:10494C004402030008B5024B1B685B68019308BD69
:10495C004002030008B5024B1B689B68019308BD1D
:10496C004002030008B5024B1B68DB68019308BDCD
:10497C004002030008B5024B1B681B69019308BD7C
:10498C004002030008B5024B1B685B69019308BD2C
:10499C004002030008B5024B1B689B69019308BDDC
:1049AC004002030008B5024B1B68DB69019308BD8C
:1049BC004002030008B5024B1B681B6A019308BD3B
:1049CC004002030008B5024B1B681B6B019308BD2A
:1049DC004002030008B5024B1B685B6B019308BDDA
:1049EC004002030008B5024B1B681B6C019308BD09
:1049FC004002030008B5024B1B685B6C019308BDB9
:104A0C004002030008B5024B1B681B68019308BDEC
:104A1C001C02030008B5024B1B685B68019308BDC0
:104A2C001C02030008B5024B1B689B68019308BD70
:104A3C001C02030008B5024B1B685B6A019308BD9E
:104A4C001C02030008B5024B1B68DB6A019308BD0E
:104A5C001C02030008B5024B1B68DB6B019308BDFD
:104A6C001C02030008B5024B1B681B6C019308BDAC
:104A7C001C02030008B5024B1B685B6C019308BD5C
:104A8C001C0203007047704770477047064B9942F1
:104A9C0010B500F10C0405D0084602F0BBFF00284D
:104AAC0008BF0024204610BDC0820B00064B994263
:104ABC0010B500F10C0405D0084602F0ABFF00283D
:104ACC0008BF0024204610BDC0820B00064B994243
:104ADC0010B500F10C0405D0084602F09BFF00282D
:104AEC0008BF0024204610BDC0820B0010B5682101
:104AFC000446FFF7CCFA204610BD10B52821044619
:104B0C00FFF7C5FA204610BD10B530210446FFF75B
:104B1C00BEFA204610BD6821FFF7B9BA2821FFF76D
:104B2C00B6BA3021FFF7B3BAF0B50025EC1C8C42B5
:104B3C000DD86E1C445D875D974205D12644B14269
:104B4C0005D31D60601CF0BD01342544EEE7002048
:104B5C00F9E70000024A03490A20FFF79FBE00BF95
:104B6C0049470B0030810B0030B40D4611461A46F4
:104B7C00036809682868D3E90043A44630BC604741
:104B8C00012A38B5044602D10B68236003E0022ADF
:104B9C0003D0032A0DD0002038BD08200D68FFF784
:104BAC0072FA03460028F0D095E8030083E803006E
:104BBC00EBE700680028EED00821FFF768FAEAE777
:104BCC0010B58368044613B103220146984720466A
:104BDC0010BD10B504465830FFF7F2FF04F1480041
:104BEC00BDE8104002F040BC10B54368013B0446E0
:104BFC00436063B903689B689847A368013BA36053
:104C0C002BB923682046DB68BDE81040184710BD5F
:104C1C00A0F13003DAB2092A01D818467047A0F186
:104C2C006103052B01D857387047A0F14103052BC0
:104C3C0094BF37384FF0FF307047000010B5002399
:104C4C000370044B04461868FFF760FD01232370C2
:104C5C00204610BDA4E6032010B5037804461BB112
:104C6C00024B1868FFF75AFD204610BDA4E603203E
:104C7C0082B00346086849686A4603C26A4603CA9A
:104C8C0018601846596002B0704708B582798B7964
:104C9C009A4206D1062202F0DDFFB0FA80F04009FC
:104CAC0008BD0020FCE74FF0FF3303608380002039
:104CBC00704708B50246002101604160FFF7F3FF21
:104CCC009171104608BD000010B501230361054B1E
:104CDC00024603F1100153F8044B42F8044B8B428B
:104CEC00F9D110BDCE820B0010B50B460446B1B104
:104CFC00012A01F110020AD1014653F8040B41F8C4
:104D0C00040B9342F9D101232361204610BD411EAF
:104D1C0012F8010D01F8010F9A42F9D1F3E71022B4
:104D2C0002F0D0FFF1E738B5044615461A46FFF7F6
:104D3C00DBFFA581204638BD08B5026922B9808900
:104D4C00003818BF012008BD0249102202F082FF72
:104D5C00F6E700BFEE820B000069704738B50C46D1
:104D6C0014220021054602F0ADFF23691BB9A3896B
:104D7C002B80284638BD01232B7421462B4604F189
:104D8C00100251F8040B43F8040B9142F9D1F0E7EF
:104D9C0080897047704708B502690B699A4206D141
:104DAC00102202F057FFB0FA80F0400908BD002035
:104DBC00FCE7000001232DE9F3410361344B0C4661
:104DCC000646024603F1100153F8040B42F8040B9B
:104DDC008B42F9D144B32421204602F0EEFF042883
:104DEC004FF0000523D1ADF8045001AFA51C0634DB
:104DFC0015F8020CFFF70CFFB0F1000812DB15F8E8
:104E0C00010CFFF705FF00280CDB023540EA081007
:104E1C00A54207F8010BEBD19DF8053033739DF8D3
:104E2C00043073730023336102B0BDE8F0814FF09E
:104E3C0010082421204602F0C0FFA84207D84246A1
:104E4C000021304602B0BDE8F04102F03BBFB8F1A2
:104E5C00000FE9D0605DFFF7DBFE030615D40001FF
:104E6C0008F1FF38C7B206F808702421204602F07A
:104E7C00A4FF0135A84208D9605DFFF7C9FE40B216
:104E8C000028A4BF384306F808000135D1E700BF5D
:104E9C00CE820B0013B504460191FFF715FF204697
:104EAC000199FFF787FF204602B010BD38B54FF6C9
:104EBC00FF730025044643800E22294605700571B8
:104ECC00063002F0FFFE04F11400FFF7FDFE04F1C2
:104EDC002800FFF7F9FE044904F13C0002F00FFB37
:104EEC006565204638BD00BFB3830B0010B5D0E913
:104EFC00063203EBC2029342184606D0046824889B
:104F0C008C4203F10803F6D110BD0020FCE7000031
:104F1C00F0B5064685B01F460D46002950D0002A34
:104F2C004ED004682378F42A28BFF42243B32379A3
:104F3C00980709D5A08903920023FFF791FB00285D
:104F4C00039A03DA05B0F0BD6FF07700346823796B
:104F5C00D90609D5012F07D0A0890023294605B011
:104F6C00BDE8F040FFF7AEBB9B06EBD5022FE9D0B6
:104F7C00A0890023294605B0BDE8F040FFF7ACBB83
:104F8C0060884FF6FF7188421CD021794E0701D5FD
:104F9C00012F04D10B0709D46FF07700D2E7A18958
:104FAC00009313462A46FFF76FFBCBE7022FF3D093
:104FBC000023A189009313462A46FFF75BFBC1E748
:104FCC000248BFE76FF0D100BCE700BFF2FEFFFF65
:104FDC002DE9F04100260660074628200C46FFF715
:104FEC0052F8051E05F10C080FD00123C5E9013359
:104FFC00084B2B604046FFF767FE0FCC2E6285F8FE
:10500C00246046460FC623683360C7E900853846DE
:10501C00BDE8F08190820B0070B500250560064656
:10502C003020FFF730F8044688B10123C0E9013382
:10503C00094B03604FF6FF7383810E30FFF739FE87
:10504C00C4E90655C4E90855C4E90A55A575746048
:10505C000C343460304670BDAC820B0037B50D4655
:10506C00044601A8FFF7EAFD2A68D2F80230236053
:10507C00D2F80630636001A8FFF7EEFD204603B0BE
:10508C0030BD30B5054687B00C4601A8FFF7D6FDFC
:10509C002A68236812881B889A420DD1294602A8D7
:1050AC00FFF7DCFF214604A8FFF7D8FF04A902A8EC
:1050BC00FFF7EBFD044600B9002401A8FFF7CCFD77
:1050CC00204607B030BD000010B504466420FEF742
:1050DC00DAFF68B10023C0E90033C0E90233C0E94C
:1050EC000433C0E906330362C362C363C364C3659C
:1050FC00206020B90A4A0B490A20FFF7CFFB002099
:10510C00FFF77AFA20B1064A07490A20FFF7C6FBD7
:10511C00216806480022FFF7CBFA204610BD00BFDD
:10512C0049470B0030810B006E810B00ED560B00D4
:10513C0010B50A4C2378BFF35B8FDB070CD42046E9
:10514C00FEF7B4FF40B10648FFF7BEFF2046FEF75E
:10515C00B2FF044802F070FD014810BD9CE603202C
:10516C00A8E60320B9530B0030B50368093B012BAB
:10517C008DB004460D4611D8FFF7DAFFA188006800
:10518C00FFF7B4FE034658B92022CDE904200B4AA0
:10519C0000920B4904AA3220FFF788FB0DB030BDFA
:1051AC006A6D002AFAD0D4E9032105F14C00CDE94F
:1051BC000312AC6D04AA03A9A047EFE7B0810B0062
:1051CC0047810B0008B50020FFF716FA00EAE070E3
:1051DC0008BD19B90A460846FFF716BAD1E900010D
:1051EC000022F9E70368D8690028D4BF0020012009
:1051FC00704770B5D0E90053044605EB0316AE4278
:10520C0004D0284602F030F91035F8E72068FFF793
:10521C0001FC204670BD38B5141E4368054602DB00
:10522C0062189A4200DD5C1A2A68501801191A4457
:10523C00521A02F02DFD6A68121B6A6038BD37B530
:10524C000A4604460D4601ABD0E90001FFF76CFCA1
:10525C00024638B101992046FFF7DDFF294620466A
:10526C00FFF7EDFF03B030BD10B50C4629B90A4667
:10527C000846BDE81040FFF7CFB901212046FFF7E3
:10528C00DEFFD4E900010022F3E738B504461546E9
:10529C00FFF79FFF00280ADB29462046FFF7E4FFB3
:1052AC00002804DBBDE838400020FFF7BDB938BD4D
:1052BC0038B500230446836008200D46FEF7E3FE54
:1052CC0018B12B6803606B684360034BE360034BBE
:1052DC002060A360204638BD754B0B008D4B0B0036
:1052EC000B68036013B15A6801325A60704710B5ED
:1052FC0051F8043B044640F8043BFFF7F1FF2368E8
:10530C000BB9FFF727FC204610BD10B551F8043B34
:10531C00044640F8043BFFF7E3FF204610BD10B5F0
:10532C0051F8043B044640F8043BFFF7D9FF2046F4
:10533C0010BD10B50446006808B1FFF755FC2046B7
:10534C0010BD10B504460430FFF7F3FF204610BD26
:10535C0070B5D0E90053044605EBC306AE4204D049
:10536C00281DFFF7E6FF0835F8E72068FFF752FB2A
:10537C00204670BD70B5D0E90053044605EBC3065A
:10538C00AE4204D0281DFFF7D4FF0835F8E720689B
:10539C00FFF740FB204670BD10B504462430FFF7E4
:1053AC00E9FF04F11800FFF7D3FF10BD70B5174BE0
:1053BC001C6854B304F15400FFF702FC04F14400E0
:1053CC00FFF7FEFB04F13400FFF7FAFB04F12400B5
:1053DC00FFF7F6FBD4E9065305EBC306AE4204D047
:1053EC00281DFFF7A6FF0835F8E7A069FFF712FBA9
:1053FC0004F10C00FFF7BEFF2046FFF7A9FF204683
:10540C006421BDE87040FEF742BE70BDA8E60320E3
:10541C0013B50023D1E90042C1E9003303680093BE
:10542C0004604368426001A80193FFF782FF02B059
:10543C0010BD826810B50AB902F0E8FABDE8104058
:10544C00C368184738B50D1E0446006803DDFFF726
:10545C00E9FA18B938BDFFF7DDFA00202060A56025
:10546C000120F7E708B583688B4202DAFFF7EAFF01
:10547C0008BD0120FCE72DE9F0410F4641681D46AF
:10548C001944836899420446904612DC2668626887
:10549C003E44D21B3146701902F0FAFB2A464146B3
:1054AC00304602F0E7FB63682B4463600120BDE8E3
:1054BC00F081FFF7C7FF0028E8D1F8E7F8B50D46F3
:1054CC00D0E901139942044616460BDA2768626844
:1054DC007919521B481C02F0DBFB7E5563680133C3
:1054EC006360F8BD0131FFF7ADFF0028EED1F8E79E
:1054FC000A464168FFF7E2BF2DE9F74304461D4613
:10550C000F4601AB90460A46D0E900019DF8289061
:10551C00FFF70AFBAE1C63680246B9F1000F26D1F7
:10552C0028B333441B1AFF2B09D801992046FFF7E7
:10553C0072FE616820463144FFF794FF18B9606829
:10554C0003B0BDE8F0836A1C0199D2B22046FFF784
:10555C00B5FF01993A4601312046FFF7AFFF01999B
:10556C002B46424602312046FFF785FFE7E7F1184C
:10557C00FF29E4D82046FFF775FF0028DFD0691C0F
:10558C00C9B22046FFF7B4FF39462046FFF7B0FFFB
:10559C0061682B464246E6E730B49DF808501AB1D4
:1055AC00029530BCFFF7A8BF406830BC70471FB5F0
:1055BC000023C0E9003383600622009301238DF899
:1055CC000F2019460DF10F020446FFF7E5FF2046A8
:1055DC0004B010BD8842F8B504460D46164614D9E1
:1055EC00904213D2A2F10806751AA1F108072C44B7
:1055FC00B74218D01CB131462046FFF790FE301D43
:10560C00FFF797FE083E083CF2E70CD0B5420AD0F3
:10561C001CB129462046FFF782FE281DFFF789FEA4
:10562C0008350834F2E7F8BDF7B504464668684615
:10563C00FFF775FED4E901739F4212DB0137002F8F
:10564C0029DDF800FFF7DEF90546F0B1D4E90012C8
:10565C0001EBC202FFF7BEFF2068FFF7DBF9256004
:10566C00A7602368626803EBC60603EBC2023146EF
:10567C0006F10800FFF7AEFF1EB169463046FFF792
:10568C004EFE636801336360012501A8FFF751FEEC
:10569C00284603B0F0BD0025DEE7F8B5D0E900439D
:1056AC0005460F4604EBC306A64205D039462046F4
:1056BC00FFF7E7FC08B114B9F8BD0834F4E7201D76
:1056CC00FFF737FED5E9003204F1080103EBC20203
:1056DC002046FFF77FFF6B68013B6B60ECE7000037
:1056EC002DE9F04105468EB003A80C46FFF7A6FA4B
:1056FC002E68F31E0D2B3CD8DFE813F00E00530080
:10570C003B00D1003B003B003B003B003B009B00BF
:10571C009B009B009B009B0004A8FFF77DFC049B57
:10572C00AA891A806968049808310230FFF7A0FA38
:10573C0004A906A8FFF7F3FD06A904F11800FFF76A
:10574C0073FF054607A8FFF7F4FD20230693B5B9B0
:10575C005D4B5E49009332202B4606AA0795FFF756
:10576C00A5F8049B29461888FEF766FF05A8FFF7E5
:10577C00E0FD03A8FFF770FA0EB0BDE8F081544AC3
:10578C00009200235149079306AA0120FFF78EF8D7
:10579C00E36A002BEAD004A904F12400FFF749FEC8
:1057AC00E4E7A9892046FFF7A1FB06460028E0D0D4
:1057BC000568D5E906324FF6FF71298003EBC2026A
:1057CC009A4203D053F8080B4180F9E7D5E90373EB
:1057DC0007EBC308B84504D0381DFFF7AAFD0837FE
:1057EC00F8E700232B61D5E9067307EBC308B8452E
:1057FC0004D0381DFFF79DFD0837F8E70023EB6157
:10580C00AB72E36B23B1314604F13400FFF711FEA8
:10581C00314604F11800FFF740FF20220023CDE9A8
:10582C0006232C4A0092294906AA0120FFF73EF8CC
:10583C009FE7A9892046FFF759FB002899D0E36C14
:10584C00002B96D000230D2EADF8163001D0102E63
:10585C0017D1002369681A4606258DF81530049176
:10586C008DF814200690DDE9040109AB8DF81C605D
:10587C00089583E80300236D06A904F144009847BA
:10588C0077E70F2E01BF2B7A696803F00102082518
:10589C000FBFC3F340031A4619461D46DDE7A9891D
:1058AC002046FFF723FB014600283FF462AFE36D6F
:1058BC00002B3FF45EAF6B68069306AA236E04F1CF
:1058CC005400984755E700BFC8810B0047810B0077
:1058DC00EE810B000B820B0013B50B460246D0E990
:1058EC0000016C4684E8030093E8030082E803009F
:1058FC0094E8030083E8030002B010BD38B50546F8
:10590C000C46FFF7E9FFAB68A268AA60A360EB68DE
:10591C00E268EA60E36038BD70B504468CB00E46B0
:10592C0001921D46FFF7C2FA2671019904F13C0061
:10593C0001F03CFE04F14C06CDB1109B029502A97E
:10594C0004A80393FFF7B4FC002308A904A80A9346
:10595C00FFF7D4FF314608A8FFF7D0FF08A8FFF7E0
:10596C002FF904A8FFF72CF920460CB070BD069552
:10597C00EAE700002DE9F04F87B01D46DDE9104342
:10598C0080468B469246129903930022682002911E
:10599C000492FEF778FB061E06F10C0918D00122C2
:1059AC003746C6E901220299154A47F8202B039B7A
:1059BC0000915A4651464846FFF7AEFF0FCD0FC730
:1059CC002B683B600FCC06F134050FC523682B60A8
:1059DC0004A94046CDE90496FFF71AFD05A8FFF788
:1059EC00A8FCD8F800303BB9064A07490A2007B092
:1059FC00BDE8F04FFEF752BF07B0BDE8F08F00BF17
:105A0C0074820B0049470B0030810B008842F8B5BB
:105A1C0004460D46164614D9904213D2A2F108063C
:105A2C00751AA1F108072C44B74218D01CB13146A5
:105A3C002046FFF76AFC301DFFF77BFC083E083C54
:105A4C00F2E70CD0B5420AD01CB129462046FFF72C
:105A5C005CFC281DFFF76DFC08350834F2E7F8BD37
:105A6C0070B50E1E054611DDF000FEF7CBFF0446A7
:105A7C0058B1D5E9001201EBC202FFF7C7FF286845
:105A8C00FEF7C8FF2C60AE60012070BD0024F6E765
:105A9C0073B5044645686846FFF737FCD4E9011333
:105AAC00994210DA2368626803EBC50503EBC20266
:105ABC00294605F10800FFF7A9FF8DB9636801338A
:105ACC006360012606E001312046FFF7C9FF064658
:105ADC000028E7D101A8FFF72CFC304602B070BDBE
:105AEC0069462846FFF711FCE8E78842F8B50446FA
:105AFC000D46164614D9904213D2A2F10806751A17
:105B0C00A1F108072C44B74218D01CB131462046ED
:105B1C00FFF7EDFB301DFFF70CFC083E083CF2E7ED
:105B2C000CD0B5420AD01CB129462046FFF7DFFB4A
:105B3C00281DFFF7FEFB08350834F2E7F8BD70B5F9
:105B4C000E1E054611DDF000FEF75CFF044658B151
:105B5C00D5E9001201EBC202FFF7C7FF2868FEF778
:105B6C0059FF2C60AE60012070BD0024F6E773B5C0
:105B7C00044645686846FFF7BAFBD4E9011399421D
:105B8C0010DA2368626803EBC50503EBC2022946F1
:105B9C0005F10800FFF7A9FF8DB963680133636055
:105BAC00012606E001312046FFF7C9FF0646002812
:105BBC00E7D101A8FFF7BDFB304602B070BD6946C6
:105BCC002846FFF794FBE8E72DE9F04F1746A1B004
:105BDC0080460AA80E46FFF731F83C68237953B982
:105BEC0039464046FFF783FB0AA8FFF735F84046D5
:105BFC0021B0BDE8F08F3368D3E9035305EBC30341
:105C0C00039304F1280A04F1140B039B9D4221D049
:105C1C00D5F80090584609F11401FFF7BCF8B8B15B
:105C2C0009F128015046FFF7B6F888B12368D9F876
:105C3C000020534033F47F430AD12022CDE91523B1
:105C4C005E4A009215AA5E493220FEF72FFEC7E786
:105C5C000835DAE75046FFF76FF860B95949012269
:105C6C0015A815ADFFF740F80FCDD446ACE80F00E2
:105C7C002B68CCF800303368D3E9005305EBC30B29
:105C8C005D45A94651466ED055F8080BFFF783F8D1
:105C9C000028F5D004F1140A5046FFF74DF888B9E6
:105CAC00494B48491A88013292B21A8015A801232F
:105CBC0015ADFFF738F80FCDD446ACE80F002B68C4
:105CCC00CCF80030414B15932822002116A801F086
:105CDC00F9FF514604A8FFF741F804AB18AA0DF1DF
:105CEC00200C18685968154603C5083363452A46C5
:105CFC00F7D11868286023798DF85830D9F800301E
:105D0C009B8AADF87430E36B1793314B0022A11DC5
:105D1C0015A8CDE91E34FEF7C1FC00287FF460AF56
:105D2C0001232370346839460C340DA8FFF7DFFAD1
:105D3C0020460DA9FFF71BFF04460EA8FFF7F9FA42
:105D4C00002C7FF44DAF2023CDE90D34214B009373
:105D5C000DAA234677E739464046FFF7C8FA0CA848
:105D6C00FFF7E7FA40E70BA8FFF732F9514615A801
:105D7C00FEF7F4FF0B9A0023143215A90120FEF74D
:105D8C0065FC0028E7D135680BA90DA8FFF7BDFA13
:105D9C0028460DA9FFF77CFE05460EA8FFF7C9FAA9
:105DAC00002DD8D032685368126803F10053013BC0
:105DBC000CA802EBC309FFF7BCFA6BE718820B00C7
:105DCC0047810B00DE820B00A0E6032003002C00B1
:105DDC0075510B0043820B00024800230360FEF751
:105DEC0085BC00BFA4E60320002240681146FEF7E4
:105DFC00E1BD002240681146FEF7ECBD4068002270
:105E0C00FEF7E0BD4068002281F00101FEF7CABD3B
:105E1C00002340681A461946FEF7BCBD00234068B3
:105E2C001A461946FEF7AEBD002240681146FEF731
:105E3C00A1BD002240681146FEF78CBD40680022CF
:105E4C000221FEF78FBD002340681A46FEF77ABD8B
:105E5C00024B03225A60024A1A607047ACE60320D8
:105E6C0008830B00704710B518210446FEF70FF994
:105E7C00204610BDF0B5037D062B8DB00E4600F10B
:105E8C0004074FF0000412D000F1080515F8011DAD
:105E9C000A22304601F093FAAF42044419D0002C88
:105EAC00F4D02E21304601F07BFA0444EEE72F2388
:105EBC006A4639460A208DF80040FEF74FFC6846CA
:105ECC0001F05FFF33680246DB686946304698474D
:105EDC00044620460DB0F0BD10B5054B044611220A
:105EEC0040F8043B002101F0EDFE204610BD00BF40
:105EFC0044830B000346074A10B543F8042B01F109
:105F0C00100251F8044B43F8044B9142F9D10A7832
:105F1C001A7010BD44830B0010B59DF8084044EA7C
:105F2C00032343EA024242EA016104234160037500
:105F3C0010BD000007B5064B0360CB7800938B783F
:105F4C004A780978FFF7E8FF03B05DF804FB00BF5F
:105F5C0044830B0000F11003012213F8101C0129DB
:105F6C00184608D153F8041C02EB4102013A03F124
:105F7C001003F2D17047022904BF53F8041C5218C5
:105F8C00F4E70EB4F0B588B000AF07F1340510217A
:105F9C0055F8042B7A6004462B467818FD60FEF702
:105FAC0049FD0F287A681AD900F1080323F007037A
:105FBC006E46ADEB030D411C2B466846FD60FEF7AB
:105FCC0039FD021E04DD236869469B68204698470C
:105FDC00B5462037BD46BDE8F04003B070470028F9
:105FEC00F7D0236802469B6807F1100120469847BA
:105FFC00EFE738B50B6803604D6843689D42044673
:10600C0008D015B16B6801336B60606808B1FEF79E
:10601C00EBFD656038BD07B503688DF807109B680C
:10602C0001220DF10701984703B05DF804FB0B4604
:10603C001146002210B5C0E90022044683600BB95A
:10604C00204610BDFFF7D5FFFAE78368EBB11A784D
:10605C00032A1AD8DFE802F00417021B0520704748
:10606C0002685B685268D05C2D2812D0A0F1300316
:10607C00092B0ED974280ED066280CD0A0F16E0313
:10608C005842584170470620704700207047042042
:10609C007047032070470220704710B50446FFF785
:1060AC00D4FF02280ED0C31EDBB2012B14D82268F9
:1060BC00A36850685B68BDE810400A2200211844B0
:1060CC0001F01EBF2268A36852685B68D05CA0F127
:1060DC0074035842584110BD0020FCE738B500232A
:1060EC00C0E9003304460E48C4E90203A9B10B7899
:1060FC00032B06D08BB9136858684B68C35C6E2BA6
:10610C0007D013684D6858688B6828445B1BA060E7
:10611C00E36011462046FFF76CFF204638BD00BFF8
:10612C00B3830B0038B500250B46C0E90055C0E918
:10613C000255C0E90455044611464BB11A78012AA0
:10614C0006D103F11002DB6882604361FFF751FF57
:10615C00204638BD10B54369044663B18068E060E1
:10616C00013B1030A0602061636113B1FFF7F2FEB8
:10617C00A060012000E0184610BD10B57D2104463A
:10618C00FFF749FF01232371204610BD08B50379A1
:10619C00012B02D0022B04D008BD2C21FFF73BFFB2
:1061AC00FAE73A21FAE710B50446FFF7EFFF20466D
:1061BC007B21FFF730FF00232371204610BD000028
:1061CC0013B504460191FFF7E1FF2368019ADB68E0
:1061DC0003492046984701232046237102B010BD85
:1061EC0050830B0013B504460191FFF7CFFF2368D2
:1061FC00019ADB6803492046984701232046237106
:10620C0002B010BDE0800B002DE9F0470D462221B5
:10621C0090460446FFF7FFFEDFF8A490A8442F46F3
:10622C004745BA463DD017F8016B222E06D05C2E9E
:10623C0004D0304601F006FD0028F1D12368AAEB0A
:10624C0005029B682946204698475C212046FFF7AB
:10625C00E2FE0D2E0AD8072E1CD9A6F10803052B39
:10626C0018D8DFE803F00D0F11171315222E01D0EB
:10627C005C2E0FD131462046FFF7CDFE3D46CFE7D1
:10628C006221F8E77421F6E76E21F4E76621F2E764
:10629C007221F0E723683246DB684946204698476E
:1062AC00ECE7BD4205D023687A1B9B682946204643
:1062BC00984722212046FFF7AEFEBDE8F08700BFCD
:1062CC0053830B0013B50446CDE90021FFF75EFFA5
:1062DC002046DDE90021FFF797FF022320462371BA
:1062EC0002B010BD13B50446CDE90021FFF74EFFF7
:1062FC002046DDE90021FFF787FF012320462371AB
:10630C0002B010BD80680368DB6818477047084608
:10631C0011B10B685B68184770477047704770473E
:10632C00704738B504460D4600682E2101F00DFD6E
:10633C002368C31A2B6023B1037803B1013023689F
:10634C002060184638BD10B50C210446FDF79FFEA1
:10635C00204610BD10B504210446FDF798FE2046DA
:10636C0010BD10B504210446FDF791FE204610BD6A
:10637C00FEF7CCB908B501F0F2FCB0FA80F0400998
:10638C0008BD704710B50C4601F0FCF9844210D0E2
:10639C0001F014FB844205D101F010FBBDE8104064
:1063AC0001F08BB92CB1236820465B68BDE8104026
:1063BC00184710BD0B6803604B68436013B15A68F3
:1063CC0001325A60704713B504460846019101F03A
:1063DC00D8FC01990246204602B0BDE81040FFF7F8
:1063EC0081BF13B504460846019101F0CAFC23682D
:1063FC000199DB680246204602B0BDE81040184700
:10640C0007B503688DF80710DB6801220DF1070151
:10641C00984703B05DF804FB0EB403B503AB002141
:10642C0053F8042B006A019300F0E7FF02B05DF80B
:10643C0004EB03B070470A6802604A6842600022AD
:10644C00C0E9022210B502618C688460CC68C4601B
:10645C000C698A60CA6004610A6110BD2DE9F74FAE
:10646C00D0E900844FF0140A00930AFB04F4184B93
:10647C00A41017465C434546002C21DD66100AFB30
:10648C0006F005EB00093A46B9F804B0285801911A
:10649C005F4528BF5A4601F07CFC002801994FF05B
:1064AC0001030BD15F4503D1009A13703446E3E727
:1064BC00FCD9A61B09F11405013EF7E7F9DBF5E75A
:1064CC00A5EB08050248AD10684303B0BDE8F08F9A
:1064DC00CDCCCCCC7FB50369057E019103B3F9B16A
:1064EC00002600F10C04039603A901A8FFF719FF7D
:1064FC000146A8B10DF10B03039A8DF80B602046F1
:10650C00FFF7ACFF9DF80B3053B12368142404FB48
:10651C000034083434F9023C002BA8BFDDB2E3E7A9
:10652C00284604B070BD000010B5094C2378BFF3A9
:10653C005B8FDB0709D42046FDF7B8FD28B1204658
:10654C00FDF7B9FD034801F077FB034810BD00BF10
:10655C00B8E6032027630B00B0D5032010B5094C17
:10656C002378BFF35B8FDB0709D42046FDF79EFD34
:10657C0028B12046FDF79FFD034801F05DFB034861
:10658C0010BD00BFBCE603208F630B00B4D5032005
:10659C0038B500250446C0E90055C0E904558560AE
:1065AC00856140F8245FFEF7A1F8FFF7BDFFE061BD
:1065BC00FFF7D4FF25732062204638BD10B50A4C76
:1065CC002378BFF35B8FDB070CD42046FDF76EFD01
:1065DC0040B10648FFF7DCFF2046FDF76CFD044890
:1065EC0001F02AFB014810BDB4E60320C4E60320E9
:1065FC001D6B0B00024A034903480023FEF76EB9DA
:10660C0001690B008D680B000D680B0000231A4606
:10661C0019461846FEF762B937B58D6804466846C8
:10662C00FFF7C8FE6A4629462046FFF77BFD01A806
:10663C00FEF77FFE204603B030BD37B5CD6804466B
:10664C006846FFF7B7FE6A4629462046FFF746FD27
:10665C0001A8FEF76EFE204603B030BD37B50D69BC
:10666C0004466846FFF7A6FE6A4629462046FFF711
:10667C00DEFC01A8FEF75DFE204603B030BD000035
:10668C0070B58AB00D46014604A8FFF7C5FF144E3D
:10669C0004A8FFF75FFDE8B104A96846FFF7CDFF3A
:1066AC0002983146FFF766FE044610B12C1E18BF47
:1066BC00012401A8FEF73DFE002CE9D004A9684690
:1066CC00FFF7CCFF6846FFF7E8FC286001A8FEF74F
:1066DC0030FEDDE705A8FEF72CFE0AB070BD00BF4A
:1066EC0059830B0037B50C4620461349154601F06B
:1066FC0036FB50B901F046F84FF4165101F032F860
:10670C0003B0BDE8304001F03DB80C49204601F023
:10671C0026FB78B94FF4165301A928460193FFF7CD
:10672C00AFFF01F04BF9019900F0C4FF01F046F9FD
:10673C0003B030BD0020FBE75E830B0065830B00CC
:10674C0070B5D0E900531426044606FB0356AE423E
:10675C0005D005F10800FFF7F3FF1435F7E72068C3
:10676C00FEF758F9204670BD10B504460C30FFF703
:10677C00E7FF2046FEF73DFD204610BD10B5044B4B
:10678C00044640F8043BFFF7EFFF204610BD00BF66
:10679C0094800B0010B50446FFF7F0FF204624212F
:1067AC00FDF775FC204610BD10B5034B0360044685
:1067BC00FFF7E4FF204610BD04840B0010B504461F
:1067CC00FFF7F2FF20462421FDF761FC204610BDA7
:1067DC000022C0E9002210B582600C6804604C688D
:1067EC0044608C680A604A6084608A6010BD10B591
:1067FC00036804461868FDF791FF204610BD0000A1
:10680C002DE9F04F87B0804603931C4B5B68C3F3B4
:10681C000803894616466BB9FFF7D0FE044600F113
:10682C002403406A0593FFF7A3FD237B2BB105A836
:10683C00FFF7DDFF07B0BDE8F08F01232373D4E928
:10684C0000535FFA89F905EB830AAA4512D055F873
:10685C00047B3146381DFFF73DFE8145F5D33B687F
:10686C00039A0092D3F808B04A463346414638465C
:10687C00D847EAE700232373D9E700BF00ED00E017
:10688C002DE9F74F9B461A4B5B68C3F30803804610
:10689C00894616466BB9FFF791FE044600F12403B6
:1068AC00406A0193FFF764FD237B2BB101A8FFF72E
:1068BC009EFF03B0BDE8F08F01232373D4E900538E
:1068CC00F6B205EB830A55450ED055F8047B5946B4
:1068DC00381DFFF7FFFD8642F5D33B684A46DB685F
:1068EC00414638469847EEE700232373DEE700BFA6
:1068FC0000ED00E02DE9F341164B5B68C3F3080390
:10690C0005460F461BBBFFF759FE00F12403044656
:10691C00406A0193FFF72CFDD4E90063462406EB93
:10692C008308B04509D101A8FFF761FFA542B4BFA8
:10693C000020012002B0BDE8F08156F8040B394666
:10694C000430FFF7C7FD8442A8BF0446E9E70020E6
:10695C00F0E700BF00ED00E0F8B5D0E901539D422F
:10696C0004460E460DDB6F1C002F006804DDB900D9
:10697C00FEF758F818B9F8BDFEF74CF80020206067
:10698C00A7602768626807EB85019200A2EB85027D
:10699C00081D01F07DF947F82560636801336360D9
:1069AC000120E8E737B500F124030446406A01935F
:1069BC000D46FFF7DDFCD4E9003203EB8202934273
:1069CC0019460BD00968A94203F10403F7D101A8B9
:1069DC00FFF70DFF0025284603B030BD29462046A1
:1069EC00FFF7BAFF05460028F1D06368012B01D1EF
:1069FC00FFF700FE01A8FFF7FAFEECE770B50446BE
:106A0C00D0E900020B4600EB820282420FD0014615
:106A1C001D6851F8046BAE4207D1521A01F038F9D7
:106A2C006368013B6360012070BD0846EDE7002000
:106A3C00FAE71FB500F124030446406A0191039361
:106A4C00FFF796FC01A92046FFF7D8FF18B1636841
:106A5C000BB9FFF7DBFD03A8FFF7C9FE04B010BDAF
:106A6C0070B5D0E904561823044603FB0656AE4213
:106A7C0015D005F110012046FFF7C0FF63680BB974
:106A8C00FFF7C4FDE06929690368DB689847696909
:106A9C0019B1206A0368DB6898471835E7E7D4E931
:106AAC000453182606FB0356AE4204D0284600F0C9
:106ABC00DBFC1835F8E70023636170BD73B5044641
:106ACC00FFF7A4FD04F12403606A0193FFF750FC67
:106ADC002046FFF7C5FF01A8FFF789FE606A08B1E1
:106AEC00FDF70CFED4E90453182606FB0356AE4200
:106AFC0004D0284600F0B8FC1835F8E72069FDF7FB
:106B0C0089FF2068FDF786FF204602B070BD0000AB
:106B1C000148FFF7D3BF00BFC4E603208842F8B595
:106B2C0004460D46164615D9904214D2A2F114060D
:106B3C00751AA1F114072C44B7421AD01CB1314676
:106B4C002046FFF778FC06F10800FFF7F9FD143E2C
:106B5C00143CF1E70DD0B5420BD01CB129462046B0
:106B6C00FFF769FC05F10800FFF7EAFD1435143452
:106B7C00F1E7F8BD8842F8B504460D46164614D91F
:106B8C00904213D2A2F11006751AA1F110072C44F1
:106B9C00B74218D01CB13146204600F0E2FC30461A
:106BAC0000F062FC103E103CF2E70CD0B5420AD06B
:106BBC001CB12946204600F0D4FC284600F054FCB9
:106BCC0010351034F2E7F8BD70B50E1E054611DD18
:106BDC003001FDF717FF044658B1D5E9001201EB5F
:106BEC000212FFF7C7FF2868FDF714FF2C60AE6098
:106BFC00012070BD0024F6E72DE9F04F904695B0CA
:106C0C0000230391D8F804100A9346229942C0E954
:106C1C000033C0E90233C0E90433CDE9083304463C
:106C2C00027623DCD8E90057142303FB0757AF4245
:106C3C003BD029460BA800F094FC0BA90FA8099E89
:106C4C0000F08FFCDDE9091399421BDA089B099AC5
:106C5C0003EB061603EB0212314606F11000FFF7A8
:106C6C0089FFEEB9099B0133099311E008A8FFF7DE
:106C7C00ABFF0028D6D108A8FEF7BBFA204615B00A
:106C8C00BDE8F08F013108A8FFF79EFF0028DDD189
:106C9C000FA800F0E9FB0BA800F0E6FB1435C6E7E3
:106CAC000FA9304600F05DFCDCE70026CDE90B6651
:106CBC000D964FF01409DDE908239E427CDA33016E
:106CCC00D35806930BB90136F5E70023079309FB5C
:106CDC0006F302930BAD07A906A8FFF722FB824629
:106CEC000028F0D04FF000038DF817300146079ABA
:106CFC000DF117032846FFF7B1FB9DF817700190B3
:106D0C00002F4AD1BDF81C30ADF84030CDE91177D9
:106D1C004FF6FF73CDF83CA0ADF842301397D5E990
:106D2C000132934217DB03F1010ABAF1000F30DD97
:106D3C0009FB0AF0FDF766FE834660B3D5E9001245
:106D4C0009FB0212FFF7EAFE2868FDF763FEC5F89F
:106D5C0000B0C5F808A02B68019A09FB023A6A68D2
:106D6C00514609FB02320AF11400FFF7D7FEBAF1C3
:106D7C00000F03D00FA95046FFF75DFB6B68013382
:106D8C006B6011A8FFF7DCFC3FB10BA8FFF7D8FC38
:106D9C0071E7BB46D8E70127F3E7019B2D6809FB98
:106DAC000355069B1B782BB9D8F80030029A134474
:106DBC001B7CEB8008358EE721682260626863607B
:106DCC00A36809920A9A0A93E368A2600B9A0B9340
:106DDC002369E2600C9A0C93636922610D9A0D93FE
:106DEC00039B089162612376CFE70000F0B504465F
:106DFC0087B00D462646194668461746FDF756FAE3
:106E0C000B4B46F8043B694603A8FDF74FFA03AA5F
:106E1C0039463046FFF7F0FE03A8FDF706FA684640
:106E2C00FDF703FA034B23602046256207B0F0BD43
:106E3C0094800B00EC830B00F0B50F4685B01D4918
:106E4C000A9C384616461D4600F089FFC0B9A4B10D
:106E5C00294601A8FFF7BCFC1749242000F0D2FDFD
:106E6C00054630B101AB32462146FFF7BFFF134B4D
:106E7C002B6001A8FDF7D9F92C46204605B0F0BDD2
:106E8C000F49384600F06BFF90B9002CF5D029461D
:106E9C0001A8FFF79DFC0849242000F0B3FD05462E
:106EAC000028E6D001AB32462146FFF79FFFE0E712
:106EBC000024E2E76D830B0038850B0004840B0083
:106ECC0071830B00014B024A1A607047C0E6032025
:106EDC0082830B002DE9F047089DD0F820900446E2
:106EEC000E461746984600F04DFC81454CD02B7948
:106EFC00190704D56A6954492046FFF78DFAB8F191
:106F0C00000F0DD05B212046FFF77AFA4146204650
:106F1C00FFF767FA23684D49DB6802222046984741
:106F2C002B79DA0723D5D5F808802F21404600F0BD
:106F3C0050FF08B100F1010841462046FFF751FA15
:106F4C002B799B0708D53A212046FFF759FAEA68B6
:106F5C003F492046FFF760FA2A79236812F0040FA4
:106F6C00DB6814BF3B493C490222204698472B79E9
:106F7C0058071DD529690B461A4613F8010B60B149
:106F8C00202808D11946F7E7344800F066F90028A4
:106F9C00ADD0BDE8F0872828EED12368521ADB6803
:106FAC002046984723682E49DB68042220469847E0
:106FBC0000213846FDF78AFC01462046FFF711FAFE
:106FCC0023682549DB680222204698471EB13146CA
:106FDC002046FFF706FA2B7913F0300F2CD02368DC
:106FEC002049DB680222204698472B79D9060AD51E
:106FFC0023681D49DB68072220469847AA691B496C
:10700C002046FFF709FA2B799A0611D5DB0605D530
:10701C0023681049DB6802222046984723681449EC
:10702C00DB6820460A229847E9692046FFF7D9F920
:10703C005D212046FFF7E4F923680E49DB68204602
:10704C000222BDE8F047184786830B008D830B00A6
:10705C0050830B0090830B0095830B00ECE6032010
:10706C0093830B0098830B009B830B00A3830B0073
:10707C00A6830B00B1830B002DE9F04385B0D0F84B
:10708C0020900C9C05460F4690461E4600F07AFB5D
:10709C00814505D1494800F0E0F8002840F08A808D
:1070AC002B6A474A01924FF0000901A803938DF80F
:1070BC000890FFF778F849464046FDF707FC414930
:1070CC008046012201A8FFF7FDF84146FFF77BF946
:1070DC003FB13D49012201A8FFF7F4F83946FFF70B
:1070EC0072F93EB13949012201A8FFF7EBF831469C
:1070FC00FFF769F92379DF070ED5A6682F213046F3
:10710C0000F067FE00B1461C3149012201A8FFF7CF
:10711C00D9F83146FFF757F923799E0707D52D4942
:10712C00022201A8FFF7CEF8E168FFF749F82379AE
:10713C00580714D5266933461F4613F8012B2AB17C
:10714C00202A01D11E46F7E7282AF5D1224902222E
:10715C0001A8FFF7B7F8BA1B3146FFF7C3F823793C
:10716C00190707D51D49012201A8FFF7ABF8616982
:10717C00FFF738F82379DA0608D5042218490DEB05
:10718C000200FFF79FF8A169FFF71AF823799B0615
:10719C0007D51449062201A8FFF794F8E169FFF717
:1071AC0012F901A8FEF7E9FF286A0F4903680222C9
:1071BC00DB68984705B0BDE8F08300BFECE6032020
:1071CC00D4830B0063830B00B4830B009B860B00F2
:1071DC00B6830B00B8830B00BB830B00BE830B0084
:1071EC00C0830B00C5830B00B1830B0000234068E8
:1071FC001A46FDF7A7BB406800220221FDF7B2BB7F
:10720C00002240681146FDF7A5BB002240681146DC
:10721C00FDF7B0BB002340681A461946FDF7B2BB18
:10722C00002340681A461946FDF7B4BB406800219C
:10723C00FDF7D8BB40680021FDF7DCBB406800229D
:10724C0081F00101FDF7AEBB40680022FDF7BABB2F
:10725C00002240681146FDF7BDBB00224068114674
:10726C00FDF7A8BB2DE9F04395B014460D46074633
:10727C00FEF732FE00211C220DA8009100F022FD29
:10728C0040230C9320466B460CAA0021FDF776FA9E
:10729C00044600284BD1024601216868FDF76AFBC1
:1072AC000221804622466868FDF764FB009E8146F9
:1072BC002146002E3BD0002939D17368022B03D014
:1072CC000A2B11D0F669F4E7B8F1000FFAD0716906
:1072DC0006A8043107ADFEF72DFE0FCD3C1D0FC4E3
:1072EC002B6823704146EDE7B9F1000FEAD07469C1
:1072FC00102201A800F0E6FC06238DF8143001AD35
:10730C0004F108031834186859682A4603C2083374
:10731C00A3421546F7D101A906A807ADFEF7EAFD71
:10732C000FCD3C1D0FC42B6823704946CAE700984B
:10733C00FDF71CFA384615B0BDE8F083024B034A42
:10734C001A6000225A607047ECE603204C840B0054
:10735C00F8B506460D468F180024BD420CD0336894
:10736C0015F8011B9B6830469847031E01DB1C4433
:10737C00F3E7002C08BF1C462046F8BD13B50446A5
:10738C00084659B1019100F0FCFC23680199DB68B7
:10739C000246204602B0BDE81040184702B010BDAE
:1073AC0003689B68184738B50D210546FFF7F8FFB1
:1073BC000A2104462846FFF7F3FF204438BD30B5B8
:1073CC008BB00023012A8DF8243098BF0A2209AC17
:1073DC000D46B1FBF2F101FB125303F0FF03092B35
:1073EC0094BF30333733DBB2AA4204F8013DEFD9F6
:1073FC002146FFF7C3FF0BB030BD2DE9F04186B03D
:10740C0000AF05460E46381D142114463B60FDF7AF
:10741C0011FB13280ED8391D2846FFF7AFFF044681
:10742C001EB12846FFF7BFFF044420461837BD465F
:10743C00BDE8F08100F1080323F00703E846ADEB4B
:10744C00030D2246411C3B686846FDF7F3FA69467A
:10745C002846FFF793FF0446C546E1E7014B00229F
:10746C009A607047F4E6032010B504460068FDF7F7
:10747C00D1FA204610BD10B50446006808B1FDF7DE
:10748C00C9FA0023C4E90133236010BD38B50446A2
:10749C000D4600680131FDF7C5FA10B1C4E90005CD
:1074AC00012038BD10B50368044623B143688B42F4
:1074BC0001D3012010BD2046FFF7E8FF0028F9D0CA
:1074CC00A368002BF5D122681370F2E737B50D468F
:1074DC00114601920446FFF7E5FF019A28B92046B0
:1074EC00FFF7C9FF204603B030BDA26029462068D3
:1074FC0000F0C0FB2268A3680021D154F2E70023FE
:10750C0013B5C0E9003304468360037341B10846E8
:10751C00019100F036FC019902462046FFF7D6FF98
:10752C00204602B010BD38B5054600680C4670B157
:10753C006A688B689A4208D3096831B100F019FC6B
:10754C00A368AB600023A36038BDFDF763FA236822
:10755C002B6063686B60A368AB600023C4E90033E5
:10756C00F1E710B50023C0E90033044683600373D0
:10757C00FFF7D9FF204610BD884210B5044605D050
:10758C000B682BB18A681946FFF7A0FF204610BD87
:10759C00FFF771FFFAE710B500230446C0E900338A
:1075AC0083600373FFF7E8FF204610BD13B5044654
:1075BC0059B10846019100F0E4FB019902462046BE
:1075CC00FFF784FF204602B010BDFFF754FFF9E728
:1075DC00054B02221A60054B054A9A600020C3E94C
:1075EC000000FDF783B900BF10E7032004E7032078
:1075FC000000FFFF024B1A68024B1A60704700BF75
:10760C00B8D5032014E7032070474174704708B5C0
:10761C00007CFDF7EBF820EAE07008BD08B5007CB3
:10762C00FDF7C4F820EAE07008BD08B5007CFDF752
:10763C00CDF840EAE07008BD08B5007CFDF7BEF857
:10764C0040EAE07008BD007CFDF7C8B837B5457C52
:10765C0004462DB1207C03B0BDE83040FDF79EB848
:10766C00007C0191FDF7C2F800280199F2DC284654
:10767C0003B030BD10B514210446FCF708FD2046BC
:10768C0010BD000010B54FF47A730446084611463D
:10769C000022C4E90123044B23600123207463748A
:1076AC00FDF7B4F8204610BDA4840B00007C002329
:1076BC00FDF7A4B80022FFF7F9BF007CFDF766B810
:1076CC00417470477047704708B50021007CFDF786
:1076DC00CDF840EAE07008BD08B50121007CFDF74B
:1076EC00C5F840EAE07008BD08B5007CFDF7B6F8B7
:1076FC0020EAE07008BD08B5007CFDF7A7F820EA89
:10770C00E07008BD13B50446007C0191FDF7A6F8A6
:10771C000028019901DC607C20B1207CFDF7AEF8DB
:10772C0020EAE07002B010BD007CFDF7AFB810B5D8
:10773C0014210446FCF7ABFC204610BD10B54FF4E9
:10774C007A73044608460021C4E90113044B2360F4
:10775C000123207463741146FDF760F8204610BDB8
:10776C00D4840B00007C0022FDF760B8007CFDF790
:10777C0065B810B514220446002100F0A3FA204687
:10778C0010BD000010B50F4C88B003A8FFF7F1FF37
:10779C002178BFF35B8F11F001010FD120460191CD
:1077AC00FCF784FC019948B103AA0748FFF7C6FF10
:1077BC002046FCF780FC054800F03EFA024808B071
:1077CC0010BD00BF18E703201CE70320D1760B0087
:1077DC00002240681146FDF7CDB8002240681146E2
:1077EC00FDF7E8B8002240681146FDF7F3B8406891
:1077FC000022FDF7E7B84068002281F00101FDF797
:10780C00D1B8002340681A461946FDF7C3B80023C7
:10781C0040681A461946FDF7B5B800224068114673
:10782C00FDF798B8406800220221FDF79BB80023B1
:10783C0040681A46FDF786B8024B04225A60024A89
:10784C001A60704730E7032004850B00014B186069
:10785C00704700BFBCD5032008B50B4B43B1FFF7F5
:10786C0091FF03681B699847002801DDAFF3008086
:10787C00064B43B100F0A2F803681B699847002837
:10788C0001DDAFF3008008BD000000000000000027
:10789C0008B5FFF7E1FFFCF759FF014B186008BD75
:1078AC0040E703200548064A064908B5121A00F0BD
:1078BC00E1F9054B054A1A6008BD00BF00F403202E
:1078CC0004F40320F4870B0000F403201E1C279AF9
:1078DC0007B5002300931A466FF07701FDF720F8E7
:1078EC0003B05DF804FB000007B543880A2B08D0F1
:1078FC00502B0BD1094B1B684BB103B05DF804EB5B
:10790C001847FFF7E5FF03B05DF804FB0023009375
:10791C001A466FF07701FDF703F8F4E73CE7032014
:10792C0010B512480021FDF7A5F8114B1A68114B40
:10793C009A42114B0CBF012200221A7001D0FFF7A2
:10794C00B1FFFCF7F3FE044600F0C4F90B4B13B186
:10795C002046AFF3008000210848FCF7EBFFBDE8A0
:10796C00104007480021FCF7D1BF00BF59780B002D
:10797C0000F403201E1C279A38E7032000000000A7
:10798C00F5780B007047000038B5044614252A46DC
:10799C00002100F097F925804025074925812846CC
:1079AC00258200F031F804496060284600F02CF87C
:1079BC00E060204638BD00BF38850B0030B50E4D59
:1079CC002978BFF35B8F11F0010487B011D12846E1
:1079DC00FCF76CFB68B101A8FFF7D6FF01AA2146A2
:1079EC000648FFF74FFE2846FCF765FB044800F0FD
:1079FC0023F9024807B030BD44E7032048E70320D1
:107A0C0091790B00FCF73FBBFCF73FBB08B5FDF7CA
:107A1C0019F80000014900F0F9B800BF54850B00BB
:107A2C007FB500241023CDE90234036815469E6906
:107A3C0012686B46CDE90044B0479DF8043003F062
:107A4C000603062B03BF009B2B600120204604B0CD
:107A5C0070BD0098904214BF0120062070470000B2
:107A6C0010B5034B0360044600F0CDF8204610BD62
:107A7C0094850B0010B50446FFF7F2FF2046082151
:107A8C00FCF705FB204610BD2DE9F0411F46DDE952
:107A9C000834DDF8188098450646154607D1079935
:107AAC0000F0B4F818B165710020BDE8F0813946DA
:107ABC00304600F0ABF80028F6D00123C4F8008063
:107ACC002571A371F0E738B515461C4600F09EF8F9
:107ADC0020B10823E36006232560237138BD73B5FC
:107AEC0005460C4601921E4600F090F850B9032E44
:107AFC0008D82368019A5B692946204602B0BDE884
:107B0C007040184702B070BD10B5034B03600446BB
:107B1C00FFF7A6FF204610BDF4850B0010B50446F8
:107B2C00FFF7F2FF20460C21FCF7B1FA204610BDFE
:107B3C00F7B5089F974205460E4614460AD0A8682A
:107B4C0002680897156A31462246AC4603B0BDE878
:107B5C00F04060471946019300F058F8019B00284B
:107B6C00EDD0062003B0F0BD2DE9F14F0D461946BE
:107B7C00DDE90A4BDDE90CA681461746984600F074
:107B8C0045F890B1002D3460377109DB61198A45D5
:107B9C000CBF06210121B171002001B0BDE8F08FAE
:107BAC000235F9D10123B371F6E7544506D1594694
:107BBC00484600F02BF808B17771EDE7D9F80800CA
:107BCC000368CDE90CA6CDE90A4BDC693A4643467D
:107BDC002946A44601B0BDE8F04F60472DE9F041BD
:107BEC0007460C4615461E46FFF76DFF48B9B868A8
:107BFC0003689F692A4633462146BC46BDE8F041DE
:107C0C006047BDE8F081704700207047814208B59D
:107C1C000ED0406803782A2B0CD049680B782A2B9D
:107C2C0008BF013100F09BF8B0FA80F0400908BDA4
:107C3C000120FCE70020FAE7002301461A4618460B
:107C4C0000F068B9024B1844407800F09700704778
:107C5C009D860B0010B501390244904201D10020E1
:107C6C0005E0037811F8014FA34201D0181B10BD99
:107C7C000130F2E70A44914200F1FF3300D1704722
:107C8C0010B511F8014B03F8014F9142F9D110BD19
:107C9C00884210B501EB020402D98442234607D86E
:107CAC00431EA14208D011F8012B03F8012FF8E76D
:107CBC00024401468A4200D110BD13F8014D02F86E
:107CCC00014DF7E702440346934200D1704703F895
:107CDC00011BF9E738B5104B1D68AB6B0446B3B903
:107CEC001820FCF78FFE0246A86320B90B4B0C48FA
:107CFC004221FCF7B7FE0B490B4BC0E900130B4BB1
:107D0C0083600B23838100210120C2E90401AB6B4A
:107D1C0000221C615A6138BDBCD503202D860B0096
:107D2C0044860B000E33CDAB34126DE6ECDE050051
:107D3C00C9B2034610F8012B1AB18A42F9D1184680
:107D4C007047002918BF0023F9E710B50446FFF768
:107D5C00EFFF18B9204600F014F8204410BD10F8BD
:107D6C00012B11F8013B012A28BF9A42F7D0D01AF7
:107D7C007047034611F8012B03F8012B002AF9D1A7
:107D8C007047034613F8012B002AFBD1181A01384F
:107D9C00704710B57AB103460139841813F8010BFA
:107DAC0011F8012F904201D1A34201D1801A10BDCC
:107DBC000028F3D1FAE71046F9E710B50246014462
:107DCC008A42134603D01C780132002CF8D1181AC1
:107DDC0010BD38B503460C4669B9BDE83840FFF70D
:107DEC00A7BF431C054621461846FFF7A1FF0028F4
:107DFC00F7D1284638BD0025F5E70000012B2DE909
:107E0C00F04701D0242B06D9FCF724FE162303607F
:107E1C000020BDE8F087DFF8E4C00D462E4615F8CB
:107E2C00014B14F80C7017F00807F7D12D2C32D138
:107E3C002C780127B51C002B5BD0102B09D1302CD2
:107E4C0007D12C7804F0DF04582C4DD16C7810231A
:107E5C00023507F1004808F1FF384FF0000CB8FB71
:107E6C00F3F9664603FB198AA4F1300EBEF1090F33
:107E7C0016D87446A34224DDBCF1000F1EDBB145BD
:107E8C001CD301D1A24519DB06FB03464FF0010CB4
:107E9C0015F8014BE8E72B2C04BF2C78B51CCAE76E
:107EAC00A4F1410EBEF1190F01D8373CE2E7A4F161
:107EBC00610EBEF1190F04D8573CDBE74FF0FF3CC5
:107ECC00E6E7BCF1000F05DA22230360464642B90F
:107EDC0030469EE707B17642002AF9D0BCF1000F7C
:107EEC0000D0691E1160F3E73024002BB1D10823B8
:107EFC00AFE7302CA5D00A23ABE700BF9E860B0062
:107F0C0013460A46014602480068FFF777BF00BFD8
:107F1C00BCD503202DE9F843DFF8B8800646D8F825
:107F2C0000001F460D46914600F056F8254B1C6884
:107F3C0034B9254C1C60254B13B11B68C4F8883030
:107F4C0063681F2B07DDD8F8000000F047F84FF0EE
:107F5C00FF30BDE8F8834EB3D4F8880088B91C4BC9
:107F6C0023B9D8F8000000F038F8F0E74FF484702B
:107F7C00FCF748FD0028F4D00023C0E94033C4F8D6
:107F8C008800636840F8239001229A4000EB83013B
:107F9C00D0F800311343C0F80031022EC1F88070C4
:107FAC0002BFD0F804311343C0F804316368D8F829
:107FBC0000005A1C0233626044F8235000F00EF8A3
:107FCC000020C6E7E8E703205CE703200000000080
:107FDC00114A0B0020D603207047704770470000F1
:107FEC001D400B0059400B0081400B0085400B00DD
:107FFC000000000043616C6C206F6E207075726520
:10800C00207669727475616C0036453430303030CE
:10801C00312D423541332D463339332D45304139DD
:10802C002D453530453234444343413945003645BE
:10803C003430303030332D423541332D46333933E3
:10804C002D453041392D453530453234444343417B
:10805C0039450074780036453430303030322D429A
:10806C003541332D463339332D453041392D453586
:10807C0030453234444343413945007278000000A6
:10808C0000000000000000000000000000000000E4
:10809C00A1400B00C9400B000000000000000000D4
:1080AC0009410B0049410B00E16E0B00CB400B006A
:1080BC00D3400B00DCFFFFFF0000000041410B0030
:1080CC005D410B00FD400B005D730B00636F756E23
:1080DC007465723D25750000000000000000000072
:1080EC0059440B008D440B00E16E0B00CB400B0090
:1080FC0000000000000000001D440B003D440B007C
:10810C00E16E0B00CB400B00D3400B00DCFFFFFFFC
:10811C000000000035440B0053440B00FD400B00E5
:10812C005D730B00417373657274696F6E466169A0
:10813C006C7572652066616C736500776972696E27
:10814C00672E626C6500537461727420646973638A
:10815C006F766572696E6720736572766963657395
:10816C002E00417373657274696F6E4661696C752C
:10817C0072652068616C5F626C655F737461636BC0
:10818C005F696E6974286E756C6C70747229203D11
:10819C003D2053595354454D5F4552524F525F4EFB
:1081AC004F4E4500506565722064657669636520A5
:1081BC006973206D697373696E6721004661696C20
:1081CC00656420746F20617070656E6420706565E5
:1081DC00722043656E7472616C20646576696365A8
:1081EC002E00436F6E6E6563746564206279204364
:1081FC00656E7472616C206465766963652E0044EB
:10820C006973636F6E6E6563746564004475706C3E
:10821C00696361746564206368617261637465721B
:10822C0069737469632063616E6E6F74206265207C
:10823C0061646465642E004661696C656420746FCA
:10824C0020617070656E64206C6F63616C20636874
:10825C006172616374657269737469632E000000E6
:10826C000000000000000000974A0B00F94A0B00C8
:10827C00DF4B0B00234B0B00994A0B000000000056
:10828C0000000000934A0B00074B0B00954A0B00B3
:10829C00294B0B00B94A0B00000000000000000045
:1082AC00914A0B00154B0B00A5530B002F4B0B00E9
:1082BC00D94A0B0000000000000000000000000084
:1082CC000000FB349B5F8000008000100000000069
:1082DC0000007BE327747BF815ACDD49A913000083
:1082EC0072F5FB349B5F80000080001000000000E2
:1082FC00000000000000000000000000535E0B00B6
:10830C00495E0B003F5E0B00355E0B00295E0B00D7
:10831C001D5E0B0039720B0041720B00115E0B00DD
:10832C00095E0B00FF5D0B00F55D0B0071720B001D
:10833C000000000000000000815E0B00715E0B006D
:10834C00735E0B002564007525303478006261750E
:10835C00640053657269616C0053657269616C31BC
:10836C00004A534F4E53747265616D4C6F67486190
:10837C006E646C6572006170700025303130752050
:10838C00005D20002C200028293A2000205B00638F
:10839C006F6465203D200025690064657461696C1B
:1083AC0073203D20000D0A006D0066006C6E0066A7
:1083BC006E007400636F64650064657461696C00C1
:1083CC0000000000000000002D630B0053630B0045
:1083DC0011630B008F5F0B00000000000000000019
:1083EC0089670B00A1670B00E16E0B00CB400B0003
:1083FC000000000000000000B5670B00C9670B000F
:10840C0085700B0019630B000000000000000000D9
:10841C002B630B0061630B00456E0B001B630B00A1
:10842C00000000000000000029630B006F630B00CC
:10843C00F1660B0091630B000000000000000000CF
:10844C00F9710B0003720B000D720B0017720B000D
:10845C0021720B002D720B0039720B0041720B0054
:10846C0049720B0055720B005D720B0067720B00AA
:10847C0071720B0025592D256D2D25645425483A14
:10848C00254D3A2553257A0061736374696D650037
:10849C00000000000000000015760B0081760B0038
:1084AC0059760B005D730B0029760B0045760B009B
:1084BC0037760B0053760B0017760B001B760B00F0
:1084CC000000000000000000D3760B003B770B008F
:1084DC0011770B005D730B0003770B00D5760B0047
:1084EC00E5760B0035770B00F5760B00CD760B009F
:1084FC0000000000000000003B780B0031780B00FE
:10850C0027780B00DD770B001B780B000F780B0026
:10851C0039720B0041720B0003780B00FB770B00D8
:10852C00F1770B00E7770B0071720B00005374317D
:10853C00395F53705F6D616B655F73686172656401
:10854C005F7461670000000094850B0039850B0097
:10855C00F4850B0068850B0018860B004E31305FDC
:10856C005F637878616269763131375F5F636C6124
:10857C0073735F747970655F696E666F4500000098
:10858C00000000005C850B006D7A0B00817A0B00FB
:10859C00157C0B00157C0B00EB7A0B002D7A0B0075
:1085AC00D37A0B00957A0B005F7A0B00F4850B00E5
:1085BC00C4850B005C850B004E31305F5F637878AF
:1085CC00616269763132305F5F73695F636C6173CE
:1085DC00735F747970655F696E666F4500000000AB
:1085EC0000000000B8850B00157B0B00297B0B00ED
:1085FC00157C0B00157C0B00EB7A0B002D7A0B0015
:10860C00E97B0B00757B0B003D7B0B0094850B000D
:10861C0020860B00537439747970655F696E666FD0
:10862C00005245454E54206D616C6C6F6320737520
:10863C0063636565646564002F746D702F6A656E85
:10864C006B696E732D4743432D31302D7069706506
:10865C006C696E652D34385F3230323031313234E2
:10866C005F313630363138303633392F7372632FF1
:10867C006E65776C69622F6E65776C69622F6C69B9
:10868C0062632F7374646C69622F72616E642E6303
:10869C0000002020202020202020202828282828E6
:1086AC0020202020202020202020202020202020BE
:1086BC002020881010101010101010101010101016
:1086CC001010040404040404040404041010101016
:1086DC0010101041414141414101010101010101D1
:1086EC000101010101010101010101010110101041
:1086FC0010101042424242424202020202020202A4
:10870C000202020202020202020202020210101013
:10871C00102000000000000000000000000000001D
:10872C00000000000000000000000000000000003D
:10873C00000000000000000000000000000000002D
:10874C00000000000000000000000000000000001D
:10875C00000000000000000000000000000000000D
:10876C0000000000000000000000000000000000FD
:10877C0000000000000000000000000000000000ED
:10878C0000000000000000000000000000000000DD
:10879C00000000002D450B00E55D0B005D5E0B003D
:1087AC00D16E0B0049730B0069740B00DD750B0067
:1087BC0001760B0045780B00000000000000000063
:0487CC0000000000A9
:1087D000040000001400000003000000474E550094
:1087E000235952D9399B5E508A0A8622FBFA1EA36E
:0487F0002C896DACB7
:0487F4000000000081
:1087F8001C840B0034840B0094840B00C0D5032028
:108808000000000000000000000000000000000060
:108818000000000000000000000000000000000050
:108828000000000000000000000000000000000040
:108838000000000000000000000000000000000030
:108848000000000000000000000000000000000020
:108858000000000000000000000000000000000010
:04886800ECE7032016
:10886C00FFFFFFFF00000102030405060708090AC9
:10887C000B0C0D0E0F101112131415161718191AC4
:08888C001B1C1D1E1F2028000B
:0488940078563412CC
:04000003B000401CED
:00000001FF
