:02000004085F93
:10A0000000A05F08FCFF5F080000060020000501BB
:08A0100004017D1500000000B1
:10A018001348144908B5884205D0134A824202D031
:10A02800124B121A98471248124A0021124B121A60
:10A03800984712481249884205D0124A824202D0F3
:10A048000A4B121A984710481049884205D0104AFE
:10A05800824202D0054B121A9847014808BD00BF3A
:10A06800A8AD0710C0F65F0824AE07102D0D11101B
:10A0780024AE0710E8AF0710A10E1110D8A93F02AF
:10A08800A8A05F08E0A93F02E0A93F02B0A05F08CE
:0CA09800F0FF3F0219A05F08000000006C
:08A0A8009CA05F0810FB3F02C1
:10A0B00081F0004102E000BF83F0004330B54FEA79
:10A0C00041044FEA430594EA050F08BF90EA020FE6
:10A0D0001FBF54EA000C55EA020C7FEA645C7FEA79
:10A0E000655C00F0E2804FEA5454D4EB5555B8BF9C
:10A0F0006D420CDD2C4480EA020281EA030382EA0D
:10A10000000083EA010180EA020281EA0303362D9E
:10A1100088BF30BD11F0004F4FEA01314FF4801C71
:10A120004CEA113102D0404261EB410113F0004F83
:10A130004FEA03334CEA133302D0524263EB43033A
:10A1400094EA050F00F0A780A4F10104D5F1200ED8
:10A150000DDB02FA0EFC22FA05F2801841F1000133
:10A1600003FA0EF2801843FA05F359410EE0A5F107
:10A1700020050EF1200E012A03FA0EFC28BF4CF038
:10A18000020C43FA05F3C01851EBE37101F00045EE
:10A1900007D54FF0000EDCF1000C7EEB00006EEBFB
:10A1A0000101B1F5801F1BD3B1F5001F0CD3490885
:10A1B0005FEA30004FEA3C0C04F101044FEA4452DC
:10A1C00012F5800F80F09A80BCF1004F08BF5FEA63
:10A1D000500C50F1000041EB045141EA050130BD43
:10A1E0005FEA4C0C404141EB0101013C28BFB1F555
:10A1F000801FE9D291F0000F04BF01460020B1FAA0
:10A2000081F308BF2033A3F10B03B3F120020CDA72
:10A210000C3208DD02F1140CC2F10C0201FA0CF050
:10A2200021FA02F10CE002F11402D8BFC2F1200CB5
:10A2300001FA02F120FA0CFCDCBF41EA0C0190406B
:10A24000E41AA2BF01EB0451294330BD6FEA0404B4
:10A250001F3C1CDA0C340EDC04F11404C4F120029F
:10A2600020FA04F001FA02F340EA030021FA04F3B1
:10A2700045EA030130BDC4F10C04C4F1200220FA08
:10A2800002F001FA04F340EA0300294630BD21FA46
:10A2900004F0294630BD94F0000F83F4801306BF0C
:10A2A00081F480110134013D4EE77FEA645C18BF00
:10A2B0007FEA655C29D094EA050F08BF90EA020F97
:10A2C00005D054EA000C04BF1946104630BD91EA8F
:10A2D000030F1EBF0021002030BD5FEA545C05D192
:10A2E0004000494128BF41F0004130BD14F58004D1
:10A2F0003CBF01F5801130BD01F0004545F0FE4145
:10A3000041F470014FF0000030BD7FEA645C1ABF79
:10A31000194610467FEA655C1CBF0B46024650EAB0
:10A32000013406BF52EA033591EA030F41F40021DC
:10A3300030BD00BF90F0000F04BF0021704730B562
:10A340004FF4806404F132044FF000054FF0000137
:10A3500050E700BF90F0000F04BF0021704730B5F8
:10A360004FF4806404F1320410F0004548BF4042CD
:10A370004FF000013EE700BF42004FEAE2014FEA22
:10A3800031014FEA02701FBF12F07F4393F07F4FFD
:10A3900081F06051704732F07F4208BF704793F000
:10A3A0007F4F04BF41F40021704730B54FF4607413
:10A3B00001F0004521F000411CE700BF50EA010216
:10A3C00008BF704730B54FF000050AE050EA0102BF
:10A3D00008BF704730B511F0004502D5404261EB2F
:10A3E00041014FF4806404F132045FEA915C3FF470
:10A3F000D8AE4FF003025FEADC0C18BF03325FEA0D
:10A40000DC0C18BF033202EBDC02C2F1200300FABD
:10A4100003FC20FA02F001FA03FE40EA0E0021FAE2
:10A4200002F11444BDE600BF70B54FF0FF0C4CF4D0
:10A43000E06C1CEA11541DBF1CEA135594EA0C0F82
:10A4400095EA0C0F00F0DEF82C4481EA030621EABD
:10A450004C5123EA4C5350EA013518BF52EA0335F8
:10A4600041F4801143F4801338D0A0FB02CE4FF0AA
:10A470000005E1FB02E506F00042E0FB03E54FF0DA
:10A480000006E1FB03569CF0000F18BF4EF0010ED2
:10A49000A4F1FF04B6F5007F64F5407404D25FEACE
:10A4A0004E0E6D4146EB060642EAC62141EA555181
:10A4B0004FEAC52040EA5E504FEACE2EB4F1FD0CC3
:10A4C00088BFBCF5E06F1ED8BEF1004F08BF5FEA41
:10A4D000500E50F1000041EB045170BD06F00046F3
:10A4E00046EA010140EA020081EA0301B4EB5C04A0
:10A4F000C2BFD4EB0C0541EA045170BD41F4801198
:10A500004FF0000E013C00F3AB8014F1360FDEBFBC
:10A51000002001F0004170BDC4F10004203C35DA98
:10A520000C341BDC04F11404C4F1200500FA05F31B
:10A5300020FA04F001FA05F240EA020001F00042BC
:10A5400021F0004110EBD37021FA04F642EB060132
:10A550005EEA430E08BF20EAD37070BDC4F10C045C
:10A56000C4F1200500FA04F320FA05F001FA04F220
:10A5700040EA020001F0004110EBD37041F100010C
:10A580005EEA430E08BF20EAD37070BDC4F1200517
:10A5900000FA05F24EEA020E20FA04F301FA05F27F
:10A5A00043EA020321FA04F001F0004121FA04F227
:10A5B00020EA020000EBD3705EEA430E08BF20EAF7
:10A5C000D37070BD94F0000F0FD101F00046400031
:10A5D00041EB010111F4801F08BF013CF7D041EAB3
:10A5E000060195F0000F18BF704703F000465200B7
:10A5F00043EB030313F4801F08BF013DF7D043EA88
:10A600000603704794EA0C0F0CEA135518BF95EA3D
:10A610000C0F0CD050EA410618BF52EA4306D1D1C4
:10A6200081EA030101F000414FF0000070BD50EAE3
:10A63000410606BF1046194652EA430619D094EA6D
:10A640000C0F02D150EA013613D195EA0C0F05D157
:10A6500052EA03361CBF104619460AD181EA0301AB
:10A6600001F0004141F0FE4141F470014FF0000063
:10A6700070BD41F0FE4141F4780170BD70B54FF0FE
:10A68000FF0C4CF4E06C1CEA11541DBF1CEA13557E
:10A6900094EA0C0F95EA0C0F00F0A7F8A4EB050460
:10A6A00081EA030E52EA03354FEA013100F0888057
:10A6B0004FEA03334FF0805545EA131343EA126320
:10A6C0004FEA022245EA111545EA10654FEA0026D5
:10A6D0000EF000419D4208BF964244F1FD0404F58E
:10A6E000407402D25B084FEA3202B61A65EB0305EA
:10A6F0005B084FEA32024FF480104FF4002CB6EBA7
:10A70000020E75EB030E22BFB61A754640EA0C0026
:10A710005B084FEA3202B6EB020E75EB030E22BF66
:10A72000B61A754640EA5C005B084FEA3202B6EBA7
:10A73000020E75EB030E22BFB61A754640EA9C0066
:10A740005B084FEA3202B6EB020E75EB030E22BF36
:10A75000B61A754640EADC0055EA060E18D04FEAF4
:10A76000051545EA16754FEA06164FEAC30343EA94
:10A7700052734FEAC2025FEA1C1CC0D111F4801F61
:10A780000BD141EA00014FF000004FF0004CB6E75A
:10A7900011F4801F04BF01430020B4F1FD0C88BFF9
:10A7A000BCF5E06F3FF6AFAEB5EB030C04BFB6EB04
:10A7B000020C5FEA500C50F1000041EB045170BDF7
:10A7C0000EF0004E4EEA113114EB5C04C2BFD4EB24
:10A7D0000C0541EA045170BD41F480114FF0000EA8
:10A7E000013C90E645EA060E8DE60CEA135594EA24
:10A7F0000C0F08BF95EA0C0F3FF43BAF94EA0C0F27
:10A800000AD150EA01347FF434AF95EA0C0F7FF49B
:10A8100025AF104619462CE795EA0C0F06D152EAEF
:10A8200003353FF4FDAE1046194622E750EA4106D3
:10A8300018BF52EA43067FF4C5AE50EA41047FF4E4
:10A840000DAF52EA43057FF4EBAE12E74FF0FF3C49
:10A8500006E000BF4FF0010C02E000BF4FF0010C1A
:10A860004DF804CD4FEA410C7FEA6C5C4FEA430C93
:10A8700018BF7FEA6C5C1BD001B050EA410C0CBFE2
:10A8800052EA430C91EA030F02BF90EA020F002044
:10A89000704710F1000F91EA030F58BF994208BFAB
:10A8A00090422CBFD8176FEAE37040F00100704768
:10A8B0004FEA410C7FEA6C5C02D150EA013C07D1BF
:10A8C0004FEA430C7FEA6C5CD6D152EA033CD3D00A
:10A8D0005DF8040B704700BF8446104662468C4604
:10A8E0001946634600E000BF01B5FFF7B7FF002837
:10A8F00048BF10F1000F01BD4DF808EDFFF7F4FF60
:10A900000CBF012000205DF808FB00BF4DF808EDEA
:10A91000FFF7EAFF34BF012000205DF808FB00BF0D
:10A920004DF808EDFFF7E0FF94BF012000205DF82F
:10A9300008FB00BF4DF808EDFFF7CEFF94BF0120E4
:10A9400000205DF808FB00BF4DF808EDFFF7C4FFDD
:10A9500034BF012000205DF808FB00BF4FEA410C26
:10A960007FEA6C5C02D150EA013C0AD14FEA430C09
:10A970007FEA6C5C02D152EA033C02D14FF0000046
:10A9800070474FF0010070474FEA4102B2F1E043D7
:10A9900024BFB3F5001CDCF1FE5C0DD901F0004CC6
:10A9A0004FEAC0024CEA5070B2F1004F40EB830016
:10A9B00008BF20F00100704711F0804F21D113F142
:10A9C0003872BCBF01F00040704741F480114FEA7B
:10A9D0005252C2F11802C2F1200C10FA0CF320FA04
:10A9E00002F018BF40F001004FEAC1234FEAD32321
:10A9F00003FA0CFC40EA0C0023FA02F34FEA43038B
:10AA0000CCE77FEA625307D150EA01331EBF4FF013
:10AA1000FE4040F44000704701F0004040F0FE402E
:10AA200040F40000704700BF10F8012B11F8013B03
:10AA3000012A28BF9A42F7D0D01A7047034613F86C
:10AA4000012B002AFBD1181A0138704770B502F0AB
:10AA500053FD0025054E064CA41BA408AC4200D1B2
:10AA600070BD56F8043B98470135F7E7CCFF3F022D
:10AA7000F0FF3F0200F048B808B500F055F8BDE817
:10AA8000084002F0F1BC00F075BE00F073BE00F0AB
:10AA90007FBE00000C2008B5024A034900F044FDC7
:10AAA000FEE700BFF9B93F0220FB3F020078B0FA91
:10AAB00080F0400970470123037070477047000021
:10AAC00010B50446094B036001F05EFB214601F01E
:10AAD00095FD02F039FC02F02BFC2046044B40F8B7
:10AAE000043B01F027FC204610BD00BF58FB3F028D
:10AAF00040FB3F0210B50446FFF7E2FF2046242149
:10AB0000FFF7C5FF204610BD08B5064800F076FAED
:10AB1000044800F0FFF9BDE808408021014800F03A
:10AB20000BBA00BF24AE071000B58BB006AB05AA68
:10AB300004A9094800F01CFA09AB029308AB019381
:10AB400007AB009304990448DDE9052300F0E4F81D
:10AB50000BB05DF804FB00BF24AE071070B51426DF
:10AB6000D0E90053044606FB0356AE4204D0284603
:10AB700002F07EFA1435F8E7206800F009FE20465E
:10AB800070BD8842F8B504460D46164616D9904267
:10AB900015D2A2F11406751AA1F114072C44B7427C
:10ABA0001CD02CB13146204602F0CBFA337C237402
:10ABB000304602F05DFA143E143CF0E70ED0B54288
:10ABC0000CD02CB12946204602F0BBFA2B7C237412
:10ABD000284602F04DFA14351434F0E7F8BD00238E
:10ABE0002DE9F041C0E9003383604F6804469F427D
:10ABF0000E4624DD4FF0140808FB07F000F0BAFD04
:10AC00000546E0B1D4E9001208FB0212FFF7B9FFD4
:10AC1000206800F0BDFD2560A760D6E9007308FB41
:10AC20000378B84509D03946284602F0A4FA3B7C9F
:10AC3000143505F8043C1437F3E773686360204665
:10AC4000BDE8F081F0B500258DB01221204800F05C
:10AC500049F8CDE90055029502F076FB1D4C0646F9
:10AC60002746694603A8FFF7BAFF03A906A8FFF71E
:10AC7000B6FF194B06A947F8043B09A8FFF7AFFF39
:10AC800009AA1E21384601F09BFD09A8FFF766FFBF
:10AC900006A8FFF763FF114B03A823602662FFF7A6
:10ACA0005DFF0F4B236002F04FFB4FF4165102F093
:10ACB0003BFB01F069FA214601F05AFC6846FFF7B8
:10ACC0004DFF294601200DB0BDE8F04000F072BCF8
:10ACD00024AE071028AE071040FB3F0280FC3F0265
:10ACE00058FB3F024180704710B52DED028B10EEEE
:10ACF000104AFFF72FFB41EC180B2046FFF73CFBF7
:10AD0000B0EE481AF0EE681ABDEC028BBDE81040B8
:10AD100041EC100B02F090BD07EE901A30B52DED0E
:10AD2000048BB8EEE79A07EE902AF8EEE78A08EE71
:10AD3000103A83B00220B0EE680AFFF7D5FFB8EEF4
:10AD4000C88A55EC104B0220B0EE480AFFF7CCFF42
:10AD5000204653EC102B2946FFF7B0F941EC100BBD
:10AD600002F03CFE19EE100A8DED000BFFF704FB1C
:10AD70009DED001B41EC100B02F05CFD51EC100B43
:10AD8000FFF702FEFFF7F8FA37A3D3E90023FFF736
:10AD90004BFBFFF7F9FD0A9BB0EE490A1860022051
:10ADA000FFF7A2FF022055EC104BB0EE480AFFF768
:10ADB0009BFF204653EC102B2946FFF77FF941EC0F
:10ADC000100B02F00BFE18EE900A8DED000BFFF752
:10ADD000D3FA9DED001B41EC100B02F02BFD51EC62
:10ADE000100BFFF7D1FDFFF7C7FA1FA3D3E900232C
:10ADF000FFF71AFBFFF7C8FD0B9BB0EE490A18607E
:10AE00000220FFF771FF022055EC104BB0EE680AEC
:10AE1000FFF76AFF204653EC102B2946FFF74EF947
:10AE200041EC100B02F0DAFD18EE100A8DED000B6C
:10AE3000FFF7A2FA9DED000B41EC110B02F0FAFCBA
:10AE400051EC100BFFF7A0FDFFF796FA06A3D3E92C
:10AE50000023FFF7E9FAFFF797FD0C9B186003B09A
:10AE6000BDEC048B30BD00BFF8C1631ADCA54C40BB
:10AE700013B50A4CD4E88F1F11F001010BD1204605
:10AE80000191FFF713FE019928B1054802F0B8F8C7
:10AE90002046FFF710FE024802B010BD4CAE07106E
:10AEA00050AE071007B50190FFF7E2FF019903B01C
:10AEB0005DF804EB02F0D6B870B50E4615460446B0
:10AEC0000021408802F099FB0A20FFF7EBFF304693
:10AED000FFF7E8FF2846FFF7E5FF60880121BDE89E
:10AEE000704002F08ABB38B50D4604460021408808
:10AEF00002F083FB0B20FFF7D5FF2846FFF7D2FFB8
:10AF00000020FFF7CFFF05460121608802F075FBA6
:10AF1000284638BD10B52D210446FFF7E4FF00F0A8
:10AF2000FC0040F002022D212046FFF7C5FFBDE8DE
:10AF300010400A2000F080BC38B50D462C21044694
:10AF4000FFF7D1FF402D0FD0802D0FD0012300F04F
:10AF50003F02237020462A432C21FFF7ADFFBDE8B6
:10AF600038400A2000F068BC0223F0E70423EEE733
:10AF70002DE9F74F04468B464088002191469846BC
:10AF800002F03BFB0B20FFF78DFF0E20FFF78AFF3F
:10AF90000020FFF787FF07460020FFF783FF01909F
:10AFA0000020FFF77FFF06460020FFF77BFF0090A1
:10AFB0000020FFF777FF05460020FFF773FF82466A
:10AFC0000121608802F019FB019A009B07EB022720
:10AFD000227806EB032612FB07F7CBF800702378E4
:10AFE00005EB0A2513FB06F6C9F80060227812FB70
:10AFF00005F5C8F8005003B0BDE8F08F10B5012189
:10B000000446408802F0E8FAFFF732FF02F002F847
:10B01000FFF72EFF002102F011F84FF4FA7000F054
:10B020000BFC01232046237052221F21FFF744FF0F
:10B03000BDE810400A2000F0FFBB000009B504483D
:10B040000068044B03441B685B6C029309BD00005D
:10B05000A8AD07103000000009B504480068044B93
:10B0600003441B689B6C029309BD0000A8AD071048
:10B070003000000009B504480068044B03441B6815
:10B08000DB6C029309BD0000A8AD07103000000082
:10B0900009B504480068044B03441B685B6D0293C8
:10B0A00009BD0000A8AD07103000000009B5044834
:10B0B0000068044B03441B685B68029309BD0000F1
:10B0C000A8AD07100000000009B504480068044B53
:10B0D00003441B68DB68029309BD0000A8AD07109C
:10B0E0000000000009B504480068044B03441B68D5
:10B0F0005B69029309BD0000A8AD071000000000C5
:10B1000009B504480068044B03441B689B6802931C
:10B1100009BD0000A8AD07101400000009B50448DF
:10B120000068044B03441B68DB68029309BD000000
:10B13000A8AD07101400000009B504480068044BCE
:10B1400003441B681B69029309BD0000A8AD0710EA
:10B150001400000009B504480068044B03441B6850
:10B160001B6A029309BD0000A8AD07101000000083
:10B1700009B504480068044B03441B685B6A0293EA
:10B1800009BD0000A8AD07101000000009B5044873
:10B190000068044B03441B689B6A029309BD0000CE
:10B1A000A8AD07101000000009B504480068044B62
:10B1B00003441B68DB6A029309BD0000A8AD0710B9
:10B1C0001000000009B504480068044B03441B68E4
:10B1D0001B6B029309BD0000A8AD07101000000012
:10B1E00009B504480068044B03441B685B6B029379
:10B1F00009BD0000A8AD07101000000009B5044803
:10B200000068044B03441B681B6C029309BD0000DB
:10B21000A8AD07101000000009B504480068044BF1
:10B2200003441B685B69029309BD0000A8AD0710C9
:10B230004C00000009B504480068044B03441B6837
:10B240009B68029309BD0000A8AD071050000000E4
:10B2500009B504480068044B03441B68DB6802938B
:10B2600009BD0000A8AD07105000000009B5044852
:10B270000068044B03441B681B68029309BD00006F
:10B28000A8AD07101800000009B504480068044B79
:10B2900003441B68DB68029309BD0000A8AD0710DA
:10B2A0001800000009B504480068044B03441B68FB
:10B2B0005B69029309BD0000A8AD071018000000EB
:10B2C00009B504480068044B03441B68DB6902931A
:10B2D00009BD0000A8AD07101800000009B504481A
:10B2E0000068044B03441B681B6A029309BD0000FD
:10B2F000A8AD07101800000009B504480068044B09
:10B3000003441B681B6C029309BD0000A8AD071025
:10B310001800000009B504480068044B03441B688A
:10B320005B6C029309BD0000A8AD07101800000077
:10B3300009B504480068044B03441B689B680293EA
:10B3400009BD0000A8AD07102400000009B504489D
:10B350000068044B03441B68DB68029309BD0000CE
:10B36000A8AD07102400000009B504480068044B8C
:10B3700003441B681B69029309BD0000A8AD0710B8
:10B380002400000009B504480068044B03441B680E
:10B390005B69029309BD0000A8AD071024000000FE
:10B3A00009B504480068044B03441B689B69029379
:10B3B00009BD0000A8AD07102400000009B504482D
:10B3C0000068044B03441B68DB69029309BD00005D
:10B3D000A8AD07102400000009B504480068044B1C
:10B3E00003441B681B6A029309BD0000A8AD071047
:10B3F0002400000009B504480068044B03441B689E
:10B400009B6A029309BD0000A8AD0710240000004C
:10B4100009B504480068044B03441B68DB6A0293C7
:10B4200009BD0000A8AD07102400000009B50448BC
:10B430000068044B03441B681B6C029309BD0000A9
:10B44000A8AD07102400000009B504480068044BAB
:10B4500003441B681B68029309BD0000A8AD0710D8
:10B460003400000009B504480068044B03441B681D
:10B470005B68029309BD0000A8AD0710340000000E
:10B4800009B504480068044B03441B689B68029399
:10B4900009BD0000A8AD07103400000009B504483C
:10B4A0000068044B03441B681B69029309BD00003C
:10B4B000A8AD07103400000009B504480068044B2B
:10B4C00003441B685B69029309BD0000A8AD071027
:10B4D0003400000009B504480068044B03441B68AD
:10B4E0009B69029309BD0000A8AD0710340000005D
:10B4F00009B504480068044B03441B68DB690293E8
:10B5000009BD0000A8AD07103400000009B50448CB
:10B510000068044B03441B681B6A029309BD0000CA
:10B52000A8AD07103400000009B504480068044BBA
:10B5300003441B685B6B029309BD0000A8AD0710B4
:10B540004800000009B504480068044B03441B6828
:10B55000DB6E029309BD0000A8AD07104800000093
:10B5600009B504480068044B03441B681B6F029331
:10B5700009BD0000A8AD07104800000009B5044847
:10B580000068044B03441B685B68029309BD00001C
:10B59000A8AD07100800000009B504480068044B76
:10B5A00003441B685B69029309BD0000A8AD071046
:10B5B0000800000009B504480068044B03441B68F8
:10B5C000DB6A029309BD0000A8AD07100800000067
:10B5D00009B504480068044B03441B68D3F888305D
:10B5E000029309BDA8AD07100800000009B5044882
:10B5F0000068044B03441B68D3F89430029309BDE0
:10B60000A8AD07100800000009B504480068044B05
:10B6100003441B68DB6B029309BD0000A8AD071053
:10B620002C00000009B504480068044B03441B6863
:10B630005B68029309BD0000A8AD07102800000058
:10B6400009B504480068044B03441B689B680293D7
:10B6500009BD0000A8AD07102800000009B5044886
:10B660000068044B03441B68DB68029309BD0000BB
:10B67000A8AD07102800000009B504480068044B75
:10B6800003441B681B69029309BD0000A8AD0710A5
:10B690002800000009B504480068044B03441B68F7
:10B6A0005B69029309BD0000A8AD071028000000E7
:10B6B00009B504480068044B03441B689B69029366
:10B6C00009BD0000A8AD07102800000009B5044816
:10B6D0000068044B03441B68DB69029309BD00004A
:10B6E000A8AD07102800000009B504480068044B05
:10B6F00003441B681B6A029309BD0000A8AD071034
:10B700002800000009B504480068044B03441B6886
:10B710001B6B029309BD0000A8AD071028000000B4
:10B7200009B504480068044B03441B685B6B029333
:10B7300009BD0000A8AD07102800000009B50448A5
:10B740000068044B03441B681B6C029309BD000096
:10B75000A8AD07102800000009B504480068044B94
:10B7600003441B685B6C029309BD0000A8AD071081
:10B770002800000009B504480068044B03441B6816
:10B780001B68029309BD0000A8AD0710040000006B
:10B7900009B504480068044B03441B685B680293C6
:10B7A00009BD0000A8AD07100400000009B5044859
:10B7B0000068044B03441B689B68029309BD0000AA
:10B7C000A8AD07100400000009B504480068044B48
:10B7D00003441B685B6A029309BD0000A8AD071013
:10B7E0000400000009B504480068044B03441B68CA
:10B7F000DB6B029309BD0000A8AD07100400000038
:10B8000009B504480068044B03441B681B6C029391
:10B8100009BD0000A8AD07100400000009B50448E8
:10B820000068044B03441B685B6C029309BD000075
:10B83000A8AD0710040000000021FFF7ADBE38B529
:10B84000046805467CB16368013B63605BB92368AB
:10B8500020469B689847A368013BA3601BB92368F7
:10B860002046DB689847284638BD10B54368044633
:10B87000013B436063B903689B689847A368013B39
:10B88000A3602BB923682046BDE81040DB68184749
:10B8900010BD70B50446D0E9005305EB0316AE4267
:10B8A00004D0284601F0E4FB1035F8E72068FFF7E4
:10B8B0006FFF204670BD0000002302480360FFF7C1
:10B8C000BDBB00BF58AE0710002240681146FFF70D
:10B8D0000BBF002240681146FFF722BF00224068DC
:10B8E000FFF710BF0022406881F00101FFF7EEBEB4
:10B8F000002340681A461946FFF7DABE0023406865
:10B900001A461946FFF7C6BE002240681146FFF7E7
:10B91000B3BE002240681146FFF792BE002202210A
:10B920004068FFF79BBE002340681A46FFF77ABEC7
:10B930000322024B5A60024A1A6070475CAE07103D
:10B9400070FB3F027047F8B5064615460C468F1847
:10B95000BC4206D0336830469B6814F8011B9847F8
:10B96000F6E72846F8BD0022007CFFF7F3BB002174
:10B97000007CFFF7FDBB0021007CFFF707BC002126
:10B98000007CFFF711BC0021007CFFF71BBC10B549
:10B9900004461421FFF77BF8204610BD38B5044655
:10B9A00015464FF47A730022C4E90123094B084677
:10B9B000217423602946FFF721FCBF3008D16B6951
:10B9C000DB0705D56868FFF7E3FEE868FFF7E0FEF0
:10B9D000204638BDACFB3F02704710B50446182125
:10B9E000FFF755F8204610BDF0B5037D0E46062B37
:10B9F0004FF000048DB000F1040712D000F10805EB
:10BA000015F8011D0A22304601F0CFFAAF42044476
:10BA100019D0002CF4D02E21304601F0C3FA044492
:10BA2000EEE72F236A4639460A208DF80040FFF7DB
:10BA3000F3FB6846FFF702F8336802466946304672
:10BA4000DB689847044620460DB0F0BD10B50446AB
:10BA5000044B1122002140F8043B03F04EFA20462B
:10BA600010BD00BFD4FB3F020346074A10B543F8A0
:10BA7000042B01F1100251F8044B914243F8044B9E
:10BA8000F9D10A781A7010BDD4FB3F0210B59DF8A9
:10BA9000084044EA032343EA0242042342EA0161E4
:10BAA0004160037510BD000007B5064B0360CB78FD
:10BAB00000938B784A780978FFF7E8FF03B05DF8C8
:10BAC00004FB00BFD4FB3F02012200F1100313F876
:10BAD000101C1846012908D153F8041C02EB41023E
:10BAE000013A03F11003F2D17047022904BF53F861
:10BAF000041C5218F4E70EB4F0B588B0102100AF62
:10BB000007F1340555F8042B04462B4678187A6063
:10BB1000FD60FFF759FE0F287A681AD900F1080373
:10BB200023F007036E46ADEB030D411C2B46684620
:10BB3000FD60FFF749FE021E04DD236869462046CA
:10BB40009B689847B5462037BD46BDE8F04003B036
:10BB500070470028F7D0236802469B68204607F10B
:10BB600010019847EFE738B50B68044603604D684D
:10BB700043689D4208D015B16B6801336B60606803
:10BB800008B1FFF772FE656038BD07B503688DF830
:10BB9000071001229B680DF10701984703B05DF87B
:10BBA00004FB0B461146002210B50446C0E90022F2
:10BBB00083600BB9204610BDFFF7D5FFFAE7836815
:10BBC000EBB11A78032A1AD8DFE802F00417021B37
:10BBD0000520704702685B685268D05C2D2812D03F
:10BBE000A0F13003092B0ED974280ED066280CD092
:10BBF000A0F16E035842584170470620704700205C
:10BC0000704704207047032070470220704710B52A
:10BC10000446FFF7D4FF02280ED0C31EDBB2012B6F
:10BC200014D82268A36850685B680A22BDE81040F7
:10BC30000021184403F062BA2268A36852685B6866
:10BC4000D05CA0F174035842584110BD0020FCE7BD
:10BC500038B500230446C0E900330E48C4E90203A6
:10BC6000A9B10B78032B06D08BB9136858684B68C1
:10BC7000C35C6E2B07D013684D6858688B682844E6
:10BC80005B1BA060E36011462046FFF76CFF204677
:10BC900038BD00BF46FC3F0238B500250B460446C0
:10BCA0001146C0E90055C0E90255C0E904554BB141
:10BCB0001A78012A06D103F11002DB688260436121
:10BCC000FFF751FF204638BD10B54369044663B104
:10BCD0008068013BE0601030A0602061636113B1B7
:10BCE000FFF7F2FEA060012000E0184610BD10B57D
:10BCF0007D210446FFF749FF01232046237110BD33
:10BD000008B50379012B02D0022B04D008BD2C21E9
:10BD1000FFF73BFFFAE73A21FAE710B50446FFF7D1
:10BD2000EFFF20467B21FFF730FF002320462371E1
:10BD300010BD000013B504460191FFF7E1FF236831
:10BD40002046DB68019A0349984701232046237166
:10BD500002B010BDE0FB3F0213B504460191FFF7AE
:10BD6000CFFF23682046DB68019A034998470123E7
:10BD70002046237102B010BDE3FB3F022DE9F047DE
:10BD80000D469046222104462F46FFF7FEFEDFF8BF
:10BD9000A490A8444745BA463DD017F8016B222E1F
:10BDA00006D05C2E04D0304603F078F80028F1D19C
:10BDB0002368294620469B68AAEB050298475C2128
:10BDC0002046FFF7E2FE0D2E0AD8072E1CD9A6F159
:10BDD0000803052B18D8DFE803F00D0F1117131512
:10BDE000222E01D05C2E0FD131462046FFF7CDFE2A
:10BDF0003D46CFE76221F8E77421F6E76E21F4E7CC
:10BE00006621F2E77221F0E7236832464946204670
:10BE1000DB689847ECE7BD4205D0236829462046F9
:10BE20009B687A1B984722212046FFF7AEFEBDE8AB
:10BE3000F08700BFE6FB3F0213B50446CDE90021C1
:10BE4000FFF75EFFDDE900212046FFF797FF0223A1
:10BE50002046237102B010BD13B50446CDE9002180
:10BE6000FFF74EFFDDE900212046FFF787FF0123A2
:10BE70002046237102B010BD80680368DB68184754
:10BE80007047084611B10B685B68184770477047E8
:10BE900070477047704738B504460D4600682E213C
:10BEA00003F06FF82368C31A2B6023B1037803B142
:10BEB000013023682060184638BD10B504460C21B7
:10BEC000FEF7E5FD204610BD10B504460421FEF73F
:10BED000DEFD204610BD10B504460421FEF7D7FD57
:10BEE000204610BDFFF7C6B808B5FEF79DFDB0FAB5
:10BEF00080F0400908BD704710B50C4601F024FAE7
:10BF0000844205D101F020FABDE8104001F010BADA
:10BF100001F0FCFB844205D101F0F8FBBDE81040C4
:10BF200001F0A9B92CB123682046BDE810405B6838
:10BF3000184710BD0B6803604B68436013B15A6823
:10BF400001325A60704713B5044608460191FEF766
:10BF500075FD02462046019902B0BDE81040FFF78A
:10BF60007BBF13B5044608460191FEF767FD024604
:10BF7000204623680199DB6802B0BDE810401847ED
:10BF800007B503688DF807100122DB680DF1070182
:10BF9000984703B05DF804FB0A6810B502604A6870
:10BFA00042600022C0E9022202618C688A608460DB
:10BFB000CC68CA60C4600C690A61046110BD0000ED
:10BFC0002DE9F74F4FF0140AD0E900841746454693
:10BFD0000AFB04F40093174BA4105C43002C21DDF2
:10BFE00066100AFB06F005EB0009B9F804B03A4602
:10BFF0005F4528BF5A462858019102F0D4FF002817
:10C000004FF0010301990BD15F4503D1009A1370E2
:10C010003446E3E7FCD9A61B09F11405013EF7E716
:10C02000F9DBF5E7A5EB08050248AD10684303B05E
:10C03000BDE8F08FCDCCCCCC7FB50369057E0191F6
:10C0400003B3F9B1002600F10C04039603A901A87B
:10C05000FFF721FF0146A8B10DF10B032046039A1B
:10C060008DF80B60FFF7ACFF9DF80B3053B12368E0
:10C07000142404FB0034B4F906300834002BA8BFA4
:10C08000DDB2E3E7284604B070BD0EB4F0B58CB065
:10C0900000AF07F1440555F8042B04462B46202138
:10C0A00007F110007A60FD60FFF78EFB1F287A68A9
:10C0B0001AD900F1080323F007036E46ADEB030D18
:10C0C000411C2B466846FD60FFF77EFB021E04DD27
:10C0D000236869462046DB689847B5463037BD4639
:10C0E000BDE8F04003B070470028F7D0236802464F
:10C0F000DB68204607F110019847EFE710B5084CC0
:10C10000D4E88F3FDB0709D42046FEF7CFFC28B1E7
:10C110002046FEF7D0FC034802F0BAFE024810BDEC
:10C1200068AE0710BFC73F02ACAD071010B5084C92
:10C13000D4E88F3FDB0709D42046FEF7B7FC28B1CF
:10C140002046FEF7B8FC034802F0A2FE024810BDEC
:10C150006CAE071027C83F02B0AD071038B50025F8
:10C160000446C0E90055C0E904558560856140F882
:10C17000245FFEF763FFFFF7C1FFE061FFF7D6FF23
:10C1800025732062204638BD10B50A4CD4E88F3F95
:10C19000DB070CD42046FEF789FC40B10648FFF7C8
:10C1A000DDFF2046FEF787FC044802F071FE0248DE
:10C1B00010BD00BF64AE071074AE071009D03F0277
:10C1C0000023024A02490348FFF7CAB9F1CD3F02F2
:10C1D0007DCD3F02FDCC3F0200231A46194618468A
:10C1E000FFF7BEB937B504468D686846FFF7A2FE73
:10C1F0006A4629462046FFF74FFD01A8FFF71FFBBF
:10C20000204603B030BD37B50446CD686846FFF719
:10C2100091FE6A4629462046FFF71AFD01A8FFF75E
:10C220000EFB204603B030BD37B504460D696846A5
:10C23000FFF780FE6A4629462046FFF7B2FC01A8B8
:10C24000FFF7FDFA204603B030BD000070B58AB09C
:10C250000D46014604A8FFF7C5FF144E04A8FFF7DA
:10C2600033FDE8B1684604A9FFF7CDFF31460298D7
:10C27000FFF73AFE044610B12C1E18BF012401A896
:10C28000FFF7DDFA002CE9D0684604A9FFF7CCFFE0
:10C290006846FFF7BCFC286001A8FFF7D0FADDE78D
:10C2A00005A8FFF7CCFA0AB070BD00BFECFB3F0257
:10C2B00037B50C46134920461546FEF7B5FB50B975
:10C2C00001F042F84FF4165101F02EF803B0BDE82A
:10C2D000304001F039B820460B49FEF7A5FB78B98C
:10C2E0004FF4165301A928460193FFF7AFFF01F061
:10C2F0000DFA019900F0BCFF01F008FA03B030BD5F
:10C300000020FBE7F1FB3F02F8FB3F0270B514266B
:10C31000D0E90053044606FB0356AE4205D005F1B2
:10C320000800FFF7F3FF1435F7E72068FFF730FA4E
:10C33000204670BD10B504460C30FFF7E7FF2046DD
:10C34000FFF7A7FA204610BD10B50446034B40F88E
:10C35000043BFFF7EFFF204610BD00BF40FB3F024C
:10C3600010B50446FFF7F0FF20462421FEF78FFBAF
:10C37000204610BD10B50446024B0360FFF7E4FFF2
:10C38000204610BD98FC3F0210B50446FFF7F2FFAF
:10C3900020462421FEF77BFB204610BD0022C0E989
:10C3A0000022826010B50C680A6004604C684A6024
:10C3B00044608C688A60846010BD10B504460368D0
:10C3C0001868FEF765FE204610BD00002DE9F04F0D
:10C3D00087B003931C4B80465B688946C3F3080310
:10C3E00016466BB9FFF7D0FE044600F12403406AFD
:10C3F0000593FFF777FD237B2BB105A8FFF7DDFF42
:10C4000007B0BDE8F08F01235FFA89F92373D4E9FF
:10C41000005305EB830AAA4512D055F8047B314638
:10C42000381DFFF709FE8145F5D3039A3B6800925A
:10C43000D3F808B04A46334641463846D847EAE77B
:10C4400000232373D9E700BF00ED00E02DE9F74F8B
:10C450009B461A4B80465B688946C3F30803164621
:10C460006BB9FFF791FE044600F12403406A019383
:10C47000FFF738FD237B2BB101A8FFF79EFF03B028
:10C48000BDE8F08F0123F6B22373D4E9005305EB26
:10C49000830A55450ED055F8047B5946381DFFF7E1
:10C4A000CBFD8642F5D33B684A4641463846DB68B9
:10C4B0009847EEE700232373DEE700BF00ED00E0BE
:10C4C0002DE9F341164B05465B680F46C3F308039D
:10C4D0001BBBFFF759FE044600F12403406A019399
:10C4E000FFF700FDD4E90063462406EB8308B0455E
:10C4F00009D101A8FFF761FFA542B4BF00200120C8
:10C5000002B0BDE8F08156F8040B39460430FFF75D
:10C5100093FD8442A8BF0446E9E70020F0E700BF8E
:10C5200000ED00E0F8B5D0E901539D4204460E4607
:10C530000DDB6F1C002F006804DDB900FFF736F932
:10C5400018B9F8BDFFF724F900202060A76027681C
:10C55000626807EB85019200A2EB8502081D02F0DC
:10C56000B2FC47F825606368012001336360E8E7A7
:10C5700037B5044600F12403406A01930D46FFF7E6
:10C58000B1FCD4E9003203EB8202934219460AD08F
:10C5900009680433A942F8D101A8FFF70EFF00256E
:10C5A000284603B030BD29462046FFF7BBFF0546AD
:10C5B0000028F1D06368012B01D1FFF701FE01A82B
:10C5C000FFF7FBFEECE70B4670B50446D0E900022E
:10C5D00000EB820282420FD001461D6851F8046BC5
:10C5E000AE4207D1521A02F06EFC01206368013B93
:10C5F000636070BD0846EDE70020FAE71FB504460A
:10C6000000F12403406A01910393FFF76BFC20467D
:10C6100001A9FFF7D8FF18B163680BB9FFF7DCFD7C
:10C6200003A8FFF7CAFE04B010BD182370B5044676
:10C63000D0E9045603FB0656AE4215D0204605F15C
:10C640001001FFF7C0FF63680BB9FFF7C5FDE06994
:10C6500029690368DB689847696919B1206A03682A
:10C66000DB6898471835E7E71826D4E9045306FB3A
:10C670000356AE4204D0284600F0FAFC1835F8E71D
:10C680000023636170BD73B50446FFF7A5FD04F197
:10C690002403606A0193FFF725FC2046FFF7C5FFDE
:10C6A00001A8FFF78AFE606A08B1FEF7D5FCD4E95D
:10C6B0000453182606FB0356AE4204D0284600F069
:10C6C000D7FC1835F8E72069FFF762F82068FFF714
:10C6D0005FF8204602B070BD0148FFF7D4BF00BF2D
:10C6E00074AE07108842F8B504460D46164615D9B3
:10C6F000904214D2A2F11406751AA1F114072C4429
:10C70000B7421AD01CB131462046FFF745FC06F16E
:10C710000800FFF7FBFD143E143CF1E70DD0B542D5
:10C720000BD01CB129462046FFF736FC05F1080066
:10C73000FFF7ECFD14351434F1E7F8BD8842F8B585
:10C7400004460D46164614D9904213D2A2F11006A3
:10C75000751AA1F110072C44B74218D01CB131460C
:10C76000204600F0EEFC304600F082FC103E103C0B
:10C77000F2E70CD0B5420AD01CB12946204600F0A1
:10C78000E0FC284600F074FC10351034F2E7F8BDE8
:10C7900070B50E1E054611DD3001FEF7EBFF0446B5
:10C7A00058B1D5E9001201EB0212FFF7C7FF286864
:10C7B000FEF7EEFF01202C60AE6070BD0024F6E7AE
:10C7C0002DE9F04F90460023462295B00391D8F80A
:10C7D000041004469942C0E90033C0E90233C0E9BD
:10C7E0000433CDE9083302760A9323DCD8E90057F5
:10C7F000142303FB0757AF423BD029460BA800F098
:10C80000A0FC0BA90FA8099E00F09BFCDDE9091311
:10C8100099421BDA089B099A03EB0616314603EB93
:10C82000021206F11000FFF789FFEEB9099B0133F0
:10C83000099311E008A8FFF7ABFF0028D6D108A89C
:10C84000FFF727F8204615B0BDE8F08F013108A8A2
:10C85000FFF79EFF0028DDD10FA800F009FC0BA810
:10C8600000F006FC1435C6E730460FA900F069FC5D
:10C87000DCE700264FF01409CDE90B660D96DDE9E3
:10C8800008239E427CDA3301D35806930BB9013654
:10C89000F5E70023079309FB06F30BAD029307A905
:10C8A00006A8FFF7F8FA82460028F0D04FF0000300
:10C8B00001468DF817302846079A0DF11703FFF748
:10C8C0007FFB9DF817700190002F4AD1BDF81C30F6
:10C8D000CDE91177ADF840304FF6FF73CDF83CA0AD
:10C8E000ADF842301397D5E90132934217DB03F1DB
:10C8F000010ABAF1000F30DD09FB0AF0FEF73AFF3A
:10C90000834660B3D5E9001209FB0212FFF7EAFE85
:10C910002868FEF73DFFC5F800B0C5F808A02B68F1
:10C92000019A09FB023A6A68514609FB02320AF190
:10C930001400FFF7D7FEBAF1000F03D050460FA93D
:10C94000FFF72AFB6B6801336B6011A8FFF7DEFC71
:10C950003FB10BA8FFF7DAFC71E7BB46D8E7012728
:10C96000F3E7019B2D6809FB0355069B1B782BB948
:10C97000D8F80030029A13441B7CEB8008358EE710
:10C980002168226062686360A36809920A9A0A9328
:10C99000E368A2600B9A0B932369E2600C9A0C93F4
:10C9A000636922610D9A0D93039B0891626123765E
:10C9B000CFE70000F0B504462646174687B00D467F
:10C9C00068461946FEF70BF90B4B694646F8043BDF
:10C9D00003A8FEF704F9394603AA3046FFF7F0FE34
:10C9E00003A8FEF7BBF86846FEF7B8F82046034BED
:10C9F0002562236007B0F0BD40FB3F0280FC3F0290
:10CA0000F0B50F4685B038461C4916461D460A9CAF
:10CA1000FEF70AF8C0B9A4B1294601A8FFF7BEFC89
:10CA20002420174900F002FF054630B101AB324621
:10CA30002146FFF7BFFF134B2B6001A8FEF78EF8CE
:10CA40002C46204605B0F0BD38460F49FDF7ECFFF7
:10CA500090B9002CF5D0294601A8FFF79FFC2420AF
:10CA6000074900F0E3FE05460028E6D0324621469D
:10CA700001ABFFF79FFFE0E70024E2E700FC3F0285
:10CA8000CCFD3F0298FC3F0204FC3F02014B024AEE
:10CA90001A60704770AE071015FC3F022DE9F04791
:10CAA000089DD0F8209004460E461746984600F0A0
:10CAB0004BFC81454DD02B79190704D520466A6976
:10CAC0005449FFF7E2FAB8F1000F0DD05B21204680
:10CAD000FFF756FA41462046FFF743FA2368022241
:10CAE0002046DB684C4998472B79DA0724D5D5F8DE
:10CAF00008802F21404602F06AFA08B100F10108CF
:10CB000041462046FFF72DFA2B799B0708D53A219D
:10CB10002046FFF735FA2046EA684049FFF7B5FAA4
:10CB20002A79236812F0040F20464FF00202DB68D6
:10CB300014BF3B493B4998472B7958071DD52969B4
:10CB40000B461A4613F8010B60B1202808D119468C
:10CB5000F7E7354800F083F90028ACD0BDE8F0874E
:10CB60002828EED12368521A2046DB6898472368AC
:10CB700004222046DB682D49984700213846FEF7FD
:10CB8000E1FC01462046FFF7ECF92368022220462B
:10CB9000DB68244998471EB131462046FFF7E1F98A
:10CBA0002B7913F0300F2CD023682149DB68022247
:10CBB000204698472B79D9060AD5236807222046B4
:10CBC0001C49DB6898472046AA691B49FFF75DFAB4
:10CBD0002B799A0611D5DB0605D52368022220465B
:10CBE000DB680F4998472368204614490A22DB680E
:10CBF00098472046E969FFF7B4F95D212046FFF721
:10CC0000BFF923682046BDE8F0470222DB680C49E3
:10CC1000184700BF19FC3F0220FC3F02E0FB3F0227
:10CC200023FC3F0228FC3F029CAE071026FC3F027B
:10CC30002BFC3F022EFC3F0236FC3F0239FC3F0238
:10CC400044FC3F022DE9F0410446076A0D461646B2
:10CC500000F07AFB874207D0206A324603682946F3
:10CC6000BDE8F041DB681847034800F0F8F80028F9
:10CC7000F2D0BDE8F08100BF9CAE07102DE9F04373
:10CC800085B0D0F8209005460F4690461E460C9C75
:10CC900000F05AFB814505D1494800F0E0F8002832
:10CCA00040F08A804FF000092B6A464A01A80192A1
:10CCB00003938DF80890FFF730F849464046FEF799
:10CCC00041FC80464049012201A8FFF7B5F84146E2
:10CCD000FFF739F93FB13D49012201A8FFF7ACF850
:10CCE0003946FFF730F93EB13949012201A8FFF773
:10CCF000A3F83146FFF727F92379DF070ED5A66899
:10CD00002F21304602F063F900B1461C314901225F
:10CD100001A8FFF791F83146FFF715F923799E072F
:10CD200007D52D49022201A8FFF786F8E168FFF731
:10CD300001F82379580714D5266933461F4613F89E
:10CD4000012B2AB1202A01D11E46F7E7282AF5D166
:10CD50000222224901A8FFF76FF83146BA1BFFF7FC
:10CD60007BF82379190707D51D49012201A8FFF790
:10CD700063F86169FEF7F0FF2379DA0608D504222B
:10CD800018490DEB0200FFF757F8A169FEF7D2FF33
:10CD900023799B0607D51449062201A8FFF74CF812
:10CDA000E169FFF7D0F801A8FEF7A1FF286A022287
:10CDB00003680E49DB68984705B0BDE8F08300BF03
:10CDC0009CAE071068FC3F02F6FB3F0247FC3F02A7
:10CDD000C6FE3F0249FC3F024BFC3F024EFC3F02B5
:10CDE00051FC3F0253FC3F0258FC3F0244FC3F020F
:10CDF000002340681A46FEF715BC00220221406855
:10CE0000FEF72CBC002240681146FEF719BC002238
:10CE100040681146FEF730BC002340681A461946A8
:10CE2000FEF738BC002340681A461946FEF740BC9E
:10CE300000214068FEF782BC00214068FEF78CBCF0
:10CE40000022406881F00101FEF740BC00224068EA
:10CE5000FEF758BC002240681146FEF761BC002274
:10CE600040681146FEF740BC2DE9F04395B01446EA
:10CE70000D460746FEF7EAFD00211C220DA8009191
:10CE800002F03BF8402320460C9300216B460CAA8D
:10CE9000FEF7DEF9044600284BD1024601216868FE
:10CEA000FEF7EAFB0221804622466868FEF7E4FBB3
:10CEB00021468146009E002E3BD0002939D173685F
:10CEC000022B03D00A2B11D0F669F4E7B8F1000F5A
:10CED000FAD0716906A804313C1D07ADFEF7E4FDE8
:10CEE0000FCD0FC42B6841462370EDE7B9F1000F59
:10CEF000EAD0102201A8746901F0FFFF062301ADFA
:10CF00008DF8143004F1080318342A46186859685B
:10CF1000083303C2A3421546F7D101A906A83C1D58
:10CF200007ADFEF7A1FD0FCD0FC42B684946237056
:10CF3000CAE70098FEF77EF9384615B0BDE8F083E1
:10CF4000024B034A1A6000225A6070479CAE0710D9
:10CF5000E0FC3F02F8B506460D4600248F18BD429E
:10CF60000CD0336830469B6815F8011B9847031EA8
:10CF700001DB1C44F3E7002C08BF1C462046F8BD2B
:10CF800013B50446084659B10191FDF757FD024615
:10CF9000204623680199DB6802B0BDE810401847BD
:10CFA00002B010BD03689B6818470023012A98BF90
:10CFB0000A2230B58BB08DF8243009AC0D46B1FB98
:10CFC000F2F101FB125303F0FF03092B94BF30333E
:10CFD0003733DBB2AA4204F8013DEFD92146FFF70F
:10CFE000CFFF0BB030BD00000022014B9A607047AC
:10CFF000A4AE07100021FEF78DB90021FEF77CB921
:10D0000010B5044608462170FEF75AF90023204661
:10D01000636010BD13B504460078FFF7EEFF58B902
:10D0200020784FF6FF710190FEF720F9019802B0C9
:10D03000BDE81040FFF7DEBF02B010BD13B50446D7
:10D0400000780191FFF7D9FF019948B92078019044
:10D05000FEF71AF9019802B0BDE81040FFF7CABF09
:10D0600002B010BD08B50078FEF71CF9C0B208BDCB
:10D0700010B504460068FEF78BFB204610BD10B5C6
:10D080000446006808B1FEF783FB0023C4E90133BE
:10D09000236010BD38B504460D4600680131FEF727
:10D0A00085FB10B1C4E90005012038BD10B5036847
:10D0B000044623B143688B4201D3012010BD2046B2
:10D0C000FFF7E8FF0028F9D0A368002BF5D122680C
:10D0D0001370F2E737B50D46114601920446FFF78B
:10D0E000E5FF019A28B92046FFF7C9FF204603B0A3
:10D0F00030BD2946A260206801F0D8FE00212268D8
:10D10000A368D154F2E738B5054600680C4670B103
:10D110006A688B689A4208D3096831B101F03BFF15
:10D12000A368AB600023A36038BDFEF731FB236822
:10D130002B6063686B60A368AB600023C4E90033B5
:10D14000F1E7002310B50446C0E9003383600373A0
:10D15000FFF7D9FF204610BD884210B5044605D020
:10D160000B682BB18A681946FFF7B4FF204610BD43
:10D17000FFF785FFFAE7002310B50446C0E9003346
:10D1800083600373FFF7E8FF204610BD02220020F2
:10D19000044B1A60044B054AC3E900009A60FEF78D
:10D1A000EDB900BFC0AE0710B4AE07100000FFFF1E
:10D1B000024B1A68024B1A60704700BFB4AD0710EB
:10D1C000C4AE071070474174704708B5007CFEF785
:10D1D00011F920EAE07008BD08B5007CFEF7C4F83C
:10D1E00020EAE07008BD08B5007CFEF7D9F840EAF7
:10D1F000E07008BD08B5007CFEF7C4F840EAE070B6
:10D2000008BD007CFEF7DAB837B5457C04462DB181
:10D21000207C03B0BDE83040FEF798B8007C019157
:10D22000FEF7E8F800280199F2DC284603B030BD8B
:10D2300010B504461421FDF72AFC204610BD00005D
:10D2400010B54FF47A730446084611460022C4E92B
:10D250000123044B2074236001236374FEF7E6F876
:10D26000204610BD38FD3F020023007CFEF7D0B8F9
:10D270000022FFF7F9BF007CFEF75AB8007CFEF7EA
:10D28000ABB8417470477047704708B50021007C07
:10D29000FEF720F940EAE07008BD08B50121007CE6
:10D2A000FEF718F940EAE07008BD08B5007CFEF70B
:10D2B00003F920EAE07008BD08B5007CFEF7EEF83F
:10D2C00020EAE07008BD13B50446007C0191FEF72A
:10D2D000F3F80028019901DC607C20B1207CFEF786
:10D2E00007F920EAE07002B010BD007CFEF70EB92D
:10D2F00010B504461421FDF7CAFB204610BD0000FE
:10D3000010B54FF47A73044608460021C4E90113AE
:10D31000044B20742360012311466374FEF794F8D4
:10D32000204610BD68FD3F020022007CFEF79AB83F
:10D33000007CFEF7A5B810B504461422002101F0C8
:10D34000DCFD204610BD000010B588B003A8FFF733
:10D35000F2FF0C4CD4E88F1F11F001010FD12046D1
:10D360000191FDF7A3FB019948B103AA0648FFF715
:10D37000C7FF2046FDF79FFB044801F089FD0248E6
:10D3800008B010BDC8AE0710CCAE0710B7DB3F0227
:10D39000002240681146FEF76FB90022406811462E
:10D3A000FEF7A2B9002240681146FEF7B9B9002283
:10D3B0004068FEF7A7B90022406881F00101FEF73E
:10D3C00085B9002340681A461946FEF771B9002353
:10D3D00040681A461946FEF75DB9002240681146BA
:10D3E000FEF72EB9002202214068FEF737B900236C
:10D3F00040681A46FEF716B90422024B5A60024AE8
:10D400001A607047E0AE071098FD3F02014B1860AC
:10D41000704700BFBCAD071008B50F4B43B1FFF715
:10D4200093FF03681B699847002801DD00E000BFF7
:10D430000A4B43B100F06AF903681B69984700285A
:10D4400001DD00E000BF064B0BB100F0A5F9054B74
:10D450000BB100F0D7F908BD00000000000000008B
:10D46000000000000000000008B5FFF7D5FFFDF741
:10D4700039FE014B186008BDF0AE07100548064A9A
:10D4800008B5121A054901F011FD054B054A1A604D
:10D4900008BD00BF00B4071004B407103CF75F08D4
:10D4A00000B407101E1C279A002307B51A466FF018
:10D4B00077010093FEF79AF803B05DF804FB0000D3
:10D4C00007B543880A2B08D0502B0BD1094B1B689A
:10D4D0004BB103B05DF804EB1847FFF7E5FF03B06D
:10D4E0005DF804FB00231A466FF077010093FEF706
:10D4F0007DF8F4E7ECAE0710002110B51148FEF7F7
:10D500008DF9114B1A68114B9A420CBF012200226F
:10D510000F4B1A7001D0FFF7B1FFFDF7C7FD0446AE
:10D5200001F0F4FC0B4B13B1204600E000BF0021DA
:10D530000848FEF769F8BDE8104000210648FEF7EC
:10D5400047B800BF3DDD3F0200B407101E1C279AFC
:10D55000E8AE071000000000F1DD3F021B2837B5E0
:10D56000044602D9002003B030BDA0F10F03022B06
:10D570000BD9012821D800F075F80021007CFDF7B7
:10D580002FFE80F00100C0B2EDE7114DD5E88F1FEE
:10D5900011F001010BD128460191FDF787FA01999D
:10D5A00028B10C48FFF72CFD2846FDF784FA094BFB
:10D5B0001878FDF793FE0028D4D1083C012C05D83B
:10D5C00000F0A4F8007CFDF707FFDAE70120CAE7C6
:10D5D0004CAE071050AE07101B2838B504460D4658
:10D5E0000AD8FF2908D0FFF7B9FF28B129462046FD
:10D5F000BDE83840FDF784BD38BD38B504460D465A
:10D60000FDF78CFDFF2810D0062804D84D2323FAFF
:10D6100000F0C30709D42046FFF7A0FF28B1294630
:10D620002046BDE83840FDF787BD38BD7047000093
:10D6300038B50A4B044603600123094943612020A1
:10D6400000F0F6F82025606005492846A56000F046
:10D65000EFF8C4E90305204638BD00BF18000100FB
:10D66000CCFD3F0230B50E4D87B0D5E88F1F11F0CD
:10D67000010411D12846FDF719FA68B16846FFF791
:10D68000D7FF6A4621460748FEF788F92846FDF786
:10D6900012FA054801F0FCFB024807B030BD00BF9C
:10D6A000F4AE0710F8AE07105DDF3F0270470000D0
:10D6B00038B5142504462A46002101F01EFC2580B9
:10D6C0004025074928462581258200F0B1F8044904
:10D6D0006060284600F0ACF8E060204638BD00BF2E
:10D6E000CCFD3F027047704710B50446FFF7E0FFDE
:10D6F000204610BD10B50446FFF7DAFF204610BDE6
:10D7000010B50446FFF7D4FF204610BD30B50E4DCE
:10D7100087B0D5E88F1F11F0010411D12846FDF71D
:10D72000C5F968B101A8FFF7DFFF214601AA074844
:10D73000FFF786FD2846FDF7BEF9054801F0A8FB76
:10D74000024807B030BD00BF0CAF071018AF07107C
:10D75000DDDF3F0210B50D4C86B0D4E88F3FDB070C
:10D7600011D42046FDF7A2F968B101A8FFF7C2FF66
:10D77000012101AA0648FFF763FD2046FDF79BF94A
:10D78000044801F085FB024806B010BD10AF071039
:10D790002CAF071017E03F0210B5FFF7DBFF074B78
:10D7A000044653B1FFF76AFD38B1236820461B6970
:10D7B0009847002801DD00E000BF10BD0000000018
:10D7C00010B50D4C86B0D4E88F3FDB0711D420464E
:10D7D000FDF76CF968B101A8FFF792FF022101AAD9
:10D7E0000648FFF72DFD2046FDF765F9044801F0D6
:10D7F0004FFB024806B010BD14AF071040AF071032
:10D8000015E03F0210B5FFF7DBFF074B044653B1AD
:10D81000FFF734FD38B1236820461B69984700287C
:10D8200001DD00E000BF10BD00000000FDF72BB9D6
:10D83000FDF72BB900F00CB9F8B52DED028B57ECC4
:10D84000106B55EC114B00F0D7F9634BB0EE408AEA
:10D85000F0EE608A93F9003001332AD022462B463D
:10D8600020462946FDF77AF818BB32463B4630463B
:10D870003946FDF773F8002844D1002200233046D2
:10D880003946FDF739F8D8B1002200232046294651
:10D89000FDF732F800283DD145EC104B01F0B2F90C
:10D8A00038B12046294600220023FDF72FF8002832
:10D8B0005CD1B0EE480AF0EE680ABDEC028BF8BD10
:10D8C000B0EE480AF0EE680A01F09CF958B3002265
:10D8D000002351EC180BFDF70FF80028E9D047ECB6
:10D8E000106B01F08FF90028E3D045EC104B01F0EC
:10D8F00089F90028DDD0FDF775FF22239FED2E8BDF
:10D900000360D6E72046294600220023FCF7F4FFF7
:10D910000028CED09FED2A8BB0EE480AF0EE680AC0
:10D92000BDEC028BF8BD47EC106B01F06BF90028E1
:10D93000CDD045EC104B01F065F90028C7D018EEAA
:10D94000100A53EC182B1946FDF708F820BBFDF719
:10D9500049FF22220346394630461A60002200233E
:10D96000FCF7D4FF48B99FED188BA2E7FDF73AFF0B
:10D9700021239FED178B03609BE745EC104B01F0D3
:10D9800057F922462B4651EC100BFCF7B5FF002847
:10D99000E9D19FED0F8B8CE7FDF724FF00220023D8
:10D9A0002121016010461946FCF768FE41EC180B76
:10D9B0007FE700BFAFF30080000000000000000020
:10D9C000000000000000F03F000000000000F07FB9
:10D9D000000000000000F0FFB8AD071038B52DEDD5
:10D9E000028B55EC104B00F099FE184BB0EE408ABC
:10D9F000F0EE608A93F9003001330DD022462B46B9
:10DA000020462946FCF7AAFF30B900220023204611
:10DA10002946FCF77BFF30B9B0EE480AF0EE680A01
:10DA2000BDEC028B38BDFDF7DDFE00220023212175
:10DA3000016010461946FCF721FE41EC180BB0EED0
:10DA4000480AF0EE680ABDEC028B38BDB8AD07108D
:10DA500051EC110B43422DE9F047034321F0004EF6
:10DA6000614E4EEAD373B34255EC104B3CD863423F
:10DA700025F0004AA94623434AEAD373B34233D878
:10DA80005A4B0B4403433ED08F175AEA040307F066
:10DA9000020747EAD5772FD05EEA000337D0B645B4
:10DAA00044D0B24533D0AAEB0E0EBEF1747F4FEADC
:10DAB0002E5338DA00296ADA3C3368DA9FED3C0BE2
:10DAC000012F50D0022F3DD0A7B151EC100B3AA33B
:10DAD000D3E90023FCF7F0FA39A3D3E90023FCF7DC
:10DAE000EBFA41EC100B05E022462B46FCF7E6FA78
:10DAF00041EC100BBDE8F087022F0ED0032FF9D1B7
:10DB00009FED310BF6E7BDE8F04700F0C9BEB9F173
:10DB1000000F05DB9FED2E0BECE79FED290BE9E7EE
:10DB20009FED2D0BE6E79FED2A0BC9E7F24507F1C4
:10DB3000FF3721D0022F27D82D4B03EBC70797EDD6
:10DB4000000BD7E71CA3D3E9002351EC100BFCF723
:10DB5000B3FA02460B461AA1D1E90001FCF7ACFA70
:10DB600041EC100BC6E710EE901A53EC102B01F1AC
:10DB7000004343EC102BBDE7022F15D81D4B03EBE0
:10DB8000C70797ED000BB5E79FED090BB2E702461B
:10DB90000B4620462946FCF771FD41EC100B01F0C5
:10DBA00027F800F07DFE8BE79FED0D0BA2E700BF8D
:10DBB0000000000000000000075C143326A6A13C12
:10DBC000182D4454FB210940182D4454FB2109C051
:10DBD000182D4454FB21F93F182D4454FB21F9BF63
:10DBE000182D4454FB21E93F0000F07F000010C0D5
:10DBF000E8FD3F02D0FD3F022DE9F04F55EC114BFF
:10DC000025F0004A5AEA04022DED0C8B87B01FD094
:10DC10005D4910EE102A57EC106B27F00048B9460A
:10DC2000884511DCAB4611EE103A08D13EB1574899
:10DC300007B0BDEC0C8BBDE8F04F00F0F1BF5249CE
:10DC40008A4501DC0BD153B1514B43441343EED110
:10DC50009FED490B07B0BDEC0C8BBDE8F08FB9F11F
:10DC6000000F45DB0021009183B9474B9A455BD0FB
:10DC7000484B9A456AD0BBF1804F00F0B084464BC8
:10DC80009B4503D1B9F1000F80F20D85029247EC5C
:10DC9000106B00F0ADFF029A4AB929F040433D4AAB
:10DCA000934200F0A883B8F1000F00F0A4834FEA7C
:10DCB000D973009A013B049313434ED0374B9A45D6
:10DCC00072DD03F104739A45354B40F32B8498457C
:10DCD00040F3A983BBF1000F40F3A98328A3D3E944
:10DCE000002310461946FCF79FFB41EC100BB1E7EF
:10DCF0002C498A4527DCA1F154718A45B2DD4FEAEF
:10DD00002A51A1F2FF31142940F37D84C1F134017D
:10DD100023FA01F000FA01F19942A3D100F00100C9
:10DD2000C0F1020100919FE7194B434413438FD088
:10DD30001B4B984540F3AB83BBF1000FC0F27783D8
:10DD400045EC104B86E7022100918DE7BBF1000FF7
:10DD5000C0F24F8447EC106B7CE732463B461046DE
:10DD60001946FCF7A9F902460B46FCF787FC41EC83
:10DD7000100B6FE7AFF30080000000000000F03FE1
:10DD80009C7500883CE4377E0000F07F00FE3F0277
:10DD9000000010C00000F03F0000E03F0000E04144
:10DDA000FFFFEF3FFFFF3F43E34B002209EA03037E
:10DDB00053B9E24B51EC100BFCF736FB6FF0340219
:10DDC00041EC100B10EE908A4FEA2853C8F3130869
:10DDD000DB4EA3F2FF3348EA06069A18D94B984562
:10DDE000059207DDD84B984540F333840132A6F500
:10DDF0008016059200279FEDB87B9FEDB96BB0EEC2
:10DE000047DAF0EE67DAB0EE47CAF0EE67CA51ECD7
:10DE1000160B53EC102B3346761043EC192B41ECC8
:10DE20001A0B02460B4646F0005651EC190BFCF754
:10DE300043F98046894653EC1A2B51EC190BFCF739
:10DE40003DF902460B460020BD49FCF717FC41ECAA
:10DE50001B0B53EC1B2B40464946FCF7E5FA0A46E0
:10DE600006F5002341EC180B01460020CDE9021213
:10DE70000021064602460291D919DDE902AB0F46A0
:10DE80000B4650465946FCF7CFFA02460B46404631
:10DE90004946FCF711F9804689463046394653EC2D
:10DEA0001A2BFCF709F902460B4651EC190BFCF74B
:10DEB00003F952465B46FCF7B7FA02460B4640466A
:10DEC0004946FCF7F9F853EC1B2BFCF7ADFA53EC81
:10DED000182B41EC1A0B51EC180BFCF7A5FA06466F
:10DEE0000F4681A3D3E90023FCF79EFA80A3D3E970
:10DEF0000023FCF7E3F832463B46FCF795FA7EA395
:10DF0000D3E90023FCF7DAF832463B46FCF78CFAFB
:10DF10007BA3D3E90023FCF7D1F832463B46FCF75C
:10DF200083FA79A3D3E90023FCF7C8F832463B46CD
:10DF3000FCF77AFA76A3D3E90023FCF7BFF8804612
:10DF4000894632463B4630463946FCF76DFA024672
:10DF50000B46404649464FF00008FCF765FA52462A
:10DF600006460F465B4651EC180BFCF7A7F853EC3E
:10DF70001A2BFCF759FA32463B46FCF79FF85246FB
:10DF80005B4641EC190B50465946FCF74DFA00220E
:10DF90006E4B06460F46FCF791F853EC192BFCF735
:10DFA0008DF88946424650464B465946FCF73CFAA6
:10DFB000002282468B46654B40464946FCF77CF87A
:10DFC00032463B46FCF778F802460B4651EC190BFB
:10DFD000FCF772F853EC182BFCF726FA06460F46AE
:10DFE00042464B4651EC1A0BFCF71EFA02460B4612
:10DFF00030463946FCF762F880468946504642462C
:10E0000059464B46FCF75AF800200F46064642A3F5
:10E01000D3E90023FCF708FA52465B4641EC190BA2
:10E0200030463946FCF748F802460B46404649461A
:10E03000FCF742F83AA3D3E90023FCF7F5F9804650
:10E0400089463046394638A3D3E90023FCF7ECF97A
:10E0500002460B4640464946FCF730F853EC1C2B71
:10E06000FCF72CF806460F460598FCF773F9324684
:10E07000804689463B4651EC190BFCF71FF853ECE0
:10E080001D2BFCF71BF842464B46FCF717F8002007
:10E0900042464B4682468B46FCF70EF853EC1D2B4E
:10E0A000FCF70AF853EC192BFCF706F802460B466E
:10E0B00030463946FCF700F8009B049A013B1343B5
:10E0C00041EC180B40F0DC819FED197BB0EE479AD4
:10E0D000F0EE679A3CE000BF000000000000000086
:10E0E000000000000000F03FEF4E454A287ECA3F86
:10E0F00065DBC9934A86CD3F01411DA96074D13FBC
:10E100004D268F515555D53FFFAB6FDBB66DDB3FCD
:10E11000033333333333E33F000000E009C7EE3FFE
:10E12000FD033ADC09C7EE3FF5015B14E02F3EBE6C
:10E13000000000000000F0BF0000F07F000040433E
:10E140000000F03F8E98030079B60B0000000840F5
:10E15000002320462946CDE900450093DDE90089EA
:10E1600042464B46FBF7A8FF5B465246FCF75CF97C
:10E1700006460F4622462B4651EC180BFCF754F985
:10E1800002460B4630463946FBF798FF42460446A6
:10E190000D464B4659465046A046FCF745F9064603
:10E1A0000F462046294632463B46A946FBF786FFE6
:10E1B000D54B04460D4699428B4640F33B81D34BE9
:10E1C0000B44034340F0358240464946B6A3D3E9A9
:10E1D0000023FBF773FF32463B4641EC180B204609
:10E1E0002946FBF769FF02460B4651EC180BFCF77A
:10E1F000ABFB002840F01D82CBF30A534FF4801292
:10E20000A3F2FE33C24CBBF1000F42FA03F34FF00E
:10E2100000005B44C3F30A52C3F3130AA2F2FF32B5
:10E220004AF4801A44FA02F4C2F1140223EA040107
:10E230004AFA02FA024630460B46B8BFCAF1000A53
:10E240003946FBF739FF02460B4606460F46404665
:10E2500049464FEA0A5BFBF731FF0D460024294689
:10E2600093A3D3E900232046FCF7DEF832463B4671
:10E2700006460F4620462946FBF71EFF02460B4680
:10E2800040464946FBF718FF8BA3D3E90023FCF770
:10E29000CBF8804689462046294689A3D3E9002346
:10E2A000FCF7C2F802460B4640464946FBF706FF1C
:10E2B000804689463046424639464B46FBF7FEFECD
:10E2C000324604460D463B46FBF7F6FE02460B4639
:10E2D00040464946FBF7F0FE2246804689462B46DB
:10E2E00020462946FCF7A0F806460F4676A3D3E958
:10E2F0000023FCF799F876A3D3E90023FBF7DCFEB3
:10E3000032463B46FCF790F873A3D3E90023FBF7B2
:10E31000D5FE32463B46FCF787F871A3D3E90023CC
:10E32000FBF7CAFE32463B46FCF77EF86EA3D3E904
:10E330000023FBF7C3FE32463B46FCF775F8024666
:10E340000B4620462946FBF7B7FE06460F462046F9
:10E35000324629463B46FCF767F800224FF08043DF
:10E3600041EC180B30463946FBF7A6FE02460B4639
:10E3700051EC180BFCF782F9424606460F464B4615
:10E3800020462946FCF750F842464B46FBF796FEDE
:10E3900002460B4630463946FBF78EFE22462B4698
:10E3A000FBF78AFE02460B4600205A49FBF784FE23
:10E3B0008B4402460B46BBF5801FC0F26C81594668
:10E3C00053EC192BFCF730F841EC100B42E447EC0E
:10E3D000106B009200F00CFC009A002A7FF4BDAC98
:10E3E00029F040434B4A934203D0B8F1000F7FF429
:10E3F000B4AC00230093BBF1000F07DA00204549BD
:10E4000053EC102BFCF73AF941EC100BB9F1000F6B
:10E41000BFF620AC404B009A4344134340F02D819B
:10E4200053EC102B9BE4BBF1000FFFF657AC9FEDB4
:10E43000300B0FE421F00043DFF8E4C0634540F304
:10E44000F080364B0B4403430AD132463B46FBF780
:10E4500033FE42464B46FCF76DFA00283FF4CCAE43
:10E4600025A3D3E9002351EC190BFBF7DDFF22A311
:10E47000D3E90023FBF7D8FF41EC100BFFF7EABB11
:10E480009FED1F7BB0EE479AF0EE679A60E6BBF116
:10E49000000FCCDA05F1004300EE104A00EE903A8E
:10E4A000FFF7D8BBAFF30080FE822B654715973C82
:10E4B00000000000432EE63FEF39FAFE422EE63F11
:10E4C000396CA80C615C20BED0A4BE726937663E70
:10E4D000F16BD2C541BDBB3E2CDE25AF6A56113F64
:10E4E00093BDBE166CC1663F3E5555555555C53F4B
:10E4F000000000000000000059F3F8C21F6EA501E3
:10E50000000000000000F03FFFFF8F40000070BFE0
:10E51000FFFF0F000000F03F000010C000346F3F0D
:10E52000FFCB90409845FFF67EAF794B98453FF77B
:10E53000D1AB0022764B51EC100BFBF7BDFD06462C
:10E540000F4663A3D3E90023FBF76EFF82468B4699
:10E550003046394660A3D3E90023FBF765FF00226C
:10E560006C4B41EC180B30463946FBF75DFF024619
:10E570000B465BA1D1E90001FBF79EFD32463B460D
:10E58000FBF752FF02460B4600206349FBF794FD60
:10E590008046894632463B4630463946FBF744FFC3
:10E5A00002460B4640464946FBF73EFF4EA3D3E9E1
:10E5B0000023FBF739FF02460B4651EC180BFBF723
:10E5C0007BFD06460F465046594632463B46FBF712
:10E5D00075FD002052465B4682468B4664E5324616
:10E5E0003B4630463946FBF71FFF41EC100BFFF767
:10E5F00031BB0020464932463B46FCF73FF841EC30
:10E60000100BFFF727BB002B7FF4E1AEC1F1140123
:10E610004AFA01F000FA01F151454DD00093FFF79D
:10E6200027BB3D4A93424EDCDDE9002393469246E8
:10E6300014E62FA3D3E9002351EC190BFBF7F4FEEA
:10E640002BA3D3E90023FBF7EFFE41EC100BFFF700
:10E6500001BB9FED297B4FF48027B0EE47DAF0EE47
:10E6600067DA9FED277BB0EE47CAF0EE67CA9FEDF1
:10E67000267B51EC170BFFF7CCBB009B012B7FF4E3
:10E68000E9AA10EE901A10EE102A01F1004343ECB3
:10E69000102BFFF7DFBA504643EC102B00F064FB61
:10E6A00051EC100B8CE647EC106B07B0BDEC0C8BFB
:10E6B000BDE8F04F00F032B800F00100C0F10203F5
:10E6C0000093FFF7D5BA1B1598E500BFAFF30080A4
:10E6D000000000604715F73F44DF5DF80BAE543E85
:10E6E000555555555555D53FFE822B654715F73F76
:10E6F0009C7500883CE4377E0000004003B8E23F90
:10E7000006D0CF43EBFD4C3E000000000000F83F78
:10E710000000F03F0000D03F0000E03F5E492DE9DF
:10E72000F04155EC104BA94300F09480002D2B468E
:10E7300010EE102A5ADD281567D0C3F31303C10762
:10E74000A0F2FF3743F4801303D45B0003EBD273D2
:10E750005200D10F00267F104FF0160C01EB43033F
:10E76000B64652004FF400110EEB0100984203DC54
:10E770001B1A00EB010E0E445B00BCF1010C4FEACA
:10E78000510103EBD2734FEA4202EDD165462024DA
:10E790004FF0004114E00AD1904208D8002800EB65
:10E7A000010C1DDBF0460023121A0D44C646D00FA3
:10E7B000013C4FEA510100EB43034FEA420233D0E0
:10E7C000734501EB0C00E6DD002800EB010C07DBD4
:10E7D000F046A3EB0E03904288BF03F1FF33E3E75B
:10E7E000BCF1000FF4DB0EF10108F2E725F0004167
:10E7F000214328D0002D3DD12846D10A1538520595
:10E800000B460029F9D0CF0241D400245B002546F5
:10E810000134DE02FAD519461346A240C4F12004A1
:10E82000E340401B0B4388E713430ED16C08F3070A
:10E830001A4948BF44F0004401EB6601224601EB4F
:10E84000075343EC102BBDE8F0816A1C1DD06C1CF3
:10E850006408ECE710EE102A2B4610EE100A294649
:10E86000FBF7E2FD22462B46FBF728FC41EC100BA0
:10E87000BDE8F08120462946FBF71EFC02460B4608
:10E88000FBF7FCFE41EC100BDDE70136CFE713464A
:10E8900020244FF0FF35C3E70000F07F0000E03F89
:10E8A0002DE9F84F55EC104BC74B25F00046AA4612
:10E8B0009E4216DDC54B9E4201DC0AD14CB1224678
:10E8C0002B4620462946FBF7F9FB41EC100BBDE82F
:10E8D000F88FBAF1000F40F3BF809FED9F0BBDE8AA
:10E8E000F88FBB4B9E4200F3BA80A3F1DE739E42C9
:10E8F00040F3A0804FF0FF3B22462B46204629469E
:10E90000FBF792FD02460B4680468946FBF78CFDDD
:10E9100006460F4692A3D3E90023FBF785FD92A399
:10E92000D3E90023FBF7CAFB32463B46FBF77CFDED
:10E930008FA3D3E90023FBF7C1FB32463B46FBF72D
:10E9400073FD8DA3D3E90023FBF7B8FB32463B46AA
:10E95000FBF76AFD8AA3D3E90023FBF7AFFB32463E
:10E960003B46FBF761FD88A3D3E90023FBF7A6FB39
:10E9700042464B46FBF758FD8046894630463946AD
:10E9800083A3D3E90023FBF74FFD83A3D3E900233F
:10E99000FBF792FB32463B46FBF746FD80A3D3E9EB
:10E9A0000023FBF789FB32463B46FBF73DFD7EA388
:10E9B000D3E90023FBF780FB32463B46FBF734FDEF
:10E9C0007BA3D3E90023FBF777FB32463B46FBF7FB
:10E9D0002BFDBBF1FF3F02460B464046494663D044
:10E9E0007C4EFBF76BFB22462B46FBF71DFD7A4B5B
:10E9F00006EBCB064FEACB0B9B44DBE90023FBF78E
:10EA00005BFB22462B46FBF757FB02460B46D6E93B
:10EA10000001FBF751FBBAF1000F41EC100BBFF600
:10EA200056AF10EE901A024601F1004343EC102B52
:10EA3000BDE8F88F60A3D3E9002310EE100A294641
:10EA4000FBF73CFB0022654BFBF77EFF00283FF401
:10EA500051AF45EC104B3AE79FED590B37E700F00B
:10EA6000C7F85F4B9E4255EC104B2DDCA3F55023AD
:10EA70009E4258DD0022594B10EE100A2946FBF742
:10EA80001BFB4FF0010B06460F462046294600228D
:10EA9000524BFBF713FB02460B4630463946FBF759
:10EAA000EDFD04460D4627E7FBF708FB22462B4603
:10EAB000FBF7BAFC02460B4620462946FBF7FCFA58
:10EAC00041EC100BBDE8F88F464B9E421FDA10EE6A
:10EAD000100A0022444B2946FBF7EEFA02460B4689
:10EAE0002046294614461D4600223F4B4FF0020B9C
:10EAF000FBF79AFC0022394BFBF7E0FA02460B4683
:10EB000020462946FBF7BAFD04460D46F4E62B469F
:10EB10000020364910EE102AFBF7B0FD4FF0030B32
:10EB200004460D46E8E610EE102A2B4610EE100AB9
:10EB30002946FBF7C3FA0022284B4FF0000BFBF7E6
:10EB4000BBFA002206460F46204629464FF0804376
:10EB50009FE700BFAFF30080182D4454FB21F93F1D
:10EB600011DA22E33AAD903FEB0D76244B7BA93FBF
:10EB7000513DD0A0660DB13F6E204CC5CD45B73F8D
:10EB8000FF8300922449C23F0D5555555555D53F39
:10EB90002F6C6A2C44B4A2BF9AFDDE522DDEAD3F2D
:10EBA0006D9A74AFF2B0B33F711623FEC671BC3FCD
:10EBB000C4EB98999999C93F9C7500883CE4377ECD
:10EBC000182D4454FB21F9BFFFFF0F440000F07FD4
:10EBD000FFFFDB3F08FE3F0228FE3F020000F03F40
:10EBE000FFFFF23F008003400000F83F0000F0BF4D
:10EBF00051EC100B10EE102A21F0004343EC102BC7
:10EC0000704700BF82B005488DED000B019B23F0DB
:10EC100000431844C00F02B0704700BF00001080CE
:10EC20009FED010B704700BF000000000000F87F5F
:10EC300053EC102BC3F30A5C10EE100AACF2FF3158
:10EC40001329F0B51C4683B04FEAD37E3ADC002985
:10EC500030DB424D45FA01FC03EA0C0515432DD08B
:10EC600003EA5C034FEA5C0C18430CD024EA0C0C5A
:10EC70004FF48024132944FA01F10CBF4FF00040F7
:10EC800000204CEA010436492346024601EBCE0E31
:10EC9000DEE9004520462946FBF710FA22462B46BE
:10ECA000CDE90001DDE90001FBF706FA41EC100BAC
:10ECB00003B0F0BD23F00041114324D143EC102BED
:10ECC00003B0F0BD332908DDB1F5806FF6D11946E8
:10ECD000FBF7F4F941EC100BF2E7ACF2134C4FF0F8
:10ECE000FF3121FA0CF10A42E8D010EA51024FEA52
:10ECF0005103C8D020EA03034FF0804040FA0CFCD7
:10ED000043EA0C00BFE7C3F31303164A184322403B
:10ED100004F00044434203431B0B03F4002343EA83
:10ED200002070F4B10EE102A03EBCE0E3B46DEE936
:10ED3000006730463946FBF7C1F932463B46CDE91C
:10ED40000001DDE90001FBF7B7F921F000410246BF
:10ED500041EA040343EC102B03B0F0BDFFFF0F00AA
:10ED600048FE3F020000FEFF38B553EC102BC3F302
:10ED70000A519C46044689BB23F0004C10EE101A41
:10ED80005CEA010129D03E4D194600223D4B10EEB0
:10ED9000100AFBF749FBAC4202460B4616DB8C46D9
:10EDA000C1F30A513639214440F2FE70814221DC20
:10EDB000002947DC11F1350F34DA4CF250318C4226
:10EDC00018DC002B26A1D1E9000143DB24A3D3E901
:10EDD0000023FBF729FB41EC100B38BD40F2FF7E0E
:10EDE0007145E0D110EE100A1946FBF767F941ECC6
:10EDF000100B38BD002B1CA1D1E9000107DB1AA3C1
:10EE0000D3E90023FBF710FB41EC100B38BD18A130
:10EE1000D1E9000114A3D3E90023FBF705FB41EC82
:10EE2000100BF3E7184836311446184B0CEA000073
:10EE3000002240EA015520462946FBF7F5FA41EC4D
:10EE4000100B38BD10480CEA000040EA015343ECB7
:10EE5000102B38BD08A1D1E90001B7E7AFF300805E
:10EE600059F3F8C21F6EA5019C7500883CE4377EFB
:10EE70009C7500883CE437FE59F3F8C21F6EA581EB
:10EE8000B03CFFFF00005043FFFF0F800000903CAC
:10EE9000002301461A46184600F03AB9024B1844BE
:10EEA000407800F097007047C8FE3F020A44431EB6
:10EEB000914200D1704710B511F8014B914203F80F
:10EEC000014FF9D110BD884210B501EB020402D9FF
:10EED0008442234607D8431EA14208D011F8012BD3
:10EEE00003F8012FF8E7024401468A4200D110BD21
:10EEF00013F8014D02F8014DF7E70244034693422F
:10EF000000D1704703F8011BF9E7000038B5104B3A
:10EF100004461D68AB6BB3B91820FCF72BFC024606
:10EF2000A86320B90B4B42210B48FCF769FC0B4945
:10EF30000B4BC0E900130B4B002183600B23838133
:10EF40000120C2E90401AB6B00221C615A6138BD8B
:10EF5000BCAD071058FE3F026FFE3F020E33CDAB33
:10EF600034126DE6ECDE0500C9B2034610F8012B41
:10EF70001AB18A42F9D118467047002918BF0023F8
:10EF8000F9E710B50446FFF7EFFF18B92046FBF785
:10EF900055FD204410BD034611F8012B03F8012B49
:10EFA000002AF9D1704710B57AB1034601398418A7
:10EFB00013F8010B11F8012F904201D1A34201D1A6
:10EFC000801A10BD0028F3D1FAE71046F9E738B5EA
:10EFD00003460C4669B9BDE83840FFF7C5BF431C7E
:10EFE000054621461846FFF7BFFF0028F7D12846FF
:10EFF00038BD0025F5E70000012B2DE9F04701D0D1
:10F00000242B06D9FCF7EEFB162303600020BDE895
:10F01000F0870D46DFF8E0C02E4615F8014B14F8D6
:10F020000C7017F00807F7D12D2C32D12C7801275E
:10F03000B51C002B5BD0102B09D1302C07D12C78BC
:10F0400004F0DF04582C4DD16C781023023507F101
:10F0500000484FF0000C08F1FF386646B8FBF3F9A2
:10F0600003FB198AA4F1300EBEF1090F16D87446BD
:10F07000A34224DDBCF1000F1EDBB1451CD301D13E
:10F08000A24519DB06FB03464FF0010C15F8014BB6
:10F09000E8E72B2C04BF2C78B51CCAE7A4F1410E7D
:10F0A000BEF1190F01D8373CE2E7A4F1610EBEF1C1
:10F0B000190F04D8573CDBE74FF0FF3CE6E7BCF103
:10F0C000000F05DA22234646036042B930469EE728
:10F0D00007B17642002AF9D0BCF1000F00D0691EBA
:10F0E0001160F3E73024002BB1D10823AFE7302CB7
:10F0F000A5D00A23ABE700BFC9FE3F0213460A466C
:10F10000014602480068FFF777BF00BFBCAD07109B
:10F110002DE9F843DFF8BC8006461F460D46D8F8B7
:10F120000000914600F058F8264B1C6834B9264C74
:10F130001C60264B13B11B68C4F8883063681F2B12
:10F1400007DDD8F8000000F049F84FF0FF30BDE8C7
:10F15000F8835EB3D4F8880088B91D4B23B9D8F87A
:10F16000000000F03AF8F0E74FF48470FCF702FB7F
:10F170000028F4D00023C0E94033C4F88800636855
:10F180000122022E40F8239002FA03F200EB8301E1
:10F19000D0F8003143EA0203C0F80031C1F88070B2
:10F1A00002BFD0F804311343C0F804316368D8F8C3
:10F1B00000005A1C0233626044F8235000F00EF83D
:10F1C0000020C4E7E0AF071054AF071000000000B4
:10F1D000A5C03F0220AE071070477047704700007F
:10F1E0007DB33F02A5B33F02A9B33F020000000078
:10F1F00043616C6C206F6E20707572652076697249
:10F200007475616C00000000000000000000000048
:10F210000000000000000000C5B33F02EDB33F0254
:10F220000000000000000000F1B33F0225B43F02DF
:10F23000CDD33F0275D53F02000000000000000062
:10F2400057C23F024DC23F0243C23F0239C23F0292
:10F250002DC23F0221C23F0261D73F0269D73F0260
:10F2600015C23F020DC23F0203C23F02F9C13F0275
:10F2700099D73F02000000000000000075C23F0265
:10F28000BFC23F0297C23F0277C23F029FC23F0206
:10F29000A7C23F02AFC23F02B7C23F020000000058
:10F2A0000000000019C33F0209C33F020BC33F0225
:10F2B0002564002575007525303478006261756419
:10F2C0000053657269616C0053657269616C31004D
:10F2D0004A534F4E53747265616D4C6F6748616E4F
:10F2E000646C6572006170700025303130752000EB
:10F2F0005D20002C200028293A2000205B00636F4D
:10F300006465203D200025690064657461696C7343
:10F31000203D20000D0A006D0066006C6E00666ED8
:10F32000007400636F64650064657461696C00005B
:10F330000000000000000000C5C73F02EBC73F020D
:10F34000A9C73F0227C43F020000000000000000E0
:10F3500079CC3F0291CC3F02CDD33F0275D53F021D
:10F360000000000000000000A5CC3F02B9CC3F0225
:10F37000ADD53F02B1C73F02000000000000000011
:10F38000C3C73F02F9C73F0231D33F02B3C73F02B1
:10F390000000000000000000C1C73F0207C83F0294
:10F3A000E1CB3F0229C83F0200000000000000003E
:10F3B00021D73F022BD73F0235D73F023FD73F022D
:10F3C00049D73F0255D73F0261D73F0269D73F0275
:10F3D00071D73F027DD73F0285D73F028FD73F02CB
:10F3E00099D73F0225592D256D2D25645425483A7E
:10F3F000254D3A2553257A0061736374696D650064
:10F400000000000000000000F5DA3F0261DB3F026F
:10F4100039DB3F0285D83F0209DB3F0225DB3F0293
:10F4200017DB3F0233DB3F02F7DA3F02FBDA3F0232
:10F430000000000000000000B9DB3F0221DC3F02B9
:10F44000F7DB3F0285D83F02E9DB3F02BBDB3F022F
:10F45000CBDB3F021BDC3F02DBDB3F02B3DB3F02C7
:10F4600000000000000000001FDD3F0215DD3F022C
:10F470000BDD3F02C1DC3F02FFDC3F02F3DC3F0259
:10F4800061D73F0269D73F02E7DC3F02DFDC3F0282
:10F49000D5DC3F02CBDC3F0299D73F0200000000E1
:10F4A000182D4454FB21E9BFD221337F7CD902407F
:10F4B000D221337F7CD902C0000000000000008010
:10F4C000182D4454FB210940182D4454FB2109C038
:10F4D00000000000000000004FBB610567ACDD3F8D
:10F4E000182D4454FB21E93F9BF681D20B73EF3F6B
:10F4F000182D4454FB21F93FE2652F227F2B7A3CE3
:10F50000075C143326A6813CBDCBF07A8807703C9B
:10F51000075C143326A6913C000000000000304335
:10F5200000000000000030C35245454E54206D617C
:10F530006C6C6F6320737563636565646564002F2D
:10F54000746D702F6A656E6B696E732D4743432D22
:10F5500031302D706970656C696E652D34385F329D
:10F56000303230313132345F313630363138303646
:10F5700033392F7372632F6E65776C69622F6E65F6
:10F58000776C69622F6C6962632F7374646C696253
:10F590002F72616E642E6300002020202020202026
:10F5A0002020282828282820202020202020202033
:10F5B0002020202020202020208810101010101043
:10F5C000101010101010101010040404040404048F
:10F5D0000404041010101010101041414141414129
:10F5E000010101010101010101010101010101010B
:10F5F000010101011010101010104242424242421B
:10F6000002020202020202020202020202020202DA
:10F610000202020210101010200000000000000082
:10F6200000000000000000000000000000000000DA
:10F6300000000000000000000000000000000000CA
:10F6400000000000000000000000000000000000BA
:10F6500000000000000000000000000000000000AA
:10F66000000000000000000000000000000000009A
:10F67000000000000000000000000000000000008A
:10F68000000000000000000000000000000000007A
:10F6900000000000000000000000000075B53F02FF
:10F6A000E9C13F0261C23F02BDD33F0271D83F02B0
:10F6B00019D93F02BDDA3F02E1DA3F0229DD3F02FC
:10F6C00000000002B0FC3F02C8FC3F0228FD3F02E0
:10F6D000FF000000C0AD07100000000000000000A7
:10F6E000000000000000000000000000000000001A
:10F6F000000000000000000000000000000000000A
:10F7000000000000000000000000000000000000F9
:10F7100000000000000000000000000000000000E9
:10F7200000000000000000000000000000000000D9
:0CF730000000000000000000E4AF071023
:04F73C0000000000C9
:10FFBE000200100000A05F08A8A05F08D8A93F02A9
:10FFCE0001000A00FFFFFFFFFFFF00000102030414
:10FFDE0005060708090A0B0C0D0E0F10111213144B
:0EFFEE0015161718191A1B1C1D1E1F203E0089
:04FFFC0078563412ED
:04000005085FA018D8
:00000001FF
