:02000004085F93
:10C0000000C05F08FCFF5F0800000600200005017B
:08C0100004017D150000000091
:10C018001348144908B5884205D0134A824202D011
:10C02800124B121A98471248124A0021124B121A40
:10C03800984712481249884205D0124A824202D0D3
:10C048000A4B121A984710481049884205D0104ADE
:10C05800824202D0054B121A9847014808BD00BF1A
:10C06800ACAD0710C8FE5F0824AE07102D0D1110E7
:10C0780024AE0710E8AF0710A10E1110D0C13F027F
:10C08800A8C05F08D8C13F02D8C13F02B0C05F084E
:0CC09800F0FF3F0219C05F08000000002C
:08C0A8009CC05F0868FB3F0229
:10C0B00081F0004102E000BF83F0004330B54FEA59
:10C0C00041044FEA430594EA050F08BF90EA020FC6
:10C0D0001FBF54EA000C55EA020C7FEA645C7FEA59
:10C0E000655C00F0E2804FEA5454D4EB5555B8BF7C
:10C0F0006D420CDD2C4480EA020281EA030382EAED
:10C10000000083EA010180EA020281EA0303362D7E
:10C1100088BF30BD11F0004F4FEA01314FF4801C51
:10C120004CEA113102D0404261EB410113F0004F63
:10C130004FEA03334CEA133302D0524263EB43031A
:10C1400094EA050F00F0A780A4F10104D5F1200EB8
:10C150000DDB02FA0EFC22FA05F2801841F1000113
:10C1600003FA0EF2801843FA05F359410EE0A5F1E7
:10C1700020050EF1200E012A03FA0EFC28BF4CF018
:10C18000020C43FA05F3C01851EBE37101F00045CE
:10C1900007D54FF0000EDCF1000C7EEB00006EEBDB
:10C1A0000101B1F5801F1BD3B1F5001F0CD3490865
:10C1B0005FEA30004FEA3C0C04F101044FEA4452BC
:10C1C00012F5800F80F09A80BCF1004F08BF5FEA43
:10C1D000500C50F1000041EB045141EA050130BD23
:10C1E0005FEA4C0C404141EB0101013C28BFB1F535
:10C1F000801FE9D291F0000F04BF01460020B1FA80
:10C2000081F308BF2033A3F10B03B3F120020CDA52
:10C210000C3208DD02F1140CC2F10C0201FA0CF030
:10C2200021FA02F10CE002F11402D8BFC2F1200C95
:10C2300001FA02F120FA0CFCDCBF41EA0C0190404B
:10C24000E41AA2BF01EB0451294330BD6FEA040494
:10C250001F3C1CDA0C340EDC04F11404C4F120027F
:10C2600020FA04F001FA02F340EA030021FA04F391
:10C2700045EA030130BDC4F10C04C4F1200220FAE8
:10C2800002F001FA04F340EA0300294630BD21FA26
:10C2900004F0294630BD94F0000F83F4801306BFEC
:10C2A00081F480110134013D4EE77FEA645C18BFE0
:10C2B0007FEA655C29D094EA050F08BF90EA020F77
:10C2C00005D054EA000C04BF1946104630BD91EA6F
:10C2D000030F1EBF0021002030BD5FEA545C05D172
:10C2E0004000494128BF41F0004130BD14F58004B1
:10C2F0003CBF01F5801130BD01F0004545F0FE4125
:10C3000041F470014FF0000030BD7FEA645C1ABF59
:10C31000194610467FEA655C1CBF0B46024650EA90
:10C32000013406BF52EA033591EA030F41F40021BC
:10C3300030BD00BF90F0000F04BF0021704730B542
:10C340004FF4806404F132044FF000054FF0000117
:10C3500050E700BF90F0000F04BF0021704730B5D8
:10C360004FF4806404F1320410F0004548BF4042AD
:10C370004FF000013EE700BF42004FEAE2014FEA02
:10C3800031014FEA02701FBF12F07F4393F07F4FDD
:10C3900081F06051704732F07F4208BF704793F0E0
:10C3A0007F4F04BF41F40021704730B54FF46074F3
:10C3B00001F0004521F000411CE700BF50EA0102F6
:10C3C00008BF704730B54FF000050AE050EA01029F
:10C3D00008BF704730B511F0004502D5404261EB0F
:10C3E00041014FF4806404F132045FEA915C3FF450
:10C3F000D8AE4FF003025FEADC0C18BF03325FEAED
:10C40000DC0C18BF033202EBDC02C2F1200300FA9D
:10C4100003FC20FA02F001FA03FE40EA0E0021FAC2
:10C4200002F11444BDE600BF70B54FF0FF0C4CF4B0
:10C43000E06C1CEA11541DBF1CEA135594EA0C0F62
:10C4400095EA0C0F00F0DEF82C4481EA030621EA9D
:10C450004C5123EA4C5350EA013518BF52EA0335D8
:10C4600041F4801143F4801338D0A0FB02CE4FF08A
:10C470000005E1FB02E506F00042E0FB03E54FF0BA
:10C480000006E1FB03569CF0000F18BF4EF0010EB2
:10C49000A4F1FF04B6F5007F64F5407404D25FEAAE
:10C4A0004E0E6D4146EB060642EAC62141EA555161
:10C4B0004FEAC52040EA5E504FEACE2EB4F1FD0CA3
:10C4C00088BFBCF5E06F1ED8BEF1004F08BF5FEA21
:10C4D000500E50F1000041EB045170BD06F00046D3
:10C4E00046EA010140EA020081EA0301B4EB5C0480
:10C4F000C2BFD4EB0C0541EA045170BD41F4801178
:10C500004FF0000E013C00F3AB8014F1360FDEBF9C
:10C51000002001F0004170BDC4F10004203C35DA78
:10C520000C341BDC04F11404C4F1200500FA05F3FB
:10C5300020FA04F001FA05F240EA020001F000429C
:10C5400021F0004110EBD37021FA04F642EB060112
:10C550005EEA430E08BF20EAD37070BDC4F10C043C
:10C56000C4F1200500FA04F320FA05F001FA04F200
:10C5700040EA020001F0004110EBD37041F10001EC
:10C580005EEA430E08BF20EAD37070BDC4F12005F7
:10C5900000FA05F24EEA020E20FA04F301FA05F25F
:10C5A00043EA020321FA04F001F0004121FA04F207
:10C5B00020EA020000EBD3705EEA430E08BF20EAD7
:10C5C000D37070BD94F0000F0FD101F00046400011
:10C5D00041EB010111F4801F08BF013CF7D041EA93
:10C5E000060195F0000F18BF704703F00046520097
:10C5F00043EB030313F4801F08BF013DF7D043EA68
:10C600000603704794EA0C0F0CEA135518BF95EA1D
:10C610000C0F0CD050EA410618BF52EA4306D1D1A4
:10C6200081EA030101F000414FF0000070BD50EAC3
:10C63000410606BF1046194652EA430619D094EA4D
:10C640000C0F02D150EA013613D195EA0C0F05D137
:10C6500052EA03361CBF104619460AD181EA03018B
:10C6600001F0004141F0FE4141F470014FF0000043
:10C6700070BD41F0FE4141F4780170BD70B54FF0DE
:10C68000FF0C4CF4E06C1CEA11541DBF1CEA13555E
:10C6900094EA0C0F95EA0C0F00F0A7F8A4EB050440
:10C6A00081EA030E52EA03354FEA013100F0888037
:10C6B0004FEA03334FF0805545EA131343EA126300
:10C6C0004FEA022245EA111545EA10654FEA0026B5
:10C6D0000EF000419D4208BF964244F1FD0404F56E
:10C6E000407402D25B084FEA3202B61A65EB0305CA
:10C6F0005B084FEA32024FF480104FF4002CB6EB87
:10C70000020E75EB030E22BFB61A754640EA0C0006
:10C710005B084FEA3202B6EB020E75EB030E22BF46
:10C72000B61A754640EA5C005B084FEA3202B6EB87
:10C73000020E75EB030E22BFB61A754640EA9C0046
:10C740005B084FEA3202B6EB020E75EB030E22BF16
:10C75000B61A754640EADC0055EA060E18D04FEAD4
:10C76000051545EA16754FEA06164FEAC30343EA74
:10C7700052734FEAC2025FEA1C1CC0D111F4801F41
:10C780000BD141EA00014FF000004FF0004CB6E73A
:10C7900011F4801F04BF01430020B4F1FD0C88BFD9
:10C7A000BCF5E06F3FF6AFAEB5EB030C04BFB6EBE4
:10C7B000020C5FEA500C50F1000041EB045170BDD7
:10C7C0000EF0004E4EEA113114EB5C04C2BFD4EB04
:10C7D0000C0541EA045170BD41F480114FF0000E88
:10C7E000013C90E645EA060E8DE60CEA135594EA04
:10C7F0000C0F08BF95EA0C0F3FF43BAF94EA0C0F07
:10C800000AD150EA01347FF434AF95EA0C0F7FF47B
:10C8100025AF104619462CE795EA0C0F06D152EACF
:10C8200003353FF4FDAE1046194622E750EA4106B3
:10C8300018BF52EA43067FF4C5AE50EA41047FF4C4
:10C840000DAF52EA43057FF4EBAE12E74FEA410227
:10C85000B2F1E04324BFB3F5001CDCF1FE5C0DD95E
:10C8600001F0004C4FEAC0024CEA5070B2F1004FA8
:10C8700040EB830008BF20F00100704711F0804FAB
:10C8800021D113F13872BCBF01F00040704741F470
:10C8900080114FEA5252C2F11802C2F1200C10FA74
:10C8A0000CF320FA02F018BF40F001004FEAC12358
:10C8B0004FEAD32303FA0CFC40EA0C0023FA02F3FC
:10C8C0004FEA4303CCE77FEA625307D150EA0133D2
:10C8D0001EBF4FF0FE4040F44000704701F00040A2
:10C8E00040F0FE4040F40000704700BF10F8012BFC
:10C8F00011F8013B012A28BF9A42F7D0D01A70479D
:10C90000034613F8012B002AFBD1181A013870478F
:10C9100070B502F04FFD0025054E064CA41BA4087F
:10C92000AC4200D170BD56F8043B98470135F7E79B
:10C93000CCFF3F02F0FF3F0200F060B808B500F006
:10C9400093F8BDE8084002F0EDBC00F06FBE00F0C7
:10C950006DBE00F079BE00000C2008B5024A034904
:10C9600000F030FDFEE700BF55D03F0278FB3F02EC
:10C970000078B0FA80F040097047012303707047D7
:10C980007047000010B50446094B036001F058FBE6
:10C99000214601F08FFD02F035FC02F025FC204617
:10C9A000044B40F8043B01F021FC204610BD00BFC1
:10C9B000E8FB3F02D0FB3F0210B50446FFF7E2FF61
:10C9C00020462421FFF7C5FF204610BD0EB44FF0CE
:10C9D000200C002300B58CB00DAA52F8041BCDE941
:10C9E00004C3CDE900120392016804AA1E2000F0DE
:10C9F000F7FC0CB05DF804EB03B0704738B502F0FB
:10CA000001FC4FF4165102F0EBFB002000F0AAFAF3
:10CA100043F698250446002000F0A4FA001B61F1BB
:10CA20000001A84271F1000307D202F0EBFB02F013
:10CA3000DEFB10B900F036FDEDE702F0E3FB02F09B
:10CA4000D6FB06490648FFF7C1FF064800F008FA82
:10CA5000BDE83840034800F04FB900BF8DFB3F02EE
:10CA600070AE071024AE071000B58DB00AAB09AA4E
:10CA700008A9144800F052F90BAB009307AA0DF176
:10CA80001E030DF11A010F4800F08EF9BDF91C309C
:10CA9000BDF91A200B9805930492FFF76DFCDDE9B0
:10CAA0000423CDE90201BDF91E1007480091074992
:10CAB000FFF78CFF4FF4FA7000F01AFE0DB05DF82E
:10CAC00004FB00BF24AE071070AE0710ACFB3F02A2
:10CAD00070B51426D0E90053044606FB0356AE4257
:10CAE00004D0284602F020FA1435F8E7206800F058
:10CAF000ABFD204670BD8842F8B504460D4616468B
:10CB000016D9904215D2A2F11406751AA1F1140794
:10CB10002C44B7421CD02CB13146204602F06DFAAD
:10CB2000337C2374304602F0FFF9143E143CF0E7E6
:10CB30000ED0B5420CD02CB12946204602F05DFA49
:10CB40002B7C2374284602F0EFF914351434F0E7F7
:10CB5000F8BD00232DE9F041C0E9003383604F6840
:10CB600004469F420E4624DD4FF0140808FB07F0F0
:10CB700000F05CFD0546E0B1D4E9001208FB0212AA
:10CB8000FFF7B9FF206800F05FFD2560A760D6E9D8
:10CB9000007308FB0378B84509D03946284602F0EF
:10CBA00046FA3B7C143505F8043C1437F3E7736808
:10CBB00063602046BDE8F081002370B58CB0CDE9FC
:10CBC0000033029302F01EFB1C4C054626466946C4
:10CBD00003A8FFF7BEFF03A906A8FFF7BAFF184B8B
:10CBE00006A946F8043B09A8FFF7B3FF09AA1E21CE
:10CBF000304601F041FD09A8FFF76AFF06A8FFF7DC
:10CC000067FF104B03A823602562FFF761FF0E4BFF
:10CC1000236002F0F7FA4FF4165102F0E1FA01F046
:10CC20000FFA214601F000FC6846FFF751FF122180
:10CC300006480CB0BDE8704000F00AB828AE0710F6
:10CC4000D0FB3F020CFD3F02E8FB3F0224AE071081
:10CC50004180704713B50A4CD4E88F1F11F00101D1
:10CC60000BD120460191FFF783FE019928B10548B9
:10CC700002F022F92046FFF780FE024802B010BD04
:10CC80004CAE071050AE071007B50190FFF7E2FF5A
:10CC9000019903B05DF804EB02F040B970B50E469F
:10CCA000154604460021408802F005FC0A20FFF7E3
:10CCB000EBFF3046FFF7E8FF2846FFF7E5FF608807
:10CCC0000121BDE8704002F0F6BB38B50D460446C0
:10CCD0000021408802F0EFFB0B20FFF7D5FF28462C
:10CCE000FFF7D2FF0020FFF7CFFF05460121608844
:10CCF00002F0E1FB284638BD10B52D210446FFF7B0
:10CD0000E4FF00F0FC0040F002022D212046FFF776
:10CD1000C5FFBDE810400A2000F0EABC2DE9F74F3E
:10CD200004468B46408800219146984602F0C3FB9A
:10CD30000B20FFF7A9FF0E20FFF7A6FF0020FFF74B
:10CD4000A3FF07460020FFF79FFF01900020FFF799
:10CD50009BFF06460020FFF797FF00900020FFF79B
:10CD600093FF05460020FFF78FFF82460121608870
:10CD700002F0A1FB019A009B07EB0227227806EB49
:10CD8000032612FB07F7CBF80070237805EB0A2582
:10CD900013FB06F6C9F80060227812FB05F5C8F807
:10CDA000005003B0BDE8F08F2DE9F84389460546F1
:10CDB0000021408890461F46089E02F07CFB0B2015
:10CDC000FFF762FF0E20FFF75FFF0020FFF75CFF19
:10CDD0000446A9F800000020FFF756FF04EB0020EE
:10CDE000A9F800000020FFF74FFF0446A8F8000054
:10CDF0000020FFF749FF04EB0020A8F80000002006
:10CE0000FFF742FF388004460020FFF73DFF04EBA8
:10CE100000243C800020FFF737FF04460020FFF786
:10CE200033FF04EB002420B207EE900AF8EEE77A15
:10CE300017EE900AFFF7A0FA07A3D3E90023FFF744
:10CE4000F3FAFFF703FD306068880121BDE8F8437D
:10CE500002F031BBAFF30080A4703D0AD7A3B03F0E
:10CE600010B501210446408802F014FBFFF7F2FEE2
:10CE700002F02CF8FFF7EEFE002102F03BF84FF431
:10CE8000FA7000F035FC01232046237052221F2146
:10CE9000FFF704FFBDE810400A2000F029BC0000A5
:10CEA00009B504480068044B03441B685B6C02939B
:10CEB00009BD0000ACAD07103000000009B5044802
:10CEC0000068044B03441B689B6C029309BD00007F
:10CED000ACAD07103000000009B504480068044BF1
:10CEE00003441B68DB6C029309BD0000ACAD071066
:10CEF0003000000009B504480068044B03441B6877
:10CF00005B6D029309BD0000ACAD0710300000005E
:10CF100009B504480068044B03441B685B6802932E
:10CF200009BD0000ACAD07100000000009B50448C1
:10CF30000068044B03441B68DB68029309BD0000D2
:10CF4000ACAD07100000000009B504480068044BB0
:10CF500003441B685B69029309BD0000ACAD071078
:10CF60000000000009B504480068044B03441B6836
:10CF7000DB6D029309BD0000ACAD0710000000009E
:10CF800009B504480068044B03441B689B6802937E
:10CF900009BD0000ACAD07101400000009B504483D
:10CFA0000068044B03441B68DB68029309BD000062
:10CFB000ACAD07101400000009B504480068044B2C
:10CFC00003441B681B69029309BD0000ACAD071048
:10CFD0001400000009B504480068044B03441B68B2
:10CFE0001B6A029309BD0000ACAD071010000000E1
:10CFF00009B504480068044B03441B685B6A02934C
:10D0000009BD0000ACAD07101000000009B50448D0
:10D010000068044B03441B689B6A029309BD00002F
:10D02000ACAD07101000000009B504480068044BBF
:10D0300003441B68DB6A029309BD0000ACAD071016
:10D040001000000009B504480068044B03441B6845
:10D050001B6B029309BD0000ACAD0710100000006F
:10D0600009B504480068044B03441B685B6B0293DA
:10D0700009BD0000ACAD07101000000009B5044860
:10D080000068044B03441B681B6C029309BD00003D
:10D09000ACAD07101000000009B504480068044B4F
:10D0A00003441B685B69029309BD0000ACAD071027
:10D0B0004C00000009B504480068044B03441B6899
:10D0C0009B68029309BD0000ACAD07105000000042
:10D0D00009B504480068044B03441B68DB680293ED
:10D0E00009BD0000ACAD07105000000009B50448B0
:10D0F0000068044B03441B681B68029309BD0000D1
:10D10000ACAD07101800000009B504480068044BD6
:10D1100003441B68DB68029309BD0000ACAD071037
:10D120001800000009B504480068044B03441B685C
:10D130005B69029309BD0000ACAD07101800000048
:10D1400009B504480068044B03441B68DB6902937B
:10D1500009BD0000ACAD07101800000009B5044877
:10D160000068044B03441B681B6A029309BD00005E
:10D17000ACAD07101800000009B504480068044B66
:10D1800003441B681B6C029309BD0000ACAD071083
:10D190001800000009B504480068044B03441B68EC
:10D1A0005B6C029309BD0000ACAD071018000000D5
:10D1B00009B504480068044B03441B689B6802934C
:10D1C00009BD0000ACAD07102400000009B50448FB
:10D1D0000068044B03441B68DB68029309BD000030
:10D1E000ACAD07102400000009B504480068044BEA
:10D1F00003441B681B69029309BD0000ACAD071016
:10D200002400000009B504480068044B03441B686F
:10D210005B69029309BD0000ACAD0710240000005B
:10D2200009B504480068044B03441B689B690293DA
:10D2300009BD0000ACAD07102400000009B504488A
:10D240000068044B03441B68DB69029309BD0000BE
:10D25000ACAD07102400000009B504480068044B79
:10D2600003441B681B6A029309BD0000ACAD0710A4
:10D270002400000009B504480068044B03441B68FF
:10D280009B6A029309BD0000ACAD071024000000AA
:10D2900009B504480068044B03441B68DB6A029329
:10D2A00009BD0000ACAD07102400000009B504481A
:10D2B0000068044B03441B681B6C029309BD00000B
:10D2C000ACAD07102400000009B504480068044B09
:10D2D00003441B681B68029309BD0000ACAD071036
:10D2E0003400000009B504480068044B03441B687F
:10D2F0005B68029309BD0000ACAD0710340000006C
:10D3000009B504480068044B03441B689B680293FA
:10D3100009BD0000ACAD07103400000009B5044899
:10D320000068044B03441B681B69029309BD00009D
:10D33000ACAD07103400000009B504480068044B88
:10D3400003441B685B69029309BD0000ACAD071084
:10D350003400000009B504480068044B03441B680E
:10D360009B69029309BD0000ACAD071034000000BA
:10D3700009B504480068044B03441B68DB69029349
:10D3800009BD0000ACAD07103400000009B5044829
:10D390000068044B03441B681B6A029309BD00002C
:10D3A000ACAD07103400000009B504480068044B18
:10D3B00003441B689B6A029309BD0000ACAD0710D3
:10D3C0003400000009B504480068044B03441B689E
:10D3D0005B6B029309BD0000ACAD07104800000074
:10D3E00009B504480068044B03441B685B6D029355
:10D3F00009BD0000ACAD07104800000009B50448A5
:10D400000068044B03441B68DB6E029309BD0000F7
:10D41000ACAD07104800000009B504480068044B93
:10D4200003441B681B6F029309BD0000ACAD0710DD
:10D430004800000009B504480068044B03441B6819
:10D440005B68029309BD0000ACAD07100800000046
:10D4500009B504480068044B03441B685B690293E8
:10D4600009BD0000ACAD07100800000009B5044874
:10D470000068044B03441B68D3F88830029309BD4D
:10D48000ACAD07100800000009B504480068044B63
:10D4900003441B68D3F89430029309BDACAD071068
:10D4A0000800000009B504480068044B03441B68E9
:10D4B0009B68029309BD0000ACAD07102C00000072
:10D4C00009B504480068044B03441B68DB6B0293F6
:10D4D00009BD0000ACAD07102C00000009B50448E0
:10D4E0000068044B03441B685B68029309BD00009D
:10D4F000ACAD07102800000009B504480068044BD3
:10D5000003441B689B68029309BD0000ACAD071083
:10D510002800000009B504480068044B03441B6858
:10D52000DB68029309BD0000ACAD071028000000C5
:10D5300009B504480068044B03441B681B69029347
:10D5400009BD0000ACAD07102800000009B5044873
:10D550000068044B03441B685B69029309BD00002B
:10D56000ACAD07102800000009B504480068044B62
:10D5700003441B689B69029309BD0000ACAD071012
:10D580002800000009B504480068044B03441B68E8
:10D59000DB69029309BD0000ACAD07102800000054
:10D5A00009B504480068044B03441B681B6A0293D6
:10D5B00009BD0000ACAD07102800000009B5044803
:10D5C0000068044B03441B681B6B029309BD0000F9
:10D5D000ACAD07102800000009B504480068044BF2
:10D5E00003441B685B6B029309BD0000ACAD0710E0
:10D5F0002800000009B504480068044B03441B6878
:10D600001B6C029309BD0000ACAD071028000000A0
:10D6100009B504480068044B03441B685B6C029323
:10D6200009BD0000ACAD07102800000009B5044892
:10D630000068044B03441B681B68029309BD00008B
:10D64000ACAD07100400000009B504480068044BA5
:10D6500003441B685B68029309BD0000ACAD071072
:10D660000400000009B504480068044B03441B682B
:10D670009B68029309BD0000ACAD071004000000D8
:10D6800009B504480068044B03441B685B6A0293B5
:10D6900009BD0000ACAD07100400000009B5044846
:10D6A0000068044B03441B68DB6B029309BD000058
:10D6B000ACAD07100400000009B504480068044B35
:10D6C00003441B681B6C029309BD0000ACAD07103E
:10D6D0000400000009B504480068044B03441B68BB
:10D6E0005B6C029309BD0000ACAD071004000000A4
:10D6F0000021FFF7ADBE38B5046805467CB163680C
:10D70000013B63605BB9236820469B689847A36828
:10D71000013BA3601BB923682046DB689847284675
:10D7200038BD10B543680446013B436063B90368E4
:10D730009B689847A368013BA3602BB923682046E8
:10D74000BDE81040DB68184710BD70B50446D0E94D
:10D75000005305EB0316AE4204D0284601F0E4FB6B
:10D760001035F8E72068FFF76FFF204670BD000016
:10D77000002302480360FFF793BB00BF58AE0710B9
:10D78000002240681146FFF70BBF00224068114697
:10D79000FFF722BF00224068FFF710BF0022406859
:10D7A00081F00101FFF7EEBE002340681A461946DA
:10D7B000FFF7DABE002340681A461946FFF7C6BED7
:10D7C000002240681146FFF7B3BE002240681146B0
:10D7D000FFF792BE002202214068FFF79BBE0023A4
:10D7E00040681A46FFF77ABE0322024B5A60024A8B
:10D7F0001A6070475CAE071000FC3F027047F8B536
:10D80000064615460C468F18BC4206D03368304693
:10D810009B6814F8011B9847F6E72846F8BD0022DC
:10D82000007CFFF7D7BB0021007CFFF7E1BB0021A4
:10D83000007CFFF7EBBB0021007CFFF7F5BB00216C
:10D84000007CFFF7FFBB10B504461421FFF781F8F9
:10D85000204610BD38B5044615464FF47A730022B1
:10D86000C4E90123094B0846217423602946FFF7C8
:10D8700005FCBF3008D16B69DB0705D56868FFF789
:10D88000E3FEE868FFF7E0FE204638BD3CFC3F02BF
:10D89000704710B504461821FFF75BF8204610BD0D
:10D8A000F0B5037D0E46062B4FF000048DB000F15D
:10D8B000040712D000F1080515F8011D0A223046B0
:10D8C00001F0CFFAAF42044419D0002CF4D02E213D
:10D8D000304601F0C3FA0444EEE72F236A46394686
:10D8E0000A208DF80040FFF7D7FB6846FFF708F8DD
:10D8F0003368024669463046DB689847044620464E
:10D900000DB0F0BD10B50446044B1122002140F8C3
:10D91000043B01F022FF204610BD00BF64FC3F0223
:10D920000346074A10B543F8042B01F1100251F8E1
:10D93000044B914243F8044BF9D10A781A7010BD98
:10D9400064FC3F0210B59DF8084044EA032343EA13
:10D950000242042342EA01614160037510BD0000E8
:10D9600007B5064B0360CB7800938B784A7809782B
:10D97000FFF7E8FF03B05DF804FB00BF64FC3F0263
:10D98000012200F1100313F8101C1846012908D1D8
:10D9900053F8041C02EB4102013A03F11003F2D1E7
:10D9A0007047022904BF53F8041C5218F4E70EB460
:10D9B000F0B588B0102100AF07F1340555F8042BFD
:10D9C00004462B4678187A60FD60FFF759FE0F2851
:10D9D0007A681AD900F1080323F007036E46ADEB0D
:10D9E000030D411C2B466846FD60FFF749FE021EF1
:10D9F00004DD2368694620469B689847B546203772
:10DA0000BD46BDE8F04003B070470028F7D023685A
:10DA100002469B68204607F110019847EFE738B5AA
:10DA20000B68044603604D6843689D4208D015B1F9
:10DA30006B6801336B60606808B1FFF772FE656068
:10DA400038BD07B503688DF8071001229B680DF1FA
:10DA50000701984703B05DF804FB0B46114600220E
:10DA600010B50446C0E9002283600BB9204610BD02
:10DA7000FFF7D5FFFAE78368EBB11A78032A1AD8C3
:10DA8000DFE802F00417021B0520704702685B689C
:10DA90005268D05C2D2812D0A0F13003092B0ED98A
:10DAA00074280ED066280CD0A0F16E03584258415D
:10DAB00070470620704700207047042070470320FD
:10DAC00070470220704710B50446FFF7D4FF0228C4
:10DAD0000ED0C31EDBB2012B14D82268A368506895
:10DAE0005B680A22BDE810400021184401F036BFEF
:10DAF0002268A36852685B68D05CA0F17403584246
:10DB0000584110BD0020FCE738B500230446C0E9A9
:10DB100000330E48C4E90203A9B10B78032B06D0E9
:10DB20008BB9136858684B68C35C6E2B07D01368B9
:10DB30004D6858688B6828445B1BA060E360114601
:10DB40002046FFF76CFF204638BD00BFD3FC3F02E4
:10DB500038B500250B4604461146C0E90055C0E91A
:10DB60000255C0E904554BB11A78012A06D103F1D8
:10DB70001002DB6882604361FFF751FF204638BD29
:10DB800010B54369044663B18068013BE060103022
:10DB9000A0602061636113B1FFF7F2FEA060012075
:10DBA00000E0184610BD10B57D210446FFF749FF7F
:10DBB00001232046237110BD08B50379012B02D043
:10DBC000022B04D008BD2C21FFF73BFFFAE73A21D6
:10DBD000FAE710B50446FFF7EFFF20467B21FFF779
:10DBE00030FF00232046237110BD000013B504460A
:10DBF0000191FFF7E1FF23682046DB68019A0349A2
:10DC0000984701232046237102B010BDC4FB3F0298
:10DC100013B504460191FFF7CFFF23682046DB6868
:10DC2000019A0349984701232046237102B010BD91
:10DC300070FC3F022DE9F0470D4690462221044634
:10DC40002F46FFF7FEFEDFF8A490A8444745BA46EA
:10DC50003DD017F8016B222E06D05C2E04D0304642
:10DC600001F04CFD0028F1D12368294620469B682D
:10DC7000AAEB050298475C212046FFF7E2FE0D2E35
:10DC80000AD8072E1CD9A6F10803052B18D8DFE8FF
:10DC900003F00D0F11171315222E01D05C2E0FD19A
:10DCA00031462046FFF7CDFE3D46CFE76221F8E73B
:10DCB0007421F6E76E21F4E76621F2E77221F0E7BE
:10DCC0002368324649462046DB689847ECE7BD4268
:10DCD00005D02368294620469B687A1B9847222155
:10DCE0002046FFF7AEFEBDE8F08700BF73FC3F02A1
:10DCF00013B50446CDE90021FFF75EFFDDE9002101
:10DD00002046FFF797FF02232046237102B010BD83
:10DD100013B50446CDE90021FFF74EFFDDE90021F0
:10DD20002046FFF787FF01232046237102B010BD74
:10DD300080680368DB6818477047084611B10B68B4
:10DD40005B6818477047704770477047704738B531
:10DD500004460D4600682E2101F043FD2368C31AD6
:10DD60002B6023B1037803B101302368206018468B
:10DD700038BD10B504460C21FEF7EBFD204610BD62
:10DD800010B504460421FEF7E4FD204610BD10B591
:10DD900004460421FEF7DDFD204610BDFFF79CB8C8
:10DDA00008B5FEF7A3FDB0FA80F0400908BD704742
:10DDB00010B50C4601F026FA844205D101F022FA92
:10DDC000BDE8104001F010BA01F0FEFB844205D11D
:10DDD00001F0FAFBBDE8104001F0A9B92CB12368AD
:10DDE0002046BDE810405B68184710BD0B68036013
:10DDF0004B68436013B15A6801325A60704713B5DB
:10DE0000044608460191FEF77BFD02462046019933
:10DE100002B0BDE81040FFF77BBF13B504460846CB
:10DE20000191FEF76DFD0246204623680199DB68EB
:10DE300002B0BDE81040184707B503688DF8071019
:10DE40000122DB680DF10701984703B05DF804FB80
:10DE50000A6810B502604A6842600022C0E90222E6
:10DE600002618C688A608460CC68CA60C4600C6996
:10DE70000A61046110BD00002DE9F74F4FF0140A4C
:10DE8000D0E90084174645460AFB04F40093174B7B
:10DE9000A4105C43002C21DD66100AFB06F005EBA4
:10DEA0000009B9F804B03A465F4528BF5A462858D9
:10DEB000019101F0A8FC00284FF0010301990BD15A
:10DEC0005F4503D1009A13703446E3E7FCD9A61BE3
:10DED00009F11405013EF7E7F9DBF5E7A5EB0805C5
:10DEE0000248AD10684303B0BDE8F08FCDCCCCCC78
:10DEF0007FB50369057E019103B3F9B1002600F1F6
:10DF00000C04039603A901A8FFF721FF0146A8B15D
:10DF10000DF10B032046039A8DF80B60FFF7ACFF61
:10DF20009DF80B3053B12368142404FB0034B4F97A
:10DF300006300834002BA8BFDDB2E3E7284604B062
:10DF400070BD0EB4F0B58CB000AF07F1440555F8C4
:10DF5000042B04462B46202107F110007A60FD6057
:10DF6000FFF78EFB1F287A681AD900F1080323F007
:10DF700007036E46ADEB030D411C2B466846FD6062
:10DF8000FFF77EFB021E04DD236869462046DB683E
:10DF90009847B5463037BD46BDE8F04003B07047FE
:10DFA0000028F7D023680246DB68204607F11001FD
:10DFB0009847EFE710B5084CD4E88F3FDB0709D44A
:10DFC0002046FEF7D5FC28B12046FEF7D6FC0348D4
:10DFD00001F08EFB024810BD68AE07106FDE3F02F5
:10DFE000B0AD071010B5084CD4E88F3FDB0709D45B
:10DFF0002046FEF7BDFC28B12046FEF7BEFC0348D4
:10E0000001F076FB024810BD6CAE0710D7DE3F0270
:10E01000B4AD071038B500250446C0E90055C0E985
:10E0200004558560856140F8245FFEF739FFFFF7EE
:10E03000C1FFE061FFF7D6FF25732062204638BD9F
:10E0400010B50A4CD4E88F3FDB070CD42046FEF70E
:10E050008FFC40B10648FFF7DDFF2046FEF78DFC40
:10E06000044801F045FB024810BD00BF64AE071034
:10E0700074AE0710B9E63F020023024A0249034882
:10E08000FFF7CAB9A1E43F022DE43F02ADE33F022E
:10E0900000231A4619461846FFF7BEB937B504469D
:10E0A0008D686846FFF7A2FE6A4629462046FFF7BC
:10E0B0004FFD01A8FFF71FFB204603B030BD37B569
:10E0C0000446CD686846FFF791FE6A462946204619
:10E0D000FFF71AFD01A8FFF70EFB204603B030BD85
:10E0E00037B504460D696846FFF780FE6A46294643
:10E0F0002046FFF7B2FC01A8FFF7FDFA204603B067
:10E1000030BD000070B58AB00D46014604A8FFF787
:10E11000C5FF144E04A8FFF733FDE8B1684604A913
:10E12000FFF7CDFF31460298FFF73AFE044610B1E3
:10E130002C1E18BF012401A8FFF7DDFA002CE9D03E
:10E14000684604A9FFF7CCFF6846FFF7BCFC2860CF
:10E1500001A8FFF7D0FADDE705A8FFF7CCFA0AB06F
:10E1600070BD00BF79FC3F0237B50C46134920460D
:10E170001546FEF7BBFB50B901F044F84FF41651B9
:10E1800001F02EF803B0BDE8304001F03BB8204666
:10E190000B49FEF7ABFB78B94FF4165301A928469B
:10E1A0000193FFF7AFFF01F00FFA019900F0BCFFF8
:10E1B00001F00AFA03B030BD0020FBE77EFC3F020D
:10E1C00085FC3F0270B51426D0E90053044606FBD7
:10E1D0000356AE4205D005F10800FFF7F3FF1435F2
:10E1E000F7E72068FFF730FA204670BD10B5044607
:10E1F0000C30FFF7E7FF2046FFF7A7FA204610BDD7
:10E2000010B50446034B40F8043BFFF7EFFF2046F0
:10E2100010BD00BFD0FB3F0210B50446FFF7F0FF72
:10E2200020462421FEF795FB204610BD10B504467C
:10E23000024B0360FFF7E4FF204610BD24FD3F02C0
:10E2400010B50446FFF7F2FF20462421FEF781FBBC
:10E25000204610BD0022C0E90022826010B50C6883
:10E260000A6004604C684A6044608C688A6084601C
:10E2700010BD10B5044603681868FEF73BFE204643
:10E2800010BD00002DE9F04F87B003931C4B804672
:10E290005B688946C3F3080316466BB9FFF7D0FEE7
:10E2A000044600F12403406A0593FFF777FD237BC2
:10E2B0002BB105A8FFF7DDFF07B0BDE8F08F012304
:10E2C0005FFA89F92373D4E9005305EB830AAA4561
:10E2D00012D055F8047B3146381DFFF709FE814501
:10E2E000F5D3039A3B680092D3F808B04A46334608
:10E2F00041463846D847EAE700232373D9E700BFF1
:10E3000000ED00E02DE9F74F9B461A4B80465B6815
:10E310008946C3F3080316466BB9FFF791FE04461E
:10E3200000F12403406A0193FFF738FD237B2BB1F2
:10E3300001A8FFF79EFF03B0BDE8F08F0123F6B2FE
:10E340002373D4E9005305EB830A55450ED055F8E5
:10E35000047B5946381DFFF7CBFD8642F5D33B6859
:10E360004A4641463846DB689847EEE70023237368
:10E37000DEE700BF00ED00E02DE9F341164B054656
:10E380005B680F46C3F308031BBBFFF759FE044647
:10E3900000F12403406A0193FFF700FDD4E9006314
:10E3A000462406EB8308B04509D101A8FFF761FFB9
:10E3B000A542B4BF0020012002B0BDE8F08156F8AC
:10E3C000040B39460430FFF793FD8442A8BF04468E
:10E3D000E9E70020F0E700BF00ED00E0F8B5D0E984
:10E3E00001539D4204460E460DDB6F1C002F006852
:10E3F00004DDB900FFF736F918B9F8BDFFF724F9C5
:10E4000000202060A7602768626807EB8501920002
:10E41000A2EB8502081D01F086F947F825606368C4
:10E42000012001336360E8E737B5044600F12403B7
:10E43000406A01930D46FFF7B1FCD4E9003203EBCB
:10E440008202934219460AD009680433A942F8D1DE
:10E4500001A8FFF70EFF0025284603B030BD29466E
:10E460002046FFF7BBFF05460028F1D06368012B6B
:10E4700001D1FFF701FE01A8FFF7FBFEECE70B4619
:10E4800070B50446D0E9000200EB820282420FD050
:10E4900001461D6851F8046BAE4207D1521A01F0D3
:10E4A00042F901206368013B636070BD0846EDE7F7
:10E4B0000020FAE71FB5044600F12403406A0191E9
:10E4C0000393FFF76BFC204601A9FFF7D8FF18B1B3
:10E4D00063680BB9FFF7DCFD03A8FFF7CAFE04B0C1
:10E4E00010BD182370B50446D0E9045603FB065648
:10E4F000AE4215D0204605F11001FFF7C0FF63685A
:10E500000BB9FFF7C5FDE06929690368DB68984727
:10E51000696919B1206A0368DB6898471835E7E72D
:10E520001826D4E9045306FB0356AE4204D028460D
:10E5300000F0FAFC1835F8E70023636170BD73B58D
:10E540000446FFF7A5FD04F12403606A0193FFF779
:10E5500025FC2046FFF7C5FF01A8FFF78AFE606A89
:10E5600008B1FEF7ABFCD4E90453182606FB0356AA
:10E57000AE4204D0284600F0D7FC1835F8E72069F1
:10E58000FFF762F82068FFF75FF8204602B070BD21
:10E590000148FFF7D4BF00BF74AE07108842F8B53A
:10E5A00004460D46164615D9904214D2A2F114061F
:10E5B000751AA1F114072C44B7421AD01CB1314688
:10E5C0002046FFF745FC06F10800FFF7FBFD143E6F
:10E5D000143CF1E70DD0B5420BD01CB129462046C2
:10E5E000FFF736FC05F10800FFF7ECFD1435143495
:10E5F000F1E7F8BD8842F8B504460D46164614D931
:10E60000904213D2A2F11006751AA1F110072C4402
:10E61000B74218D01CB13146204600F0EEFC30461F
:10E6200000F082FC103E103CF2E70CD0B5420AD05C
:10E630001CB12946204600F0E0FC284600F074FC9E
:10E6400010351034F2E7F8BD70B50E1E054611DD29
:10E650003001FEF7EBFF044658B1D5E9001201EB9B
:10E660000212FFF7C7FF2868FEF7EEFF01202C60BB
:10E67000AE6070BD0024F6E72DE9F04F9046002310
:10E68000462295B00391D8F8041004469942C0E997
:10E690000033C0E90233C0E90433CDE90833027620
:10E6A0000A9323DCD8E90057142303FB0757AF4232
:10E6B0003BD029460BA800F0A0FC0BA90FA8099E8F
:10E6C00000F09BFCDDE9091399421BDA089B099ACB
:10E6D00003EB0616314603EB021206F11000FFF7BA
:10E6E00089FFEEB9099B0133099311E008A8FFF7F0
:10E6F000ABFF0028D6D108A8FFF727F8204615B0B1
:10E70000BDE8F08F013108A8FFF79EFF0028DDD19A
:10E710000FA800F009FC0BA800F006FC1435C6E7B2
:10E7200030460FA900F069FCDCE700264FF0140921
:10E73000CDE90B660D96DDE908239E427CDA3301B4
:10E74000D35806930BB90136F5E70023079309FB6D
:10E7500006F30BAD029307A906A8FFF7F8FA824665
:10E760000028F0D04FF0000301468DF817302846FE
:10E77000079A0DF11703FFF77FFB9DF817700190C3
:10E78000002F4AD1BDF81C30CDE91177ADF84030EB
:10E790004FF6FF73CDF83CA0ADF842301397D5E9A2
:10E7A0000132934217DB03F1010ABAF1000F30DDA9
:10E7B00009FB0AF0FEF73AFF834660B3D5E9001281
:10E7C00009FB0212FFF7EAFE2868FEF73DFFC5F8D5
:10E7D00000B0C5F808A02B68019A09FB023A6A68E4
:10E7E000514609FB02320AF11400FFF7D7FEBAF1D5
:10E7F000000F03D050460FA9FFF72AFB6B680133C7
:10E800006B6011A8FFF7DEFC3FB10BA8FFF7DAFC45
:10E8100071E7BB46D8E70127F3E7019B2D6809FBA9
:10E820000355069B1B782BB9D8F80030029A134485
:10E830001B7CEB8008358EE721682260626863608C
:10E84000A36809920A9A0A93E368A2600B9A0B9351
:10E850002369E2600C9A0C93636922610D9A0D930F
:10E86000039B089162612376CFE70000F0B5044670
:10E870002646174687B00D4668461946FEF769F9E1
:10E880000B4B694646F8043B03A8FEF762F939468C
:10E8900003AA3046FFF7F0FE03A8FEF719F9684611
:10E8A000FEF716F92046034B2562236007B0F0BD42
:10E8B000D0FB3F020CFD3F02F0B50F4685B0384655
:10E8C0001C4916461D460A9CFEF710F8C0B9A4B1B3
:10E8D000294601A8FFF7BEFC2420174900F004FFD9
:10E8E000054630B101AB32462146FFF7BFFF134B5F
:10E8F0002B6001A8FEF7ECF82C46204605B0F0BDD1
:10E9000038460F49FDF7F2FF90B9002CF5D02946A3
:10E9100001A8FFF79FFC2420074900F0E5FE05460B
:10E920000028E6D03246214601ABFFF79FFFE0E723
:10E930000024E2E78DFC3F0258FE3F0224FD3F0227
:10E9400091FC3F02014B024A1A60704770AE0710FB
:10E95000A2FC3F022DE9F047089DD0F82090044624
:10E960000E461746984600F04DFC81454DD02B7958
:10E97000190704D520466A695449FFF7E2FAB8F14D
:10E98000000F0DD05B212046FFF756FA4146204686
:10E99000FFF743FA236802222046DB684C49984778
:10E9A0002B79DA0724D5D5F808802F21404600F0CE
:10E9B0003EFF08B100F1010841462046FFF72DFA5D
:10E9C0002B799B0708D53A212046FFF735FA2046D8
:10E9D000EA684049FFF7B5FA2A79236812F0040F74
:10E9E00020464FF00202DB6814BF3B493B49984781
:10E9F0002B7958071DD529690B461A4613F8010BC8
:10EA000060B1202808D11946F7E7354800F083F9AE
:10EA10000028ACD0BDE8F0872828EED12368521A30
:10EA20002046DB689847236804222046DB682D498E
:10EA3000984700213846FEF7E1FC01462046FFF7E3
:10EA4000ECF9236802222046DB68244998471EB16E
:10EA500031462046FFF7E1F92B7913F0300F2CD027
:10EA600023682149DB680222204698472B79D90682
:10EA70000AD52368072220461C49DB6898472046B0
:10EA8000AA691B49FFF75DFA2B799A0611D5DB06B7
:10EA900005D5236802222046DB680F499847236882
:10EAA000204614490A22DB6898472046E969FFF7A7
:10EAB000B4F95D212046FFF7BFF923682046BDE881
:10EAC000F0470222DB680C49184700BFA6FC3F0252
:10EAD000ADFC3F02C4FB3F02B0FC3F02B5FC3F026D
:10EAE0009CAE0710B3FC3F02B8FC3F02BBFC3F02E8
:10EAF000C3FC3F02C6FC3F02D1FC3F022DE9F041BE
:10EB00000446076A0D46164600F07CFB874207D094
:10EB1000206A324603682946BDE8F041DB681847A1
:10EB2000034800F0F8F80028F2D0BDE8F08100BFFB
:10EB30009CAE07102DE9F04385B0D0F82090054633
:10EB40000F4690461E460C9C00F05CFB814505D1AB
:10EB5000494800F0E0F8002840F08A804FF00009B2
:10EB60002B6A464A01A8019203938DF80890FFF79B
:10EB700030F849464046FEF741FC804640490122B4
:10EB800001A8FFF7B5F84146FFF739F93FB13D4914
:10EB9000012201A8FFF7ACF83946FFF730F93EB182
:10EBA0003949012201A8FFF7A3F83146FFF727F9F9
:10EBB0002379DF070ED5A6682F21304600F037FEF7
:10EBC00000B1461C3149012201A8FFF791F83146F6
:10EBD000FFF715F923799E0707D52D49022201A8D1
:10EBE000FFF786F8E168FFF701F82379580714D595
:10EBF000266933461F4613F8012B2AB1202A01D17A
:10EC00001E46F7E7282AF5D10222224901A8FFF77C
:10EC10006FF83146BA1BFFF77BF82379190707D540
:10EC20001D49012201A8FFF763F86169FEF7F0FFB3
:10EC30002379DA0608D5042218490DEB0200FFF704
:10EC400057F8A169FEF7D2FF23799B0607D514492F
:10EC5000062201A8FFF74CF8E169FFF7D0F801A8F8
:10EC6000FEF7A1FF286A022203680E49DB68984775
:10EC700005B0BDE8F08300BF9CAE0710F4FC3F0276
:10EC800083FC3F02D4FC3F02C7FE3F02D6FC3F029A
:10EC9000D8FC3F02DBFC3F02DEFC3F02E0FC3F020F
:10ECA000E5FC3F02D1FC3F02002340681A46FEF714
:10ECB00015BC002202214068FEF72CBC00224068EF
:10ECC0001146FEF719BC002240681146FEF730BC21
:10ECD000002340681A461946FEF738BC00234068F6
:10ECE0001A461946FEF740BC00214068FEF782BC78
:10ECF00000214068FEF78CBC0022406881F00101D1
:10ED0000FEF740BC00224068FEF758BC0022406875
:10ED10001146FEF761BC002240681146FEF740BC78
:10ED20002DE9F04395B014460D460746FEF7EAFD7F
:10ED300000211C220DA8009100F00FFD4023204669
:10ED40000C9300216B460CAAFEF7C2F9044600287A
:10ED50004BD1024601216868FEF7EAFB022180469A
:10ED600022466868FEF7E4FB21468146009E002E9D
:10ED70003BD0002939D17368022B03D00A2B11D064
:10ED8000F669F4E7B8F1000FFAD0716906A804310A
:10ED90003C1D07ADFEF7E4FD0FCD0FC42B684146C7
:10EDA0002370EDE7B9F1000FEAD0102201A87469D1
:10EDB00000F0D3FC062301AD8DF8143004F10803F4
:10EDC00018342A4618685968083303C2A342154606
:10EDD000F7D101A906A83C1D07ADFEF7A1FD0FCD97
:10EDE0000FC42B6849462370CAE70098FEF762F902
:10EDF000384615B0BDE8F083024B034A1A60002282
:10EE00005A6070479CAE07106CFD3F02F8B506468D
:10EE10000D4600248F18BD420CD0336830469B68E5
:10EE200015F8011B9847031E01DB1C44F3E7002C77
:10EE300008BF1C462046F8BD13B50446084659B124
:10EE40000191FDF75DFD0246204623680199DB68CC
:10EE500002B0BDE81040184702B010BD03689B68BF
:10EE600018470023012A98BF0A2230B58BB08DF8CD
:10EE7000243009AC0D46B1FBF2F101FB125303F053
:10EE8000FF03092B94BF30333733DBB2AA4204F8B7
:10EE9000013DEFD92146FFF7CFFF0BB030BD000099
:10EEA0000022014B9A607047A4AE07100021FEF7C4
:10EEB00071B90021FEF760B910B50446084621700B
:10EEC000FEF73EF900232046636010BD13B50446EB
:10EED0000078FFF7EEFF58B920784FF6FF710190E8
:10EEE000FEF704F9019802B0BDE81040FFF7DEBF5D
:10EEF00002B010BD13B5044600780191FFF7D9FFA9
:10EF0000019948B920780190FEF7FEF8019802B007
:10EF1000BDE81040FFF7CABF02B010BD08B50078C9
:10EF2000FEF700F9C0B208BD10B504460068FEF750
:10EF30008BFB204610BD10B50446006808B1FEF7F3
:10EF400083FB0023C4E90133236010BD38B50446B8
:10EF50000D4600680131FEF785FB10B1C4E90005DC
:10EF6000012038BD10B50368044623B143688B42C5
:10EF700001D3012010BD2046FFF7E8FF0028F9D09B
:10EF8000A368002BF5D122681370F2E737B50D4660
:10EF9000114601920446FFF7E5FF019A28B9204681
:10EFA000FFF7C9FF204603B030BD2946A2602068A4
:10EFB00000F0ACFB00212268A368D154F2E738B519
:10EFC000054600680C4670B16A688B689A4208D39F
:10EFD000096831B100F00FFCA368AB600023A360A7
:10EFE00038BDFEF731FB23682B6063686B60A36854
:10EFF000AB600023C4E90033F1E7002310B50446F9
:10F00000C0E9003383600373FFF7D9FF204610BDCA
:10F01000884210B5044605D00B682BB18A681946A2
:10F02000FFF7B4FF204610BDFFF785FFFAE7002386
:10F0300010B50446C0E9003383600373FFF7E8FFAF
:10F04000204610BD02220020044B1A60044B054AE2
:10F05000C3E900009A60FEF7EDB900BFC0AE07102B
:10F06000B4AE07100000FFFF024B1A68024B1A6093
:10F07000704700BFB8AD0710C4AE071070474174A9
:10F08000704708B5007CFEF7F5F820EAE07008BD8F
:10F0900008B5007CFEF7A8F820EAE07008BD08B5C6
:10F0A000007CFEF7BDF840EAE07008BD08B5007CC2
:10F0B000FEF7A8F840EAE07008BD007CFEF7BEB895
:10F0C00037B5457C04462DB1207C03B0BDE8304007
:10F0D000FEF77CB8007C0191FEF7CCF8002801997E
:10F0E000F2DC284603B030BD10B504461421FDF70C
:10F0F00030FC204610BD000010B54FF47A73044672
:10F10000084611460022C4E90123044B2074236001
:10F1100001236374FEF7CAF8204610BDC4FD3F0208
:10F120000023007CFEF7B4B80022FFF7F9BF007C93
:10F13000FEF73EB8007CFEF78FB841747047704709
:10F14000704708B50021007CFEF704F940EAE07042
:10F1500008BD08B50121007CFEF7FCF840EAE0702C
:10F1600008BD08B5007CFEF7E7F820EAE07008BDAE
:10F1700008B5007CFEF7D2F820EAE07008BD13B5B0
:10F180000446007C0191FEF7D7F80028019901DCC4
:10F19000607C20B1207CFEF7EBF820EAE07002B042
:10F1A00010BD007CFEF7F2B810B504461421FDF73F
:10F1B000D0FB204610BD000010B54FF47A73044612
:10F1C00008460021C4E90113044B20742360012385
:10F1D00011466374FEF778F8204610BDF4FD3F0237
:10F1E0000022007CFEF77EB8007CFEF789B8007C28
:10F1F000FEF7DAB810B504461422002100F0ADFA8B
:10F20000204610BD10B588B003A8FFF7F3FF0C4CE3
:10F21000D4E88F1F11F001010FD120460191FDF7B5
:10F22000A7FB019948B103AA0648FFF7C5FF20468E
:10F23000FDF7A3FB044800F05BFA024808B010BDDC
:10F24000C8AE0710CCAE071067F23F02002240683C
:10F250001146FEF76DB9002240681146FEF7A0B9CD
:10F26000002240681146FEF7B7B900224068FEF759
:10F27000A5B90022406881F00101FEF783B900239F
:10F2800040681A461946FEF76FB9002340681A46CF
:10F290001946FEF75BB9002240681146FEF72CB90B
:10F2A000002202214068FEF735B9002340681A4663
:10F2B000FEF714B90422024B5A60024A1A607047E2
:10F2C000E0AE071024FE3F02014B1860704700BFFC
:10F2D000BCAD071008B50F4B43B1FFF793FF0368B0
:10F2E0001B699847002801DD00E000BF0A4B43B1CD
:10F2F00000F06AF903681B699847002801DD00E007
:10F3000000BF064B0BB100F0A5F9054B0BB100F0A7
:10F31000D7F908BD00000000000000000000000058
:10F320000000000008B5FFF7D5FFFDF70DFE014B0B
:10F33000186008BDF0AE07100548064A08B5121A55
:10F34000054900F0E3F9054B054A1A6008BD00BF06
:10F3500000B4071004B4071040FF5F0800B40710A2
:10F360001E1C279A002307B51A466FF077010093F9
:10F37000FEF78AF803B05DF804FB000007B5438888
:10F380000A2B08D0502B0BD1094B1B684BB103B093
:10F390005DF804EB1847FFF7E5FF03B05DF804FBE9
:10F3A00000231A466FF077010093FEF76DF8F4E73B
:10F3B000ECAE0710002110B51148FEF78BF9114B88
:10F3C0001A68114B9A420CBF012200220F4B1A708F
:10F3D00001D0FFF7B1FFFDF79BFD044600F0C6F931
:10F3E0000B4B13B1204600E000BF00210848FEF798
:10F3F00067F8BDE8104000210648FEF737B800BFA7
:10F40000F1F33F0200B407101E1C279AE8AE071064
:10F4100000000000A5F43F021B2837B5044602D9BE
:10F42000002003B030BDA0F10F03022B0BD901283F
:10F4300021D800F075F80021007CFDF711FE80F066
:10F440000100C0B2EDE7114DD5E88F1F11F00101A9
:10F450000BD128460191FDF78BFA019928B10C4890
:10F46000FFF72AFD2846FDF788FA094B1878FDF7C3
:10F4700075FE0028D4D1083C012C05D800F0A4F872
:10F48000007CFDF7E9FEDAE70120CAE74CAE071081
:10F4900050AE07101B2838B504460D460AD8FF2980
:10F4A00008D0FFF7B9FF28B129462046BDE838400B
:10F4B000FDF766BD38BD38B504460D46FDF76EFD57
:10F4C000FF2810D0062804D84D2323FA00F0C307E4
:10F4D00009D42046FFF7A0FF28B129462046BDE801
:10F4E0003840FDF769BD38BD7047000038B50A4B9C
:10F4F00004460360012309494361202000F0F6F827
:10F500002025606005492846A56000F0EFF8C4E9B1
:10F510000305204638BD00BF1800010058FE3F0219
:10F5200030B50E4D87B0D5E88F1F11F0010411D111
:10F530002846FDF71DFA68B16846FFF7D7FF6A460F
:10F5400021460748FEF786F92846FDF716FA0548D2
:10F5500000F0CEF8024807B030BD00BFF4AE07108F
:10F56000F8AE071011F63F027047000038B51425B9
:10F5700004462A46002100F0F0F82580402507497E
:10F5800028462581258200F0B1F8044960602846AC
:10F5900000F0ACF8E060204638BD00BF58FE3F02E6
:10F5A0007047704710B50446FFF7E0FF204610BDD6
:10F5B00010B50446FFF7DAFF204610BD10B504462B
:10F5C000FFF7D4FF204610BD30B50E4D87B0D5E80B
:10F5D0008F1F11F0010411D12846FDF7C9F968B158
:10F5E00001A8FFF7DFFF214601AA0748FFF784FDC6
:10F5F0002846FDF7C2F9054800F07AF8024807B03E
:10F6000030BD00BF0CAF071018AF071091F63F02D6
:10F6100010B50D4C86B0D4E88F3FDB0711D42046DF
:10F62000FDF7A6F968B101A8FFF7C2FF012101AA01
:10F630000648FFF761FD2046FDF79FF9044800F0FA
:10F6400057F8024806B010BD10AF07102CAF0710D6
:10F65000CBF63F0210B5FFF7DBFF074B044653B173
:10F66000FFF768FD38B1236820461B6998470028DA
:10F6700001DD00E000BF10BD0000000010B50D4C22
:10F6800086B0D4E88F3FDB0711D42046FDF770F930
:10F6900068B101A8FFF792FF022101AA0648FFF70F
:10F6A0002BFD2046FDF769F9044800F021F80248D7
:10F6B00006B010BD14AF071040AF0710C9F63F02E7
:10F6C00010B5FFF7DBFF074B044653B1FFF732FDE0
:10F6D00038B1236820461B699847002801DD00E007
:10F6E00000BF10BD00000000FDF72FB9FDF72FB9D6
:10F6F000002301461A46184600F03AB9024B184456
:10F70000407800F097007047C9FE3F020A44431E4C
:10F71000914200D1704710B511F8014B914203F8A6
:10F72000014FF9D110BD884210B501EB020402D996
:10F730008442234607D8431EA14208D011F8012B6A
:10F7400003F8012FF8E7024401468A4200D110BDB8
:10F7500013F8014D02F8014DF7E7024403469342C6
:10F7600000D1704703F8011BF9E7000038B5104BD2
:10F7700004461D68AB6BB3B91820FDF757FF02466E
:10F78000A86320B90B4B42210B48FDF795FF0B49AD
:10F790000B4BC0E900130B4B002183600B238381CB
:10F7A0000120C2E90401AB6B00221C615A6138BD23
:10F7B000BCAD071059FE3F0270FE3F020E33CDABC9
:10F7C00034126DE6ECDE0500C9B2034610F8012BD9
:10F7D0001AB18A42F9D118467047002918BF002390
:10F7E000F9E710B50446FFF7EFFF18B92046FDF71B
:10F7F00087F8204410BD034611F8012B03F8012BB4
:10F80000002AF9D1704710B57AB10346013984183E
:10F8100013F8010B11F8012F904201D1A34201D13D
:10F82000801A10BD0028F3D1FAE71046F9E738B581
:10F8300003460C4669B9BDE83840FFF7C5BF431C15
:10F84000054621461846FFF7BFFF0028F7D1284696
:10F8500038BD0025F5E70000012B2DE9F04701D068
:10F86000242B06D9FDF71AFF162303600020BDE8FC
:10F87000F0870D46DFF8E0C02E4615F8014B14F86E
:10F880000C7017F00807F7D12D2C32D12C780127F6
:10F89000B51C002B5BD0102B09D1302C07D12C7854
:10F8A00004F0DF04582C4DD16C781023023507F199
:10F8B00000484FF0000C08F1FF386646B8FBF3F93A
:10F8C00003FB198AA4F1300EBEF1090F16D8744655
:10F8D000A34224DDBCF1000F1EDBB1451CD301D1D6
:10F8E000A24519DB06FB03464FF0010C15F8014B4E
:10F8F000E8E72B2C04BF2C78B51CCAE7A4F1410E15
:10F90000BEF1190F01D8373CE2E7A4F1610EBEF158
:10F91000190F04D8573CDBE74FF0FF3CE6E7BCF19A
:10F92000000F05DA22234646036042B930469EE7BF
:10F9300007B17642002AF9D0BCF1000F00D0691E51
:10F940001160F3E73024002BB1D10823AFE7302C4E
:10F95000A5D00A23ABE700BFCAFE3F0213460A4602
:10F96000014602480068FFF777BF00BFBCAD071033
:10F970002DE9F843DFF8BC8006461F460D46D8F84F
:10F980000000914600F058F8264B1C6834B9264C0C
:10F990001C60264B13B11B68C4F8883063681F2BAA
:10F9A00007DDD8F8000000F049F84FF0FF30BDE85F
:10F9B000F8835EB3D4F8880088B91D4B23B9D8F812
:10F9C000000000F03AF8F0E74FF48470FDF72EFEE7
:10F9D0000028F4D00023C0E94033C4F888006368ED
:10F9E0000122022E40F8239002FA03F200EB830179
:10F9F000D0F8003143EA0203C0F80031C1F880704A
:10FA000002BFD0F804311343C0F804316368D8F85A
:10FA100000005A1C0233626044F8235000F00EF8D4
:10FA20000020C4E7E0AF071054AF0710000000004B
:10FA300055D73F0220AE071070477047704700004F
:10FA400039CA3F0261CA3F0265CA3F020000000096
:10FA500043616C6C206F6E207075726520766972E0
:10FA60007475616C0053657269616C20636F6E6EB2
:10FA70006563746564206F722074696D6564206FBE
:10FA800075742100783A2025642C20793A20256469
:10FA90002C207A3A2025642C20743A20256400001A
:10FAA0000000000000000000000000000000000056
:10FAB00081CA3F02A9CA3F02000000000000000006
:10FAC000ADCA3F02E1CA3F027DEA3F0225EC3F0298
:10FAD000000000000000000007D93F02FDD83F02EF
:10FAE000F3D83F02E9D83F02DDD83F02D1D83F0228
:10FAF00011EE3F0219EE3F02C5D83F02BDD83F02CA
:10FB0000B3D83F02A9D83F0249EE3F0200000000EF
:10FB10000000000025D93F026FD93F0247D93F02BC
:10FB200027D93F024FD93F0257D93F025FD93F0241
:10FB300067D93F020000000000000000C9D93F0261
:10FB4000B9D93F02BBD93F022575007525303478FD
:10FB500000626175640053657269616C005365727F
:10FB600069616C31004A534F4E53747265616D4C3C
:10FB70006F6748616E646C6572006170700025305B
:10FB800031307520005D20002C200028293A20000B
:10FB9000205B00636F6465203D200025690064657B
:10FBA0007461696C73203D20000D0A006D006600D1
:10FBB0006C6E00666E007400636F6465006465744B
:10FBC00061696C00000000000000000075DE3F026B
:10FBD0009BDE3F0259DE3F02D7DA3F020000000001
:10FBE0000000000029E33F0241E33F027DEA3F02BB
:10FBF00025EC3F02000000000000000055E33F023A
:10FC000069E33F025DEC3F0261DE3F02000000005D
:10FC10000000000073DE3F02A9DE3F02E1E93F027F
:10FC200063DE3F02000000000000000071DE3F02C2
:10FC3000B7DE3F0291E23F02D9DE3F020000000042
:10FC400000000000D1ED3F02DBED3F02E5ED3F0299
:10FC5000EFED3F02F9ED3F0205EE3F0211EE3F02EC
:10FC600019EE3F0221EE3F022DEE3F0235EE3F023C
:10FC70003FEE3F0249EE3F0225592D256D2D2564AB
:10FC80005425483A254D3A2553257A00617363740B
:10FC9000696D65000000000000000000A5F13F0252
:10FCA00011F23F02E9F13F0235EF3F02B9F13F02A5
:10FCB000D5F13F02C7F13F02E3F13F02A7F13F0256
:10FCC000ABF13F02000000000000000069F23F02BB
:10FCD000D1F23F02A7F23F0235EF3F0299F23F0215
:10FCE0006BF23F027BF23F02CBF23F028BF23F020C
:10FCF00063F23F020000000000000000D3F33F0267
:10FD0000C9F33F02BFF33F0275F33F02B3F33F0273
:10FD1000A7F33F0211EE3F0219EE3F029BF33F02B1
:10FD200093F33F0289F33F027FF33F0249EE3F0224
:10FD3000005245454E54206D616C6C6F63207375A5
:10FD400063636565646564002F746D702F6A656E0A
:10FD50006B696E732D4743432D31302D706970658B
:10FD60006C696E652D34385F323032303131323467
:10FD70005F313630363138303633392F7372632F76
:10FD80006E65776C69622F6E65776C69622F6C693E
:10FD900062632F7374646C69622F72616E642E6388
:10FDA000000020202020202020202028282828286B
:10FDB0002020202020202020202020202020202043
:10FDC000202088101010101010101010101010109B
:10FDD000101004040404040404040404101010109B
:10FDE0001010104141414141410101010101010156
:10FDF00001010101010101010101010101101010C6
:10FE00001010104242424242420202020202020228
:10FE10000202020202020202020202020210101098
:10FE200010200000000000000000000000000000A2
:10FE300000000000000000000000000000000000C2
:10FE400000000000000000000000000000000000B2
:10FE500000000000000000000000000000000000A2
:10FE60000000000000000000000000000000000092
:10FE70000000000000000000000000000000000082
:10FE80000000000000000000000000000000000072
:10FE90000000000000000000000000000000000062
:10FEA00000000000E1CC3F0299D83F0211D93F0287
:10FEB0006DEA3F0221EF3F02C9EF3F026DF13F02C1
:08FEC00091F13F02DDF33F0266
:10FEC800000000023CFD3F0254FD3F02B4FD3F022A
:10FED800C0AD071000000000000000000000000096
:10FEE800000000000000000000000000000000000A
:10FEF80000000000000000000000000000000000FA
:10FF080000000000000000000000000000000000E9
:10FF180000000000000000000000000000000000D9
:10FF280000000000000000000000000000000000C9
:08FF380000000000E4AF071017
:04FF400000000000BD
:10FFBE000200100000C05F08A8C05F08D0C13F0259
:10FFCE0001000A00FFFFFFFFFFFF00000102030414
:10FFDE0005060708090A0B0C0D0E0F10111213144B
:0EFFEE0015161718191A1B1C1D1E1F203E0089
:04FFFC0078563412ED
:04000005085FC018B8
:00000001FF
