:02000004085F93
:1090000000905F08FCFF5F080000060020000501DB
:0890100004017D1500000000C1
:109018001348144908B5884205D0134A824202D041
:10902800124B121A98471248124A0021124B121A70
:10903800984712481249884205D0124A824202D003
:109048000A4B121A984710481049884205D0104A0E
:10905800824202D0054B121A9847014808BD00BF4A
:10906800A0AD071030F65F081CAE07102D0D1110CB
:109078001CAE0710E8AF0710A10E1110709A3F023E
:10908800B0905F08789A3F02789A3F02B8905F08DC
:0C909800F0FF3F0219905F08000000008C
:0890A400F813E079010000005F
:0890B0009C905F088CFA3F025E
:1090B80081F0004102E000BF83F0004330B54FEA81
:1090C80041044FEA430594EA050F08BF90EA020FEE
:1090D8001FBF54EA000C55EA020C7FEA645C7FEA81
:1090E800655C00F0E2804FEA5454D4EB5555B8BFA4
:1090F8006D420CDD2C4480EA020281EA030382EA15
:10910800000083EA010180EA020281EA0303362DA6
:1091180088BF30BD11F0004F4FEA01314FF4801C79
:109128004CEA113102D0404261EB410113F0004F8B
:109138004FEA03334CEA133302D0524263EB430342
:1091480094EA050F00F0A780A4F10104D5F1200EE0
:109158000DDB02FA0EFC22FA05F2801841F100013B
:1091680003FA0EF2801843FA05F359410EE0A5F10F
:1091780020050EF1200E012A03FA0EFC28BF4CF040
:10918800020C43FA05F3C01851EBE37101F00045F6
:1091980007D54FF0000EDCF1000C7EEB00006EEB03
:1091A8000101B1F5801F1BD3B1F5001F0CD349088D
:1091B8005FEA30004FEA3C0C04F101044FEA4452E4
:1091C80012F5800F80F09A80BCF1004F08BF5FEA6B
:1091D800500C50F1000041EB045141EA050130BD4B
:1091E8005FEA4C0C404141EB0101013C28BFB1F55D
:1091F800801FE9D291F0000F04BF01460020B1FAA8
:1092080081F308BF2033A3F10B03B3F120020CDA7A
:109218000C3208DD02F1140CC2F10C0201FA0CF058
:1092280021FA02F10CE002F11402D8BFC2F1200CBD
:1092380001FA02F120FA0CFCDCBF41EA0C01904073
:10924800E41AA2BF01EB0451294330BD6FEA0404BC
:109258001F3C1CDA0C340EDC04F11404C4F12002A7
:1092680020FA04F001FA02F340EA030021FA04F3B9
:1092780045EA030130BDC4F10C04C4F1200220FA10
:1092880002F001FA04F340EA0300294630BD21FA4E
:1092980004F0294630BD94F0000F83F4801306BF14
:1092A80081F480110134013D4EE77FEA645C18BF08
:1092B8007FEA655C29D094EA050F08BF90EA020F9F
:1092C80005D054EA000C04BF1946104630BD91EA97
:1092D800030F1EBF0021002030BD5FEA545C05D19A
:1092E8004000494128BF41F0004130BD14F58004D9
:1092F8003CBF01F5801130BD01F0004545F0FE414D
:1093080041F470014FF0000030BD7FEA645C1ABF81
:10931800194610467FEA655C1CBF0B46024650EAB8
:10932800013406BF52EA033591EA030F41F40021E4
:1093380030BD00BF90F0000F04BF0021704730B56A
:109348004FF4806404F132044FF000054FF000013F
:1093580050E700BF90F0000F04BF0021704730B500
:109368004FF4806404F1320410F0004548BF4042D5
:109378004FF000013EE700BF42004FEAE2014FEA2A
:1093880031014FEA02701FBF12F07F4393F07F4F05
:1093980081F06051704732F07F4208BF704793F008
:1093A8007F4F04BF41F40021704730B54FF460741B
:1093B80001F0004521F000411CE700BF50EA01021E
:1093C80008BF704730B54FF000050AE050EA0102C7
:1093D80008BF704730B511F0004502D5404261EB37
:1093E80041014FF4806404F132045FEA915C3FF478
:1093F800D8AE4FF003025FEADC0C18BF03325FEA15
:10940800DC0C18BF033202EBDC02C2F1200300FAC5
:1094180003FC20FA02F001FA03FE40EA0E0021FAEA
:1094280002F11444BDE600BF70B54FF0FF0C4CF4D8
:10943800E06C1CEA11541DBF1CEA135594EA0C0F8A
:1094480095EA0C0F00F0DEF82C4481EA030621EAC5
:109458004C5123EA4C5350EA013518BF52EA033500
:1094680041F4801143F4801338D0A0FB02CE4FF0B2
:109478000005E1FB02E506F00042E0FB03E54FF0E2
:109488000006E1FB03569CF0000F18BF4EF0010EDA
:10949800A4F1FF04B6F5007F64F5407404D25FEAD6
:1094A8004E0E6D4146EB060642EAC62141EA555189
:1094B8004FEAC52040EA5E504FEACE2EB4F1FD0CCB
:1094C80088BFBCF5E06F1ED8BEF1004F08BF5FEA49
:1094D800500E50F1000041EB045170BD06F00046FB
:1094E80046EA010140EA020081EA0301B4EB5C04A8
:1094F800C2BFD4EB0C0541EA045170BD41F48011A0
:109508004FF0000E013C00F3AB8014F1360FDEBFC4
:10951800002001F0004170BDC4F10004203C35DAA0
:109528000C341BDC04F11404C4F1200500FA05F323
:1095380020FA04F001FA05F240EA020001F00042C4
:1095480021F0004110EBD37021FA04F642EB06013A
:109558005EEA430E08BF20EAD37070BDC4F10C0464
:10956800C4F1200500FA04F320FA05F001FA04F228
:1095780040EA020001F0004110EBD37041F1000114
:109588005EEA430E08BF20EAD37070BDC4F120051F
:1095980000FA05F24EEA020E20FA04F301FA05F287
:1095A80043EA020321FA04F001F0004121FA04F22F
:1095B80020EA020000EBD3705EEA430E08BF20EAFF
:1095C800D37070BD94F0000F0FD101F00046400039
:1095D80041EB010111F4801F08BF013CF7D041EABB
:1095E800060195F0000F18BF704703F000465200BF
:1095F80043EB030313F4801F08BF013DF7D043EA90
:109608000603704794EA0C0F0CEA135518BF95EA45
:109618000C0F0CD050EA410618BF52EA4306D1D1CC
:1096280081EA030101F000414FF0000070BD50EAEB
:10963800410606BF1046194652EA430619D094EA75
:109648000C0F02D150EA013613D195EA0C0F05D15F
:1096580052EA03361CBF104619460AD181EA0301B3
:1096680001F0004141F0FE4141F470014FF000006B
:1096780070BD41F0FE4141F4780170BD70B54FF006
:10968800FF0C4CF4E06C1CEA11541DBF1CEA135586
:1096980094EA0C0F95EA0C0F00F0A7F8A4EB050468
:1096A80081EA030E52EA03354FEA013100F088805F
:1096B8004FEA03334FF0805545EA131343EA126328
:1096C8004FEA022245EA111545EA10654FEA0026DD
:1096D8000EF000419D4208BF964244F1FD0404F596
:1096E800407402D25B084FEA3202B61A65EB0305F2
:1096F8005B084FEA32024FF480104FF4002CB6EBAF
:10970800020E75EB030E22BFB61A754640EA0C002E
:109718005B084FEA3202B6EB020E75EB030E22BF6E
:10972800B61A754640EA5C005B084FEA3202B6EBAF
:10973800020E75EB030E22BFB61A754640EA9C006E
:109748005B084FEA3202B6EB020E75EB030E22BF3E
:10975800B61A754640EADC0055EA060E18D04FEAFC
:10976800051545EA16754FEA06164FEAC30343EA9C
:1097780052734FEAC2025FEA1C1CC0D111F4801F69
:109788000BD141EA00014FF000004FF0004CB6E762
:1097980011F4801F04BF01430020B4F1FD0C88BF01
:1097A800BCF5E06F3FF6AFAEB5EB030C04BFB6EB0C
:1097B800020C5FEA500C50F1000041EB045170BDFF
:1097C8000EF0004E4EEA113114EB5C04C2BFD4EB2C
:1097D8000C0541EA045170BD41F480114FF0000EB0
:1097E800013C90E645EA060E8DE60CEA135594EA2C
:1097F8000C0F08BF95EA0C0F3FF43BAF94EA0C0F2F
:109808000AD150EA01347FF434AF95EA0C0F7FF4A3
:1098180025AF104619462CE795EA0C0F06D152EAF7
:1098280003353FF4FDAE1046194622E750EA4106DB
:1098380018BF52EA43067FF4C5AE50EA41047FF4EC
:109848000DAF52EA43057FF4EBAE12E74FF0FF3C51
:1098580006E000BF4FF0010C02E000BF4FF0010C22
:109868004DF804CD4FEA410C7FEA6C5C4FEA430C9B
:1098780018BF7FEA6C5C1BD001B050EA410C0CBFEA
:1098880052EA430C91EA030F02BF90EA020F00204C
:10989800704710F1000F91EA030F58BF994208BFB3
:1098A80090422CBFD8176FEAE37040F00100704770
:1098B8004FEA410C7FEA6C5C02D150EA013C07D1C7
:1098C8004FEA430C7FEA6C5CD6D152EA033CD3D012
:1098D8005DF8040B704700BF8446104662468C460C
:1098E8001946634600E000BF01B5FFF7B7FF00283F
:1098F80048BF10F1000F01BD4DF808EDFFF7F4FF68
:109908000CBF012000205DF808FB00BF4DF808EDF2
:10991800FFF7EAFF34BF012000205DF808FB00BF15
:109928004DF808EDFFF7E0FF94BF012000205DF837
:1099380008FB00BF4DF808EDFFF7CEFF94BF0120EC
:1099480000205DF808FB00BF4DF808EDFFF7C4FFE5
:1099580034BF012000205DF808FB00BF4FEA410C2E
:109968007FEA6C5C02D150EA013C0AD14FEA430C11
:109978007FEA6C5C02D152EA033C02D14FF000004E
:1099880070474FF0010070474A0011D212F50012DB
:1099980011D20DD56FF47873B3EB62520ED44FEA3F
:1099A800C12343F0004343EA505323FA02F07047BF
:1099B8004FF00000704750EA013002D14FF0FF30FD
:1099C80070474FF0000070474FEA4102B2F1E043A0
:1099D80024BFB3F5001CDCF1FE5C0DD901F0004C8E
:1099E8004FEAC0024CEA5070B2F1004F40EB8300DE
:1099F80008BF20F00100704711F0804F21D113F10A
:109A08003872BCBF01F00040704741F480114FEA42
:109A18005252C2F11802C2F1200C10FA0CF320FACB
:109A280002F018BF40F001004FEAC1234FEAD323E8
:109A380003FA0CFC40EA0C0023FA02F34FEA430352
:109A4800CCE77FEA625307D150EA01331EBF4FF0DB
:109A5800FE4040F44000704701F0004040F0FE40F6
:109A680040F40000704700BF53B94AB9002908BF45
:109A780000281CBF4FF0FF314FF0FF3000F0A0B9B5
:109A8800ADF1080C6DE904CE00F024F8DDF804E02F
:109A9800DDE9022304B07047D0B500220B4B06461F
:109AA8000F46FFF7C1FCFFF76FFF0446FFF742FCC4
:109AB8000022074BFFF7B8FC02460B4630463946F2
:109AC800FFF7FAFAFFF760FF2146D0BD0000F03D2E
:109AD8000000F0412DE9F04F099D04460F46002B88
:109AE80048D18A42944661D9B2FA82F343B1C3F1AC
:109AF80020019F4002FA03FC9C4020FA01F10F4329
:109B08004FEA1C411FFA8CFE220CB7FBF1F601FB51
:109B1800167706FB0EF042EA0742904208D91CEB82
:109B2800020206F1FF3702D2904200F237813E4628
:109B3800121AA4B2B2FBF1F001FB102200FB0EFED8
:109B480044EA0244A64508D91CEB040400F1FF329C
:109B580002D2A64500F21C81104640EA0640A4EB5A
:109B68000E0400261DB1DC400023C5E90043314640
:109B7800BDE8F08F8B4209D9002D00F0FD8000264A
:109B8800C5E9000130463146BDE8F08FB3FA83F6E7
:109B9800002E4BD18B42C0F0F280824240F2EF801F
:109BA8003046002DE3D0C5E90047E0E702B9FFDE03
:109BB800B2FA82F3002B40F09D80891A4FEA124EC8
:109BC80097B20126200CB1FBFEF20EFB121140EAFF
:109BD800014107FB02F088420FD91CEB010102F199
:109BE800FF382CBF4FF001094FF00009884203D914
:109BF800B9F1000F00F0CF804246091AA4B2B1FBB8
:109C0800FEF00EFB101100FB07F744EA0144A742DF
:109C180008D91CEB040400F1FF3102D2A74200F27C
:109C2800B4800846E41B40EA02409BE7C6F12007DF
:109C3800B34001FA06F422FA07FCF940B2404CEAB4
:109C4800030C20FA07F34FEA1C491C431FFA8CFE49
:109C580000FA06F3200CB1FBF9F809FB181140EAE9
:109C6800014108FB0EF088420FD91CEB010108F1F5
:109C7800FF3A2CBF4FF0010B4FF0000B884203D97D
:109C8800BBF1000F00F08D80D046091AA4B2B1FBD9
:109C9800F9F009FB101100FB0EFE44EA01418E4564
:109CA80007D91CEB010100F1FF3401D28E457FD8A2
:109CB800204640EA0840A1EB0E01A0FB029841456E
:109CC8004C46C64602D306D14B4504D20138B9EBFF
:109CD800020468EB0C0E002D70D01A1B61EB0E010C
:109CE80022FA06F301FA07F7F14000261F43C5E9F7
:109CF80000713CE702FA03FCC3F1200001FA03F209
:109D080021FA00F64FEA1C4E24FA00F11FFA8CF7EC
:109D18009C401143B6FBFEF00A0C0EFB106642EAAB
:109D2800064200FB07F696420ED91CEB020200F130
:109D3800FF382CBF4FF001094FF00009964202D9B5
:109D4800B9F1000F31D04046921B89B2B2FBFEF642
:109D58000EFB162241EA024106FB07F28A4207D9A6
:109D68001CEB010106F1FF3801D28A4223D846468E
:109D7800891A46EA004625E72E462846F7E6841A59
:109D880061EB030301201F460BE76444023849E7EF
:109D980064440238E1E6023A61442EE7023E624436
:109DA800C6E6A8F1020861446FE702386244CBE7CF
:109DB800023861447DE7023E6144D9E72E46D6E683
:109DC800704700BF10F8012B11F8013B012A28BF8A
:109DD8009A42F7D0D01A7047034613F8012B002A8D
:109DE800FBD1181A0138704770B503F0D5FA002571
:109DF800054E064CA41BA408AC4200D170BD56F811
:109E0800043B98470135F7E7CCFF3F02F0FF3F02DC
:109E180000F060B808B500F0CDF8BDE8084003F0E0
:109E280073BA00F0F1BF00F0EFBF00F0FBBF000015
:109E38000C2008B5024A034900F07AFEFEE700BF8D
:109E480061B03F029CFA3F020078B0FA80F0400906
:109E580070470123037070477047000010B504462F
:109E6800094B036001F0BAFF214602F0F1F903F053
:109E78006FF903F05FF92046044B40F8043B02F009
:109E880083F8204610BD00BF40FB3F0228FB3F027D
:109E980010B50446FFF7E2FF20462421FFF7C5FF6F
:109EA800204610BD0EB44FF0200C002300B58CB036
:109EB8000DAA52F8041BCDE904C3CDE900120392A0
:109EC800016804AA1E2000F041FE0CB05DF804EB06
:109ED80003B0704738B503F03BF94FF4165103F05F
:109EE80025F9002000F0F4FB43F6982504460020ED
:109EF80000F0EEFB001B61F10001A84271F10003C4
:109F080007D203F025F903F018F910B900F09CFE08
:109F1800EDE703F01DF903F010F908490848FFF7C9
:109F2800C1FF084800F052FB064800F0DBFABDE824
:109F380038408021034800F0E7BA00BFB1FA3F0279
:109F480070AE071024AE071070B51426D0E9005380
:109F5800044606FB0356AE4204D0284602F012FF20
:109F68001435F8E7206800F05DFF204670BD38B56D
:109F78000468002000F030FE651C28B12B78DBB2A5
:109F880013B900F061FEF9E7D5E88F3FDBB20BB9F2
:109F9800002038BD002000F01FFE28B12B78DBB26E
:109FA80013B900F051FEF9E72378DBB2012BEFD1AA
:109FB800207BEEE730B5AFB000F07CFB044606AB83
:109FC8005C4805AA04A900F0BBFA09AB029308ABE8
:109FD800019307AB00930499DDE90523554800F088
:109FE80083F9554A1368E31AB3F57A7FC0F0A08065
:109FF800146000210A220EA802F064FF0EA912A81C
:10A0080002F043FF4D4912A802F0ACFF04460A22B1
:10A01800049916A802F056FF204616A902F096FFEA
:10A02800464902F09FFF04460A2205991AA802F041
:10A0380049FF20461AA902F089FF404902F092FF21
:10A0480004460A2206991EA802F03CFF20461EA9D3
:10A0580002F07CFF394902F085FF04469DED070AAE
:10A06800062122A802F041FF204622A902F06EFF35
:10A07800324902F077FF04469DED080A062126A81A
:10A0880002F033FF204626A902F060FF2B4902F0B8
:10A0980069FF04469DED090A06212AA802F025FF5A
:10A0A80020462AA902F052FF01460AA802F0EDFE56
:10A0B8002AA802F067FE26A802F064FE22A802F091
:10A0C80061FE1EA802F05EFE1AA802F05BFE16A84A
:10A0D80002F058FE12A802F055FE0EA802F052FE39
:10A0E800174B00221B780A998DF800302AA83C23C8
:10A0F80001F0AAF82AA8FFF73AFF2B9C05467CB185
:10A108006368013B63605BB9236820469B68984796
:10A11800A368013BA3601BB923682046DB68984706
:10A128001DB908490848FFF7BDFE0AA802F02AFE33
:10A138002FB030BD24AE071020AE0710D0FA3F0272
:10A148001CAE0710D3FA3F0270AE07108842F8B56C
:10A1580004460D46164616D9904215D2A2F11406A9
:10A16800751AA1F114072C44B7421CD02CB1314602
:10A17800204602F070FE337C2374304602F002FE63
:10A18800143E143CF0E70ED0B5420CD02CB1294651
:10A19800204602F060FE2B7C2374284602F0F2FD74
:10A1A80014351434F0E7F8BD00232DE9F041C0E977
:10A1B800003383604F6804469F420E4624DD4FF00B
:10A1C800140808FB07F000F01FFE0546E0B1D4E9CB
:10A1D800001208FB0212FFF7B9FF206800F022FE08
:10A1E8002560A760D6E9007308FB0378B84509D055
:10A1F8003946284602F049FE3B7C143505F8043CF4
:10A208001437F3E7736863602046BDE8F081000007
:10A21800002370B5204A8CB01370CDE90033029347
:10A2280002F096FF1D4C05462646694603A8FFF72F
:10A23800BBFF03A906A8FFF7B7FF194B06A946F805
:10A24800043B09A8FFF7B0FF09AA1E21304602F017
:10A25800E1F809A8FFF778FE06A8FFF775FE114B8D
:10A2680003A823602562FFF76FFE0F4B236002F0FF
:10A278006FFF4FF4165102F059FF01F0AFFD214670
:10A2880001F0A0FF6846FFF75FFE122107480CB0F7
:10A29800BDE8704000F00CB81CAE071028AE0710DF
:10A2A80028FB3F0280FC3F0240FB3F0224AE071020
:10A2B8004180704710B52DED028B10EE104AFFF764
:10A2C80049F841EC180B2046FFF756F8B0EE481A4B
:10A2D800F0EE681ABDEC028BBDE8104041EC100BA3
:10A2E80003F0FEB90000000007EE901A30B52DED1E
:10A2F800048BB8EEE79A07EE902AF8EEE78A08EEA4
:10A30800103A83B00220B0EE680AFFF7D3FFB8EE28
:10A31800C88A55EC104B0220B0EE480AFFF7CAFF76
:10A32800204653EC102B2946FEF7C8FE41EC100BD3
:10A3380003F0A8FA19EE100A8DED000BFFF71CF8D0
:10A348009DED001B41EC100B03F0C8F951EC100B0C
:10A35800FFF73AFBFFF710F837A3D3E90023FFF71D
:10A3680063F8FFF731FB0A9BB0EE490A1860022038
:10A37800FFF7A0FF022055EC104BB0EE480AFFF79C
:10A3880099FF204653EC102B2946FEF797FE41EC27
:10A39800100B03F077FA18EE900A8DED000BFEF71C
:10A3A800EBFF9DED001B41EC100B03F097F951EC0E
:10A3B800100BFFF709FBFEF7DFFF1FA3D3E900230C
:10A3C800FFF732F8FFF700FB0B9BB0EE490A186065
:10A3D8000220FFF76FFF022055EC104BB0EE680A21
:10A3E800FFF768FF204653EC102B2946FEF766FE60
:10A3F80041EC100B03F046FA18EE100A8DED000B35
:10A40800FEF7BAFF9DED000B41EC110B03F066F966
:10A4180051EC100BFFF7D8FAFEF7AEFF06A3D3E90D
:10A428000023FFF701F8FFF7CFFA0C9B186003B081
:10A43800BDEC048B30BD00BFF8C1631ADCA54C40ED
:10A4480013B50A4CD4E88F1F11F001010BD1204637
:10A458000191FFF7F9FC019928B1054802F0FAFBD0
:10A468002046FFF7F6FC024802B010BD4CAE0710BC
:10A4780050AE071007B50190FFF7E2FF019903B04E
:10A488005DF804EB02F018BC70B50E46154604469C
:10A498000021408803F001F80A20FFF7EBFF30465F
:10A4A800FFF7E8FF2846FFF7E5FF60880121BDE8D0
:10A4B800704002F0F2BF38B50D46044600214088CE
:10A4C80002F0EBFF0B20FFF7D5FF2846FFF7D2FF7E
:10A4D8000020FFF7CFFF05460121608802F0DDFF6D
:10A4E800284638BD10B52D210446FFF7E4FF00F0DB
:10A4F800FC0040F002022D212046FFF7C5FFBDE811
:10A5080010400A2000F0FEBC38B50D462C21044648
:10A51800FFF7D1FF402D0FD0802D0FD0012300F081
:10A528003F02237020462A432C21FFF7ADFFBDE8E8
:10A5380038400A2000F0E6BC0223F0E70423EEE7E7
:10A548002DE9F74F04468B464088002191469846EE
:10A5580002F0A3FF0B20FFF78DFF0E20FFF78AFF05
:10A568000020FFF787FF07460020FFF783FF0190D1
:10A578000020FFF77FFF06460020FFF77BFF0090D3
:10A588000020FFF777FF05460020FFF773FF82469C
:10A598000121608802F081FF019A009B07EB0227E6
:10A5A800227806EB032612FB07F7CBF80070237816
:10A5B80005EB0A2513FB06F6C9F80060227812FBA2
:10A5C80005F5C8F8005003B0BDE8F08F10B50121BB
:10A5D8000446408802F050FFFFF732FF02F044FBC8
:10A5E800FFF72EFF002102F053FB4FF4FA7000F042
:10A5F80089FC01232046237052221F21FFF744FFC4
:10A60800BDE810400A2000F07DBC000009B50448F0
:10A618000068044B03441B685B6C029309BD00008F
:10A62800A0AD07103000000009B504480068044BCD
:10A6380003441B689B6C029309BD0000A0AD071082
:10A648003000000009B504480068044B03441B6847
:10A65800DB6C029309BD0000A0AD071030000000BC
:10A6680009B504480068044B03441B685B6D0293FA
:10A6780009BD0000A0AD07103000000009B504486E
:10A688000068044B03441B685B68029309BD000023
:10A69800A0AD07100000000009B504480068044B8D
:10A6A80003441B68DB68029309BD0000A0AD0710D6
:10A6B8000000000009B504480068044B03441B6807
:10A6C8005B69029309BD0000A0AD071000000000FF
:10A6D80009B504480068044B03441B68DB6D02930A
:10A6E80009BD0000A0AD07100000000009B504482E
:10A6F8000068044B03441B689B68029309BD000073
:10A70800A0AD07101400000009B504480068044B08
:10A7180003441B68DB68029309BD0000A0AD071065
:10A728001400000009B504480068044B03441B6882
:10A738001B69029309BD0000A0AD071014000000BA
:10A7480009B504480068044B03441B681B6A02935C
:10A7580009BD0000A0AD07101000000009B50448AD
:10A768000068044B03441B685B6A029309BD000040
:10A77800A0AD07101000000009B504480068044B9C
:10A7880003441B689B6A029309BD0000A0AD071033
:10A798001000000009B504480068044B03441B6816
:10A7A800DB6A029309BD0000A0AD0710100000008D
:10A7B80009B504480068044B03441B681B6B0293EB
:10A7C80009BD0000A0AD07101000000009B504483D
:10A7D8000068044B03441B685B6B029309BD0000CF
:10A7E800A0AD07101000000009B504480068044B2C
:10A7F80003441B681B6C029309BD0000A0AD071041
:10A808001000000009B504480068044B03441B68A5
:10A818005B69029309BD0000A0AD07104C00000061
:10A8280009B504480068044B03441B689B680293FD
:10A8380009BD0000A0AD07105000000009B504488C
:10A848000068044B03441B68DB68029309BD0000E1
:10A85800A0AD07105000000009B504480068044B7B
:10A8680003441B681B68029309BD0000A0AD0710D4
:10A878001800000009B504480068044B03441B682D
:10A88800DB68029309BD0000A0AD071018000000A6
:10A8980009B504480068044B03441B685B690293CC
:10A8A80009BD0000A0AD07101800000009B5044854
:10A8B8000068044B03441B68DB69029309BD000070
:10A8C800A0AD07101800000009B504480068044B43
:10A8D80003441B681B6A029309BD0000A0AD071062
:10A8E8001800000009B504480068044B03441B68BD
:10A8F8001B6C029309BD0000A0AD071018000000F2
:10A9080009B504480068044B03441B685B6C029358
:10A9180009BD0000A0AD07101800000009B50448E3
:10A928000068044B03441B689B68029309BD000040
:10A93800A0AD07102400000009B504480068044BC6
:10A9480003441B68DB68029309BD0000A0AD071033
:10A958002400000009B504480068044B03441B6840
:10A968001B69029309BD0000A0AD07102400000078
:10A9780009B504480068044B03441B685B690293EB
:10A9880009BD0000A0AD07102400000009B5044867
:10A998000068044B03441B689B69029309BD0000CF
:10A9A800A0AD07102400000009B504480068044B56
:10A9B80003441B68DB69029309BD0000A0AD0710C2
:10A9C8002400000009B504480068044B03441B68D0
:10A9D8001B6A029309BD0000A0AD07102400000007
:10A9E80009B504480068044B03441B689B6A02933A
:10A9F80009BD0000A0AD07102400000009B50448F7
:10AA08000068044B03441B68DB6A029309BD00001D
:10AA1800A0AD07102400000009B504480068044BE5
:10AA280003441B681B6C029309BD0000A0AD07100E
:10AA38002400000009B504480068044B03441B685F
:10AA48001B68029309BD0000A0AD07103400000088
:10AA580009B504480068044B03441B685B6802930B
:10AA680009BD0000A0AD07103400000009B5044876
:10AA78000068044B03441B689B68029309BD0000EF
:10AA8800A0AD07103400000009B504480068044B65
:10AA980003441B681B69029309BD0000A0AD0710A1
:10AAA8003400000009B504480068044B03441B68DF
:10AAB8005B69029309BD0000A0AD071034000000D7
:10AAC80009B504480068044B03441B689B6902935A
:10AAD80009BD0000A0AD07103400000009B5044806
:10AAE8000068044B03441B68DB69029309BD00003E
:10AAF800A0AD07103400000009B504480068044BF5
:10AB080003441B681B6A029309BD0000A0AD07102F
:10AB18003400000009B504480068044B03441B686E
:10AB28009B6A029309BD0000A0AD07103400000025
:10AB380009B504480068044B03441B685B6B029327
:10AB480009BD0000A0AD07104800000009B5044881
:10AB58000068044B03441B685B6D029309BD000049
:10AB6800A0AD07104800000009B504480068044B70
:10AB780003441B68DB6E029309BD0000A0AD0710FB
:10AB88004800000009B504480068044B03441B68EA
:10AB98001B6F029309BD0000A0AD0710480000001C
:10ABA80009B504480068044B03441B685B680293BA
:10ABB80009BD0000A0AD07100800000009B5044851
:10ABC8000068044B03441B685B69029309BD0000DD
:10ABD800A0AD07100800000009B504480068044B40
:10ABE80003441B68DB6C029309BD0000A0AD07108D
:10ABF8000800000009B504480068044B03441B68BA
:10AC08005B6D029309BD0000A0AD071008000000AD
:10AC180009B504480068044B03441B68D3F888301E
:10AC2800029309BDA0AD07100800000009B504484B
:10AC38000068044B03441B68D3F89430029309BDA1
:10AC4800A0AD07100800000009B504480068044BCF
:10AC580003441B689B68029309BD0000A0AD071060
:10AC68002C00000009B504480068044B03441B6825
:10AC78005B69029309BD0000A0AD07102C0000001D
:10AC880009B504480068044B03441B681B6A029317
:10AC980009BD0000A0AD07102C00000009B504484C
:10ACA8000068044B03441B68DB6B029309BD00007A
:10ACB800A0AD07102C00000009B504480068044B3B
:10ACC80003441B685B68029309BD0000A0AD071030
:10ACD8002800000009B504480068044B03441B68B9
:10ACE8009B68029309BD0000A0AD07102800000072
:10ACF80009B504480068044B03441B68DB680293E9
:10AD080009BD0000A0AD07102800000009B50448DF
:10AD18000068044B03441B681B69029309BD0000CB
:10AD2800A0AD07102800000009B504480068044BCE
:10AD380003441B685B69029309BD0000A0AD0710BE
:10AD48002800000009B504480068044B03441B6848
:10AD58009B69029309BD0000A0AD07102800000000
:10AD680009B504480068044B03441B68DB69029377
:10AD780009BD0000A0AD07102800000009B504486F
:10AD88000068044B03441B681B6A029309BD00005A
:10AD9800A0AD07102800000009B504480068044B5E
:10ADA80003441B681B6B029309BD0000A0AD07108C
:10ADB8002800000009B504480068044B03441B68D8
:10ADC8005B6B029309BD0000A0AD071028000000CE
:10ADD80009B504480068044B03441B681B6C0293C4
:10ADE80009BD0000A0AD07102800000009B50448FF
:10ADF8000068044B03441B685B6C029309BD0000A8
:10AE0800A0AD07102800000009B504480068044BED
:10AE180003441B681B68029309BD0000A0AD07101E
:10AE28000400000009B504480068044B03441B688B
:10AE38005B68029309BD0000A0AD07100400000084
:10AE480009B504480068044B03441B689B680293D7
:10AE580009BD0000A0AD07100400000009B50448B2
:10AE68000068044B03441B685B6A029309BD000039
:10AE7800A0AD07100400000009B504480068044BA1
:10AE880003441B68DB6A029309BD0000A0AD0710EC
:10AE98000400000009B504480068044B03441B681B
:10AEA8001B6B029309BD0000A0AD07100400000051
:10AEB80009B504480068044B03441B68DB6B029324
:10AEC80009BD0000A0AD07100400000009B5044842
:10AED8000068044B03441B681B6C029309BD000007
:10AEE800A0AD07100400000009B504480068044B31
:10AEF80003441B685B6C029309BD0000A0AD0710FA
:10AF0800040000000021FFF759BE38B50468054663
:10AF18007CB16368013B63605BB9236820469B682A
:10AF28009847A368013BA3601BB923682046DB68E8
:10AF38009847284638BD10B5836804460BB902F017
:10AF4800C9FBC3689847A3681BB103222146204662
:10AF580098472046BDE810401021FEF766BF10B59F
:10AF68008368044613B1032201469847204610BD62
:10AF780010B543680446013B436063B903689B68A6
:10AF88009847A368013BA3602BB923682046BDE816
:10AF98001040DB68184710BD70B50446D0E900536F
:10AFA80005EB0316AE4204D0284601F0EBFE10353F
:10AFB800F8E72068FFF736FF204670BD13B56C46EA
:10AFC8000B460246D0E9000184E8030093E8030039
:10AFD80082E8030094E8030083E8030002B010BD90
:10AFE800002302480360FFF711BB00BF58AE0710EB
:10AFF80070470020704710B504461021FEF715FF72
:10B00800204610BD08B5FFF7F6FF08BD002230B591
:10B018004FF69C74026084808D888C800C688580D3
:10B0280004600A6030BD10B504460068FFF7FAFEF8
:10B03800204610BD38B5C46814B32378DBB2022BA0
:10B0480003D104F10C00FFF7EEFF231D1D6835B195
:10B058002846FFF784FF10212846FEF7E6FE04F194
:10B0680008031D6835B12846FFF779FF10212846E7
:10B07800FEF7DBFE2046BDE838401421FEF7D5BEBA
:10B0880038BD0B6803604B68436013B15A680132DE
:10B098005A60704737B5044668460D46FFF7F1FF1A
:10B0A800009B019A23600023626001A8019300932A
:10B0B800FFF72BFF35B1281DFFF727FF082128468A
:10B0C800FEF7B3FE204603B030BD826810B50AB95A
:10B0D80002F000FBC368BDE81040184708B50068D7
:10B0E80000F11001FFF7F1FF08BD826810B50AB939
:10B0F80002F0F0FAC368BDE81040184708B50068C8
:10B1080000F11001FFF7F1FF08BD000038B500237A
:10B118000446036010200D46FEF783FE28B1012384
:10B12800C0E90133024BC56003602060204638BD8A
:10B1380058FB3F0238B5002383608B6804460D46F0
:10B148002BB102229847EB68E360AB68A360204606
:10B1580038BD0000F0B589B004686846FFF756FFAF
:10B168004FF00203D4E84F2F002A03D1C4E8413F2F
:10B178000029F7D121D104F10C0569462846FFF7CB
:10B1880045FF0122631CC3E88F2F002004F1080348
:10B19800D3E8EF6FC3E8E20F002AF9D16EB1FFF7E9
:10B1A8001BFD78B129463046FFF78FFF3046FFF781
:10B1B800D6FE10213046FEF738FE6846FFF733FF0B
:10B1C80009B0F0BD314602A8FFF7B4FFE068B4F952
:10B1D800105008B103F03CFE06901020ADF81C504A
:10B1E800FEF71FFE0546E8B1002787601820FEF726
:10B1F80018FE044688B10146876002A8FFF7DEFE04
:10B20800049BA268A360059B0492E26806A9E36018
:10B2180004F110000592FFF7F9FE084B2C60EB6073
:10B22800074BAB6006A8FFF7FEFE02A8FFF797FEE4
:10B23800002229460348FFF7DDFCB7E7A5BA3F021D
:10B2480021BD3F02FFB83F022DE9F04F8BB0054604
:10B258000F46904699469DF850A0FFF703FD07AEAC
:10B26800834638BB4FF62E73059005A93046ADF8D6
:10B278001830FFF7CBFE1420FEF7D3FD044648B183
:10B28800022303700123C0E901BB437031460C302F
:10B29800FFF7BCFE2846214640F8044BFFF736FF6F
:10B2A8003046FFF7C0FE05A8FFF7BDFE28460BB0E5
:10B2B800BDE8F08F0C2300241420CDE9084407933F
:10B2C800FEF7AFFD014618B1C0E9014404704470AF
:10B2D80004A80391FFF71AFF1E4B08200893FEF7F6
:10B2E800A0FD044610B103A9FFF7CBFE4A4641462C
:10B2F800384600965FFA8AF30994FFF7C1FCB8B99B
:10B30800039B01331B78DBB293B905934FF69C730B
:10B3180005A903A8ADF81830FFF71CFF05A8FFF72B
:10B3280082FE05A80999FFF7B5FE06A8FFF7EDFD0F
:10B3380003A905A8FFF7A5FE059B069A2B60002325
:10B348006A6006A806930593FFF7DFFD04A8FFF7D8
:10B35800DCFDABE79DBD3F02012AF8B5054603D1E8
:10B368000B6803600020F8BD022A10D0032AF9D127
:10B378000468002CF6D004F11000FFF754FE2046B4
:10B38800FFF7EDFD18212046FEF74FFDEAE71820EC
:10B398000E68FEF746FD044650B13146FFF7CAFE77
:10B3A8003069B6F9147008B103F052FD2061A78224
:10B3B8002C60D7E738B5002383608B6804460D46B8
:10B3C8002BB102229847EB68E360AB68A360204684
:10B3D80038BD0000F0B5044689B00D4601A81146F5
:10B3E800FFF758FEA4B124B21DB1284603F030FD82
:10B3F800054601A803A90395ADF81040FFF7AAFE7A
:10B4080003A8FFF710FE02A8FFF77FFD09B0F0BD03
:10B418000123019DD5E84F2F002A03D1C5E8413FFC
:10B428000029F7D1EFD12B730122EB18C3E88F2F36
:10B438002B1DD3E8EF6FC3E8E24F002AF9D1002EA5
:10B44800E1D02046FFF7C8FB074660B1304605F15A
:10B458000C01FFF74AFE3046FFF781FD1021304608
:10B46800FEF7E3FCCFE7314603A8FFF7A3FF2B7BEA
:10B4780010208DF81C30FEF7D4FC0546D0B187604B
:10B488001420FEF7CEFC044678B10146876003A875
:10B49800FFF794FD059BA268A360069B0592E268EE
:10B4A800E3609DF81C3006922374074B2C60EB6018
:10B4B800064BAB6003A8FFF752FD0022294604485B
:10B4C800FFF798FBC7E700BFC5BA3F029DBE3F0222
:10B4D800FFB83F02012A70B5044603D10B68036028
:10B4E800002070BD022A0CD0032AF9D10468002C70
:10B4F800F6D02046FFF733FD14212046FEF795FCD1
:10B50800EEE714200E68FEF78CFC054620B13146A4
:10B51800FFF750FF337C2B742560E1E70022406879
:10B528001146FFF72BBC002240681146FFF742BCCA
:10B5380000224068FFF730BC0022406881F001011A
:10B54800FFF70EBC002340681A461946FFF7FABBFE
:10B55800002340681A461946FFF7E6BB00224068F8
:10B568001146FFF7D3BB002240681146FFF7B2BB74
:10B57800002202214068FFF7BBBB002340681A463F
:10B58800FFF79ABB0322024B5A60024A1A607047BF
:10B598005CAE071074FB3F027047F8B506461546C7
:10B5A8000C468F18BC4206D0336830469B6814F8A6
:10B5B800011B9847F6E72846F8BD0022007CFFF7F4
:10B5C800BFB80021007CFFF7C9B80021007CFFF755
:10B5D800D3B80021007CFFF7DDB80021007CFFF71D
:10B5E800E7B810B504461421FEF71FFC204610BD2D
:10B5F80038B5044615464FF47A730022C4E901238E
:10B60800094B0846217423602946FFF7EDF8BF303F
:10B6180008D16B69DB0705D56868FFF703FCE868A4
:10B62800FFF700FC204638BDB0FB3F02704710B55D
:10B6380004461821FEF7F9FB204610BDF0B5037D3E
:10B648000E46062B4FF000048DB000F1040712D00F
:10B6580000F1080515F8011D0A22304601F0CFFA5D
:10B66800AF42044419D0002CF4D02E21304601F00A
:10B67800C3FA0444EEE72F236A4639460A208DF8B8
:10B688000040FFF7BFF86846FEF7A6FB336802469E
:10B6980069463046DB689847044620460DB0F0BD41
:10B6A80010B50446044B1122002140F8043B03F076
:10B6B80078FB204610BD00BFD8FB3F020346074A6F
:10B6C80010B543F8042B01F1100251F8044B9142D4
:10B6D80043F8044BF9D10A781A7010BDD8FB3F0221
:10B6E80010B59DF8084044EA032343EA02420423C4
:10B6F80042EA01614160037510BD000007B5064BC1
:10B708000360CB7800938B784A780978FFF7E8FFD5
:10B7180003B05DF804FB00BFD8FB3F02012200F133
:10B72800100313F8101C1846012908D153F8041CFB
:10B7380002EB4102013A03F11003F2D170470229EA
:10B7480004BF53F8041C5218F4E70EB4F0B588B0DF
:10B75800102100AF07F1340555F8042B04462B4699
:10B7680078187A60FD60FFF779FB0F287A681AD994
:10B7780000F1080323F007036E46ADEB030D411CEF
:10B788002B466846FD60FFF769FB021E04DD23684F
:10B79800694620469B689847B5462037BD46BDE8B0
:10B7A800F04003B070470028F7D0236802469B6832
:10B7B800204607F110019847EFE738B50B680446B3
:10B7C80003604D6843689D4208D015B16B6801332A
:10B7D8006B60606808B1FFF7CBFB656038BD07B5E3
:10B7E80003688DF8071001229B680DF1070198473F
:10B7F80003B05DF804FB0B461146002210B5044661
:10B80800C0E9002283600BB9204610BDFFF7D5FFC1
:10B81800FAE78368EBB11A78032A1AD8DFE802F04E
:10B828000417021B0520704702685B685268D05CE9
:10B838002D2812D0A0F13003092B0ED974280ED070
:10B8480066280CD0A0F16E03584258417047062074
:10B85800704700207047042070470320704702207B
:10B86800704710B50446FFF7D4FF02280ED0C31E58
:10B87800DBB2012B14D82268A36850685B680A22DF
:10B88800BDE810400021184403F0AABB2268A36851
:10B8980052685B68D05CA0F174035842584110BDEF
:10B8A8000020FCE738B500230446C0E900330E4801
:10B8B800C4E90203A9B10B78032B06D08BB913682E
:10B8C80058684B68C35C6E2B07D013684D6858687E
:10B8D8008B6828445B1BA060E36011462046FFF795
:10B8E8006CFF204638BD00BF47FC3F0238B5002535
:10B8F8000B4604461146C0E90055C0E90255C0E9A7
:10B9080004554BB11A78012A06D103F11002DB68FD
:10B9180082604361FFF751FF204638BD10B5436987
:10B92800044663B18068013BE0601030A06020618C
:10B93800636113B1FFF7F2FEA060012000E0184632
:10B9480010BD10B57D210446FFF749FF01232046AD
:10B95800237110BD08B50379012B02D0022B04D046
:10B9680008BD2C21FFF73BFFFAE73A21FAE710B5AB
:10B978000446FFF7EFFF20467B21FFF730FF002347
:10B988002046237110BD000013B504460191FFF74E
:10B99800E1FF23682046DB68019A034998470123A1
:10B9A8002046237102B010BDE4FB3F0213B50446E4
:10B9B8000191FFF7CFFF23682046DB68019A03490E
:10B9C800984701232046237102B010BDE7FB3F02D0
:10B9D8002DE9F0470D469046222104462F46FFF7F1
:10B9E800FEFEDFF8A490A8444745BA463DD017F8B4
:10B9F800016B222E06D05C2E04D0304603F0A2F94B
:10BA08000028F1D12368294620469B68AAEB050245
:10BA180098475C212046FFF7E2FE0D2E0AD8072E34
:10BA28001CD9A6F10803052B18D8DFE803F00D0F81
:10BA380011171315222E01D05C2E0FD13146204646
:10BA4800FFF7CDFE3D46CFE76221F8E77421F6E720
:10BA58006E21F4E76621F2E77221F0E723683246A7
:10BA680049462046DB689847ECE7BD4205D0236885
:10BA7800294620469B687A1B984722212046FFF7D3
:10BA8800AEFEBDE8F08700BFEAFB3F0213B50446EF
:10BA9800CDE90021FFF75EFFDDE900212046FFF731
:10BAA80097FF02232046237102B010BD13B5044648
:10BAB800CDE90021FFF74EFFDDE900212046FFF721
:10BAC80087FF01232046237102B010BD80680368F8
:10BAD800DB6818477047084611B10B685B68184760
:10BAE8007047704770477047704738B504460D4631
:10BAF80000682E2103F099F92368C31A2B6023B13B
:10BB0800037803B1013023682060184638BD10B5AA
:10BB180004460C21FEF789F9204610BD10B50446ED
:10BB28000421FEF782F9204610BD10B50446042111
:10BB3800FEF77BF9204610BDFEF784BD08B5FEF779
:10BB480041F9B0FA80F0400908BD704710B50C46BD
:10BB580001F0FEFA844205D101F0FAFABDE810407E
:10BB680001F0E8BA01F022FD844205D101F01EFD82
:10BB7800BDE8104001F081BA2CB123682046BDE829
:10BB880010405B68184710BD0B6803604B68436042
:10BB980013B15A6801325A60704713B50446084613
:10BBA8000191FEF719F902462046019902B0BDE855
:10BBB8001040FFF77BBF13B5044608460191FEF716
:10BBC8000BF90246204623680199DB6802B0BDE8FC
:10BBD8001040184707B503688DF807100122DB6885
:10BBE8000DF10701984703B05DF804FB0A6810B52A
:10BBF80002604A6842600022C0E9022202618C6841
:10BC08008A608460CC68CA60C4600C690A61046197
:10BC180010BD00002DE9F74F4FF0140AD0E9008459
:10BC2800174645460AFB04F40093174BA4105C43DF
:10BC3800002C21DD66100AFB06F005EB0009B9F8B7
:10BC480004B03A465F4528BF5A462858019103F088
:10BC58001CF900284FF0010301990BD15F4503D16E
:10BC6800009A13703446E3E7FCD9A61B09F11405C2
:10BC7800013EF7E7F9DBF5E7A5EB08050248AD104B
:10BC8800684303B0BDE8F08FCDCCCCCC7FB5036959
:10BC9800057E019103B3F9B1002600F10C04039667
:10BCA80003A901A8FFF721FF0146A8B10DF10B0375
:10BCB8002046039A8DF80B60FFF7ACFF9DF80B3018
:10BCC80053B12368142404FB0034B4F90630083453
:10BCD800002BA8BFDDB2E3E7284604B070BD0EB460
:10BCE800F0B58CB000AF07F1440555F8042B0446B5
:10BCF8002B46202107F110007A60FD60FFF7AEF8AF
:10BD08001F287A681AD900F1080323F007036E4642
:10BD1800ADEB030D411C2B466846FD60FFF79EF80E
:10BD2800021E04DD236869462046DB689847B5464D
:10BD38003037BD46BDE8F04003B070470028F7D063
:10BD480023680246DB68204607F110019847EFE7B1
:10BD580010B5084CD4E88F3FDB0709D42046FEF71E
:10BD680073F828B12046FEF774F8034802F0E4FFA0
:10BD7800024810BD68AE0710ABC43F02A4AD07105F
:10BD880010B5084CD4E88F3FDB0709D42046FEF7EE
:10BD98005BF828B12046FEF75CF8034802F0CCFFB8
:10BDA800024810BD6CAE071013C53F02A8AD0710BE
:10BDB80038B500250446C0E90055C0E9045585603A
:10BDC800856140F8245FFEF721FCFFF7C1FFE061C1
:10BDD800FFF7D6FF25732062204638BD10B50A4C00
:10BDE800D4E88F3FDB070CD42046FEF72DF840B18E
:10BDF8000648FFF7DDFF2046FEF72BF8044802F05F
:10BE08009BFF024810BD00BF64AE071074AE071058
:10BE1800F5CC3F020023024A02490348FEF7B2BEAE
:10BE2800DDCA3F0269CA3F02E9C93F0200231A4638
:10BE380019461846FEF7A6BE37B504468D6868460B
:10BE4800FFF7A2FE6A4629462046FFF74FFD01A8E4
:10BE5800FFF75BF8204603B030BD37B50446CD6820
:10BE68006846FFF791FE6A4629462046FFF71AFD05
:10BE780001A8FFF74AF8204603B030BD37B504469D
:10BE88000D696846FFF780FE6A4629462046FFF797
:10BE9800B2FC01A8FFF739F8204603B030BD000016
:10BEA80070B58AB00D46014604A8FFF7C5FF144EC9
:10BEB80004A8FFF733FDE8B1684604A9FFF7CDFFF2
:10BEC80031460298FFF73AFE044610B12C1E18BFFF
:10BED800012401A8FFF719F8002CE9D0684604A945
:10BEE800FFF7CCFF6846FFF7BCFC286001A8FFF706
:10BEF8000CF8DDE705A8FFF708F80AB070BD00BF29
:10BF0800F0FB3F0237B50C46134920461546FDF7AE
:10BF180059FF50B901F01CF94FF4165101F006F918
:10BF280003B0BDE8304001F013B920460B49FDF7D6
:10BF380049FF78B94FF4165301A928460193FFF732
:10BF4800AFFF01F033FB019901F094F801F02EFBEB
:10BF580003B030BD0020FBE7F5FB3F02FCFB3F02CE
:10BF680070B51426D0E90053044606FB0356AE42CA
:10BF780005D005F10800FFF7F3FF1435F7E720684F
:10BF8800FEF750FF204670BD10B504460C30FFF791
:10BF9800E7FF2046FFF700F8204610BD10B504461D
:10BFA800034B40F8043BFFF7EFFF204610BD00BFEE
:10BFB80028FB3F0210B50446FFF7F0FF2046242176
:10BFC800FDF733FF204610BD10B50446024B036051
:10BFD800FFF7E4FF204610BD98FC3F0210B5044669
:10BFE800FFF7F2FF20462421FDF71FFF204610BD72
:10BFF8000022C0E90022826010B50C680A60046063
:10C008004C684A6044608C688A60846010BD10B5D2
:10C01800044603681868FEF723FB204610BD00009D
:10C028002DE9F04F87B003931C4B80465B68894627
:10C03800C3F3080316466BB9FFF7D0FE044600F1B8
:10C048002403406A0593FFF777FD237B2BB105A8EE
:10C05800FFF7DDFF07B0BDE8F08F01235FFA89F92C
:10C068002373D4E9005305EB830AAA4512D055F887
:10C07800047B3146381DFFF709FE8145F5D3039A45
:10C088003B680092D3F808B04A46334641463846E2
:10C09800D847EAE700232373D9E700BF00ED00E0A3
:10C0A8002DE9F74F9B461A4B80465B688946C3F3D8
:10C0B800080316466BB9FFF791FE044600F1240306
:10C0C800406A0193FFF738FD237B2BB101A8FFF7E6
:10C0D8009EFF03B0BDE8F08F0123F6B22373D4E9C5
:10C0E800005305EB830A55450ED055F8047B594695
:10C0F800381DFFF7CBFD8642F5D33B684A464146DB
:10C108003846DB689847EEE700232373DEE700BF75
:10C1180000ED00E02DE9F341164B05465B680F463C
:10C12800C3F308031BBBFFF759FE044600F12403C1
:10C13800406A0193FFF700FDD4E90063462406EB4B
:10C148008308B04509D101A8FFF761FFA542B4BF34
:10C158000020012002B0BDE8F08156F8040B3946F2
:10C168000430FFF793FD8442A8BF0446E9E70020A6
:10C17800F0E700BF00ED00E0F8B5D0E901539D42BB
:10C1880004460E460DDB6F1C002F006804DDB90065
:10C19800FEF756FE18B9F8BDFEF744FE00202060F1
:10C1A800A7602768626807EB85019200A2EB850209
:10C1B800081D02F0DCFD47F82560636801200133A3
:10C1C8006360E8E737B5044600F12403406A019349
:10C1D8000D46FFF7B1FCD4E9003203EB820293422B
:10C1E80019460AD009680433A942F8D101A8FFF713
:10C1F8000EFF0025284603B030BD29462046FFF72C
:10C20800BBFF05460028F1D06368012B01D1FFF779
:10C2180001FE01A8FFF7FBFEECE70B4670B50446EC
:10C22800D0E9000200EB820282420FD001461D686D
:10C2380051F8046BAE4207D1521A02F098FD012062
:10C248006368013B636070BD0846EDE70020FAE7CC
:10C258001FB5044600F12403406A01910393FFF7D8
:10C268006BFC204601A9FFF7D8FF18B163680BB92A
:10C27800FFF7DCFD03A8FFF7CAFE04B010BD1823C2
:10C2880070B50446D0E9045603FB0656AE4215D0F5
:10C29800204605F11001FFF7C0FF63680BB9FFF7EF
:10C2A800C5FDE06929690368DB689847696919B1C0
:10C2B800206A0368DB6898471835E7E71826D4E949
:10C2C800045306FB0356AE4204D0284600F05AFD3C
:10C2D8001835F8E70023636170BD73B50446FFF7AE
:10C2E800A5FD04F12403606A0193FFF725FC2046AD
:10C2F800FFF7C5FF01A8FFF78AFE606A08B1FEF7DD
:10C3080093F9D4E90453182606FB0356AE4204D029
:10C31800284600F037FD1835F8E72069FEF782FD5A
:10C328002068FEF77FFD204602B070BD0148FFF788
:10C33800D4BF00BF74AE07108842F8B504460D4656
:10C34800164615D9904214D2A2F11406751AA1F115
:10C3580014072C44B7421AD01CB131462046FFF7C7
:10C3680045FC06F10800FFF7FBFD143E143CF1E71D
:10C378000DD0B5420BD01CB129462046FFF736FC3C
:10C3880005F10800FFF7ECFD14351434F1E7F8BDAA
:10C398008842F8B504460D46164614D9904213D281
:10C3A800A2F11006751AA1F110072C44B74218D053
:10C3B8001CB13146204600F04EFD304600F0E2FC4C
:10C3C800103E103CF2E70CD0B5420AD01CB1294609
:10C3D800204600F040FD284600F0D4FC103510340B
:10C3E800F2E7F8BD70B50E1E054611DD3001FEF707
:10C3F8000BFD044658B1D5E9001201EB0212FFF714
:10C40800C7FF2868FEF70EFD01202C60AE6070BDE6
:10C418000024F6E72DE9F04F90460023462295B018
:10C428000391D8F8041004469942C0E90033C0E9E2
:10C438000233C0E90433CDE9083302760A9323DCDA
:10C44800D8E90057142303FB0757AF423BD02946CE
:10C458000BA800F000FD0BA90FA8099E00F0FBFC3B
:10C46800DDE9091399421BDA089B099A03EB0616C2
:10C47800314603EB021206F11000FFF789FFEEB90F
:10C48800099B0133099311E008A8FFF7ABFF0028C7
:10C49800D6D108A8FEF780FD204615B0BDE8F08F7C
:10C4A800013108A8FFF79EFF0028DDD10FA800F092
:10C4B80069FC0BA800F066FC1435C6E730460FA9E6
:10C4C80000F0C9FCDCE700264FF01409CDE90B6643
:10C4D8000D96DDE908239E427CDA3301D358069392
:10C4E8000BB90136F5E70023079309FB06F30BADFB
:10C4F800029307A906A8FFF7F8FA82460028F0D0A9
:10C508004FF0000301468DF817302846079A0DF1C1
:10C518001703FFF77FFB9DF817700190002F4AD192
:10C52800BDF81C30CDE91177ADF840304FF6FF73F8
:10C53800CDF83CA0ADF842301397D5E901329342CB
:10C5480017DB03F1010ABAF1000F30DD09FB0AF02D
:10C55800FEF75AFC834660B3D5E9001209FB0212C4
:10C56800FFF7EAFE2868FEF75DFCC5F800B0C5F8DD
:10C5780008A02B68019A09FB023A6A68514609FB30
:10C5880002320AF11400FFF7D7FEBAF1000F03D008
:10C5980050460FA9FFF72AFB6B6801336B6011A89F
:10C5A800FFF7DEFC3FB10BA8FFF7DAFC71E7BB46EB
:10C5B800D8E70127F3E7019B2D6809FB0355069B84
:10C5C8001B782BB9D8F80030029A13441B7CEB80F7
:10C5D80008358EE72168226062686360A368099263
:10C5E8000A9A0A93E368A2600B9A0B932369E260A4
:10C5F8000C9A0C93636922610D9A0D93039B089121
:10C6080062612376CFE70000F0B504462646174658
:10C6180087B00D4668461946FDF7C6FD0B4B6946BF
:10C6280046F8043B03A8FDF7BFFD394603AA304688
:10C63800FFF7F0FE03A8FDF787FC6846FDF784FCCA
:10C648002046034B2562236007B0F0BD28FB3F025C
:10C6580080FC3F02F0B50F4685B038461C491646A7
:10C668001D460A9CFDF7AEFBC0B9A4B1294601A836
:10C67800FFF7BEFC2420174901F028F8054630B121
:10C6880001AB32462146FFF7BFFF134B2B6001A8D1
:10C69800FDF75AFC2C46204605B0F0BD38460F4938
:10C6A800FDF790FB90B9002CF5D0294601A8FFF7BB
:10C6B8009FFC2420074901F009F805460028E6D028
:10C6C8003246214601ABFFF79FFFE0E70024E2E78F
:10C6D80004FC3F02CCFD3F0298FC3F0208FC3F02ED
:10C6E800014B024A1A60704770AE071019FC3F02EE
:10C6F8002DE9F047089DD0F8209004460E461746CD
:10C70800984600F025FD81454DD02B79190704D5B1
:10C7180020466A695449FFF7E2FAB8F1000F0DD0D4
:10C728005B212046FFF756FA41462046FFF743FAB9
:10C73800236802222046DB684C4998472B79DA07A0
:10C7480024D5D5F808802F21404602F0B2FB08B165
:10C7580000F1010841462046FFF72DFA2B799B0787
:10C7680008D53A212046FFF735FA2046EA684049BD
:10C77800FFF7B5FA2A79236812F0040F20464FF024
:10C788000202DB6814BF3B493B4998472B7958079D
:10C798001DD529690B461A4613F8010B60B12028EC
:10C7A80008D11946F7E7354800F083F90028ACD0DE
:10C7B800BDE8F0872828EED12368521A2046DB68A6
:10C7C8009847236804222046DB682D4998470021B2
:10C7D8003846FEF7C9F901462046FFF7ECF9236809
:10C7E80002222046DB68244998471EB1314620467C
:10C7F800FFF7E1F92B7913F0300F2CD0236821498A
:10C80800DB680222204698472B79D9060AD5236887
:10C81800072220461C49DB6898472046AA691B491D
:10C82800FFF75DFA2B799A0611D5DB0605D5236843
:10C8380002222046DB680F4998472368204614499E
:10C848000A22DB6898472046E969FFF7B4F95D21B9
:10C858002046FFF7BFF923682046BDE8F0470222CB
:10C86800DB680C49184700BF1DFC3F0224FC3F024F
:10C87800E4FB3F02D0FA3F0229FC3F029CAE0710BE
:10C8880027FC3F022CFC3F022FFC3F0237FC3F02F3
:10C898003AFC3F0245FC3F022DE9F0410446076A95
:10C8A8000D46164600F054FC874207D0206A3246EF
:10C8B80003682946BDE8F041DB681847034800F0E3
:10C8C800F8F80028F2D0BDE8F08100BF9CAE071050
:10C8D8002DE9F04385B0D0F8209005460F469046E4
:10C8E8001E460C9C00F034FC814505D1494800F0F7
:10C8F800E0F8002840F08A804FF000092B6A464A89
:10C9080001A8019203938DF80890FFF730F8494683
:10C918004046FEF729F980464049012201A8FFF761
:10C92800B5F84146FFF739F93FB13D49012201A861
:10C93800FFF7ACF83946FFF730F93EB13949012223
:10C9480001A8FFF7A3F83146FFF727F92379DF0796
:10C958000ED5A6682F21304602F0ABFA00B1461C6E
:10C968003149012201A8FFF791F83146FFF715F97F
:10C9780023799E0707D52D49022201A8FFF786F8DB
:10C98800E168FFF701F82379580714D5266933467B
:10C998001F4613F8012B2AB1202A01D11E46F7E7BA
:10C9A800282AF5D10222224901A8FFF76FF831465B
:10C9B800BA1BFFF77BF82379190707D51D49012210
:10C9C80001A8FFF763F86169FEF7F0FF2379DA063B
:10C9D80008D5042218490DEB0200FFF757F8A169A2
:10C9E800FEF7D2FF23799B0607D51449062201A832
:10C9F800FFF74CF8E169FFF7D0F801A8FEF7A1FFAF
:10CA0800286A022203680E49DB68984705B0BDE82A
:10CA1800F08300BF9CAE071068FC3F02FAFB3F02A0
:10CA280048FC3F02C6FE3F024AFC3F024CFC3F0264
:10CA38004FFC3F0252FC3F0254FC3F0259FC3F02AC
:10CA480045FC3F02002340681A46FEF735B900222C
:10CA580002214068FEF74CB9002240681146FEF7F3
:10CA680039B9002240681146FEF750B900234068E2
:10CA78001A461946FEF758B9002340681A4619465F
:10CA8800FEF760B900214068FEF7A2B900214068AE
:10CA9800FEF7ACB90022406881F00101FEF760B9E9
:10CAA80000224068FEF778B9002240681146FEF778
:10CAB80081B9002240681146FEF760B92DE9F043BC
:10CAC80095B014460D460746FEF7EAFD00211C22E4
:10CAD8000DA8009102F065F9402320460C9300212F
:10CAE8006B460CAAFDF7AAFE044600284BD1024665
:10CAF80001216868FEF70AF9022180462246686823
:10CB0800FEF704F921468146009E002E3BD00029FD
:10CB180039D17368022B03D00A2B11D0F669F4E7D8
:10CB2800B8F1000FFAD0716906A804313C1D07ADB1
:10CB3800FEF7E4FD0FCD0FC42B6841462370EDE7E7
:10CB4800B9F1000FEAD0102201A8746902F029F99E
:10CB5800062301AD8DF8143004F1080318342A4671
:10CB680018685968083303C2A3421546F7D101A9CA
:10CB780006A83C1D07ADFEF7A1FD0FCD0FC42B681D
:10CB880049462370CAE70098FDF74AFE384615B0B3
:10CB9800BDE8F083024B034A1A6000225A607047CE
:10CBA8009CAE0710E0FC3F02F8B506460D4600248F
:10CBB8008F18BD420CD0336830469B6815F8011BAE
:10CBC8009847031E01DB1C44F3E7002C08BF1C46F2
:10CBD8002046F8BD13B50446084659B10191FDF742
:10CBE800FBF80246204623680199DB6802B0BDE8DD
:10CBF8001040184702B010BD03689B68184700230F
:10CC0800012A98BF0A2230B58BB08DF8243009ACC0
:10CC18000D46B1FBF2F101FB125303F0FF03092BA0
:10CC280094BF30333733DBB2AA4204F8013DEFD961
:10CC38002146FFF7CFFF0BB030BD00000022014BAB
:10CC48009A607047A4AE07100021FDF759BE002175
:10CC5800FDF748BE10B5044608462170FDF726FECC
:10CC680000232046636010BD13B504460078FFF723
:10CC7800EEFF58B920784FF6FF710190FDF7ECFDF3
:10CC8800019802B0BDE81040FFF7DEBF02B010BD4A
:10CC980013B5044600780191FFF7D9FF019948B907
:10CCA80020780190FDF7E6FD019802B0BDE810403C
:10CCB800FFF7CABF02B010BD08B50078FDF7E8FD60
:10CCC800C0B208BD2DE9F14F57EC106B80460C46F9
:10CCD8000022002310EE100A3946FCF717FE28B18F
:10CCE80007F100431F462D2304F8013B00234FF0B2
:10CCF80001090A22D9B2884503D902FB09F901338F
:10CD0800F8E74846FCF726FB32463B46FCF78CFB27
:10CD180006460F46FCF7C0FE8A4605468B46FCF7DA
:10CD28004DFB02460B4630463946FCF7C5F9002252
:10CD3800134BFCF7FFFD10B101354AF1000B4A46D1
:10CD480028465946D317FCF78FFE0123154621467E
:10CD58000A2200F070FAB8F1000F0ED02046FDF755
:10CD68003BF82E23211823540A2243462846013132
:10CD780001B0BDE8F04F00F05EBA01B0BDE8F08F39
:10CD88000000E03F10B504460068FEF74BF8204667
:10CD980010BD10B50446006808B1FEF743F800233B
:10CDA800C4E90133236010BD38B504460D46006858
:10CDB8000131FEF745F810B1C4E90005012038BD7E
:10CDC80010B50368044623B143688B4201D30120A0
:10CDD80010BD2046FFF7E8FF0028F9D0A368002B14
:10CDE800F5D122681370F2E737B50D461146019266
:10CDF8000446FFF7E5FF019A28B92046FFF7C9FF67
:10CE0800204603B030BD2946A260206801F0A2FF89
:10CE180000212268A368D154F2E738B505460068B6
:10CE28000C4670B16A688B689A4208D3096831B1B8
:10CE380002F005F8A368AB600023A36038BDFDF7D6
:10CE4800F1FF23682B6063686B60A368AB60002305
:10CE5800C4E90033F1E7002310B50446C0E9003304
:10CE680083600373FFF7D9FF204610BD884210B5D1
:10CE7800044605D00B682BB18A681946FFF7B4FF42
:10CE8800204610BDFFF785FFFAE7002310B50446DA
:10CE9800C0E9003383600373FFF7E8FF204610BD45
:10CEA80013B5044659B108460191FCF795FF01995D
:10CEB80002462046FFF798FF204602B010BDFFF754
:10CEC80068FFF9E710B5002304468AB0C4E90033C7
:10CED800A3602373084601A900F0D2F9204601A9EE
:10CEE800FFF7DEFF20460AB010BD30B50023044628
:10CEF8008BB0C4E90033A360237310EE100ACDB2DF
:10CF0800FCF73AFA41EC100B284601A9FFF7DAFEC4
:10CF1800204601A9FFF7C4FF20460BB030BD70B50D
:10CF280005460E4609B9002070BD6AB184681444EC
:10CF38002146FFF745FF0028F5D02868AB68314641
:10CF4800184401F07CFFAC600120EDE710B58A6859
:10CF580009680446FFF7E3FF10B92046FFF719FFF9
:10CF6800204610BD13B5044629B92046FFF711FF26
:10CF7800204602B010BD08460191FCF72DFF01992B
:10CF880002462046FFF7CBFF0028EED0F0E700006E
:10CF980002220020044B1A60044B054AC3E9000032
:10CFA8009A60FDF7FDBD00BFC0AE0710B4AE071014
:10CFB8000000FFFF024B1A68024B1A60704700BF5F
:10CFC800ACAD0710C4AE071070474174704708B580
:10CFD800007CFDF705FD20EAE07008BD08B5007C7F
:10CFE800FDF7B8FC20EAE07008BD08B5007CFDF745
:10CFF800CDFC40EAE07008BD08B5007CFDF7B8FC40
:10D0080040EAE07008BD007CFDF7CEBC37B5457C32
:10D0180004462DB1207C03B0BDE83040FDF78CBC40
:10D02800007C0191FDF7DCFC00280199F2DC284620
:10D0380003B030BD10B504461421FCF7F6FE2046B7
:10D0480010BD000010B54FF47A7304460846114627
:10D058000022C4E90123044B207423600123637474
:10D06800FDF7DAFC204610BD38FD3F020023007CA6
:10D07800FDF7C4BC0022FFF7F9BF007CFDF74EBCEA
:10D08800007CFDF79FBC417470477047704708B536
:10D098000021007CFDF714FD40EAE07008BD08B5EA
:10D0A8000121007CFDF70CFD40EAE07008BD08B5E1
:10D0B800007CFDF7F7FC20EAE07008BD08B5007CAD
:10D0C800FDF7E2FC20EAE07008BD13B50446007CD9
:10D0D8000191FDF7E7FC0028019901DC607C20B193
:10D0E800207CFDF7FBFC20EAE07002B010BD007C5C
:10D0F800FDF702BD10B504461421FCF796FE204644
:10D1080010BD000010B54FF47A730446084600219C
:10D11800C4E90113044B207423600123114663748E
:10D12800FDF788FC204610BD68FD3F020022007C08
:10D13800FDF78EBC007CFDF799BC007CFDF7EABCCE
:10D1480010B504461422002101F02BFE204610BD24
:10D1580010B588B003A8FFF7F3FF0C4CD4E88F1F75
:10D1680011F001010FD120460191FCF76DFE0199E4
:10D1780048B103AA0648FFF7C5FF2046FCF769FE39
:10D18800044801F0D9FD024808B010BDC8AE071028
:10D19800CCAE071053DA3F02002240681146FDF773
:10D1A800B5BD002240681146FDF7E8BD0022406881
:10D1B8001146FDF7FFBD00224068FDF7EDBD0022D6
:10D1C800406881F00101FDF7CBBD002340681A4695
:10D1D8001946FDF7B7BD002340681A461946FDF702
:10D1E800A3BD002240681146FDF774BD002202214C
:10D1F8004068FDF77DBD002340681A46FDF75CBD19
:10D208000422024B5A60024A1A607047E0AE0710C7
:10D2180098FD3F0210B50446FCF7DEFD01382318DF
:10D228002046834206D90278197800F8011B03F8D2
:10D238000129F6E710BD70B50C46911E22291DD8AC
:10D24800254630B9302223449D4210D205F8012BDF
:10D25800FAE7B0FBF2F602FB1600C1B2092894BF48
:10D2680030315731C9B2304605F8011BE9E70023D0
:10D2780020462B70FFF7CEFF204670BD0020FCE74C
:10D2880038B5031E0C4615460DDA2D22B3F1004FB2
:10D298000CBF1846584201230A702A461944FFF762
:10D2A800CAFF204638BD0123F9E70000014B18608A
:10D2B800704700BFB4AD071008B50F4B43B1FFF777
:10D2C80047FF03681B699847002801DD00E000BF9D
:10D2D8000A4B43B100F06AF903681B6998470028B4
:10D2E80001DD00E000BF064B0BB100F0A5F9054BCE
:10D2F8000BB100F0D7F908BD0000000000000000E5
:10D30800000000000000000008B5FFF7D5FFFDF79A
:10D31800D1F9014B186008BDF0AE07100548064A60
:10D3280008B5121A054901F015FD054B054A1A60A2
:10D3380008BD00BF00B4071004B40710ACF65F08BE
:10D3480000B407101E1C279A002307B51A466FF071
:10D3580077010093FDF76AFC03B05DF804FB000059
:10D3680007B543880A2B08D0502B0BD1094B1B68F3
:10D378004BB103B05DF804EB1847FFF7E5FF03B0C6
:10D388005DF804FB00231A466FF077010093FDF760
:10D398004DFCF4E7ECAE0710002110B51148FDF77D
:10D3A800A3FD114B1A68114B9A420CBF01220022AF
:10D3B8000F4B1A7001D0FFF7B1FFFDF75FF9044674
:10D3C80001F0F8FC0B4B13B1204600E000BF002130
:10D3D8000848FDF763FCBDE8104000210648FDF74A
:10D3E80017BC00BF75DC3F0200B407101E1C279A4B
:10D3F800E8AE07100000000029DD3F021B2837B502
:10D40800044602D9002003B030BDA0F10F03022B5F
:10D418000BD9012821D800F075F80021007CFDF710
:10D42800D5F980F00100C0B2EDE7114DD5E88F1FA6
:10D4380011F001010BD128460191FCF705FD019976
:10D4480028B10C48FFF706FC2846FCF702FD094BFB
:10D458001878FDF739FA0028D4D1083C012C05D8F2
:10D4680000F0A4F8007CFDF7ADFADAE70120CAE77E
:10D478004CAE071050AE07101B2838B504460D46B1
:10D488000AD8FF2908D0FFF7B9FF28B12946204656
:10D49800BDE83840FDF72AB938BD38B504460D4611
:10D4A800FDF732F9FF2810D0062804D84D2323FAB7
:10D4B80000F0C30709D42046FFF7A0FF28B129468A
:10D4C8002046BDE83840FDF72DB938BD704700004B
:10D4D80038B50A4B044603600123094943612020FB
:10D4E80000F0F6F82025606005492846A56000F0A0
:10D4F800EFF8C4E90305204638BD00BF1800010055
:10D50800CCFD3F0230B50E4D87B0D5E88F1F11F026
:10D51800010411D12846FCF797FC68B16846FFF76B
:10D52800D7FF6A4621460748FEF762F82846FCF707
:10D5380090FC054801F000FC024807B030BD00BF70
:10D54800F4AE0710F8AE071095DE3F0270470000F2
:10D5580038B5142504462A46002101F022FC25800E
:10D568004025074928462581258200F0B1F804495D
:10D578006060284600F0ACF8E060204638BD00BF87
:10D58800CCFD3F027047704710B50446FFF7E0FF37
:10D59800204610BD10B50446FFF7DAFF204610BD3F
:10D5A80010B50446FFF7D4FF204610BD30B50E4D28
:10D5B80087B0D5E88F1F11F0010411D12846FCF778
:10D5C80043FC68B101A8FFF7DFFF214601AA07481D
:10D5D800FFF738FD2846FCF73CFC054801F0ACFB9A
:10D5E800024807B030BD00BF0CAF071018AF0710D6
:10D5F80015DF3F0210B50D4C86B0D4E88F3FDB072E
:10D6080011D42046FCF720FC68B101A8FFF7C2FF3F
:10D61800012101AA0648FFF715FD2046FCF719FC71
:10D62800044801F089FB024806B010BD10AF07108E
:10D638002CAF07104FDF3F0210B5FFF7DBFF074B9A
:10D64800044653B1FFF71CFD38B1236820461B6917
:10D658009847002801DD00E000BF10BD0000000071
:10D6680010B50D4C86B0D4E88F3FDB0711D42046A7
:10D67800FCF7EAFB68B101A8FFF792FF022101AAB3
:10D688000648FFF7DFFC2046FCF7E3FB044801F0FF
:10D6980053FB024806B010BD14AF071040AF071087
:10D6A8004DDF3F0210B5FFF7DBFF074B044653B1D0
:10D6B800FFF7E6FC38B1236820461B699847002825
:10D6C80001DD00E000BF10BD00000000FCF7A9BBB1
:10D6D800FCF7A9BB08B5FDF7CFFB000000F00CB9BB
:10D6E800F8B52DED028B57EC106B55EC114B00F093
:10D6F800D7F9634BB0EE408AF0EE608A93F90030B8
:10D7080001332AD022462B4620462946FCF726F923
:10D7180018BB32463B4630463946FCF71FF900280D
:10D7280044D10022002330463946FCF7E5F8D8B149
:10D738000022002320462946FCF7DEF800283DD1C8
:10D7480045EC104B01F0B2F938B1204629460022C9
:10D758000023FCF7DBF800285CD1B0EE480AF0EEB5
:10D76800680ABDEC028BF8BDB0EE480AF0EE680A14
:10D7780001F09CF958B30022002351EC180BFCF778
:10D78800BBF80028E9D047EC106B01F08FF90028AE
:10D79800E3D045EC104B01F089F90028DDD0FDF706
:10D7A80087FB22239FED2E8B0360D6E72046294670
:10D7B80000220023FCF7A0F80028CED09FED2A8B8A
:10D7C800B0EE480AF0EE680ABDEC028BF8BD47ECF3
:10D7D800106B01F06BF90028CDD045EC104B01F02F
:10D7E80065F90028C7D018EE100A53EC182B194613
:10D7F800FCF7B4F820BBFDF75BFB22220346394651
:10D8080030461A6000220023FCF780F848B99FEDE3
:10D81800188BA2E7FDF74CFB21239FED178B0360C4
:10D828009BE745EC104B01F057F922462B4651EC8B
:10D83800100BFCF761F80028E9D19FED0F8B8CE7FE
:10D84800FDF736FB0022002321210160104619460E
:10D85800FBF714FF41EC180B7FE700BFAFF3008024
:10D868000000000000000000000000000000F03F81
:10D87800000000000000F07F000000000000F0FF42
:10D88800B0AD071038B52DED028B55EC104B00F0FC
:10D8980099FE184BB0EE408AF0EE608A93F900309A
:10D8A80001330DD022462B4620462946FCF756F870
:10D8B80030B90022002320462946FCF727F830B962
:10D8C800B0EE480AF0EE680ABDEC028B38BDFDF7F1
:10D8D800EFFA002200232121016010461946FBF7C8
:10D8E800CDFE41EC180BB0EE480AF0EE680ABDEC2C
:10D8F800028B38BDB0AD071051EC110B43422DE936
:10D90800F047034321F0004E614E4EEAD373B34211
:10D9180055EC104B3CD8634225F0004AA9462343F6
:10D928004AEAD373B34233D85A4B0B4403433ED02D
:10D938008F175AEA040307F0020747EAD5772FD072
:10D948005EEA000337D0B64544D0B24533D0AAEBDF
:10D958000E0EBEF1747F4FEA2E5338DA00296ADAC8
:10D968003C3368DA9FED3C0B012F50D0022F3DD09D
:10D97800A7B151EC100B3AA3D3E90023FBF79CFBAA
:10D9880039A3D3E90023FBF797FB41EC100B05E023
:10D9980022462B46FBF792FB41EC100BBDE8F087C3
:10D9A800022F0ED0032FF9D19FED310BF6E7BDE81A
:10D9B800F04700F0C9BEB9F1000F05DB9FED2E0B53
:10D9C800ECE79FED290BE9E79FED2D0BE6E79FEDCF
:10D9D8002A0BC9E7F24507F1FF3721D0022F27D8D4
:10D9E8002D4B03EBC70797ED000BD7E71CA3D3E933
:10D9F800002351EC100BFBF75FFB02460B461AA104
:10DA0800D1E90001FBF758FB41EC100BC6E710EE1B
:10DA1800901A53EC102B01F1004343EC102BBDE797
:10DA2800022F15D81D4B03EBC70797ED000BB5E781
:10DA38009FED090BB2E702460B4620462946FBF745
:10DA48001DFE41EC100B01F027F800F07DFE8BE77E
:10DA58009FED0D0BA2E700BF0000000000000000D2
:10DA6800075C143326A6A13C182D4454FB21094019
:10DA7800182D4454FB2109C0182D4454FB21F93FAB
:10DA8800182D4454FB21F9BF182D4454FB21E93FBC
:10DA98000000F07F000010C0E8FD3F02D0FD3F020B
:10DAA8002DE9F04F55EC114B25F0004A5AEA0402D3
:10DAB8002DED0C8B87B01FD05D4910EE102A57EC66
:10DAC800106B27F00048B946884511DCAB4611EECB
:10DAD800103A08D13EB1574807B0BDEC0C8BBDE8F1
:10DAE800F04F00F0F1BF52498A4501DC0BD153B128
:10DAF800514B43441343EED19FED490B07B0BDECA6
:10DB08000C8BBDE8F08FB9F1000F45DB00210091C7
:10DB180083B9474B9A455BD0484B9A456AD0BBF1CD
:10DB2800804F00F0B084464B9B4503D1B9F1000FFC
:10DB380080F20D85029247EC106B00F0ADFF029A5F
:10DB48004AB929F040433D4A934200F0A883B8F10E
:10DB5800000F00F0A4834FEAD973009A013B0493A5
:10DB680013434ED0374B9A4572DD03F104739A453F
:10DB7800354B40F32B84984540F3A983BBF1000F44
:10DB880040F3A98328A3D3E9002310461946FBF7DD
:10DB98004BFC41EC100BB1E72C498A4527DCA1F17D
:10DBA80054718A45B2DD4FEA2A51A1F2FF31142996
:10DBB80040F37D84C1F1340123FA01F000FA01F148
:10DBC8009942A3D100F00100C0F1020100919FE742
:10DBD800194B434413438FD01B4B984540F3AB83F9
:10DBE800BBF1000FC0F2778345EC104B86E70221AA
:10DBF80000918DE7BBF1000FC0F24F8447EC106B2A
:10DC08007CE732463B4610461946FBF755FA024672
:10DC18000B46FBF733FD41EC100B6FE7AFF30080C9
:10DC2800000000000000F03F9C7500883CE4377E4F
:10DC38000000F07F00FE3F02000010C00000F03F2F
:10DC48000000E03F0000E041FFFFEF3FFFFF3F43E0
:10DC5800E34B002209EA030353B9E24B51EC100BE2
:10DC6800FBF7E2FB6FF0340241EC100B10EE908AE8
:10DC78004FEA2853C8F31308DB4EA3F2FF3348EAF0
:10DC880006069A18D94B9845059207DDD84B984552
:10DC980040F333840132A6F58016059200279FEDE4
:10DCA800B87B9FEDB96BB0EE47DAF0EE67DAB0EE0D
:10DCB80047CAF0EE67CA51EC160B53EC102B3346EB
:10DCC800761043EC192B41EC1A0B02460B4646F032
:10DCD800005651EC190BFBF7EFF98046894653ECD7
:10DCE8001A2B51EC190BFBF7E9F902460B460020F9
:10DCF800BD49FBF7C3FC41EC1B0B53EC1B2B404607
:10DD08004946FBF791FB0A4606F5002341EC180B40
:10DD180001460020CDE90212002106460246029182
:10DD2800D919DDE902AB0F460B4650465946FBF7B9
:10DD38007BFB02460B4640464946FBF7BDF9804649
:10DD480089463046394653EC1A2BFBF7B5F902469B
:10DD58000B4651EC190BFBF7AFF952465B46FBF744
:10DD680063FB02460B4640464946FBF7A5F953ECD0
:10DD78001B2BFBF759FB53EC182B41EC1A0B51ECFE
:10DD8800180BFBF751FB06460F4681A3D3E9002386
:10DD9800FBF74AFB80A3D3E90023FBF78FF9324650
:10DDA8003B46FBF741FB7EA3D3E90023FBF786F94B
:10DDB80032463B46FBF738FB7BA3D3E90023FBF74E
:10DDC8007DF932463B46FBF72FFB79A3D3E90023C5
:10DDD800FBF774F932463B46FBF726FB76A3D3E9FB
:10DDE8000023FBF76BF98046894632463B463046AE
:10DDF8003946FBF719FB02460B46404649464FF0A9
:10DE08000008FBF711FB524606460F465B4651ECED
:10DE1800180BFBF753F953EC1A2BFBF705FB3246AB
:10DE28003B46FBF74BF952465B4641EC190B504613
:10DE38005946FBF7F9FA00226E4B06460F46FBF7E8
:10DE48003DF953EC192BFBF739F989464246504600
:10DE58004B465946FBF7E8FA002282468B46654B4B
:10DE680040464946FBF728F932463B46FBF724F97A
:10DE780002460B4651EC190BFBF71EF953EC182B15
:10DE8800FBF7D2FA06460F4642464B4651EC1A0BB0
:10DE9800FBF7CAFA02460B4630463946FBF70EF93D
:10DEA800804689465046424659464B46FBF706F996
:10DEB80000200F46064642A3D3E90023FBF7B4FA35
:10DEC80052465B4641EC190B30463946FBF7F4F8ED
:10DED80002460B4640464946FBF7EEF83AA3D3E91B
:10DEE8000023FBF7A1FA804689463046394638A315
:10DEF800D3E90023FBF798FA02460B464046494609
:10DF0800FBF7DCF853EC1C2BFBF7D8F806460F465A
:10DF18000598FBF71FFA3246804689463B4651EC86
:10DF2800190BFBF7CBF853EC1D2BFBF7C7F8424650
:10DF38004B46FBF7C3F8002042464B4682468B46C9
:10DF4800FBF7BAF853EC1D2BFBF7B6F853EC192B7B
:10DF5800FBF7B2F802460B4630463946FBF7ACF8F9
:10DF6800009B049A013B134341EC180B40F0DC8101
:10DF78009FED197BB0EE479AF0EE679A3CE000BF40
:10DF88000000000000000000000000000000F03F5A
:10DF9800EF4E454A287ECA3F65DBC9934A86CD3F86
:10DFA80001411DA96074D13F4D268F515555D53F6C
:10DFB800FFAB6FDBB66DDB3F033333333333E33F04
:10DFC800000000E009C7EE3FFD033ADC09C7EE3F59
:10DFD800F5015B14E02F3EBE000000000000F0BF1A
:10DFE8000000F07F000040430000F03F8E980300DF
:10DFF80079B60B0000000840002320462946CDE9E9
:10E0080000450093DDE9008942464B46FBF754F88A
:10E018005B465246FBF708FA06460F4622462B4651
:10E0280051EC180BFBF700FA02460B46304639460E
:10E03800FBF744F8424604460D464B4659465046BF
:10E04800A046FBF7F1F906460F4620462946324618
:10E058003B46A946FBF732F8D54B04460D46994294
:10E068008B4640F33B81D34B0B44034340F035824E
:10E0780040464946B6A3D3E90023FBF71FF83246CA
:10E088003B4641EC180B20462946FBF715F802469B
:10E098000B4651EC180BFBF757FC002840F01D828B
:10E0A800CBF30A534FF48012A3F2FE33C24CBBF1F8
:10E0B800000F42FA03F34FF000005B44C3F30A5227
:10E0C800C3F3130AA2F2FF324AF4801A44FA02F4A4
:10E0D800C2F1140223EA04014AFA02FA024630465F
:10E0E8000B46B8BFCAF1000A3946FAF7E5FF0246FF
:10E0F8000B4606460F46404649464FEA0A5BFAF782
:10E10800DDFF0D460024294693A3D3E900232046CA
:10E11800FBF78AF932463B4606460F462046294613
:10E12800FAF7CAFF02460B4640464946FAF7C4FFCB
:10E138008BA3D3E90023FBF777F98046894620466D
:10E14800294689A3D3E90023FBF76EF902460B465B
:10E1580040464946FAF7B2FF80468946304642466D
:10E1680039464B46FAF7AAFF324604460D463B4667
:10E17800FAF7A2FF02460B4640464946FAF79CFFCB
:10E188002246804689462B4620462946FBF74CF90D
:10E1980006460F4676A3D3E90023FBF745F976A395
:10E1A800D3E90023FAF788FF32463B46FBF73CF9F0
:10E1B80073A3D3E90023FAF781FF32463B46FBF706
:10E1C80033F971A3D3E90023FAF776FF32463B46C9
:10E1D800FBF72AF96EA3D3E90023FAF76FFF32465B
:10E1E8003B46FBF721F902460B4620462946FAF73B
:10E1F80063FF06460F462046324629463B46FBF754
:10E2080013F900224FF0804341EC180B3046394691
:10E21800FAF752FF02460B4651EC180BFBF72EFAA1
:10E22800424606460F464B4620462946FBF7FCF871
:10E2380042464B46FAF742FF02460B4630463946FD
:10E24800FAF73AFF22462B46FAF736FF02460B4604
:10E2580000205A49FAF730FF8B4402460B46BBF5BB
:10E26800801FC0F26C81594653EC192BFBF7DCF880
:10E2780041EC100B42E447EC106B009200F00CFCF0
:10E28800009A002A7FF4BDAC29F040434B4A9342E0
:10E2980003D0B8F1000F7FF4B4AC00230093BBF1B6
:10E2A800000F07DA0020454953EC102BFBF7E6F97D
:10E2B80041EC100BB9F1000FBFF620AC404B009AAF
:10E2C8004344134340F02D8153EC102B9BE4BBF1E6
:10E2D800000FFFF657AC9FED300B0FE421F0004321
:10E2E800DFF8E4C0634540F3F080364B0B4403434A
:10E2F8000AD132463B46FAF7DFFE42464B46FBF769
:10E3080019FB00283FF4CCAE25A3D3E9002351EC38
:10E31800190BFBF789F822A3D3E90023FBF784F84C
:10E3280041EC100BFFF7EABB9FED1F7BB0EE479A5D
:10E33800F0EE679A60E6BBF1000FCCDA05F1004316
:10E3480000EE104A00EE903AFFF7D8BBAFF300801A
:10E35800FE822B654715973C00000000432EE63FE0
:10E36800EF39FAFE422EE63F396CA80C615C20BEFC
:10E37800D0A4BE726937663EF16BD2C541BDBB3EC3
:10E388002CDE25AF6A56113F93BDBE166CC1663FA1
:10E398003E5555555555C53F00000000000000008A
:10E3A80059F3F8C21F6EA501000000000000F03FFD
:10E3B800FFFF8F40000070BFFFFF0F000000F03F1D
:10E3C800000010C000346F3FFFCB90409845FFF627
:10E3D8007EAF794B98453FF7D1AB0022764B51EC95
:10E3E800100BFAF769FE06460F4663A3D3E900232C
:10E3F800FBF71AF882468B463046394660A3D3E9C4
:10E408000023FBF711F800226C4B41EC180B304647
:10E418003946FBF709F802460B465BA1D1E9000132
:10E42800FAF74AFE32463B46FAF7FEFF02460B462B
:10E4380000206349FAF740FE8046894632463B464B
:10E4480030463946FAF7F0FF02460B464046494641
:10E45800FAF7EAFF4EA3D3E90023FAF7E5FF0246ED
:10E468000B4651EC180BFAF727FE06460F465046A6
:10E47800594632463B46FAF721FE002052465B4693
:10E4880082468B4664E532463B4630463946FAF7C3
:10E49800CBFF41EC100BFFF731BB00204649324659
:10E4A8003B46FBF7EBF841EC100BFFF727BB002BC3
:10E4B8007FF4E1AEC1F114014AFA01F000FA01F16A
:10E4C80051454DD00093FFF727BB3D4A93424EDCA0
:10E4D800DDE900239346924614E62FA3D3E90023EF
:10E4E80051EC190BFAF7A0FF2BA3D3E90023FAF795
:10E4F8009BFF41EC100BFFF701BB9FED297B4FF40D
:10E508008027B0EE47DAF0EE67DA9FED277BB0EEB2
:10E5180047CAF0EE67CA9FED267B51EC170BFFF751
:10E52800CCBB009B012B7FF4E9AA10EE901A10EEE9
:10E53800102A01F1004343EC102BFFF7DFBA5046D5
:10E5480043EC102B00F064FB51EC100B8CE647EC0D
:10E55800106B07B0BDEC0C8BBDE8F04F00F032B883
:10E5680000F00100C0F102030093FFF7D5BA1B15B4
:10E5780098E500BFAFF30080000000604715F73F43
:10E5880044DF5DF80BAE543E555555555555D53FAE
:10E59800FE822B654715F73F9C7500883CE4377E63
:10E5A8000000004003B8E23F06D0CF43EBFD4C3EED
:10E5B800000000000000F83F0000F03F0000D03FDE
:10E5C8000000E03F5E492DE9F04155EC104BA943AE
:10E5D80000F09480002D2B4610EE102A5ADD2815E5
:10E5E80067D0C3F31303C107A0F2FF3743F48013C6
:10E5F80003D45B0003EBD2735200D10F00267F10C7
:10E608004FF0160C01EB4303B64652004FF40011CD
:10E618000EEB0100984203DC1B1A00EB010E0E44BE
:10E628005B00BCF1010C4FEA510103EBD2734FEAD6
:10E638004202EDD1654620244FF0004114E00AD192
:10E64800904208D8002800EB010C1DDBF04600239F
:10E65800121A0D44C646D00F013C4FEA510100EB97
:10E6680043034FEA420233D0734501EB0C00E6DD69
:10E67800002800EB010C07DBF046A3EB0E039042E9
:10E6880088BF03F1FF33E3E7BCF1000FF4DB0EF1C1
:10E698000108F2E725F00041214328D0002D3DD1A3
:10E6A8002846D10A153852050B460029F9D0CF0261
:10E6B80041D400245B0025460134DE02FAD5194610
:10E6C8001346A240C4F12004E340401B0B4388E7F3
:10E6D80013430ED16C08F3071A4948BF44F00044AD
:10E6E80001EB6601224601EB075343EC102BBDE812
:10E6F800F0816A1C1DD06C1C6408ECE710EE102A2F
:10E708002B4610EE100A2946FAF78EFE22462B46B3
:10E71800FAF7D4FC41EC100BBDE8F08120462946FD
:10E72800FAF7CAFC02460B46FAF7A8FF41EC100BB1
:10E73800DDE70136CFE7134620244FF0FF35C3E766
:10E748000000F07F0000E03F2DE9F84F55EC104B3A
:10E75800C74B25F00046AA469E4216DDC54B9E4291
:10E7680001DC0AD14CB122462B4620462946FAF74D
:10E77800A5FC41EC100BBDE8F88FBAF1000F40F38F
:10E78800BF809FED9F0BBDE8F88FBB4B9E4200F307
:10E79800BA80A3F1DE739E4240F3A0804FF0FF3BA6
:10E7A80022462B4620462946FAF73EFE02460B46ED
:10E7B80080468946FAF738FE06460F4692A3D3E903
:10E7C8000023FAF731FE92A3D3E90023FAF776FC87
:10E7D80032463B46FAF728FE8FA3D3E90023FAF71F
:10E7E8006DFC32463B46FAF71FFE8DA3D3E90023A2
:10E7F800FAF764FC32463B46FAF716FE8AA3D3E9D9
:10E808000023FAF75BFC32463B46FAF70DFE88A375
:10E81800D3E90023FAF752FC42464B46FAF704FEC6
:10E82800804689463046394683A3D3E90023FAF760
:10E83800FBFD83A3D3E90023FAF73EFC32463B46AF
:10E84800FAF7F2FD80A3D3E90023FAF735FC324644
:10E858003B46FAF7E9FD7EA3D3E90023FAF72CFC3F
:10E8680032463B46FAF7E0FD7BA3D3E90023FAF7EB
:10E8780023FC32463B46FAF7D7FDBBF1FF3F024681
:10E888000B464046494663D07C4EFAF717FC2246B1
:10E898002B46FAF7C9FD7A4B06EBCB064FEACB0BB2
:10E8A8009B44DBE90023FAF707FC22462B46FAF7DC
:10E8B80003FC02460B46D6E90001FAF7FDFBBAF164
:10E8C800000F41EC100BBFF656AF10EE901A02463F
:10E8D80001F1004343EC102BBDE8F88F60A3D3E9A6
:10E8E800002310EE100A2946FAF7E8FB0022654BD0
:10E8F800FBF72AF800283FF451AF45EC104B3AE7F4
:10E908009FED590B37E700F0C7F85F4B9E4255EC77
:10E91800104B2DDCA3F550239E4258DD0022594BA5
:10E9280010EE100A2946FAF7C7FB4FF0010B06460E
:10E938000F46204629460022524BFAF7BFFB0246F3
:10E948000B4630463946FAF799FE04460D4627E746
:10E95800FAF7B4FB22462B46FAF766FD02460B4649
:10E9680020462946FAF7A8FB41EC100BBDE8F88FC2
:10E97800464B9E421FDA10EE100A0022444B2946ED
:10E98800FAF79AFB02460B462046294614461D46CE
:10E9980000223F4B4FF0020BFAF746FD0022394B9D
:10E9A800FAF78CFB02460B4620462946FAF766FE24
:10E9B80004460D46F4E62B460020364910EE102A90
:10E9C800FAF75CFE4FF0030B04460D46E8E610EE3E
:10E9D800102A2B4610EE100A2946FAF76FFB002280
:10E9E800284B4FF0000BFAF767FB002206460F464C
:10E9F800204629464FF080439FE700BFAFF30080D1
:10EA0800182D4454FB21F93F11DA22E33AAD903F27
:10EA1800EB0D76244B7BA93F513DD0A0660DB13F4D
:10EA28006E204CC5CD45B73FFF8300922449C23FB5
:10EA38000D5555555555D53F2F6C6A2C44B4A2BF7A
:10EA48009AFDDE522DDEAD3F6D9A74AFF2B0B33F42
:10EA5800711623FEC671BC3FC4EB98999999C93FBA
:10EA68009C7500883CE4377E182D4454FB21F9BF7F
:10EA7800FFFF0F440000F07FFFFFDB3F08FE3F026F
:10EA880028FE3F020000F03FFFFFF23F00800340F6
:10EA98000000F83F0000F0BF51EC100B10EE102AF8
:10EAA80021F0004343EC102B704700BF82B00548AB
:10EAB8008DED000B019B23F000431844C00F02B0FA
:10EAC800704700BF000010809FED010B704700BF2A
